{
	"contracts/MalBanco.sol": {
		"MalBanco": {
			"abi": [
				{
					"anonymous": false,
					"inputs": [
						{
							"indexed": false,
							"internalType": "address",
							"name": "from",
							"type": "address"
						},
						{
							"indexed": false,
							"internalType": "uint256",
							"name": "amount",
							"type": "uint256"
						}
					],
					"name": "Deposited",
					"type": "event"
				},
				{
					"anonymous": false,
					"inputs": [
						{
							"indexed": false,
							"internalType": "address",
							"name": "to",
							"type": "address"
						},
						{
							"indexed": false,
							"internalType": "uint256",
							"name": "amount",
							"type": "uint256"
						}
					],
					"name": "Extracted",
					"type": "event"
				},
				{
					"inputs": [],
					"name": "deposit",
					"outputs": [],
					"stateMutability": "payable",
					"type": "function"
				},
				{
					"inputs": [
						{
							"internalType": "uint256",
							"name": "amount",
							"type": "uint256"
						}
					],
					"name": "extract",
					"outputs": [],
					"stateMutability": "nonpayable",
					"type": "function"
				},
				{
					"inputs": [],
					"name": "getBalance",
					"outputs": [
						{
							"internalType": "uint256",
							"name": "balance_",
							"type": "uint256"
						}
					],
					"stateMutability": "view",
					"type": "function"
				}
			],
			"devdoc": {
				"kind": "dev",
				"methods": {},
				"version": 1
			},
			"evm": {
				"assembly": "    /* \"contracts/MalBanco.sol\":118:1166  contract MalBanco{... */\n  mstore(0x40, 0x80)\n  callvalue\n  dup1\n  iszero\n  tag_1\n  jumpi\n  revert(0x00, 0x00)\ntag_1:\n  pop\n  dataSize(sub_0)\n  dup1\n  dataOffset(sub_0)\n  0x00\n  codecopy\n  0x00\n  return\nstop\n\nsub_0: assembly {\n        /* \"contracts/MalBanco.sol\":118:1166  contract MalBanco{... */\n      mstore(0x40, 0x80)\n      jumpi(tag_1, lt(calldatasize, 0x04))\n      shr(0xe0, calldataload(0x00))\n      dup1\n      0x12065fe0\n      eq\n      tag_2\n      jumpi\n      dup1\n      0x85b39782\n      eq\n      tag_3\n      jumpi\n      dup1\n      0xd0e30db0\n      eq\n      tag_4\n      jumpi\n    tag_1:\n      revert(0x00, 0x00)\n        /* \"contracts/MalBanco.sol\":1050:1159  function getBalance() external view returns(uint balance_) {... */\n    tag_2:\n      callvalue\n      dup1\n      iszero\n      tag_5\n      jumpi\n      revert(0x00, 0x00)\n    tag_5:\n      pop\n      tag_6\n      tag_7\n      jump\t// in\n    tag_6:\n      mload(0x40)\n      tag_8\n      swap2\n      swap1\n      tag_9\n      jump\t// in\n    tag_8:\n      mload(0x40)\n      dup1\n      swap2\n      sub\n      swap1\n      return\n        /* \"contracts/MalBanco.sol\":497:1042  function extract(uint amount) public {... */\n    tag_3:\n      callvalue\n      dup1\n      iszero\n      tag_10\n      jumpi\n      revert(0x00, 0x00)\n    tag_10:\n      pop\n      tag_11\n      0x04\n      dup1\n      calldatasize\n      sub\n      dup2\n      add\n      swap1\n      tag_12\n      swap2\n      swap1\n      tag_13\n      jump\t// in\n    tag_12:\n      tag_14\n      jump\t// in\n    tag_11:\n      stop\n        /* \"contracts/MalBanco.sol\":286:489  function deposit() public payable {... */\n    tag_4:\n      tag_15\n      tag_16\n      jump\t// in\n    tag_15:\n      stop\n        /* \"contracts/MalBanco.sol\":1050:1159  function getBalance() external view returns(uint balance_) {... */\n    tag_7:\n        /* \"contracts/MalBanco.sol\":1094:1107  uint balance_ */\n      0x00\n        /* \"contracts/MalBanco.sol\":1131:1139  balances */\n      0x00\n        /* \"contracts/MalBanco.sol\":1131:1151  balances[msg.sender] */\n      0x00\n        /* \"contracts/MalBanco.sol\":1140:1150  msg.sender */\n      caller\n        /* \"contracts/MalBanco.sol\":1131:1151  balances[msg.sender] */\n      0xffffffffffffffffffffffffffffffffffffffff\n      and\n      0xffffffffffffffffffffffffffffffffffffffff\n      and\n      dup2\n      mstore\n      0x20\n      add\n      swap1\n      dup2\n      mstore\n      0x20\n      add\n      0x00\n      keccak256\n      sload\n        /* \"contracts/MalBanco.sol\":1120:1151  balance_ = balances[msg.sender] */\n      swap1\n      pop\n        /* \"contracts/MalBanco.sol\":1050:1159  function getBalance() external view returns(uint balance_) {... */\n      swap1\n      jump\t// out\n        /* \"contracts/MalBanco.sol\":497:1042  function extract(uint amount) public {... */\n    tag_14:\n        /* \"contracts/MalBanco.sol\":562:563  0 */\n      0x00\n        /* \"contracts/MalBanco.sol\":553:559  amount */\n      dup2\n        /* \"contracts/MalBanco.sol\":553:563  amount > 0 */\n      gt\n        /* \"contracts/MalBanco.sol\":545:586  require(amount > 0, \"No podes extraer 0\") */\n      tag_19\n      jumpi\n      mload(0x40)\n      0x08c379a000000000000000000000000000000000000000000000000000000000\n      dup2\n      mstore\n      0x04\n      add\n      tag_20\n      swap1\n      tag_21\n      jump\t// in\n    tag_20:\n      mload(0x40)\n      dup1\n      swap2\n      sub\n      swap1\n      revert\n    tag_19:\n        /* \"contracts/MalBanco.sol\":615:623  balances */\n      0x00\n        /* \"contracts/MalBanco.sol\":615:635  balances[msg.sender] */\n      0x00\n        /* \"contracts/MalBanco.sol\":624:634  msg.sender */\n      caller\n        /* \"contracts/MalBanco.sol\":615:635  balances[msg.sender] */\n      0xffffffffffffffffffffffffffffffffffffffff\n      and\n      0xffffffffffffffffffffffffffffffffffffffff\n      and\n      dup2\n      mstore\n      0x20\n      add\n      swap1\n      dup2\n      mstore\n      0x20\n      add\n      0x00\n      keccak256\n      sload\n        /* \"contracts/MalBanco.sol\":605:611  amount */\n      dup2\n        /* \"contracts/MalBanco.sol\":605:635  amount <= balances[msg.sender] */\n      gt\n      iszero\n        /* \"contracts/MalBanco.sol\":597:658  require(amount <= balances[msg.sender], \"Saldo insuficiente\") */\n      tag_22\n      jumpi\n      mload(0x40)\n      0x08c379a000000000000000000000000000000000000000000000000000000000\n      dup2\n      mstore\n      0x04\n      add\n      tag_23\n      swap1\n      tag_24\n      jump\t// in\n    tag_23:\n      mload(0x40)\n      dup1\n      swap2\n      sub\n      swap1\n      revert\n    tag_22:\n        /* \"contracts/MalBanco.sol\":680:692  bool success */\n      0x00\n        /* \"contracts/MalBanco.sol\":698:708  msg.sender */\n      caller\n        /* \"contracts/MalBanco.sol\":698:713  msg.sender.call */\n      0xffffffffffffffffffffffffffffffffffffffff\n      and\n        /* \"contracts/MalBanco.sol\":721:727  amount */\n      dup3\n        /* \"contracts/MalBanco.sol\":698:732  msg.sender.call{value: amount}(\"\") */\n      mload(0x40)\n      tag_25\n      swap1\n      tag_26\n      jump\t// in\n    tag_25:\n      0x00\n      mload(0x40)\n      dup1\n      dup4\n      sub\n      dup2\n      dup6\n      dup8\n      gas\n      call\n      swap3\n      pop\n      pop\n      pop\n      returndatasize\n      dup1\n      0x00\n      dup2\n      eq\n      tag_29\n      jumpi\n      mload(0x40)\n      swap2\n      pop\n      and(add(returndatasize, 0x3f), not(0x1f))\n      dup3\n      add\n      0x40\n      mstore\n      returndatasize\n      dup3\n      mstore\n      returndatasize\n      0x00\n      0x20\n      dup5\n      add\n      returndatacopy\n      jump(tag_28)\n    tag_29:\n      0x60\n      swap2\n      pop\n    tag_28:\n      pop\n        /* \"contracts/MalBanco.sol\":679:732  (bool success, ) = msg.sender.call{value: amount}(\"\") */\n      pop\n      swap1\n      pop\n        /* \"contracts/MalBanco.sol\":751:758  success */\n      dup1\n        /* \"contracts/MalBanco.sol\":743:782  require(success, \"Extraccion fallida.\") */\n      tag_30\n      jumpi\n      mload(0x40)\n      0x08c379a000000000000000000000000000000000000000000000000000000000\n      dup2\n      mstore\n      0x04\n      add\n      tag_31\n      swap1\n      tag_32\n      jump\t// in\n    tag_31:\n      mload(0x40)\n      dup1\n      swap2\n      sub\n      swap1\n      revert\n    tag_30:\n        /* \"contracts/MalBanco.sol\":819:825  amount */\n      dup2\n        /* \"contracts/MalBanco.sol\":795:803  balances */\n      0x00\n        /* \"contracts/MalBanco.sol\":795:815  balances[msg.sender] */\n      0x00\n        /* \"contracts/MalBanco.sol\":804:814  msg.sender */\n      caller\n        /* \"contracts/MalBanco.sol\":795:815  balances[msg.sender] */\n      0xffffffffffffffffffffffffffffffffffffffff\n      and\n      0xffffffffffffffffffffffffffffffffffffffff\n      and\n      dup2\n      mstore\n      0x20\n      add\n      swap1\n      dup2\n      mstore\n      0x20\n      add\n      0x00\n      keccak256\n      0x00\n        /* \"contracts/MalBanco.sol\":795:825  balances[msg.sender] -= amount */\n      dup3\n      dup3\n      sload\n      tag_33\n      swap2\n      swap1\n      tag_34\n      jump\t// in\n    tag_33:\n      swap3\n      pop\n      pop\n      dup2\n      swap1\n      sstore\n      pop\n        /* \"contracts/MalBanco.sol\":997:1026  Extracted(msg.sender, amount) */\n      0x69c169e5c85af54e1ca7e16608ccc812437821387924fb3353a7d053264ddaa0\n        /* \"contracts/MalBanco.sol\":1007:1017  msg.sender */\n      caller\n        /* \"contracts/MalBanco.sol\":1019:1025  amount */\n      dup4\n        /* \"contracts/MalBanco.sol\":997:1026  Extracted(msg.sender, amount) */\n      mload(0x40)\n      tag_35\n      swap3\n      swap2\n      swap1\n      tag_36\n      jump\t// in\n    tag_35:\n      mload(0x40)\n      dup1\n      swap2\n      sub\n      swap1\n      log1\n        /* \"contracts/MalBanco.sol\":534:1042  {... */\n      pop\n        /* \"contracts/MalBanco.sol\":497:1042  function extract(uint amount) public {... */\n      pop\n      jump\t// out\n        /* \"contracts/MalBanco.sol\":286:489  function deposit() public payable {... */\n    tag_16:\n        /* \"contracts/MalBanco.sol\":351:352  0 */\n      0x00\n        /* \"contracts/MalBanco.sol\":339:348  msg.value */\n      callvalue\n        /* \"contracts/MalBanco.sol\":339:352  msg.value > 0 */\n      gt\n        /* \"contracts/MalBanco.sol\":331:377  require(msg.value > 0, \"No podes depositar 0\") */\n      tag_38\n      jumpi\n      mload(0x40)\n      0x08c379a000000000000000000000000000000000000000000000000000000000\n      dup2\n      mstore\n      0x04\n      add\n      tag_39\n      swap1\n      tag_40\n      jump\t// in\n    tag_39:\n      mload(0x40)\n      dup1\n      swap2\n      sub\n      swap1\n      revert\n    tag_38:\n        /* \"contracts/MalBanco.sol\":414:423  msg.value */\n      callvalue\n        /* \"contracts/MalBanco.sol\":390:398  balances */\n      0x00\n        /* \"contracts/MalBanco.sol\":390:410  balances[msg.sender] */\n      0x00\n        /* \"contracts/MalBanco.sol\":399:409  msg.sender */\n      caller\n        /* \"contracts/MalBanco.sol\":390:410  balances[msg.sender] */\n      0xffffffffffffffffffffffffffffffffffffffff\n      and\n      0xffffffffffffffffffffffffffffffffffffffff\n      and\n      dup2\n      mstore\n      0x20\n      add\n      swap1\n      dup2\n      mstore\n      0x20\n      add\n      0x00\n      keccak256\n      0x00\n        /* \"contracts/MalBanco.sol\":390:423  balances[msg.sender] += msg.value */\n      dup3\n      dup3\n      sload\n      tag_41\n      swap2\n      swap1\n      tag_42\n      jump\t// in\n    tag_41:\n      swap3\n      pop\n      pop\n      dup2\n      swap1\n      sstore\n      pop\n        /* \"contracts/MalBanco.sol\":449:481  Deposited(msg.sender, msg.value) */\n      0x2da466a7b24304f47e87fa2e1e5a81b9831ce54fec19055ce277ca2f39ba42c4\n        /* \"contracts/MalBanco.sol\":459:469  msg.sender */\n      caller\n        /* \"contracts/MalBanco.sol\":471:480  msg.value */\n      callvalue\n        /* \"contracts/MalBanco.sol\":449:481  Deposited(msg.sender, msg.value) */\n      mload(0x40)\n      tag_43\n      swap3\n      swap2\n      swap1\n      tag_36\n      jump\t// in\n    tag_43:\n      mload(0x40)\n      dup1\n      swap2\n      sub\n      swap1\n      log1\n        /* \"contracts/MalBanco.sol\":286:489  function deposit() public payable {... */\n      jump\t// out\n        /* \"#utility.yul\":7:84   */\n    tag_44:\n        /* \"#utility.yul\":44:51   */\n      0x00\n        /* \"#utility.yul\":73:78   */\n      dup2\n        /* \"#utility.yul\":62:78   */\n      swap1\n      pop\n        /* \"#utility.yul\":7:84   */\n      swap2\n      swap1\n      pop\n      jump\t// out\n        /* \"#utility.yul\":90:208   */\n    tag_45:\n        /* \"#utility.yul\":177:201   */\n      tag_70\n        /* \"#utility.yul\":195:200   */\n      dup2\n        /* \"#utility.yul\":177:201   */\n      tag_44\n      jump\t// in\n    tag_70:\n        /* \"#utility.yul\":172:175   */\n      dup3\n        /* \"#utility.yul\":165:202   */\n      mstore\n        /* \"#utility.yul\":90:208   */\n      pop\n      pop\n      jump\t// out\n        /* \"#utility.yul\":214:436   */\n    tag_9:\n        /* \"#utility.yul\":307:311   */\n      0x00\n        /* \"#utility.yul\":345:347   */\n      0x20\n        /* \"#utility.yul\":334:343   */\n      dup3\n        /* \"#utility.yul\":330:348   */\n      add\n        /* \"#utility.yul\":322:348   */\n      swap1\n      pop\n        /* \"#utility.yul\":358:429   */\n      tag_72\n        /* \"#utility.yul\":426:427   */\n      0x00\n        /* \"#utility.yul\":415:424   */\n      dup4\n        /* \"#utility.yul\":411:428   */\n      add\n        /* \"#utility.yul\":402:408   */\n      dup5\n        /* \"#utility.yul\":358:429   */\n      tag_45\n      jump\t// in\n    tag_72:\n        /* \"#utility.yul\":214:436   */\n      swap3\n      swap2\n      pop\n      pop\n      jump\t// out\n        /* \"#utility.yul\":523:640   */\n    tag_47:\n        /* \"#utility.yul\":632:633   */\n      0x00\n        /* \"#utility.yul\":629:630   */\n      0x00\n        /* \"#utility.yul\":622:634   */\n      revert\n        /* \"#utility.yul\":769:891   */\n    tag_49:\n        /* \"#utility.yul\":842:866   */\n      tag_77\n        /* \"#utility.yul\":860:865   */\n      dup2\n        /* \"#utility.yul\":842:866   */\n      tag_44\n      jump\t// in\n    tag_77:\n        /* \"#utility.yul\":835:840   */\n      dup2\n        /* \"#utility.yul\":832:867   */\n      eq\n        /* \"#utility.yul\":822:885   */\n      tag_78\n      jumpi\n        /* \"#utility.yul\":881:882   */\n      0x00\n        /* \"#utility.yul\":878:879   */\n      0x00\n        /* \"#utility.yul\":871:883   */\n      revert\n        /* \"#utility.yul\":822:885   */\n    tag_78:\n        /* \"#utility.yul\":769:891   */\n      pop\n      jump\t// out\n        /* \"#utility.yul\":897:1036   */\n    tag_50:\n        /* \"#utility.yul\":943:948   */\n      0x00\n        /* \"#utility.yul\":981:987   */\n      dup2\n        /* \"#utility.yul\":968:988   */\n      calldataload\n        /* \"#utility.yul\":959:988   */\n      swap1\n      pop\n        /* \"#utility.yul\":997:1030   */\n      tag_80\n        /* \"#utility.yul\":1024:1029   */\n      dup2\n        /* \"#utility.yul\":997:1030   */\n      tag_49\n      jump\t// in\n    tag_80:\n        /* \"#utility.yul\":897:1036   */\n      swap3\n      swap2\n      pop\n      pop\n      jump\t// out\n        /* \"#utility.yul\":1042:1371   */\n    tag_13:\n        /* \"#utility.yul\":1101:1107   */\n      0x00\n        /* \"#utility.yul\":1150:1152   */\n      0x20\n        /* \"#utility.yul\":1138:1147   */\n      dup3\n        /* \"#utility.yul\":1129:1136   */\n      dup5\n        /* \"#utility.yul\":1125:1148   */\n      sub\n        /* \"#utility.yul\":1121:1153   */\n      slt\n        /* \"#utility.yul\":1118:1237   */\n      iszero\n      tag_82\n      jumpi\n        /* \"#utility.yul\":1156:1235   */\n      tag_83\n      tag_47\n      jump\t// in\n    tag_83:\n        /* \"#utility.yul\":1118:1237   */\n    tag_82:\n        /* \"#utility.yul\":1276:1277   */\n      0x00\n        /* \"#utility.yul\":1301:1354   */\n      tag_84\n        /* \"#utility.yul\":1346:1353   */\n      dup5\n        /* \"#utility.yul\":1337:1343   */\n      dup3\n        /* \"#utility.yul\":1326:1335   */\n      dup6\n        /* \"#utility.yul\":1322:1344   */\n      add\n        /* \"#utility.yul\":1301:1354   */\n      tag_50\n      jump\t// in\n    tag_84:\n        /* \"#utility.yul\":1291:1354   */\n      swap2\n      pop\n        /* \"#utility.yul\":1247:1364   */\n      pop\n        /* \"#utility.yul\":1042:1371   */\n      swap3\n      swap2\n      pop\n      pop\n      jump\t// out\n        /* \"#utility.yul\":1377:1546   */\n    tag_51:\n        /* \"#utility.yul\":1461:1472   */\n      0x00\n        /* \"#utility.yul\":1495:1501   */\n      dup3\n        /* \"#utility.yul\":1490:1493   */\n      dup3\n        /* \"#utility.yul\":1483:1502   */\n      mstore\n        /* \"#utility.yul\":1535:1539   */\n      0x20\n        /* \"#utility.yul\":1530:1533   */\n      dup3\n        /* \"#utility.yul\":1526:1540   */\n      add\n        /* \"#utility.yul\":1511:1540   */\n      swap1\n      pop\n        /* \"#utility.yul\":1377:1546   */\n      swap3\n      swap2\n      pop\n      pop\n      jump\t// out\n        /* \"#utility.yul\":1552:1720   */\n    tag_52:\n        /* \"#utility.yul\":1692:1712   */\n      0x4e6f20706f646573206578747261657220300000000000000000000000000000\n        /* \"#utility.yul\":1688:1689   */\n      0x00\n        /* \"#utility.yul\":1680:1686   */\n      dup3\n        /* \"#utility.yul\":1676:1690   */\n      add\n        /* \"#utility.yul\":1669:1713   */\n      mstore\n        /* \"#utility.yul\":1552:1720   */\n      pop\n      jump\t// out\n        /* \"#utility.yul\":1726:2092   */\n    tag_53:\n        /* \"#utility.yul\":1868:1871   */\n      0x00\n        /* \"#utility.yul\":1889:1956   */\n      tag_88\n        /* \"#utility.yul\":1953:1955   */\n      0x12\n        /* \"#utility.yul\":1948:1951   */\n      dup4\n        /* \"#utility.yul\":1889:1956   */\n      tag_51\n      jump\t// in\n    tag_88:\n        /* \"#utility.yul\":1882:1956   */\n      swap2\n      pop\n        /* \"#utility.yul\":1965:2058   */\n      tag_89\n        /* \"#utility.yul\":2054:2057   */\n      dup3\n        /* \"#utility.yul\":1965:2058   */\n      tag_52\n      jump\t// in\n    tag_89:\n        /* \"#utility.yul\":2083:2085   */\n      0x20\n        /* \"#utility.yul\":2078:2081   */\n      dup3\n        /* \"#utility.yul\":2074:2086   */\n      add\n        /* \"#utility.yul\":2067:2086   */\n      swap1\n      pop\n        /* \"#utility.yul\":1726:2092   */\n      swap2\n      swap1\n      pop\n      jump\t// out\n        /* \"#utility.yul\":2098:2517   */\n    tag_21:\n        /* \"#utility.yul\":2264:2268   */\n      0x00\n        /* \"#utility.yul\":2302:2304   */\n      0x20\n        /* \"#utility.yul\":2291:2300   */\n      dup3\n        /* \"#utility.yul\":2287:2305   */\n      add\n        /* \"#utility.yul\":2279:2305   */\n      swap1\n      pop\n        /* \"#utility.yul\":2351:2360   */\n      dup2\n        /* \"#utility.yul\":2345:2349   */\n      dup2\n        /* \"#utility.yul\":2341:2361   */\n      sub\n        /* \"#utility.yul\":2337:2338   */\n      0x00\n        /* \"#utility.yul\":2326:2335   */\n      dup4\n        /* \"#utility.yul\":2322:2339   */\n      add\n        /* \"#utility.yul\":2315:2362   */\n      mstore\n        /* \"#utility.yul\":2379:2510   */\n      tag_91\n        /* \"#utility.yul\":2505:2509   */\n      dup2\n        /* \"#utility.yul\":2379:2510   */\n      tag_53\n      jump\t// in\n    tag_91:\n        /* \"#utility.yul\":2371:2510   */\n      swap1\n      pop\n        /* \"#utility.yul\":2098:2517   */\n      swap2\n      swap1\n      pop\n      jump\t// out\n        /* \"#utility.yul\":2523:2691   */\n    tag_54:\n        /* \"#utility.yul\":2663:2683   */\n      0x53616c646f20696e737566696369656e74650000000000000000000000000000\n        /* \"#utility.yul\":2659:2660   */\n      0x00\n        /* \"#utility.yul\":2651:2657   */\n      dup3\n        /* \"#utility.yul\":2647:2661   */\n      add\n        /* \"#utility.yul\":2640:2684   */\n      mstore\n        /* \"#utility.yul\":2523:2691   */\n      pop\n      jump\t// out\n        /* \"#utility.yul\":2697:3063   */\n    tag_55:\n        /* \"#utility.yul\":2839:2842   */\n      0x00\n        /* \"#utility.yul\":2860:2927   */\n      tag_94\n        /* \"#utility.yul\":2924:2926   */\n      0x12\n        /* \"#utility.yul\":2919:2922   */\n      dup4\n        /* \"#utility.yul\":2860:2927   */\n      tag_51\n      jump\t// in\n    tag_94:\n        /* \"#utility.yul\":2853:2927   */\n      swap2\n      pop\n        /* \"#utility.yul\":2936:3029   */\n      tag_95\n        /* \"#utility.yul\":3025:3028   */\n      dup3\n        /* \"#utility.yul\":2936:3029   */\n      tag_54\n      jump\t// in\n    tag_95:\n        /* \"#utility.yul\":3054:3056   */\n      0x20\n        /* \"#utility.yul\":3049:3052   */\n      dup3\n        /* \"#utility.yul\":3045:3057   */\n      add\n        /* \"#utility.yul\":3038:3057   */\n      swap1\n      pop\n        /* \"#utility.yul\":2697:3063   */\n      swap2\n      swap1\n      pop\n      jump\t// out\n        /* \"#utility.yul\":3069:3488   */\n    tag_24:\n        /* \"#utility.yul\":3235:3239   */\n      0x00\n        /* \"#utility.yul\":3273:3275   */\n      0x20\n        /* \"#utility.yul\":3262:3271   */\n      dup3\n        /* \"#utility.yul\":3258:3276   */\n      add\n        /* \"#utility.yul\":3250:3276   */\n      swap1\n      pop\n        /* \"#utility.yul\":3322:3331   */\n      dup2\n        /* \"#utility.yul\":3316:3320   */\n      dup2\n        /* \"#utility.yul\":3312:3332   */\n      sub\n        /* \"#utility.yul\":3308:3309   */\n      0x00\n        /* \"#utility.yul\":3297:3306   */\n      dup4\n        /* \"#utility.yul\":3293:3310   */\n      add\n        /* \"#utility.yul\":3286:3333   */\n      mstore\n        /* \"#utility.yul\":3350:3481   */\n      tag_97\n        /* \"#utility.yul\":3476:3480   */\n      dup2\n        /* \"#utility.yul\":3350:3481   */\n      tag_55\n      jump\t// in\n    tag_97:\n        /* \"#utility.yul\":3342:3481   */\n      swap1\n      pop\n        /* \"#utility.yul\":3069:3488   */\n      swap2\n      swap1\n      pop\n      jump\t// out\n        /* \"#utility.yul\":3494:3641   */\n    tag_56:\n        /* \"#utility.yul\":3595:3606   */\n      0x00\n        /* \"#utility.yul\":3632:3635   */\n      dup2\n        /* \"#utility.yul\":3617:3635   */\n      swap1\n      pop\n        /* \"#utility.yul\":3494:3641   */\n      swap3\n      swap2\n      pop\n      pop\n      jump\t// out\n        /* \"#utility.yul\":3647:3761   */\n    tag_57:\n      pop\n      jump\t// out\n        /* \"#utility.yul\":3767:4165   */\n    tag_58:\n        /* \"#utility.yul\":3926:3929   */\n      0x00\n        /* \"#utility.yul\":3947:4030   */\n      tag_101\n        /* \"#utility.yul\":4028:4029   */\n      0x00\n        /* \"#utility.yul\":4023:4026   */\n      dup4\n        /* \"#utility.yul\":3947:4030   */\n      tag_56\n      jump\t// in\n    tag_101:\n        /* \"#utility.yul\":3940:4030   */\n      swap2\n      pop\n        /* \"#utility.yul\":4039:4132   */\n      tag_102\n        /* \"#utility.yul\":4128:4131   */\n      dup3\n        /* \"#utility.yul\":4039:4132   */\n      tag_57\n      jump\t// in\n    tag_102:\n        /* \"#utility.yul\":4157:4158   */\n      0x00\n        /* \"#utility.yul\":4152:4155   */\n      dup3\n        /* \"#utility.yul\":4148:4159   */\n      add\n        /* \"#utility.yul\":4141:4159   */\n      swap1\n      pop\n        /* \"#utility.yul\":3767:4165   */\n      swap2\n      swap1\n      pop\n      jump\t// out\n        /* \"#utility.yul\":4171:4550   */\n    tag_26:\n        /* \"#utility.yul\":4355:4358   */\n      0x00\n        /* \"#utility.yul\":4377:4524   */\n      tag_104\n        /* \"#utility.yul\":4520:4523   */\n      dup3\n        /* \"#utility.yul\":4377:4524   */\n      tag_58\n      jump\t// in\n    tag_104:\n        /* \"#utility.yul\":4370:4524   */\n      swap2\n      pop\n        /* \"#utility.yul\":4541:4544   */\n      dup2\n        /* \"#utility.yul\":4534:4544   */\n      swap1\n      pop\n        /* \"#utility.yul\":4171:4550   */\n      swap2\n      swap1\n      pop\n      jump\t// out\n        /* \"#utility.yul\":4556:4725   */\n    tag_59:\n        /* \"#utility.yul\":4696:4717   */\n      0x45787472616363696f6e2066616c6c6964612e00000000000000000000000000\n        /* \"#utility.yul\":4692:4693   */\n      0x00\n        /* \"#utility.yul\":4684:4690   */\n      dup3\n        /* \"#utility.yul\":4680:4694   */\n      add\n        /* \"#utility.yul\":4673:4718   */\n      mstore\n        /* \"#utility.yul\":4556:4725   */\n      pop\n      jump\t// out\n        /* \"#utility.yul\":4731:5097   */\n    tag_60:\n        /* \"#utility.yul\":4873:4876   */\n      0x00\n        /* \"#utility.yul\":4894:4961   */\n      tag_107\n        /* \"#utility.yul\":4958:4960   */\n      0x13\n        /* \"#utility.yul\":4953:4956   */\n      dup4\n        /* \"#utility.yul\":4894:4961   */\n      tag_51\n      jump\t// in\n    tag_107:\n        /* \"#utility.yul\":4887:4961   */\n      swap2\n      pop\n        /* \"#utility.yul\":4970:5063   */\n      tag_108\n        /* \"#utility.yul\":5059:5062   */\n      dup3\n        /* \"#utility.yul\":4970:5063   */\n      tag_59\n      jump\t// in\n    tag_108:\n        /* \"#utility.yul\":5088:5090   */\n      0x20\n        /* \"#utility.yul\":5083:5086   */\n      dup3\n        /* \"#utility.yul\":5079:5091   */\n      add\n        /* \"#utility.yul\":5072:5091   */\n      swap1\n      pop\n        /* \"#utility.yul\":4731:5097   */\n      swap2\n      swap1\n      pop\n      jump\t// out\n        /* \"#utility.yul\":5103:5522   */\n    tag_32:\n        /* \"#utility.yul\":5269:5273   */\n      0x00\n        /* \"#utility.yul\":5307:5309   */\n      0x20\n        /* \"#utility.yul\":5296:5305   */\n      dup3\n        /* \"#utility.yul\":5292:5310   */\n      add\n        /* \"#utility.yul\":5284:5310   */\n      swap1\n      pop\n        /* \"#utility.yul\":5356:5365   */\n      dup2\n        /* \"#utility.yul\":5350:5354   */\n      dup2\n        /* \"#utility.yul\":5346:5366   */\n      sub\n        /* \"#utility.yul\":5342:5343   */\n      0x00\n        /* \"#utility.yul\":5331:5340   */\n      dup4\n        /* \"#utility.yul\":5327:5344   */\n      add\n        /* \"#utility.yul\":5320:5367   */\n      mstore\n        /* \"#utility.yul\":5384:5515   */\n      tag_110\n        /* \"#utility.yul\":5510:5514   */\n      dup2\n        /* \"#utility.yul\":5384:5515   */\n      tag_60\n      jump\t// in\n    tag_110:\n        /* \"#utility.yul\":5376:5515   */\n      swap1\n      pop\n        /* \"#utility.yul\":5103:5522   */\n      swap2\n      swap1\n      pop\n      jump\t// out\n        /* \"#utility.yul\":5528:5708   */\n    tag_61:\n        /* \"#utility.yul\":5576:5653   */\n      0x4e487b7100000000000000000000000000000000000000000000000000000000\n        /* \"#utility.yul\":5573:5574   */\n      0x00\n        /* \"#utility.yul\":5566:5654   */\n      mstore\n        /* \"#utility.yul\":5673:5677   */\n      0x11\n        /* \"#utility.yul\":5670:5671   */\n      0x04\n        /* \"#utility.yul\":5663:5678   */\n      mstore\n        /* \"#utility.yul\":5697:5701   */\n      0x24\n        /* \"#utility.yul\":5694:5695   */\n      0x00\n        /* \"#utility.yul\":5687:5702   */\n      revert\n        /* \"#utility.yul\":5714:5908   */\n    tag_34:\n        /* \"#utility.yul\":5754:5758   */\n      0x00\n        /* \"#utility.yul\":5774:5794   */\n      tag_113\n        /* \"#utility.yul\":5792:5793   */\n      dup3\n        /* \"#utility.yul\":5774:5794   */\n      tag_44\n      jump\t// in\n    tag_113:\n        /* \"#utility.yul\":5769:5794   */\n      swap2\n      pop\n        /* \"#utility.yul\":5808:5828   */\n      tag_114\n        /* \"#utility.yul\":5826:5827   */\n      dup4\n        /* \"#utility.yul\":5808:5828   */\n      tag_44\n      jump\t// in\n    tag_114:\n        /* \"#utility.yul\":5803:5828   */\n      swap3\n      pop\n        /* \"#utility.yul\":5852:5853   */\n      dup3\n        /* \"#utility.yul\":5849:5850   */\n      dup3\n        /* \"#utility.yul\":5845:5854   */\n      sub\n        /* \"#utility.yul\":5837:5854   */\n      swap1\n      pop\n        /* \"#utility.yul\":5876:5877   */\n      dup2\n        /* \"#utility.yul\":5870:5874   */\n      dup2\n        /* \"#utility.yul\":5867:5878   */\n      gt\n        /* \"#utility.yul\":5864:5901   */\n      iszero\n      tag_115\n      jumpi\n        /* \"#utility.yul\":5881:5899   */\n      tag_116\n      tag_61\n      jump\t// in\n    tag_116:\n        /* \"#utility.yul\":5864:5901   */\n    tag_115:\n        /* \"#utility.yul\":5714:5908   */\n      swap3\n      swap2\n      pop\n      pop\n      jump\t// out\n        /* \"#utility.yul\":5914:6040   */\n    tag_62:\n        /* \"#utility.yul\":5951:5958   */\n      0x00\n        /* \"#utility.yul\":5991:6033   */\n      0xffffffffffffffffffffffffffffffffffffffff\n        /* \"#utility.yul\":5984:5989   */\n      dup3\n        /* \"#utility.yul\":5980:6034   */\n      and\n        /* \"#utility.yul\":5969:6034   */\n      swap1\n      pop\n        /* \"#utility.yul\":5914:6040   */\n      swap2\n      swap1\n      pop\n      jump\t// out\n        /* \"#utility.yul\":6046:6142   */\n    tag_63:\n        /* \"#utility.yul\":6083:6090   */\n      0x00\n        /* \"#utility.yul\":6112:6136   */\n      tag_119\n        /* \"#utility.yul\":6130:6135   */\n      dup3\n        /* \"#utility.yul\":6112:6136   */\n      tag_62\n      jump\t// in\n    tag_119:\n        /* \"#utility.yul\":6101:6136   */\n      swap1\n      pop\n        /* \"#utility.yul\":6046:6142   */\n      swap2\n      swap1\n      pop\n      jump\t// out\n        /* \"#utility.yul\":6148:6266   */\n    tag_64:\n        /* \"#utility.yul\":6235:6259   */\n      tag_121\n        /* \"#utility.yul\":6253:6258   */\n      dup2\n        /* \"#utility.yul\":6235:6259   */\n      tag_63\n      jump\t// in\n    tag_121:\n        /* \"#utility.yul\":6230:6233   */\n      dup3\n        /* \"#utility.yul\":6223:6260   */\n      mstore\n        /* \"#utility.yul\":6148:6266   */\n      pop\n      pop\n      jump\t// out\n        /* \"#utility.yul\":6272:6604   */\n    tag_36:\n        /* \"#utility.yul\":6393:6397   */\n      0x00\n        /* \"#utility.yul\":6431:6433   */\n      0x40\n        /* \"#utility.yul\":6420:6429   */\n      dup3\n        /* \"#utility.yul\":6416:6434   */\n      add\n        /* \"#utility.yul\":6408:6434   */\n      swap1\n      pop\n        /* \"#utility.yul\":6444:6515   */\n      tag_123\n        /* \"#utility.yul\":6512:6513   */\n      0x00\n        /* \"#utility.yul\":6501:6510   */\n      dup4\n        /* \"#utility.yul\":6497:6514   */\n      add\n        /* \"#utility.yul\":6488:6494   */\n      dup6\n        /* \"#utility.yul\":6444:6515   */\n      tag_64\n      jump\t// in\n    tag_123:\n        /* \"#utility.yul\":6525:6597   */\n      tag_124\n        /* \"#utility.yul\":6593:6595   */\n      0x20\n        /* \"#utility.yul\":6582:6591   */\n      dup4\n        /* \"#utility.yul\":6578:6596   */\n      add\n        /* \"#utility.yul\":6569:6575   */\n      dup5\n        /* \"#utility.yul\":6525:6597   */\n      tag_45\n      jump\t// in\n    tag_124:\n        /* \"#utility.yul\":6272:6604   */\n      swap4\n      swap3\n      pop\n      pop\n      pop\n      jump\t// out\n        /* \"#utility.yul\":6610:6780   */\n    tag_65:\n        /* \"#utility.yul\":6750:6772   */\n      0x4e6f20706f646573206465706f73697461722030000000000000000000000000\n        /* \"#utility.yul\":6746:6747   */\n      0x00\n        /* \"#utility.yul\":6738:6744   */\n      dup3\n        /* \"#utility.yul\":6734:6748   */\n      add\n        /* \"#utility.yul\":6727:6773   */\n      mstore\n        /* \"#utility.yul\":6610:6780   */\n      pop\n      jump\t// out\n        /* \"#utility.yul\":6786:7152   */\n    tag_66:\n        /* \"#utility.yul\":6928:6931   */\n      0x00\n        /* \"#utility.yul\":6949:7016   */\n      tag_127\n        /* \"#utility.yul\":7013:7015   */\n      0x14\n        /* \"#utility.yul\":7008:7011   */\n      dup4\n        /* \"#utility.yul\":6949:7016   */\n      tag_51\n      jump\t// in\n    tag_127:\n        /* \"#utility.yul\":6942:7016   */\n      swap2\n      pop\n        /* \"#utility.yul\":7025:7118   */\n      tag_128\n        /* \"#utility.yul\":7114:7117   */\n      dup3\n        /* \"#utility.yul\":7025:7118   */\n      tag_65\n      jump\t// in\n    tag_128:\n        /* \"#utility.yul\":7143:7145   */\n      0x20\n        /* \"#utility.yul\":7138:7141   */\n      dup3\n        /* \"#utility.yul\":7134:7146   */\n      add\n        /* \"#utility.yul\":7127:7146   */\n      swap1\n      pop\n        /* \"#utility.yul\":6786:7152   */\n      swap2\n      swap1\n      pop\n      jump\t// out\n        /* \"#utility.yul\":7158:7577   */\n    tag_40:\n        /* \"#utility.yul\":7324:7328   */\n      0x00\n        /* \"#utility.yul\":7362:7364   */\n      0x20\n        /* \"#utility.yul\":7351:7360   */\n      dup3\n        /* \"#utility.yul\":7347:7365   */\n      add\n        /* \"#utility.yul\":7339:7365   */\n      swap1\n      pop\n        /* \"#utility.yul\":7411:7420   */\n      dup2\n        /* \"#utility.yul\":7405:7409   */\n      dup2\n        /* \"#utility.yul\":7401:7421   */\n      sub\n        /* \"#utility.yul\":7397:7398   */\n      0x00\n        /* \"#utility.yul\":7386:7395   */\n      dup4\n        /* \"#utility.yul\":7382:7399   */\n      add\n        /* \"#utility.yul\":7375:7422   */\n      mstore\n        /* \"#utility.yul\":7439:7570   */\n      tag_130\n        /* \"#utility.yul\":7565:7569   */\n      dup2\n        /* \"#utility.yul\":7439:7570   */\n      tag_66\n      jump\t// in\n    tag_130:\n        /* \"#utility.yul\":7431:7570   */\n      swap1\n      pop\n        /* \"#utility.yul\":7158:7577   */\n      swap2\n      swap1\n      pop\n      jump\t// out\n        /* \"#utility.yul\":7583:7774   */\n    tag_42:\n        /* \"#utility.yul\":7623:7626   */\n      0x00\n        /* \"#utility.yul\":7642:7662   */\n      tag_132\n        /* \"#utility.yul\":7660:7661   */\n      dup3\n        /* \"#utility.yul\":7642:7662   */\n      tag_44\n      jump\t// in\n    tag_132:\n        /* \"#utility.yul\":7637:7662   */\n      swap2\n      pop\n        /* \"#utility.yul\":7676:7696   */\n      tag_133\n        /* \"#utility.yul\":7694:7695   */\n      dup4\n        /* \"#utility.yul\":7676:7696   */\n      tag_44\n      jump\t// in\n    tag_133:\n        /* \"#utility.yul\":7671:7696   */\n      swap3\n      pop\n        /* \"#utility.yul\":7719:7720   */\n      dup3\n        /* \"#utility.yul\":7716:7717   */\n      dup3\n        /* \"#utility.yul\":7712:7721   */\n      add\n        /* \"#utility.yul\":7705:7721   */\n      swap1\n      pop\n        /* \"#utility.yul\":7740:7743   */\n      dup1\n        /* \"#utility.yul\":7737:7738   */\n      dup3\n        /* \"#utility.yul\":7734:7744   */\n      gt\n        /* \"#utility.yul\":7731:7767   */\n      iszero\n      tag_134\n      jumpi\n        /* \"#utility.yul\":7747:7765   */\n      tag_135\n      tag_61\n      jump\t// in\n    tag_135:\n        /* \"#utility.yul\":7731:7767   */\n    tag_134:\n        /* \"#utility.yul\":7583:7774   */\n      swap3\n      swap2\n      pop\n      pop\n      jump\t// out\n\n    auxdata: 0xa2646970667358221220879bbd9d2dc02125f6cb9d8fd95facb070affbe73ad19621654a25b4e8d2fed664736f6c634300081e0033\n}\n",
				"bytecode": {
					"linkReferences": {},
					"object": "6080604052348015600e575f5ffd5b506107478061001c5f395ff3fe608060405260043610610033575f3560e01c806312065fe01461003757806385b3978214610061578063d0e30db014610089575b5f5ffd5b348015610042575f5ffd5b5061004b610093565b60405161005891906103b5565b60405180910390f35b34801561006c575f5ffd5b50610087600480360381019061008291906103fc565b6100d6565b005b6100916102ce565b005b5f5f5f3373ffffffffffffffffffffffffffffffffffffffff1673ffffffffffffffffffffffffffffffffffffffff1681526020019081526020015f2054905090565b5f8111610118576040517f08c379a000000000000000000000000000000000000000000000000000000000815260040161010f90610481565b60405180910390fd5b5f5f3373ffffffffffffffffffffffffffffffffffffffff1673ffffffffffffffffffffffffffffffffffffffff1681526020019081526020015f2054811115610197576040517f08c379a000000000000000000000000000000000000000000000000000000000815260040161018e906104e9565b60405180910390fd5b5f3373ffffffffffffffffffffffffffffffffffffffff16826040516101bc90610534565b5f6040518083038185875af1925050503d805f81146101f6576040519150601f19603f3d011682016040523d82523d5f602084013e6101fb565b606091505b505090508061023f576040517f08c379a000000000000000000000000000000000000000000000000000000000815260040161023690610592565b60405180910390fd5b815f5f3373ffffffffffffffffffffffffffffffffffffffff1673ffffffffffffffffffffffffffffffffffffffff1681526020019081526020015f205f82825461028a91906105dd565b925050819055507f69c169e5c85af54e1ca7e16608ccc812437821387924fb3353a7d053264ddaa033836040516102c292919061064f565b60405180910390a15050565b5f3411610310576040517f08c379a0000000000000000000000000000000000000000000000000000000008152600401610307906106c0565b60405180910390fd5b345f5f3373ffffffffffffffffffffffffffffffffffffffff1673ffffffffffffffffffffffffffffffffffffffff1681526020019081526020015f205f82825461035b91906106de565b925050819055507f2da466a7b24304f47e87fa2e1e5a81b9831ce54fec19055ce277ca2f39ba42c4333460405161039392919061064f565b60405180910390a1565b5f819050919050565b6103af8161039d565b82525050565b5f6020820190506103c85f8301846103a6565b92915050565b5f5ffd5b6103db8161039d565b81146103e5575f5ffd5b50565b5f813590506103f6816103d2565b92915050565b5f60208284031215610411576104106103ce565b5b5f61041e848285016103e8565b91505092915050565b5f82825260208201905092915050565b7f4e6f20706f6465732065787472616572203000000000000000000000000000005f82015250565b5f61046b601283610427565b915061047682610437565b602082019050919050565b5f6020820190508181035f8301526104988161045f565b9050919050565b7f53616c646f20696e737566696369656e746500000000000000000000000000005f82015250565b5f6104d3601283610427565b91506104de8261049f565b602082019050919050565b5f6020820190508181035f830152610500816104c7565b9050919050565b5f81905092915050565b50565b5f61051f5f83610507565b915061052a82610511565b5f82019050919050565b5f61053e82610514565b9150819050919050565b7f45787472616363696f6e2066616c6c6964612e000000000000000000000000005f82015250565b5f61057c601383610427565b915061058782610548565b602082019050919050565b5f6020820190508181035f8301526105a981610570565b9050919050565b7f4e487b71000000000000000000000000000000000000000000000000000000005f52601160045260245ffd5b5f6105e78261039d565b91506105f28361039d565b925082820390508181111561060a576106096105b0565b5b92915050565b5f73ffffffffffffffffffffffffffffffffffffffff82169050919050565b5f61063982610610565b9050919050565b6106498161062f565b82525050565b5f6040820190506106625f830185610640565b61066f60208301846103a6565b9392505050565b7f4e6f20706f646573206465706f736974617220300000000000000000000000005f82015250565b5f6106aa601483610427565b91506106b582610676565b602082019050919050565b5f6020820190508181035f8301526106d78161069e565b9050919050565b5f6106e88261039d565b91506106f38361039d565b925082820190508082111561070b5761070a6105b0565b5b9291505056fea2646970667358221220879bbd9d2dc02125f6cb9d8fd95facb070affbe73ad19621654a25b4e8d2fed664736f6c634300081e0033",
					"opcodes": "PUSH1 0x80 PUSH1 0x40 MSTORE CALLVALUE DUP1 ISZERO PUSH1 0xE JUMPI PUSH0 PUSH0 REVERT JUMPDEST POP PUSH2 0x747 DUP1 PUSH2 0x1C PUSH0 CODECOPY PUSH0 RETURN INVALID PUSH1 0x80 PUSH1 0x40 MSTORE PUSH1 0x4 CALLDATASIZE LT PUSH2 0x33 JUMPI PUSH0 CALLDATALOAD PUSH1 0xE0 SHR DUP1 PUSH4 0x12065FE0 EQ PUSH2 0x37 JUMPI DUP1 PUSH4 0x85B39782 EQ PUSH2 0x61 JUMPI DUP1 PUSH4 0xD0E30DB0 EQ PUSH2 0x89 JUMPI JUMPDEST PUSH0 PUSH0 REVERT JUMPDEST CALLVALUE DUP1 ISZERO PUSH2 0x42 JUMPI PUSH0 PUSH0 REVERT JUMPDEST POP PUSH2 0x4B PUSH2 0x93 JUMP JUMPDEST PUSH1 0x40 MLOAD PUSH2 0x58 SWAP2 SWAP1 PUSH2 0x3B5 JUMP JUMPDEST PUSH1 0x40 MLOAD DUP1 SWAP2 SUB SWAP1 RETURN JUMPDEST CALLVALUE DUP1 ISZERO PUSH2 0x6C JUMPI PUSH0 PUSH0 REVERT JUMPDEST POP PUSH2 0x87 PUSH1 0x4 DUP1 CALLDATASIZE SUB DUP2 ADD SWAP1 PUSH2 0x82 SWAP2 SWAP1 PUSH2 0x3FC JUMP JUMPDEST PUSH2 0xD6 JUMP JUMPDEST STOP JUMPDEST PUSH2 0x91 PUSH2 0x2CE JUMP JUMPDEST STOP JUMPDEST PUSH0 PUSH0 PUSH0 CALLER PUSH20 0xFFFFFFFFFFFFFFFFFFFFFFFFFFFFFFFFFFFFFFFF AND PUSH20 0xFFFFFFFFFFFFFFFFFFFFFFFFFFFFFFFFFFFFFFFF AND DUP2 MSTORE PUSH1 0x20 ADD SWAP1 DUP2 MSTORE PUSH1 0x20 ADD PUSH0 KECCAK256 SLOAD SWAP1 POP SWAP1 JUMP JUMPDEST PUSH0 DUP2 GT PUSH2 0x118 JUMPI PUSH1 0x40 MLOAD PUSH32 0x8C379A000000000000000000000000000000000000000000000000000000000 DUP2 MSTORE PUSH1 0x4 ADD PUSH2 0x10F SWAP1 PUSH2 0x481 JUMP JUMPDEST PUSH1 0x40 MLOAD DUP1 SWAP2 SUB SWAP1 REVERT JUMPDEST PUSH0 PUSH0 CALLER PUSH20 0xFFFFFFFFFFFFFFFFFFFFFFFFFFFFFFFFFFFFFFFF AND PUSH20 0xFFFFFFFFFFFFFFFFFFFFFFFFFFFFFFFFFFFFFFFF AND DUP2 MSTORE PUSH1 0x20 ADD SWAP1 DUP2 MSTORE PUSH1 0x20 ADD PUSH0 KECCAK256 SLOAD DUP2 GT ISZERO PUSH2 0x197 JUMPI PUSH1 0x40 MLOAD PUSH32 0x8C379A000000000000000000000000000000000000000000000000000000000 DUP2 MSTORE PUSH1 0x4 ADD PUSH2 0x18E SWAP1 PUSH2 0x4E9 JUMP JUMPDEST PUSH1 0x40 MLOAD DUP1 SWAP2 SUB SWAP1 REVERT JUMPDEST PUSH0 CALLER PUSH20 0xFFFFFFFFFFFFFFFFFFFFFFFFFFFFFFFFFFFFFFFF AND DUP3 PUSH1 0x40 MLOAD PUSH2 0x1BC SWAP1 PUSH2 0x534 JUMP JUMPDEST PUSH0 PUSH1 0x40 MLOAD DUP1 DUP4 SUB DUP2 DUP6 DUP8 GAS CALL SWAP3 POP POP POP RETURNDATASIZE DUP1 PUSH0 DUP2 EQ PUSH2 0x1F6 JUMPI PUSH1 0x40 MLOAD SWAP2 POP PUSH1 0x1F NOT PUSH1 0x3F RETURNDATASIZE ADD AND DUP3 ADD PUSH1 0x40 MSTORE RETURNDATASIZE DUP3 MSTORE RETURNDATASIZE PUSH0 PUSH1 0x20 DUP5 ADD RETURNDATACOPY PUSH2 0x1FB JUMP JUMPDEST PUSH1 0x60 SWAP2 POP JUMPDEST POP POP SWAP1 POP DUP1 PUSH2 0x23F JUMPI PUSH1 0x40 MLOAD PUSH32 0x8C379A000000000000000000000000000000000000000000000000000000000 DUP2 MSTORE PUSH1 0x4 ADD PUSH2 0x236 SWAP1 PUSH2 0x592 JUMP JUMPDEST PUSH1 0x40 MLOAD DUP1 SWAP2 SUB SWAP1 REVERT JUMPDEST DUP2 PUSH0 PUSH0 CALLER PUSH20 0xFFFFFFFFFFFFFFFFFFFFFFFFFFFFFFFFFFFFFFFF AND PUSH20 0xFFFFFFFFFFFFFFFFFFFFFFFFFFFFFFFFFFFFFFFF AND DUP2 MSTORE PUSH1 0x20 ADD SWAP1 DUP2 MSTORE PUSH1 0x20 ADD PUSH0 KECCAK256 PUSH0 DUP3 DUP3 SLOAD PUSH2 0x28A SWAP2 SWAP1 PUSH2 0x5DD JUMP JUMPDEST SWAP3 POP POP DUP2 SWAP1 SSTORE POP PUSH32 0x69C169E5C85AF54E1CA7E16608CCC812437821387924FB3353A7D053264DDAA0 CALLER DUP4 PUSH1 0x40 MLOAD PUSH2 0x2C2 SWAP3 SWAP2 SWAP1 PUSH2 0x64F JUMP JUMPDEST PUSH1 0x40 MLOAD DUP1 SWAP2 SUB SWAP1 LOG1 POP POP JUMP JUMPDEST PUSH0 CALLVALUE GT PUSH2 0x310 JUMPI PUSH1 0x40 MLOAD PUSH32 0x8C379A000000000000000000000000000000000000000000000000000000000 DUP2 MSTORE PUSH1 0x4 ADD PUSH2 0x307 SWAP1 PUSH2 0x6C0 JUMP JUMPDEST PUSH1 0x40 MLOAD DUP1 SWAP2 SUB SWAP1 REVERT JUMPDEST CALLVALUE PUSH0 PUSH0 CALLER PUSH20 0xFFFFFFFFFFFFFFFFFFFFFFFFFFFFFFFFFFFFFFFF AND PUSH20 0xFFFFFFFFFFFFFFFFFFFFFFFFFFFFFFFFFFFFFFFF AND DUP2 MSTORE PUSH1 0x20 ADD SWAP1 DUP2 MSTORE PUSH1 0x20 ADD PUSH0 KECCAK256 PUSH0 DUP3 DUP3 SLOAD PUSH2 0x35B SWAP2 SWAP1 PUSH2 0x6DE JUMP JUMPDEST SWAP3 POP POP DUP2 SWAP1 SSTORE POP PUSH32 0x2DA466A7B24304F47E87FA2E1E5A81B9831CE54FEC19055CE277CA2F39BA42C4 CALLER CALLVALUE PUSH1 0x40 MLOAD PUSH2 0x393 SWAP3 SWAP2 SWAP1 PUSH2 0x64F JUMP JUMPDEST PUSH1 0x40 MLOAD DUP1 SWAP2 SUB SWAP1 LOG1 JUMP JUMPDEST PUSH0 DUP2 SWAP1 POP SWAP2 SWAP1 POP JUMP JUMPDEST PUSH2 0x3AF DUP2 PUSH2 0x39D JUMP JUMPDEST DUP3 MSTORE POP POP JUMP JUMPDEST PUSH0 PUSH1 0x20 DUP3 ADD SWAP1 POP PUSH2 0x3C8 PUSH0 DUP4 ADD DUP5 PUSH2 0x3A6 JUMP JUMPDEST SWAP3 SWAP2 POP POP JUMP JUMPDEST PUSH0 PUSH0 REVERT JUMPDEST PUSH2 0x3DB DUP2 PUSH2 0x39D JUMP JUMPDEST DUP2 EQ PUSH2 0x3E5 JUMPI PUSH0 PUSH0 REVERT JUMPDEST POP JUMP JUMPDEST PUSH0 DUP2 CALLDATALOAD SWAP1 POP PUSH2 0x3F6 DUP2 PUSH2 0x3D2 JUMP JUMPDEST SWAP3 SWAP2 POP POP JUMP JUMPDEST PUSH0 PUSH1 0x20 DUP3 DUP5 SUB SLT ISZERO PUSH2 0x411 JUMPI PUSH2 0x410 PUSH2 0x3CE JUMP JUMPDEST JUMPDEST PUSH0 PUSH2 0x41E DUP5 DUP3 DUP6 ADD PUSH2 0x3E8 JUMP JUMPDEST SWAP2 POP POP SWAP3 SWAP2 POP POP JUMP JUMPDEST PUSH0 DUP3 DUP3 MSTORE PUSH1 0x20 DUP3 ADD SWAP1 POP SWAP3 SWAP2 POP POP JUMP JUMPDEST PUSH32 0x4E6F20706F646573206578747261657220300000000000000000000000000000 PUSH0 DUP3 ADD MSTORE POP JUMP JUMPDEST PUSH0 PUSH2 0x46B PUSH1 0x12 DUP4 PUSH2 0x427 JUMP JUMPDEST SWAP2 POP PUSH2 0x476 DUP3 PUSH2 0x437 JUMP JUMPDEST PUSH1 0x20 DUP3 ADD SWAP1 POP SWAP2 SWAP1 POP JUMP JUMPDEST PUSH0 PUSH1 0x20 DUP3 ADD SWAP1 POP DUP2 DUP2 SUB PUSH0 DUP4 ADD MSTORE PUSH2 0x498 DUP2 PUSH2 0x45F JUMP JUMPDEST SWAP1 POP SWAP2 SWAP1 POP JUMP JUMPDEST PUSH32 0x53616C646F20696E737566696369656E74650000000000000000000000000000 PUSH0 DUP3 ADD MSTORE POP JUMP JUMPDEST PUSH0 PUSH2 0x4D3 PUSH1 0x12 DUP4 PUSH2 0x427 JUMP JUMPDEST SWAP2 POP PUSH2 0x4DE DUP3 PUSH2 0x49F JUMP JUMPDEST PUSH1 0x20 DUP3 ADD SWAP1 POP SWAP2 SWAP1 POP JUMP JUMPDEST PUSH0 PUSH1 0x20 DUP3 ADD SWAP1 POP DUP2 DUP2 SUB PUSH0 DUP4 ADD MSTORE PUSH2 0x500 DUP2 PUSH2 0x4C7 JUMP JUMPDEST SWAP1 POP SWAP2 SWAP1 POP JUMP JUMPDEST PUSH0 DUP2 SWAP1 POP SWAP3 SWAP2 POP POP JUMP JUMPDEST POP JUMP JUMPDEST PUSH0 PUSH2 0x51F PUSH0 DUP4 PUSH2 0x507 JUMP JUMPDEST SWAP2 POP PUSH2 0x52A DUP3 PUSH2 0x511 JUMP JUMPDEST PUSH0 DUP3 ADD SWAP1 POP SWAP2 SWAP1 POP JUMP JUMPDEST PUSH0 PUSH2 0x53E DUP3 PUSH2 0x514 JUMP JUMPDEST SWAP2 POP DUP2 SWAP1 POP SWAP2 SWAP1 POP JUMP JUMPDEST PUSH32 0x45787472616363696F6E2066616C6C6964612E00000000000000000000000000 PUSH0 DUP3 ADD MSTORE POP JUMP JUMPDEST PUSH0 PUSH2 0x57C PUSH1 0x13 DUP4 PUSH2 0x427 JUMP JUMPDEST SWAP2 POP PUSH2 0x587 DUP3 PUSH2 0x548 JUMP JUMPDEST PUSH1 0x20 DUP3 ADD SWAP1 POP SWAP2 SWAP1 POP JUMP JUMPDEST PUSH0 PUSH1 0x20 DUP3 ADD SWAP1 POP DUP2 DUP2 SUB PUSH0 DUP4 ADD MSTORE PUSH2 0x5A9 DUP2 PUSH2 0x570 JUMP JUMPDEST SWAP1 POP SWAP2 SWAP1 POP JUMP JUMPDEST PUSH32 0x4E487B7100000000000000000000000000000000000000000000000000000000 PUSH0 MSTORE PUSH1 0x11 PUSH1 0x4 MSTORE PUSH1 0x24 PUSH0 REVERT JUMPDEST PUSH0 PUSH2 0x5E7 DUP3 PUSH2 0x39D JUMP JUMPDEST SWAP2 POP PUSH2 0x5F2 DUP4 PUSH2 0x39D JUMP JUMPDEST SWAP3 POP DUP3 DUP3 SUB SWAP1 POP DUP2 DUP2 GT ISZERO PUSH2 0x60A JUMPI PUSH2 0x609 PUSH2 0x5B0 JUMP JUMPDEST JUMPDEST SWAP3 SWAP2 POP POP JUMP JUMPDEST PUSH0 PUSH20 0xFFFFFFFFFFFFFFFFFFFFFFFFFFFFFFFFFFFFFFFF DUP3 AND SWAP1 POP SWAP2 SWAP1 POP JUMP JUMPDEST PUSH0 PUSH2 0x639 DUP3 PUSH2 0x610 JUMP JUMPDEST SWAP1 POP SWAP2 SWAP1 POP JUMP JUMPDEST PUSH2 0x649 DUP2 PUSH2 0x62F JUMP JUMPDEST DUP3 MSTORE POP POP JUMP JUMPDEST PUSH0 PUSH1 0x40 DUP3 ADD SWAP1 POP PUSH2 0x662 PUSH0 DUP4 ADD DUP6 PUSH2 0x640 JUMP JUMPDEST PUSH2 0x66F PUSH1 0x20 DUP4 ADD DUP5 PUSH2 0x3A6 JUMP JUMPDEST SWAP4 SWAP3 POP POP POP JUMP JUMPDEST PUSH32 0x4E6F20706F646573206465706F73697461722030000000000000000000000000 PUSH0 DUP3 ADD MSTORE POP JUMP JUMPDEST PUSH0 PUSH2 0x6AA PUSH1 0x14 DUP4 PUSH2 0x427 JUMP JUMPDEST SWAP2 POP PUSH2 0x6B5 DUP3 PUSH2 0x676 JUMP JUMPDEST PUSH1 0x20 DUP3 ADD SWAP1 POP SWAP2 SWAP1 POP JUMP JUMPDEST PUSH0 PUSH1 0x20 DUP3 ADD SWAP1 POP DUP2 DUP2 SUB PUSH0 DUP4 ADD MSTORE PUSH2 0x6D7 DUP2 PUSH2 0x69E JUMP JUMPDEST SWAP1 POP SWAP2 SWAP1 POP JUMP JUMPDEST PUSH0 PUSH2 0x6E8 DUP3 PUSH2 0x39D JUMP JUMPDEST SWAP2 POP PUSH2 0x6F3 DUP4 PUSH2 0x39D JUMP JUMPDEST SWAP3 POP DUP3 DUP3 ADD SWAP1 POP DUP1 DUP3 GT ISZERO PUSH2 0x70B JUMPI PUSH2 0x70A PUSH2 0x5B0 JUMP JUMPDEST JUMPDEST SWAP3 SWAP2 POP POP JUMP INVALID LOG2 PUSH5 0x6970667358 0x22 SLT KECCAK256 DUP8 SWAP12 0xBD SWAP14 0x2D 0xC0 0x21 0x25 0xF6 0xCB SWAP14 DUP16 0xD9 PUSH0 0xAC 0xB0 PUSH17 0xAFFBE73AD19621654A25B4E8D2FED66473 PUSH16 0x6C634300081E00330000000000000000 "
				},
				"gasEstimates": {
					"creation": {
						"codeDepositCost": "372600",
						"executionCost": "409",
						"totalCost": "373009"
					},
					"external": {
						"deposit()": "infinite",
						"extract(uint256)": "infinite",
						"getBalance()": "2496"
					}
				},
				"methodIdentifiers": {
					"deposit()": "d0e30db0",
					"extract(uint256)": "85b39782",
					"getBalance()": "12065fe0"
				}
			},
			"storageLayout": {
				"storage": [
					{
						"astId": 111,
						"contract": "contracts/MalBanco.sol:MalBanco",
						"label": "balances",
						"offset": 0,
						"slot": "0",
						"type": "t_mapping(t_address,t_uint256)"
					}
				],
				"types": {
					"t_address": {
						"encoding": "inplace",
						"label": "address",
						"numberOfBytes": "20"
					},
					"t_mapping(t_address,t_uint256)": {
						"encoding": "mapping",
						"key": "t_address",
						"label": "mapping(address => uint256)",
						"numberOfBytes": "32",
						"value": "t_uint256"
					},
					"t_uint256": {
						"encoding": "inplace",
						"label": "uint256",
						"numberOfBytes": "32"
					}
				}
			},
			"userdoc": {
				"kind": "user",
				"methods": {},
				"version": 1
			}
		}
	}
}