{
	"contracts/ToDoList.sol": {
		"ToDoList": {
			"abi": [
				{
					"anonymous": false,
					"inputs": [
						{
							"indexed": false,
							"internalType": "uint256",
							"name": "id",
							"type": "uint256"
						},
						{
							"indexed": false,
							"internalType": "uint256",
							"name": "startTime",
							"type": "uint256"
						}
					],
					"name": "TareaCompletada",
					"type": "event"
				},
				{
					"anonymous": false,
					"inputs": [
						{
							"indexed": false,
							"internalType": "string",
							"name": "content",
							"type": "string"
						},
						{
							"indexed": false,
							"internalType": "uint256",
							"name": "createTime",
							"type": "uint256"
						}
					],
					"name": "TareaCreada",
					"type": "event"
				},
				{
					"anonymous": false,
					"inputs": [
						{
							"indexed": false,
							"internalType": "uint256",
							"name": "id",
							"type": "uint256"
						},
						{
							"indexed": false,
							"internalType": "uint256",
							"name": "startTime",
							"type": "uint256"
						}
					],
					"name": "TareaEmpezada",
					"type": "event"
				},
				{
					"inputs": [
						{
							"internalType": "string",
							"name": "_content",
							"type": "string"
						}
					],
					"name": "addTask",
					"outputs": [],
					"stateMutability": "nonpayable",
					"type": "function"
				},
				{
					"inputs": [
						{
							"internalType": "uint256",
							"name": "_id",
							"type": "uint256"
						}
					],
					"name": "completeTask",
					"outputs": [],
					"stateMutability": "nonpayable",
					"type": "function"
				},
				{
					"inputs": [
						{
							"internalType": "uint256",
							"name": "_id",
							"type": "uint256"
						}
					],
					"name": "getTaskContent",
					"outputs": [
						{
							"components": [
								{
									"internalType": "string",
									"name": "content",
									"type": "string"
								},
								{
									"internalType": "uint256",
									"name": "createTime",
									"type": "uint256"
								},
								{
									"internalType": "enum ToDoList.Estado",
									"name": "state",
									"type": "uint8"
								}
							],
							"internalType": "struct ToDoList.Task",
							"name": "",
							"type": "tuple"
						}
					],
					"stateMutability": "view",
					"type": "function"
				},
				{
					"inputs": [],
					"name": "getTaskCount",
					"outputs": [
						{
							"internalType": "uint256",
							"name": "",
							"type": "uint256"
						}
					],
					"stateMutability": "view",
					"type": "function"
				},
				{
					"inputs": [
						{
							"internalType": "uint256",
							"name": "_id",
							"type": "uint256"
						}
					],
					"name": "startTask",
					"outputs": [],
					"stateMutability": "nonpayable",
					"type": "function"
				}
			],
			"devdoc": {
				"kind": "dev",
				"methods": {},
				"version": 1
			},
			"evm": {
				"assembly": "    /* \"contracts/ToDoList.sol\":267:2104  contract ToDoList {... */\n  mstore(0x40, 0x80)\n    /* \"contracts/ToDoList.sol\":568:569  0 */\n  0x00\n    /* \"contracts/ToDoList.sol\":556:569  uint lastID=0 */\n  0x00\n  sstore\n    /* \"contracts/ToDoList.sol\":267:2104  contract ToDoList {... */\n  callvalue\n  dup1\n  iszero\n  tag_1\n  jumpi\n  revert(0x00, 0x00)\ntag_1:\n  pop\n  dataSize(sub_0)\n  dup1\n  dataOffset(sub_0)\n  0x00\n  codecopy\n  0x00\n  return\nstop\n\nsub_0: assembly {\n        /* \"contracts/ToDoList.sol\":267:2104  contract ToDoList {... */\n      mstore(0x40, 0x80)\n      callvalue\n      dup1\n      iszero\n      tag_1\n      jumpi\n      revert(0x00, 0x00)\n    tag_1:\n      pop\n      jumpi(tag_2, lt(calldatasize, 0x04))\n      shr(0xe0, calldataload(0x00))\n      dup1\n      0x5f944326\n      eq\n      tag_3\n      jumpi\n      dup1\n      0x67238562\n      eq\n      tag_4\n      jumpi\n      dup1\n      0xc17a340e\n      eq\n      tag_5\n      jumpi\n      dup1\n      0xcd8e01d1\n      eq\n      tag_6\n      jumpi\n      dup1\n      0xe1e29558\n      eq\n      tag_7\n      jumpi\n    tag_2:\n      revert(0x00, 0x00)\n        /* \"contracts/ToDoList.sol\":1200:1417  function startTask(uint _id) public {... */\n    tag_3:\n      tag_8\n      0x04\n      dup1\n      calldatasize\n      sub\n      dup2\n      add\n      swap1\n      tag_9\n      swap2\n      swap1\n      tag_10\n      jump\t// in\n    tag_9:\n      tag_11\n      jump\t// in\n    tag_8:\n      stop\n        /* \"contracts/ToDoList.sol\":892:1139  function addTask(string memory _content) public {... */\n    tag_4:\n      tag_12\n      0x04\n      dup1\n      calldatasize\n      sub\n      dup2\n      add\n      swap1\n      tag_13\n      swap2\n      swap1\n      tag_14\n      jump\t// in\n    tag_13:\n      tag_15\n      jump\t// in\n    tag_12:\n      stop\n        /* \"contracts/ToDoList.sol\":1770:1853  function getTaskCount() public view returns (uint) {... */\n    tag_5:\n      tag_16\n      tag_17\n      jump\t// in\n    tag_16:\n      mload(0x40)\n      tag_18\n      swap2\n      swap1\n      tag_19\n      jump\t// in\n    tag_18:\n      mload(0x40)\n      dup1\n      swap2\n      sub\n      swap1\n      return\n        /* \"contracts/ToDoList.sol\":1913:2095  function getTaskContent(uint _id) public view returns (Task memory) {... */\n    tag_6:\n      tag_20\n      0x04\n      dup1\n      calldatasize\n      sub\n      dup2\n      add\n      swap1\n      tag_21\n      swap2\n      swap1\n      tag_10\n      jump\t// in\n    tag_21:\n      tag_22\n      jump\t// in\n    tag_20:\n      mload(0x40)\n      tag_23\n      swap2\n      swap1\n      tag_24\n      jump\t// in\n    tag_23:\n      mload(0x40)\n      dup1\n      swap2\n      sub\n      swap1\n      return\n        /* \"contracts/ToDoList.sol\":1480:1706  function completeTask(uint _id) public {... */\n    tag_7:\n      tag_25\n      0x04\n      dup1\n      calldatasize\n      sub\n      dup2\n      add\n      swap1\n      tag_26\n      swap2\n      swap1\n      tag_10\n      jump\t// in\n    tag_26:\n      tag_27\n      jump\t// in\n    tag_25:\n      stop\n        /* \"contracts/ToDoList.sol\":1200:1417  function startTask(uint _id) public {... */\n    tag_11:\n        /* \"contracts/ToDoList.sol\":1261:1267  lastID */\n      sload(0x00)\n        /* \"contracts/ToDoList.sol\":1255:1258  _id */\n      dup2\n        /* \"contracts/ToDoList.sol\":1255:1267  _id < lastID */\n      lt\n        /* \"contracts/ToDoList.sol\":1247:1310  require(_id < lastID, \"START - La tarea con ese id no existe!\") */\n      tag_29\n      jumpi\n      mload(0x40)\n      0x08c379a000000000000000000000000000000000000000000000000000000000\n      dup2\n      mstore\n      0x04\n      add\n      tag_30\n      swap1\n      tag_31\n      jump\t// in\n    tag_30:\n      mload(0x40)\n      dup1\n      swap2\n      sub\n      swap1\n      revert\n    tag_29:\n        /* \"contracts/ToDoList.sol\":1342:1358  Estado.EnProceso */\n      0x01\n        /* \"contracts/ToDoList.sol\":1321:1328  s_tasks */\n      dup1\n        /* \"contracts/ToDoList.sol\":1329:1332  _id */\n      dup3\n        /* \"contracts/ToDoList.sol\":1321:1333  s_tasks[_id] */\n      dup2\n      sload\n      dup2\n      lt\n      tag_32\n      jumpi\n      tag_33\n      tag_34\n      jump\t// in\n    tag_33:\n    tag_32:\n      swap1\n      0x00\n      mstore\n      keccak256(0x00, 0x20)\n      swap1\n      0x03\n      mul\n      add\n        /* \"contracts/ToDoList.sol\":1321:1339  s_tasks[_id].state */\n      0x02\n      add\n      0x00\n        /* \"contracts/ToDoList.sol\":1321:1358  s_tasks[_id].state = Estado.EnProceso */\n      0x0100\n      exp\n      dup2\n      sload\n      dup2\n      0xff\n      mul\n      not\n      and\n      swap1\n      dup4\n      0x02\n      dup2\n      gt\n      iszero\n      tag_36\n      jumpi\n      tag_37\n      tag_38\n      jump\t// in\n    tag_37:\n    tag_36:\n      mul\n      or\n      swap1\n      sstore\n      pop\n        /* \"contracts/ToDoList.sol\":1374:1409  TareaEmpezada(_id, block.timestamp) */\n      0xe00d85f0a208b01a26c1f7ca164ebd9db8790cd309207488b780db04b74844a7\n        /* \"contracts/ToDoList.sol\":1388:1391  _id */\n      dup2\n        /* \"contracts/ToDoList.sol\":1393:1408  block.timestamp */\n      timestamp\n        /* \"contracts/ToDoList.sol\":1374:1409  TareaEmpezada(_id, block.timestamp) */\n      mload(0x40)\n      tag_39\n      swap3\n      swap2\n      swap1\n      tag_40\n      jump\t// in\n    tag_39:\n      mload(0x40)\n      dup1\n      swap2\n      sub\n      swap1\n      log1\n        /* \"contracts/ToDoList.sol\":1200:1417  function startTask(uint _id) public {... */\n      pop\n      jump\t// out\n        /* \"contracts/ToDoList.sol\":892:1139  function addTask(string memory _content) public {... */\n    tag_15:\n        /* \"contracts/ToDoList.sol\":951:970  Task memory newTask */\n      0x00\n        /* \"contracts/ToDoList.sol\":973:1022  Task(_content, block.timestamp, Estado.Pendiente) */\n      mload(0x40)\n      dup1\n      0x60\n      add\n      0x40\n      mstore\n      dup1\n        /* \"contracts/ToDoList.sol\":978:986  _content */\n      dup4\n        /* \"contracts/ToDoList.sol\":973:1022  Task(_content, block.timestamp, Estado.Pendiente) */\n      dup2\n      mstore\n      0x20\n      add\n        /* \"contracts/ToDoList.sol\":988:1003  block.timestamp */\n      timestamp\n        /* \"contracts/ToDoList.sol\":973:1022  Task(_content, block.timestamp, Estado.Pendiente) */\n      dup2\n      mstore\n      0x20\n      add\n        /* \"contracts/ToDoList.sol\":1005:1021  Estado.Pendiente */\n      0x00\n        /* \"contracts/ToDoList.sol\":973:1022  Task(_content, block.timestamp, Estado.Pendiente) */\n      0x02\n      dup2\n      gt\n      iszero\n      tag_42\n      jumpi\n      tag_43\n      tag_38\n      jump\t// in\n    tag_43:\n    tag_42:\n      dup2\n      mstore\n      pop\n        /* \"contracts/ToDoList.sol\":951:1022  Task memory newTask = Task(_content, block.timestamp, Estado.Pendiente) */\n      swap1\n      pop\n        /* \"contracts/ToDoList.sol\":1033:1040  s_tasks */\n      0x01\n        /* \"contracts/ToDoList.sol\":1046:1053  newTask */\n      dup2\n        /* \"contracts/ToDoList.sol\":1033:1054  s_tasks.push(newTask) */\n      swap1\n      dup1\n      0x01\n      dup2\n      sload\n      add\n      dup1\n      dup3\n      sstore\n      dup1\n      swap2\n      pop\n      pop\n      0x01\n      swap1\n      sub\n      swap1\n      0x00\n      mstore\n      keccak256(0x00, 0x20)\n      swap1\n      0x03\n      mul\n      add\n      0x00\n      swap1\n      swap2\n      swap1\n      swap2\n      swap1\n      swap2\n      pop\n      0x00\n      dup3\n      add\n      mload\n      dup2\n      0x00\n      add\n      swap1\n      dup2\n      tag_45\n      swap2\n      swap1\n      tag_46\n      jump\t// in\n    tag_45:\n      pop\n      0x20\n      dup3\n      add\n      mload\n      dup2\n      0x01\n      add\n      sstore\n      0x40\n      dup3\n      add\n      mload\n      dup2\n      0x02\n      add\n      exp(0x0100, 0x00)\n      dup2\n      sload\n      dup2\n      0xff\n      mul\n      not\n      and\n      swap1\n      dup4\n      0x02\n      dup2\n      gt\n      iszero\n      tag_47\n      jumpi\n      tag_48\n      tag_38\n      jump\t// in\n    tag_48:\n    tag_47:\n      mul\n      or\n      swap1\n      sstore\n      pop\n      pop\n      pop\n        /* \"contracts/ToDoList.sol\":1072:1110  TareaCreada(_content, block.timestamp) */\n      0xfbd40f57e66381392c52fb613d4b91e87e7599133e2f2589ec7f1356b901ae3a\n        /* \"contracts/ToDoList.sol\":1084:1092  _content */\n      dup3\n        /* \"contracts/ToDoList.sol\":1094:1109  block.timestamp */\n      timestamp\n        /* \"contracts/ToDoList.sol\":1072:1110  TareaCreada(_content, block.timestamp) */\n      mload(0x40)\n      tag_49\n      swap3\n      swap2\n      swap1\n      tag_50\n      jump\t// in\n    tag_49:\n      mload(0x40)\n      dup1\n      swap2\n      sub\n      swap1\n      log1\n        /* \"contracts/ToDoList.sol\":1123:1129  lastID */\n      0x00\n      0x00\n        /* \"contracts/ToDoList.sol\":1123:1131  lastID++ */\n      dup2\n      sload\n      dup1\n      swap3\n      swap2\n      swap1\n      tag_51\n      swap1\n      tag_52\n      jump\t// in\n    tag_51:\n      swap2\n      swap1\n      pop\n      sstore\n      pop\n        /* \"contracts/ToDoList.sol\":940:1139  {... */\n      pop\n        /* \"contracts/ToDoList.sol\":892:1139  function addTask(string memory _content) public {... */\n      pop\n      jump\t// out\n        /* \"contracts/ToDoList.sol\":1770:1853  function getTaskCount() public view returns (uint) {... */\n    tag_17:\n        /* \"contracts/ToDoList.sol\":1815:1819  uint */\n      0x00\n        /* \"contracts/ToDoList.sol\":1839:1845  lastID */\n      sload(0x00)\n        /* \"contracts/ToDoList.sol\":1832:1845  return lastID */\n      swap1\n      pop\n        /* \"contracts/ToDoList.sol\":1770:1853  function getTaskCount() public view returns (uint) {... */\n      swap1\n      jump\t// out\n        /* \"contracts/ToDoList.sol\":1913:2095  function getTaskContent(uint _id) public view returns (Task memory) {... */\n    tag_22:\n        /* \"contracts/ToDoList.sol\":1968:1979  Task memory */\n      tag_54\n      tag_55\n      jump\t// in\n    tag_54:\n        /* \"contracts/ToDoList.sol\":2006:2012  lastID */\n      sload(0x00)\n        /* \"contracts/ToDoList.sol\":2000:2003  _id */\n      dup3\n        /* \"contracts/ToDoList.sol\":2000:2012  _id < lastID */\n      lt\n        /* \"contracts/ToDoList.sol\":1992:2057  require(_id < lastID, \"CONTENT - La tarea con ese id no existe!\") */\n      tag_57\n      jumpi\n      mload(0x40)\n      0x08c379a000000000000000000000000000000000000000000000000000000000\n      dup2\n      mstore\n      0x04\n      add\n      tag_58\n      swap1\n      tag_59\n      jump\t// in\n    tag_58:\n      mload(0x40)\n      dup1\n      swap2\n      sub\n      swap1\n      revert\n    tag_57:\n        /* \"contracts/ToDoList.sol\":2075:2082  s_tasks */\n      0x01\n        /* \"contracts/ToDoList.sol\":2083:2086  _id */\n      dup3\n        /* \"contracts/ToDoList.sol\":2075:2087  s_tasks[_id] */\n      dup2\n      sload\n      dup2\n      lt\n      tag_60\n      jumpi\n      tag_61\n      tag_34\n      jump\t// in\n    tag_61:\n    tag_60:\n      swap1\n      0x00\n      mstore\n      keccak256(0x00, 0x20)\n      swap1\n      0x03\n      mul\n      add\n        /* \"contracts/ToDoList.sol\":2068:2087  return s_tasks[_id] */\n      mload(0x40)\n      dup1\n      0x60\n      add\n      0x40\n      mstore\n      swap1\n      dup2\n      0x00\n      dup3\n      add\n      dup1\n      sload\n      tag_63\n      swap1\n      tag_64\n      jump\t// in\n    tag_63:\n      dup1\n      0x1f\n      add\n      0x20\n      dup1\n      swap2\n      div\n      mul\n      0x20\n      add\n      mload(0x40)\n      swap1\n      dup2\n      add\n      0x40\n      mstore\n      dup1\n      swap3\n      swap2\n      swap1\n      dup2\n      dup2\n      mstore\n      0x20\n      add\n      dup3\n      dup1\n      sload\n      tag_65\n      swap1\n      tag_64\n      jump\t// in\n    tag_65:\n      dup1\n      iszero\n      tag_66\n      jumpi\n      dup1\n      0x1f\n      lt\n      tag_67\n      jumpi\n      0x0100\n      dup1\n      dup4\n      sload\n      div\n      mul\n      dup4\n      mstore\n      swap2\n      0x20\n      add\n      swap2\n      jump(tag_66)\n    tag_67:\n      dup3\n      add\n      swap2\n      swap1\n      0x00\n      mstore\n      keccak256(0x00, 0x20)\n      swap1\n    tag_68:\n      dup2\n      sload\n      dup2\n      mstore\n      swap1\n      0x01\n      add\n      swap1\n      0x20\n      add\n      dup1\n      dup4\n      gt\n      tag_68\n      jumpi\n      dup3\n      swap1\n      sub\n      0x1f\n      and\n      dup3\n      add\n      swap2\n    tag_66:\n      pop\n      pop\n      pop\n      pop\n      pop\n      dup2\n      mstore\n      0x20\n      add\n      0x01\n      dup3\n      add\n      sload\n      dup2\n      mstore\n      0x20\n      add\n      0x02\n      dup3\n      add\n      0x00\n      swap1\n      sload\n      swap1\n      0x0100\n      exp\n      swap1\n      div\n      0xff\n      and\n      0x02\n      dup2\n      gt\n      iszero\n      tag_69\n      jumpi\n      tag_70\n      tag_38\n      jump\t// in\n    tag_70:\n    tag_69:\n      0x02\n      dup2\n      gt\n      iszero\n      tag_71\n      jumpi\n      tag_72\n      tag_38\n      jump\t// in\n    tag_72:\n    tag_71:\n      dup2\n      mstore\n      pop\n      pop\n      swap1\n      pop\n        /* \"contracts/ToDoList.sol\":1913:2095  function getTaskContent(uint _id) public view returns (Task memory) {... */\n      swap2\n      swap1\n      pop\n      jump\t// out\n        /* \"contracts/ToDoList.sol\":1480:1706  function completeTask(uint _id) public {... */\n    tag_27:\n        /* \"contracts/ToDoList.sol\":1544:1550  lastID */\n      sload(0x00)\n        /* \"contracts/ToDoList.sol\":1538:1541  _id */\n      dup2\n        /* \"contracts/ToDoList.sol\":1538:1550  _id < lastID */\n      lt\n        /* \"contracts/ToDoList.sol\":1530:1596  require(_id < lastID, \"COMPLETE - La tarea con ese id no existe!\") */\n      tag_74\n      jumpi\n      mload(0x40)\n      0x08c379a000000000000000000000000000000000000000000000000000000000\n      dup2\n      mstore\n      0x04\n      add\n      tag_75\n      swap1\n      tag_76\n      jump\t// in\n    tag_75:\n      mload(0x40)\n      dup1\n      swap2\n      sub\n      swap1\n      revert\n    tag_74:\n        /* \"contracts/ToDoList.sol\":1628:1645  Estado.Completada */\n      0x02\n        /* \"contracts/ToDoList.sol\":1607:1614  s_tasks */\n      0x01\n        /* \"contracts/ToDoList.sol\":1615:1618  _id */\n      dup3\n        /* \"contracts/ToDoList.sol\":1607:1619  s_tasks[_id] */\n      dup2\n      sload\n      dup2\n      lt\n      tag_77\n      jumpi\n      tag_78\n      tag_34\n      jump\t// in\n    tag_78:\n    tag_77:\n      swap1\n      0x00\n      mstore\n      keccak256(0x00, 0x20)\n      swap1\n      0x03\n      mul\n      add\n        /* \"contracts/ToDoList.sol\":1607:1625  s_tasks[_id].state */\n      0x02\n      add\n      0x00\n        /* \"contracts/ToDoList.sol\":1607:1645  s_tasks[_id].state = Estado.Completada */\n      0x0100\n      exp\n      dup2\n      sload\n      dup2\n      0xff\n      mul\n      not\n      and\n      swap1\n      dup4\n      0x02\n      dup2\n      gt\n      iszero\n      tag_80\n      jumpi\n      tag_81\n      tag_38\n      jump\t// in\n    tag_81:\n    tag_80:\n      mul\n      or\n      swap1\n      sstore\n      pop\n        /* \"contracts/ToDoList.sol\":1661:1698  TareaCompletada(_id, block.timestamp) */\n      0xb5eafc197af4cc31b1537f61835edd99dffc836e28e6979c7eaa69bbb6fe68b1\n        /* \"contracts/ToDoList.sol\":1677:1680  _id */\n      dup2\n        /* \"contracts/ToDoList.sol\":1682:1697  block.timestamp */\n      timestamp\n        /* \"contracts/ToDoList.sol\":1661:1698  TareaCompletada(_id, block.timestamp) */\n      mload(0x40)\n      tag_82\n      swap3\n      swap2\n      swap1\n      tag_40\n      jump\t// in\n    tag_82:\n      mload(0x40)\n      dup1\n      swap2\n      sub\n      swap1\n      log1\n        /* \"contracts/ToDoList.sol\":1480:1706  function completeTask(uint _id) public {... */\n      pop\n      jump\t// out\n    tag_55:\n      mload(0x40)\n      dup1\n      0x60\n      add\n      0x40\n      mstore\n      dup1\n      0x60\n      dup2\n      mstore\n      0x20\n      add\n      0x00\n      dup2\n      mstore\n      0x20\n      add\n      0x00\n      0x02\n      dup2\n      gt\n      iszero\n      tag_83\n      jumpi\n      tag_84\n      tag_38\n      jump\t// in\n    tag_84:\n    tag_83:\n      dup2\n      mstore\n      pop\n      swap1\n      jump\t// out\n        /* \"#utility.yul\":7:82   */\n    tag_85:\n        /* \"#utility.yul\":40:46   */\n      0x00\n        /* \"#utility.yul\":73:75   */\n      0x40\n        /* \"#utility.yul\":67:76   */\n      mload\n        /* \"#utility.yul\":57:76   */\n      swap1\n      pop\n        /* \"#utility.yul\":7:82   */\n      swap1\n      jump\t// out\n        /* \"#utility.yul\":88:205   */\n    tag_86:\n        /* \"#utility.yul\":197:198   */\n      0x00\n        /* \"#utility.yul\":194:195   */\n      0x00\n        /* \"#utility.yul\":187:199   */\n      revert\n        /* \"#utility.yul\":211:328   */\n    tag_87:\n        /* \"#utility.yul\":320:321   */\n      0x00\n        /* \"#utility.yul\":317:318   */\n      0x00\n        /* \"#utility.yul\":310:322   */\n      revert\n        /* \"#utility.yul\":334:411   */\n    tag_88:\n        /* \"#utility.yul\":371:378   */\n      0x00\n        /* \"#utility.yul\":400:405   */\n      dup2\n        /* \"#utility.yul\":389:405   */\n      swap1\n      pop\n        /* \"#utility.yul\":334:411   */\n      swap2\n      swap1\n      pop\n      jump\t// out\n        /* \"#utility.yul\":417:539   */\n    tag_89:\n        /* \"#utility.yul\":490:514   */\n      tag_143\n        /* \"#utility.yul\":508:513   */\n      dup2\n        /* \"#utility.yul\":490:514   */\n      tag_88\n      jump\t// in\n    tag_143:\n        /* \"#utility.yul\":483:488   */\n      dup2\n        /* \"#utility.yul\":480:515   */\n      eq\n        /* \"#utility.yul\":470:533   */\n      tag_144\n      jumpi\n        /* \"#utility.yul\":529:530   */\n      0x00\n        /* \"#utility.yul\":526:527   */\n      0x00\n        /* \"#utility.yul\":519:531   */\n      revert\n        /* \"#utility.yul\":470:533   */\n    tag_144:\n        /* \"#utility.yul\":417:539   */\n      pop\n      jump\t// out\n        /* \"#utility.yul\":545:684   */\n    tag_90:\n        /* \"#utility.yul\":591:596   */\n      0x00\n        /* \"#utility.yul\":629:635   */\n      dup2\n        /* \"#utility.yul\":616:636   */\n      calldataload\n        /* \"#utility.yul\":607:636   */\n      swap1\n      pop\n        /* \"#utility.yul\":645:678   */\n      tag_146\n        /* \"#utility.yul\":672:677   */\n      dup2\n        /* \"#utility.yul\":645:678   */\n      tag_89\n      jump\t// in\n    tag_146:\n        /* \"#utility.yul\":545:684   */\n      swap3\n      swap2\n      pop\n      pop\n      jump\t// out\n        /* \"#utility.yul\":690:1019   */\n    tag_10:\n        /* \"#utility.yul\":749:755   */\n      0x00\n        /* \"#utility.yul\":798:800   */\n      0x20\n        /* \"#utility.yul\":786:795   */\n      dup3\n        /* \"#utility.yul\":777:784   */\n      dup5\n        /* \"#utility.yul\":773:796   */\n      sub\n        /* \"#utility.yul\":769:801   */\n      slt\n        /* \"#utility.yul\":766:885   */\n      iszero\n      tag_148\n      jumpi\n        /* \"#utility.yul\":804:883   */\n      tag_149\n      tag_86\n      jump\t// in\n    tag_149:\n        /* \"#utility.yul\":766:885   */\n    tag_148:\n        /* \"#utility.yul\":924:925   */\n      0x00\n        /* \"#utility.yul\":949:1002   */\n      tag_150\n        /* \"#utility.yul\":994:1001   */\n      dup5\n        /* \"#utility.yul\":985:991   */\n      dup3\n        /* \"#utility.yul\":974:983   */\n      dup6\n        /* \"#utility.yul\":970:992   */\n      add\n        /* \"#utility.yul\":949:1002   */\n      tag_90\n      jump\t// in\n    tag_150:\n        /* \"#utility.yul\":939:1002   */\n      swap2\n      pop\n        /* \"#utility.yul\":895:1012   */\n      pop\n        /* \"#utility.yul\":690:1019   */\n      swap3\n      swap2\n      pop\n      pop\n      jump\t// out\n        /* \"#utility.yul\":1025:1142   */\n    tag_91:\n        /* \"#utility.yul\":1134:1135   */\n      0x00\n        /* \"#utility.yul\":1131:1132   */\n      0x00\n        /* \"#utility.yul\":1124:1136   */\n      revert\n        /* \"#utility.yul\":1148:1265   */\n    tag_92:\n        /* \"#utility.yul\":1257:1258   */\n      0x00\n        /* \"#utility.yul\":1254:1255   */\n      0x00\n        /* \"#utility.yul\":1247:1259   */\n      revert\n        /* \"#utility.yul\":1271:1373   */\n    tag_93:\n        /* \"#utility.yul\":1312:1318   */\n      0x00\n        /* \"#utility.yul\":1363:1365   */\n      0x1f\n        /* \"#utility.yul\":1359:1366   */\n      not\n        /* \"#utility.yul\":1354:1356   */\n      0x1f\n        /* \"#utility.yul\":1347:1352   */\n      dup4\n        /* \"#utility.yul\":1343:1357   */\n      add\n        /* \"#utility.yul\":1339:1367   */\n      and\n        /* \"#utility.yul\":1329:1367   */\n      swap1\n      pop\n        /* \"#utility.yul\":1271:1373   */\n      swap2\n      swap1\n      pop\n      jump\t// out\n        /* \"#utility.yul\":1379:1559   */\n    tag_94:\n        /* \"#utility.yul\":1427:1504   */\n      0x4e487b7100000000000000000000000000000000000000000000000000000000\n        /* \"#utility.yul\":1424:1425   */\n      0x00\n        /* \"#utility.yul\":1417:1505   */\n      mstore\n        /* \"#utility.yul\":1524:1528   */\n      0x41\n        /* \"#utility.yul\":1521:1522   */\n      0x04\n        /* \"#utility.yul\":1514:1529   */\n      mstore\n        /* \"#utility.yul\":1548:1552   */\n      0x24\n        /* \"#utility.yul\":1545:1546   */\n      0x00\n        /* \"#utility.yul\":1538:1553   */\n      revert\n        /* \"#utility.yul\":1565:1846   */\n    tag_95:\n        /* \"#utility.yul\":1648:1675   */\n      tag_156\n        /* \"#utility.yul\":1670:1674   */\n      dup3\n        /* \"#utility.yul\":1648:1675   */\n      tag_93\n      jump\t// in\n    tag_156:\n        /* \"#utility.yul\":1640:1646   */\n      dup2\n        /* \"#utility.yul\":1636:1676   */\n      add\n        /* \"#utility.yul\":1778:1784   */\n      dup2\n        /* \"#utility.yul\":1766:1776   */\n      dup2\n        /* \"#utility.yul\":1763:1785   */\n      lt\n        /* \"#utility.yul\":1742:1760   */\n      0xffffffffffffffff\n        /* \"#utility.yul\":1730:1740   */\n      dup3\n        /* \"#utility.yul\":1727:1761   */\n      gt\n        /* \"#utility.yul\":1724:1786   */\n      or\n        /* \"#utility.yul\":1721:1809   */\n      iszero\n      tag_157\n      jumpi\n        /* \"#utility.yul\":1789:1807   */\n      tag_158\n      tag_94\n      jump\t// in\n    tag_158:\n        /* \"#utility.yul\":1721:1809   */\n    tag_157:\n        /* \"#utility.yul\":1829:1839   */\n      dup1\n        /* \"#utility.yul\":1825:1827   */\n      0x40\n        /* \"#utility.yul\":1818:1840   */\n      mstore\n        /* \"#utility.yul\":1608:1846   */\n      pop\n        /* \"#utility.yul\":1565:1846   */\n      pop\n      pop\n      jump\t// out\n        /* \"#utility.yul\":1852:1981   */\n    tag_96:\n        /* \"#utility.yul\":1886:1892   */\n      0x00\n        /* \"#utility.yul\":1913:1933   */\n      tag_160\n      tag_85\n      jump\t// in\n    tag_160:\n        /* \"#utility.yul\":1903:1933   */\n      swap1\n      pop\n        /* \"#utility.yul\":1942:1975   */\n      tag_161\n        /* \"#utility.yul\":1970:1974   */\n      dup3\n        /* \"#utility.yul\":1962:1968   */\n      dup3\n        /* \"#utility.yul\":1942:1975   */\n      tag_95\n      jump\t// in\n    tag_161:\n        /* \"#utility.yul\":1852:1981   */\n      swap2\n      swap1\n      pop\n      jump\t// out\n        /* \"#utility.yul\":1987:2295   */\n    tag_97:\n        /* \"#utility.yul\":2049:2053   */\n      0x00\n        /* \"#utility.yul\":2139:2157   */\n      0xffffffffffffffff\n        /* \"#utility.yul\":2131:2137   */\n      dup3\n        /* \"#utility.yul\":2128:2158   */\n      gt\n        /* \"#utility.yul\":2125:2181   */\n      iszero\n      tag_163\n      jumpi\n        /* \"#utility.yul\":2161:2179   */\n      tag_164\n      tag_94\n      jump\t// in\n    tag_164:\n        /* \"#utility.yul\":2125:2181   */\n    tag_163:\n        /* \"#utility.yul\":2199:2228   */\n      tag_165\n        /* \"#utility.yul\":2221:2227   */\n      dup3\n        /* \"#utility.yul\":2199:2228   */\n      tag_93\n      jump\t// in\n    tag_165:\n        /* \"#utility.yul\":2191:2228   */\n      swap1\n      pop\n        /* \"#utility.yul\":2283:2287   */\n      0x20\n        /* \"#utility.yul\":2277:2281   */\n      dup2\n        /* \"#utility.yul\":2273:2288   */\n      add\n        /* \"#utility.yul\":2265:2288   */\n      swap1\n      pop\n        /* \"#utility.yul\":1987:2295   */\n      swap2\n      swap1\n      pop\n      jump\t// out\n        /* \"#utility.yul\":2301:2449   */\n    tag_98:\n        /* \"#utility.yul\":2399:2405   */\n      dup3\n        /* \"#utility.yul\":2394:2397   */\n      dup2\n        /* \"#utility.yul\":2389:2392   */\n      dup4\n        /* \"#utility.yul\":2376:2406   */\n      calldatacopy\n        /* \"#utility.yul\":2440:2441   */\n      0x00\n        /* \"#utility.yul\":2431:2437   */\n      dup4\n        /* \"#utility.yul\":2426:2429   */\n      dup4\n        /* \"#utility.yul\":2422:2438   */\n      add\n        /* \"#utility.yul\":2415:2442   */\n      mstore\n        /* \"#utility.yul\":2301:2449   */\n      pop\n      pop\n      pop\n      jump\t// out\n        /* \"#utility.yul\":2455:2880   */\n    tag_99:\n        /* \"#utility.yul\":2533:2538   */\n      0x00\n        /* \"#utility.yul\":2558:2624   */\n      tag_168\n        /* \"#utility.yul\":2574:2623   */\n      tag_169\n        /* \"#utility.yul\":2616:2622   */\n      dup5\n        /* \"#utility.yul\":2574:2623   */\n      tag_97\n      jump\t// in\n    tag_169:\n        /* \"#utility.yul\":2558:2624   */\n      tag_96\n      jump\t// in\n    tag_168:\n        /* \"#utility.yul\":2549:2624   */\n      swap1\n      pop\n        /* \"#utility.yul\":2647:2653   */\n      dup3\n        /* \"#utility.yul\":2640:2645   */\n      dup2\n        /* \"#utility.yul\":2633:2654   */\n      mstore\n        /* \"#utility.yul\":2685:2689   */\n      0x20\n        /* \"#utility.yul\":2678:2683   */\n      dup2\n        /* \"#utility.yul\":2674:2690   */\n      add\n        /* \"#utility.yul\":2723:2726   */\n      dup5\n        /* \"#utility.yul\":2714:2720   */\n      dup5\n        /* \"#utility.yul\":2709:2712   */\n      dup5\n        /* \"#utility.yul\":2705:2721   */\n      add\n        /* \"#utility.yul\":2702:2727   */\n      gt\n        /* \"#utility.yul\":2699:2811   */\n      iszero\n      tag_170\n      jumpi\n        /* \"#utility.yul\":2730:2809   */\n      tag_171\n      tag_92\n      jump\t// in\n    tag_171:\n        /* \"#utility.yul\":2699:2811   */\n    tag_170:\n        /* \"#utility.yul\":2820:2874   */\n      tag_172\n        /* \"#utility.yul\":2867:2873   */\n      dup5\n        /* \"#utility.yul\":2862:2865   */\n      dup3\n        /* \"#utility.yul\":2857:2860   */\n      dup6\n        /* \"#utility.yul\":2820:2874   */\n      tag_98\n      jump\t// in\n    tag_172:\n        /* \"#utility.yul\":2539:2880   */\n      pop\n        /* \"#utility.yul\":2455:2880   */\n      swap4\n      swap3\n      pop\n      pop\n      pop\n      jump\t// out\n        /* \"#utility.yul\":2900:3240   */\n    tag_100:\n        /* \"#utility.yul\":2956:2961   */\n      0x00\n        /* \"#utility.yul\":3005:3008   */\n      dup3\n        /* \"#utility.yul\":2998:3002   */\n      0x1f\n        /* \"#utility.yul\":2990:2996   */\n      dup4\n        /* \"#utility.yul\":2986:3003   */\n      add\n        /* \"#utility.yul\":2982:3009   */\n      slt\n        /* \"#utility.yul\":2972:3094   */\n      tag_174\n      jumpi\n        /* \"#utility.yul\":3013:3092   */\n      tag_175\n      tag_91\n      jump\t// in\n    tag_175:\n        /* \"#utility.yul\":2972:3094   */\n    tag_174:\n        /* \"#utility.yul\":3130:3136   */\n      dup2\n        /* \"#utility.yul\":3117:3137   */\n      calldataload\n        /* \"#utility.yul\":3155:3234   */\n      tag_176\n        /* \"#utility.yul\":3230:3233   */\n      dup5\n        /* \"#utility.yul\":3222:3228   */\n      dup3\n        /* \"#utility.yul\":3215:3219   */\n      0x20\n        /* \"#utility.yul\":3207:3213   */\n      dup7\n        /* \"#utility.yul\":3203:3220   */\n      add\n        /* \"#utility.yul\":3155:3234   */\n      tag_99\n      jump\t// in\n    tag_176:\n        /* \"#utility.yul\":3146:3234   */\n      swap2\n      pop\n        /* \"#utility.yul\":2962:3240   */\n      pop\n        /* \"#utility.yul\":2900:3240   */\n      swap3\n      swap2\n      pop\n      pop\n      jump\t// out\n        /* \"#utility.yul\":3246:3755   */\n    tag_14:\n        /* \"#utility.yul\":3315:3321   */\n      0x00\n        /* \"#utility.yul\":3364:3366   */\n      0x20\n        /* \"#utility.yul\":3352:3361   */\n      dup3\n        /* \"#utility.yul\":3343:3350   */\n      dup5\n        /* \"#utility.yul\":3339:3362   */\n      sub\n        /* \"#utility.yul\":3335:3367   */\n      slt\n        /* \"#utility.yul\":3332:3451   */\n      iszero\n      tag_178\n      jumpi\n        /* \"#utility.yul\":3370:3449   */\n      tag_179\n      tag_86\n      jump\t// in\n    tag_179:\n        /* \"#utility.yul\":3332:3451   */\n    tag_178:\n        /* \"#utility.yul\":3518:3519   */\n      0x00\n        /* \"#utility.yul\":3507:3516   */\n      dup3\n        /* \"#utility.yul\":3503:3520   */\n      add\n        /* \"#utility.yul\":3490:3521   */\n      calldataload\n        /* \"#utility.yul\":3548:3566   */\n      0xffffffffffffffff\n        /* \"#utility.yul\":3540:3546   */\n      dup2\n        /* \"#utility.yul\":3537:3567   */\n      gt\n        /* \"#utility.yul\":3534:3651   */\n      iszero\n      tag_180\n      jumpi\n        /* \"#utility.yul\":3570:3649   */\n      tag_181\n      tag_87\n      jump\t// in\n    tag_181:\n        /* \"#utility.yul\":3534:3651   */\n    tag_180:\n        /* \"#utility.yul\":3675:3738   */\n      tag_182\n        /* \"#utility.yul\":3730:3737   */\n      dup5\n        /* \"#utility.yul\":3721:3727   */\n      dup3\n        /* \"#utility.yul\":3710:3719   */\n      dup6\n        /* \"#utility.yul\":3706:3728   */\n      add\n        /* \"#utility.yul\":3675:3738   */\n      tag_100\n      jump\t// in\n    tag_182:\n        /* \"#utility.yul\":3665:3738   */\n      swap2\n      pop\n        /* \"#utility.yul\":3461:3748   */\n      pop\n        /* \"#utility.yul\":3246:3755   */\n      swap3\n      swap2\n      pop\n      pop\n      jump\t// out\n        /* \"#utility.yul\":3761:3879   */\n    tag_101:\n        /* \"#utility.yul\":3848:3872   */\n      tag_184\n        /* \"#utility.yul\":3866:3871   */\n      dup2\n        /* \"#utility.yul\":3848:3872   */\n      tag_88\n      jump\t// in\n    tag_184:\n        /* \"#utility.yul\":3843:3846   */\n      dup3\n        /* \"#utility.yul\":3836:3873   */\n      mstore\n        /* \"#utility.yul\":3761:3879   */\n      pop\n      pop\n      jump\t// out\n        /* \"#utility.yul\":3885:4107   */\n    tag_19:\n        /* \"#utility.yul\":3978:3982   */\n      0x00\n        /* \"#utility.yul\":4016:4018   */\n      0x20\n        /* \"#utility.yul\":4005:4014   */\n      dup3\n        /* \"#utility.yul\":4001:4019   */\n      add\n        /* \"#utility.yul\":3993:4019   */\n      swap1\n      pop\n        /* \"#utility.yul\":4029:4100   */\n      tag_186\n        /* \"#utility.yul\":4097:4098   */\n      0x00\n        /* \"#utility.yul\":4086:4095   */\n      dup4\n        /* \"#utility.yul\":4082:4099   */\n      add\n        /* \"#utility.yul\":4073:4079   */\n      dup5\n        /* \"#utility.yul\":4029:4100   */\n      tag_101\n      jump\t// in\n    tag_186:\n        /* \"#utility.yul\":3885:4107   */\n      swap3\n      swap2\n      pop\n      pop\n      jump\t// out\n        /* \"#utility.yul\":4113:4212   */\n    tag_102:\n        /* \"#utility.yul\":4165:4171   */\n      0x00\n        /* \"#utility.yul\":4199:4204   */\n      dup2\n        /* \"#utility.yul\":4193:4205   */\n      mload\n        /* \"#utility.yul\":4183:4205   */\n      swap1\n      pop\n        /* \"#utility.yul\":4113:4212   */\n      swap2\n      swap1\n      pop\n      jump\t// out\n        /* \"#utility.yul\":4218:4377   */\n    tag_103:\n        /* \"#utility.yul\":4292:4303   */\n      0x00\n        /* \"#utility.yul\":4326:4332   */\n      dup3\n        /* \"#utility.yul\":4321:4324   */\n      dup3\n        /* \"#utility.yul\":4314:4333   */\n      mstore\n        /* \"#utility.yul\":4366:4370   */\n      0x20\n        /* \"#utility.yul\":4361:4364   */\n      dup3\n        /* \"#utility.yul\":4357:4371   */\n      add\n        /* \"#utility.yul\":4342:4371   */\n      swap1\n      pop\n        /* \"#utility.yul\":4218:4377   */\n      swap3\n      swap2\n      pop\n      pop\n      jump\t// out\n        /* \"#utility.yul\":4383:4522   */\n    tag_104:\n        /* \"#utility.yul\":4472:4478   */\n      dup3\n        /* \"#utility.yul\":4467:4470   */\n      dup2\n        /* \"#utility.yul\":4462:4465   */\n      dup4\n        /* \"#utility.yul\":4456:4479   */\n      mcopy\n        /* \"#utility.yul\":4513:4514   */\n      0x00\n        /* \"#utility.yul\":4504:4510   */\n      dup4\n        /* \"#utility.yul\":4499:4502   */\n      dup4\n        /* \"#utility.yul\":4495:4511   */\n      add\n        /* \"#utility.yul\":4488:4515   */\n      mstore\n        /* \"#utility.yul\":4383:4522   */\n      pop\n      pop\n      pop\n      jump\t// out\n        /* \"#utility.yul\":4528:4885   */\n    tag_105:\n        /* \"#utility.yul\":4606:4609   */\n      0x00\n        /* \"#utility.yul\":4634:4673   */\n      tag_191\n        /* \"#utility.yul\":4667:4672   */\n      dup3\n        /* \"#utility.yul\":4634:4673   */\n      tag_102\n      jump\t// in\n    tag_191:\n        /* \"#utility.yul\":4689:4750   */\n      tag_192\n        /* \"#utility.yul\":4743:4749   */\n      dup2\n        /* \"#utility.yul\":4738:4741   */\n      dup6\n        /* \"#utility.yul\":4689:4750   */\n      tag_103\n      jump\t// in\n    tag_192:\n        /* \"#utility.yul\":4682:4750   */\n      swap4\n      pop\n        /* \"#utility.yul\":4759:4824   */\n      tag_193\n        /* \"#utility.yul\":4817:4823   */\n      dup2\n        /* \"#utility.yul\":4812:4815   */\n      dup6\n        /* \"#utility.yul\":4805:4809   */\n      0x20\n        /* \"#utility.yul\":4798:4803   */\n      dup7\n        /* \"#utility.yul\":4794:4810   */\n      add\n        /* \"#utility.yul\":4759:4824   */\n      tag_104\n      jump\t// in\n    tag_193:\n        /* \"#utility.yul\":4849:4878   */\n      tag_194\n        /* \"#utility.yul\":4871:4877   */\n      dup2\n        /* \"#utility.yul\":4849:4878   */\n      tag_93\n      jump\t// in\n    tag_194:\n        /* \"#utility.yul\":4844:4847   */\n      dup5\n        /* \"#utility.yul\":4840:4879   */\n      add\n        /* \"#utility.yul\":4833:4879   */\n      swap2\n      pop\n        /* \"#utility.yul\":4610:4885   */\n      pop\n        /* \"#utility.yul\":4528:4885   */\n      swap3\n      swap2\n      pop\n      pop\n      jump\t// out\n        /* \"#utility.yul\":4891:4999   */\n    tag_106:\n        /* \"#utility.yul\":4968:4992   */\n      tag_196\n        /* \"#utility.yul\":4986:4991   */\n      dup2\n        /* \"#utility.yul\":4968:4992   */\n      tag_88\n      jump\t// in\n    tag_196:\n        /* \"#utility.yul\":4963:4966   */\n      dup3\n        /* \"#utility.yul\":4956:4993   */\n      mstore\n        /* \"#utility.yul\":4891:4999   */\n      pop\n      pop\n      jump\t// out\n        /* \"#utility.yul\":5005:5185   */\n    tag_38:\n        /* \"#utility.yul\":5053:5130   */\n      0x4e487b7100000000000000000000000000000000000000000000000000000000\n        /* \"#utility.yul\":5050:5051   */\n      0x00\n        /* \"#utility.yul\":5043:5131   */\n      mstore\n        /* \"#utility.yul\":5150:5154   */\n      0x21\n        /* \"#utility.yul\":5147:5148   */\n      0x04\n        /* \"#utility.yul\":5140:5155   */\n      mstore\n        /* \"#utility.yul\":5174:5178   */\n      0x24\n        /* \"#utility.yul\":5171:5172   */\n      0x00\n        /* \"#utility.yul\":5164:5179   */\n      revert\n        /* \"#utility.yul\":5191:5304   */\n    tag_107:\n        /* \"#utility.yul\":5272:5273   */\n      0x03\n        /* \"#utility.yul\":5265:5270   */\n      dup2\n        /* \"#utility.yul\":5262:5274   */\n      lt\n        /* \"#utility.yul\":5252:5298   */\n      tag_199\n      jumpi\n        /* \"#utility.yul\":5278:5296   */\n      tag_200\n      tag_38\n      jump\t// in\n    tag_200:\n        /* \"#utility.yul\":5252:5298   */\n    tag_199:\n        /* \"#utility.yul\":5191:5304   */\n      pop\n      jump\t// out\n        /* \"#utility.yul\":5310:5437   */\n    tag_108:\n        /* \"#utility.yul\":5355:5362   */\n      0x00\n        /* \"#utility.yul\":5384:5389   */\n      dup2\n        /* \"#utility.yul\":5373:5389   */\n      swap1\n      pop\n        /* \"#utility.yul\":5390:5431   */\n      tag_202\n        /* \"#utility.yul\":5425:5430   */\n      dup3\n        /* \"#utility.yul\":5390:5431   */\n      tag_107\n      jump\t// in\n    tag_202:\n        /* \"#utility.yul\":5310:5437   */\n      swap2\n      swap1\n      pop\n      jump\t// out\n        /* \"#utility.yul\":5443:5570   */\n    tag_109:\n        /* \"#utility.yul\":5499:5508   */\n      0x00\n        /* \"#utility.yul\":5532:5564   */\n      tag_204\n        /* \"#utility.yul\":5558:5563   */\n      dup3\n        /* \"#utility.yul\":5532:5564   */\n      tag_108\n      jump\t// in\n    tag_204:\n        /* \"#utility.yul\":5519:5564   */\n      swap1\n      pop\n        /* \"#utility.yul\":5443:5570   */\n      swap2\n      swap1\n      pop\n      jump\t// out\n        /* \"#utility.yul\":5576:5709   */\n    tag_110:\n        /* \"#utility.yul\":5659:5702   */\n      tag_206\n        /* \"#utility.yul\":5696:5701   */\n      dup2\n        /* \"#utility.yul\":5659:5702   */\n      tag_109\n      jump\t// in\n    tag_206:\n        /* \"#utility.yul\":5654:5657   */\n      dup3\n        /* \"#utility.yul\":5647:5703   */\n      mstore\n        /* \"#utility.yul\":5576:5709   */\n      pop\n      pop\n      jump\t// out\n        /* \"#utility.yul\":5767:6553   */\n    tag_111:\n        /* \"#utility.yul\":5876:5879   */\n      0x00\n        /* \"#utility.yul\":5912:5916   */\n      0x60\n        /* \"#utility.yul\":5907:5910   */\n      dup4\n        /* \"#utility.yul\":5903:5917   */\n      add\n        /* \"#utility.yul\":6002:6006   */\n      0x00\n        /* \"#utility.yul\":5995:6000   */\n      dup4\n        /* \"#utility.yul\":5991:6007   */\n      add\n        /* \"#utility.yul\":5985:6008   */\n      mload\n        /* \"#utility.yul\":6055:6058   */\n      dup5\n        /* \"#utility.yul\":6049:6053   */\n      dup3\n        /* \"#utility.yul\":6045:6059   */\n      sub\n        /* \"#utility.yul\":6038:6042   */\n      0x00\n        /* \"#utility.yul\":6033:6036   */\n      dup7\n        /* \"#utility.yul\":6029:6043   */\n      add\n        /* \"#utility.yul\":6022:6060   */\n      mstore\n        /* \"#utility.yul\":6081:6154   */\n      tag_208\n        /* \"#utility.yul\":6149:6153   */\n      dup3\n        /* \"#utility.yul\":6135:6147   */\n      dup3\n        /* \"#utility.yul\":6081:6154   */\n      tag_105\n      jump\t// in\n    tag_208:\n        /* \"#utility.yul\":6073:6154   */\n      swap2\n      pop\n        /* \"#utility.yul\":5927:6165   */\n      pop\n        /* \"#utility.yul\":6253:6257   */\n      0x20\n        /* \"#utility.yul\":6246:6251   */\n      dup4\n        /* \"#utility.yul\":6242:6258   */\n      add\n        /* \"#utility.yul\":6236:6259   */\n      mload\n        /* \"#utility.yul\":6272:6335   */\n      tag_209\n        /* \"#utility.yul\":6329:6333   */\n      0x20\n        /* \"#utility.yul\":6324:6327   */\n      dup7\n        /* \"#utility.yul\":6320:6334   */\n      add\n        /* \"#utility.yul\":6306:6318   */\n      dup3\n        /* \"#utility.yul\":6272:6335   */\n      tag_106\n      jump\t// in\n    tag_209:\n        /* \"#utility.yul\":6175:6345   */\n      pop\n        /* \"#utility.yul\":6428:6432   */\n      0x40\n        /* \"#utility.yul\":6421:6426   */\n      dup4\n        /* \"#utility.yul\":6417:6433   */\n      add\n        /* \"#utility.yul\":6411:6434   */\n      mload\n        /* \"#utility.yul\":6447:6516   */\n      tag_210\n        /* \"#utility.yul\":6510:6514   */\n      0x40\n        /* \"#utility.yul\":6505:6508   */\n      dup7\n        /* \"#utility.yul\":6501:6515   */\n      add\n        /* \"#utility.yul\":6487:6499   */\n      dup3\n        /* \"#utility.yul\":6447:6516   */\n      tag_110\n      jump\t// in\n    tag_210:\n        /* \"#utility.yul\":6355:6526   */\n      pop\n        /* \"#utility.yul\":6543:6547   */\n      dup1\n        /* \"#utility.yul\":6536:6547   */\n      swap2\n      pop\n        /* \"#utility.yul\":5881:6553   */\n      pop\n        /* \"#utility.yul\":5767:6553   */\n      swap3\n      swap2\n      pop\n      pop\n      jump\t// out\n        /* \"#utility.yul\":6559:6912   */\n    tag_24:\n        /* \"#utility.yul\":6692:6696   */\n      0x00\n        /* \"#utility.yul\":6730:6732   */\n      0x20\n        /* \"#utility.yul\":6719:6728   */\n      dup3\n        /* \"#utility.yul\":6715:6733   */\n      add\n        /* \"#utility.yul\":6707:6733   */\n      swap1\n      pop\n        /* \"#utility.yul\":6779:6788   */\n      dup2\n        /* \"#utility.yul\":6773:6777   */\n      dup2\n        /* \"#utility.yul\":6769:6789   */\n      sub\n        /* \"#utility.yul\":6765:6766   */\n      0x00\n        /* \"#utility.yul\":6754:6763   */\n      dup4\n        /* \"#utility.yul\":6750:6767   */\n      add\n        /* \"#utility.yul\":6743:6790   */\n      mstore\n        /* \"#utility.yul\":6807:6905   */\n      tag_212\n        /* \"#utility.yul\":6900:6904   */\n      dup2\n        /* \"#utility.yul\":6891:6897   */\n      dup5\n        /* \"#utility.yul\":6807:6905   */\n      tag_111\n      jump\t// in\n    tag_212:\n        /* \"#utility.yul\":6799:6905   */\n      swap1\n      pop\n        /* \"#utility.yul\":6559:6912   */\n      swap3\n      swap2\n      pop\n      pop\n      jump\t// out\n        /* \"#utility.yul\":6918:7087   */\n    tag_112:\n        /* \"#utility.yul\":7002:7013   */\n      0x00\n        /* \"#utility.yul\":7036:7042   */\n      dup3\n        /* \"#utility.yul\":7031:7034   */\n      dup3\n        /* \"#utility.yul\":7024:7043   */\n      mstore\n        /* \"#utility.yul\":7076:7080   */\n      0x20\n        /* \"#utility.yul\":7071:7074   */\n      dup3\n        /* \"#utility.yul\":7067:7081   */\n      add\n        /* \"#utility.yul\":7052:7081   */\n      swap1\n      pop\n        /* \"#utility.yul\":6918:7087   */\n      swap3\n      swap2\n      pop\n      pop\n      jump\t// out\n        /* \"#utility.yul\":7093:7318   */\n    tag_113:\n        /* \"#utility.yul\":7233:7267   */\n      0x5354415254202d204c6120746172656120636f6e20657365206964206e6f2065\n        /* \"#utility.yul\":7229:7230   */\n      0x00\n        /* \"#utility.yul\":7221:7227   */\n      dup3\n        /* \"#utility.yul\":7217:7231   */\n      add\n        /* \"#utility.yul\":7210:7268   */\n      mstore\n        /* \"#utility.yul\":7302:7310   */\n      0x7869737465210000000000000000000000000000000000000000000000000000\n        /* \"#utility.yul\":7297:7299   */\n      0x20\n        /* \"#utility.yul\":7289:7295   */\n      dup3\n        /* \"#utility.yul\":7285:7300   */\n      add\n        /* \"#utility.yul\":7278:7311   */\n      mstore\n        /* \"#utility.yul\":7093:7318   */\n      pop\n      jump\t// out\n        /* \"#utility.yul\":7324:7690   */\n    tag_114:\n        /* \"#utility.yul\":7466:7469   */\n      0x00\n        /* \"#utility.yul\":7487:7554   */\n      tag_216\n        /* \"#utility.yul\":7551:7553   */\n      0x26\n        /* \"#utility.yul\":7546:7549   */\n      dup4\n        /* \"#utility.yul\":7487:7554   */\n      tag_112\n      jump\t// in\n    tag_216:\n        /* \"#utility.yul\":7480:7554   */\n      swap2\n      pop\n        /* \"#utility.yul\":7563:7656   */\n      tag_217\n        /* \"#utility.yul\":7652:7655   */\n      dup3\n        /* \"#utility.yul\":7563:7656   */\n      tag_113\n      jump\t// in\n    tag_217:\n        /* \"#utility.yul\":7681:7683   */\n      0x40\n        /* \"#utility.yul\":7676:7679   */\n      dup3\n        /* \"#utility.yul\":7672:7684   */\n      add\n        /* \"#utility.yul\":7665:7684   */\n      swap1\n      pop\n        /* \"#utility.yul\":7324:7690   */\n      swap2\n      swap1\n      pop\n      jump\t// out\n        /* \"#utility.yul\":7696:8115   */\n    tag_31:\n        /* \"#utility.yul\":7862:7866   */\n      0x00\n        /* \"#utility.yul\":7900:7902   */\n      0x20\n        /* \"#utility.yul\":7889:7898   */\n      dup3\n        /* \"#utility.yul\":7885:7903   */\n      add\n        /* \"#utility.yul\":7877:7903   */\n      swap1\n      pop\n        /* \"#utility.yul\":7949:7958   */\n      dup2\n        /* \"#utility.yul\":7943:7947   */\n      dup2\n        /* \"#utility.yul\":7939:7959   */\n      sub\n        /* \"#utility.yul\":7935:7936   */\n      0x00\n        /* \"#utility.yul\":7924:7933   */\n      dup4\n        /* \"#utility.yul\":7920:7937   */\n      add\n        /* \"#utility.yul\":7913:7960   */\n      mstore\n        /* \"#utility.yul\":7977:8108   */\n      tag_219\n        /* \"#utility.yul\":8103:8107   */\n      dup2\n        /* \"#utility.yul\":7977:8108   */\n      tag_114\n      jump\t// in\n    tag_219:\n        /* \"#utility.yul\":7969:8108   */\n      swap1\n      pop\n        /* \"#utility.yul\":7696:8115   */\n      swap2\n      swap1\n      pop\n      jump\t// out\n        /* \"#utility.yul\":8121:8301   */\n    tag_34:\n        /* \"#utility.yul\":8169:8246   */\n      0x4e487b7100000000000000000000000000000000000000000000000000000000\n        /* \"#utility.yul\":8166:8167   */\n      0x00\n        /* \"#utility.yul\":8159:8247   */\n      mstore\n        /* \"#utility.yul\":8266:8270   */\n      0x32\n        /* \"#utility.yul\":8263:8264   */\n      0x04\n        /* \"#utility.yul\":8256:8271   */\n      mstore\n        /* \"#utility.yul\":8290:8294   */\n      0x24\n        /* \"#utility.yul\":8287:8288   */\n      0x00\n        /* \"#utility.yul\":8280:8295   */\n      revert\n        /* \"#utility.yul\":8307:8639   */\n    tag_40:\n        /* \"#utility.yul\":8428:8432   */\n      0x00\n        /* \"#utility.yul\":8466:8468   */\n      0x40\n        /* \"#utility.yul\":8455:8464   */\n      dup3\n        /* \"#utility.yul\":8451:8469   */\n      add\n        /* \"#utility.yul\":8443:8469   */\n      swap1\n      pop\n        /* \"#utility.yul\":8479:8550   */\n      tag_222\n        /* \"#utility.yul\":8547:8548   */\n      0x00\n        /* \"#utility.yul\":8536:8545   */\n      dup4\n        /* \"#utility.yul\":8532:8549   */\n      add\n        /* \"#utility.yul\":8523:8529   */\n      dup6\n        /* \"#utility.yul\":8479:8550   */\n      tag_101\n      jump\t// in\n    tag_222:\n        /* \"#utility.yul\":8560:8632   */\n      tag_223\n        /* \"#utility.yul\":8628:8630   */\n      0x20\n        /* \"#utility.yul\":8617:8626   */\n      dup4\n        /* \"#utility.yul\":8613:8631   */\n      add\n        /* \"#utility.yul\":8604:8610   */\n      dup5\n        /* \"#utility.yul\":8560:8632   */\n      tag_101\n      jump\t// in\n    tag_223:\n        /* \"#utility.yul\":8307:8639   */\n      swap4\n      swap3\n      pop\n      pop\n      pop\n      jump\t// out\n        /* \"#utility.yul\":8645:8825   */\n    tag_115:\n        /* \"#utility.yul\":8693:8770   */\n      0x4e487b7100000000000000000000000000000000000000000000000000000000\n        /* \"#utility.yul\":8690:8691   */\n      0x00\n        /* \"#utility.yul\":8683:8771   */\n      mstore\n        /* \"#utility.yul\":8790:8794   */\n      0x22\n        /* \"#utility.yul\":8787:8788   */\n      0x04\n        /* \"#utility.yul\":8780:8795   */\n      mstore\n        /* \"#utility.yul\":8814:8818   */\n      0x24\n        /* \"#utility.yul\":8811:8812   */\n      0x00\n        /* \"#utility.yul\":8804:8819   */\n      revert\n        /* \"#utility.yul\":8831:9151   */\n    tag_64:\n        /* \"#utility.yul\":8875:8881   */\n      0x00\n        /* \"#utility.yul\":8912:8913   */\n      0x02\n        /* \"#utility.yul\":8906:8910   */\n      dup3\n        /* \"#utility.yul\":8902:8914   */\n      div\n        /* \"#utility.yul\":8892:8914   */\n      swap1\n      pop\n        /* \"#utility.yul\":8959:8960   */\n      0x01\n        /* \"#utility.yul\":8953:8957   */\n      dup3\n        /* \"#utility.yul\":8949:8961   */\n      and\n        /* \"#utility.yul\":8980:8998   */\n      dup1\n        /* \"#utility.yul\":8970:9051   */\n      tag_226\n      jumpi\n        /* \"#utility.yul\":9036:9040   */\n      0x7f\n        /* \"#utility.yul\":9028:9034   */\n      dup3\n        /* \"#utility.yul\":9024:9041   */\n      and\n        /* \"#utility.yul\":9014:9041   */\n      swap2\n      pop\n        /* \"#utility.yul\":8970:9051   */\n    tag_226:\n        /* \"#utility.yul\":9098:9100   */\n      0x20\n        /* \"#utility.yul\":9090:9096   */\n      dup3\n        /* \"#utility.yul\":9087:9101   */\n      lt\n        /* \"#utility.yul\":9067:9085   */\n      dup2\n        /* \"#utility.yul\":9064:9102   */\n      sub\n        /* \"#utility.yul\":9061:9145   */\n      tag_227\n      jumpi\n        /* \"#utility.yul\":9117:9135   */\n      tag_228\n      tag_115\n      jump\t// in\n    tag_228:\n        /* \"#utility.yul\":9061:9145   */\n    tag_227:\n        /* \"#utility.yul\":8882:9151   */\n      pop\n        /* \"#utility.yul\":8831:9151   */\n      swap2\n      swap1\n      pop\n      jump\t// out\n        /* \"#utility.yul\":9157:9298   */\n    tag_116:\n        /* \"#utility.yul\":9206:9210   */\n      0x00\n        /* \"#utility.yul\":9229:9232   */\n      dup2\n        /* \"#utility.yul\":9221:9232   */\n      swap1\n      pop\n        /* \"#utility.yul\":9252:9255   */\n      dup2\n        /* \"#utility.yul\":9249:9250   */\n      0x00\n        /* \"#utility.yul\":9242:9256   */\n      mstore\n        /* \"#utility.yul\":9286:9290   */\n      0x20\n        /* \"#utility.yul\":9283:9284   */\n      0x00\n        /* \"#utility.yul\":9273:9291   */\n      keccak256\n        /* \"#utility.yul\":9265:9291   */\n      swap1\n      pop\n        /* \"#utility.yul\":9157:9298   */\n      swap2\n      swap1\n      pop\n      jump\t// out\n        /* \"#utility.yul\":9304:9397   */\n    tag_117:\n        /* \"#utility.yul\":9341:9347   */\n      0x00\n        /* \"#utility.yul\":9388:9390   */\n      0x20\n        /* \"#utility.yul\":9383:9385   */\n      0x1f\n        /* \"#utility.yul\":9376:9381   */\n      dup4\n        /* \"#utility.yul\":9372:9386   */\n      add\n        /* \"#utility.yul\":9368:9391   */\n      div\n        /* \"#utility.yul\":9358:9391   */\n      swap1\n      pop\n        /* \"#utility.yul\":9304:9397   */\n      swap2\n      swap1\n      pop\n      jump\t// out\n        /* \"#utility.yul\":9403:9510   */\n    tag_118:\n        /* \"#utility.yul\":9447:9455   */\n      0x00\n        /* \"#utility.yul\":9497:9502   */\n      dup3\n        /* \"#utility.yul\":9491:9495   */\n      dup3\n        /* \"#utility.yul\":9487:9503   */\n      shl\n        /* \"#utility.yul\":9466:9503   */\n      swap1\n      pop\n        /* \"#utility.yul\":9403:9510   */\n      swap3\n      swap2\n      pop\n      pop\n      jump\t// out\n        /* \"#utility.yul\":9516:9909   */\n    tag_119:\n        /* \"#utility.yul\":9585:9591   */\n      0x00\n        /* \"#utility.yul\":9635:9636   */\n      0x08\n        /* \"#utility.yul\":9623:9633   */\n      dup4\n        /* \"#utility.yul\":9619:9637   */\n      mul\n        /* \"#utility.yul\":9658:9755   */\n      tag_233\n        /* \"#utility.yul\":9688:9754   */\n      0xffffffffffffffffffffffffffffffffffffffffffffffffffffffffffffffff\n        /* \"#utility.yul\":9677:9686   */\n      dup3\n        /* \"#utility.yul\":9658:9755   */\n      tag_118\n      jump\t// in\n    tag_233:\n        /* \"#utility.yul\":9776:9815   */\n      tag_234\n        /* \"#utility.yul\":9806:9814   */\n      dup7\n        /* \"#utility.yul\":9795:9804   */\n      dup4\n        /* \"#utility.yul\":9776:9815   */\n      tag_118\n      jump\t// in\n    tag_234:\n        /* \"#utility.yul\":9764:9815   */\n      swap6\n      pop\n        /* \"#utility.yul\":9848:9852   */\n      dup1\n        /* \"#utility.yul\":9844:9853   */\n      not\n        /* \"#utility.yul\":9837:9842   */\n      dup5\n        /* \"#utility.yul\":9833:9854   */\n      and\n        /* \"#utility.yul\":9824:9854   */\n      swap4\n      pop\n        /* \"#utility.yul\":9897:9901   */\n      dup1\n        /* \"#utility.yul\":9887:9895   */\n      dup7\n        /* \"#utility.yul\":9883:9902   */\n      and\n        /* \"#utility.yul\":9876:9881   */\n      dup5\n        /* \"#utility.yul\":9873:9903   */\n      or\n        /* \"#utility.yul\":9863:9903   */\n      swap3\n      pop\n        /* \"#utility.yul\":9592:9909   */\n      pop\n      pop\n        /* \"#utility.yul\":9516:9909   */\n      swap4\n      swap3\n      pop\n      pop\n      pop\n      jump\t// out\n        /* \"#utility.yul\":9915:9975   */\n    tag_120:\n        /* \"#utility.yul\":9943:9946   */\n      0x00\n        /* \"#utility.yul\":9964:9969   */\n      dup2\n        /* \"#utility.yul\":9957:9969   */\n      swap1\n      pop\n        /* \"#utility.yul\":9915:9975   */\n      swap2\n      swap1\n      pop\n      jump\t// out\n        /* \"#utility.yul\":9981:10123   */\n    tag_121:\n        /* \"#utility.yul\":10031:10040   */\n      0x00\n        /* \"#utility.yul\":10064:10117   */\n      tag_237\n        /* \"#utility.yul\":10082:10116   */\n      tag_238\n        /* \"#utility.yul\":10091:10115   */\n      tag_239\n        /* \"#utility.yul\":10109:10114   */\n      dup5\n        /* \"#utility.yul\":10091:10115   */\n      tag_88\n      jump\t// in\n    tag_239:\n        /* \"#utility.yul\":10082:10116   */\n      tag_120\n      jump\t// in\n    tag_238:\n        /* \"#utility.yul\":10064:10117   */\n      tag_88\n      jump\t// in\n    tag_237:\n        /* \"#utility.yul\":10051:10117   */\n      swap1\n      pop\n        /* \"#utility.yul\":9981:10123   */\n      swap2\n      swap1\n      pop\n      jump\t// out\n        /* \"#utility.yul\":10129:10204   */\n    tag_122:\n        /* \"#utility.yul\":10172:10175   */\n      0x00\n        /* \"#utility.yul\":10193:10198   */\n      dup2\n        /* \"#utility.yul\":10186:10198   */\n      swap1\n      pop\n        /* \"#utility.yul\":10129:10204   */\n      swap2\n      swap1\n      pop\n      jump\t// out\n        /* \"#utility.yul\":10210:10479   */\n    tag_123:\n        /* \"#utility.yul\":10320:10359   */\n      tag_242\n        /* \"#utility.yul\":10351:10358   */\n      dup4\n        /* \"#utility.yul\":10320:10359   */\n      tag_121\n      jump\t// in\n    tag_242:\n        /* \"#utility.yul\":10381:10472   */\n      tag_243\n        /* \"#utility.yul\":10430:10471   */\n      tag_244\n        /* \"#utility.yul\":10454:10470   */\n      dup3\n        /* \"#utility.yul\":10430:10471   */\n      tag_122\n      jump\t// in\n    tag_244:\n        /* \"#utility.yul\":10422:10428   */\n      dup5\n        /* \"#utility.yul\":10415:10419   */\n      dup5\n        /* \"#utility.yul\":10409:10420   */\n      sload\n        /* \"#utility.yul\":10381:10472   */\n      tag_119\n      jump\t// in\n    tag_243:\n        /* \"#utility.yul\":10375:10379   */\n      dup3\n        /* \"#utility.yul\":10368:10473   */\n      sstore\n        /* \"#utility.yul\":10286:10479   */\n      pop\n        /* \"#utility.yul\":10210:10479   */\n      pop\n      pop\n      pop\n      jump\t// out\n        /* \"#utility.yul\":10485:10558   */\n    tag_124:\n        /* \"#utility.yul\":10530:10533   */\n      0x00\n        /* \"#utility.yul\":10551:10552   */\n      0x00\n        /* \"#utility.yul\":10544:10552   */\n      swap1\n      pop\n        /* \"#utility.yul\":10485:10558   */\n      swap1\n      jump\t// out\n        /* \"#utility.yul\":10564:10753   */\n    tag_125:\n        /* \"#utility.yul\":10641:10673   */\n      tag_247\n      tag_124\n      jump\t// in\n    tag_247:\n        /* \"#utility.yul\":10682:10747   */\n      tag_248\n        /* \"#utility.yul\":10740:10746   */\n      dup2\n        /* \"#utility.yul\":10732:10738   */\n      dup5\n        /* \"#utility.yul\":10726:10730   */\n      dup5\n        /* \"#utility.yul\":10682:10747   */\n      tag_123\n      jump\t// in\n    tag_248:\n        /* \"#utility.yul\":10617:10753   */\n      pop\n        /* \"#utility.yul\":10564:10753   */\n      pop\n      pop\n      jump\t// out\n        /* \"#utility.yul\":10759:10945   */\n    tag_126:\n        /* \"#utility.yul\":10819:10939   */\n    tag_250:\n        /* \"#utility.yul\":10836:10839   */\n      dup2\n        /* \"#utility.yul\":10829:10834   */\n      dup2\n        /* \"#utility.yul\":10826:10840   */\n      lt\n        /* \"#utility.yul\":10819:10939   */\n      iszero\n      tag_252\n      jumpi\n        /* \"#utility.yul\":10890:10929   */\n      tag_253\n        /* \"#utility.yul\":10927:10928   */\n      0x00\n        /* \"#utility.yul\":10920:10925   */\n      dup3\n        /* \"#utility.yul\":10890:10929   */\n      tag_125\n      jump\t// in\n    tag_253:\n        /* \"#utility.yul\":10863:10864   */\n      0x01\n        /* \"#utility.yul\":10856:10861   */\n      dup2\n        /* \"#utility.yul\":10852:10865   */\n      add\n        /* \"#utility.yul\":10843:10865   */\n      swap1\n      pop\n        /* \"#utility.yul\":10819:10939   */\n      jump(tag_250)\n    tag_252:\n        /* \"#utility.yul\":10759:10945   */\n      pop\n      pop\n      jump\t// out\n        /* \"#utility.yul\":10951:11494   */\n    tag_127:\n        /* \"#utility.yul\":11052:11054   */\n      0x1f\n        /* \"#utility.yul\":11047:11050   */\n      dup3\n        /* \"#utility.yul\":11044:11055   */\n      gt\n        /* \"#utility.yul\":11041:11487   */\n      iszero\n      tag_255\n      jumpi\n        /* \"#utility.yul\":11086:11124   */\n      tag_256\n        /* \"#utility.yul\":11118:11123   */\n      dup2\n        /* \"#utility.yul\":11086:11124   */\n      tag_116\n      jump\t// in\n    tag_256:\n        /* \"#utility.yul\":11170:11199   */\n      tag_257\n        /* \"#utility.yul\":11188:11198   */\n      dup5\n        /* \"#utility.yul\":11170:11199   */\n      tag_117\n      jump\t// in\n    tag_257:\n        /* \"#utility.yul\":11160:11168   */\n      dup2\n        /* \"#utility.yul\":11156:11200   */\n      add\n        /* \"#utility.yul\":11353:11355   */\n      0x20\n        /* \"#utility.yul\":11341:11351   */\n      dup6\n        /* \"#utility.yul\":11338:11356   */\n      lt\n        /* \"#utility.yul\":11335:11384   */\n      iszero\n      tag_258\n      jumpi\n        /* \"#utility.yul\":11374:11382   */\n      dup2\n        /* \"#utility.yul\":11359:11382   */\n      swap1\n      pop\n        /* \"#utility.yul\":11335:11384   */\n    tag_258:\n        /* \"#utility.yul\":11397:11477   */\n      tag_259\n        /* \"#utility.yul\":11453:11475   */\n      tag_260\n        /* \"#utility.yul\":11471:11474   */\n      dup6\n        /* \"#utility.yul\":11453:11475   */\n      tag_117\n      jump\t// in\n    tag_260:\n        /* \"#utility.yul\":11443:11451   */\n      dup4\n        /* \"#utility.yul\":11439:11476   */\n      add\n        /* \"#utility.yul\":11426:11437   */\n      dup3\n        /* \"#utility.yul\":11397:11477   */\n      tag_126\n      jump\t// in\n    tag_259:\n        /* \"#utility.yul\":11056:11487   */\n      pop\n      pop\n        /* \"#utility.yul\":11041:11487   */\n    tag_255:\n        /* \"#utility.yul\":10951:11494   */\n      pop\n      pop\n      pop\n      jump\t// out\n        /* \"#utility.yul\":11500:11617   */\n    tag_128:\n        /* \"#utility.yul\":11554:11562   */\n      0x00\n        /* \"#utility.yul\":11604:11609   */\n      dup3\n        /* \"#utility.yul\":11598:11602   */\n      dup3\n        /* \"#utility.yul\":11594:11610   */\n      shr\n        /* \"#utility.yul\":11573:11610   */\n      swap1\n      pop\n        /* \"#utility.yul\":11500:11617   */\n      swap3\n      swap2\n      pop\n      pop\n      jump\t// out\n        /* \"#utility.yul\":11623:11792   */\n    tag_129:\n        /* \"#utility.yul\":11667:11673   */\n      0x00\n        /* \"#utility.yul\":11700:11751   */\n      tag_263\n        /* \"#utility.yul\":11748:11749   */\n      0x00\n        /* \"#utility.yul\":11744:11750   */\n      not\n        /* \"#utility.yul\":11736:11741   */\n      dup5\n        /* \"#utility.yul\":11733:11734   */\n      0x08\n        /* \"#utility.yul\":11729:11742   */\n      mul\n        /* \"#utility.yul\":11700:11751   */\n      tag_128\n      jump\t// in\n    tag_263:\n        /* \"#utility.yul\":11696:11752   */\n      not\n        /* \"#utility.yul\":11781:11785   */\n      dup1\n        /* \"#utility.yul\":11775:11779   */\n      dup4\n        /* \"#utility.yul\":11771:11786   */\n      and\n        /* \"#utility.yul\":11761:11786   */\n      swap2\n      pop\n        /* \"#utility.yul\":11674:11792   */\n      pop\n        /* \"#utility.yul\":11623:11792   */\n      swap3\n      swap2\n      pop\n      pop\n      jump\t// out\n        /* \"#utility.yul\":11797:12092   */\n    tag_130:\n        /* \"#utility.yul\":11873:11877   */\n      0x00\n        /* \"#utility.yul\":12019:12048   */\n      tag_265\n        /* \"#utility.yul\":12044:12047   */\n      dup4\n        /* \"#utility.yul\":12038:12042   */\n      dup4\n        /* \"#utility.yul\":12019:12048   */\n      tag_129\n      jump\t// in\n    tag_265:\n        /* \"#utility.yul\":12011:12048   */\n      swap2\n      pop\n        /* \"#utility.yul\":12081:12084   */\n      dup3\n        /* \"#utility.yul\":12078:12079   */\n      0x02\n        /* \"#utility.yul\":12074:12085   */\n      mul\n        /* \"#utility.yul\":12068:12072   */\n      dup3\n        /* \"#utility.yul\":12065:12086   */\n      or\n        /* \"#utility.yul\":12057:12086   */\n      swap1\n      pop\n        /* \"#utility.yul\":11797:12092   */\n      swap3\n      swap2\n      pop\n      pop\n      jump\t// out\n        /* \"#utility.yul\":12097:13492   */\n    tag_46:\n        /* \"#utility.yul\":12214:12251   */\n      tag_267\n        /* \"#utility.yul\":12247:12250   */\n      dup3\n        /* \"#utility.yul\":12214:12251   */\n      tag_102\n      jump\t// in\n    tag_267:\n        /* \"#utility.yul\":12316:12334   */\n      0xffffffffffffffff\n        /* \"#utility.yul\":12308:12314   */\n      dup2\n        /* \"#utility.yul\":12305:12335   */\n      gt\n        /* \"#utility.yul\":12302:12358   */\n      iszero\n      tag_268\n      jumpi\n        /* \"#utility.yul\":12338:12356   */\n      tag_269\n      tag_94\n      jump\t// in\n    tag_269:\n        /* \"#utility.yul\":12302:12358   */\n    tag_268:\n        /* \"#utility.yul\":12382:12420   */\n      tag_270\n        /* \"#utility.yul\":12414:12418   */\n      dup3\n        /* \"#utility.yul\":12408:12419   */\n      sload\n        /* \"#utility.yul\":12382:12420   */\n      tag_64\n      jump\t// in\n    tag_270:\n        /* \"#utility.yul\":12467:12534   */\n      tag_271\n        /* \"#utility.yul\":12527:12533   */\n      dup3\n        /* \"#utility.yul\":12519:12525   */\n      dup3\n        /* \"#utility.yul\":12513:12517   */\n      dup6\n        /* \"#utility.yul\":12467:12534   */\n      tag_127\n      jump\t// in\n    tag_271:\n        /* \"#utility.yul\":12561:12562   */\n      0x00\n        /* \"#utility.yul\":12585:12589   */\n      0x20\n        /* \"#utility.yul\":12572:12589   */\n      swap1\n      pop\n        /* \"#utility.yul\":12617:12619   */\n      0x1f\n        /* \"#utility.yul\":12609:12615   */\n      dup4\n        /* \"#utility.yul\":12606:12620   */\n      gt\n        /* \"#utility.yul\":12634:12635   */\n      0x01\n        /* \"#utility.yul\":12629:13247   */\n      dup2\n      eq\n      tag_273\n      jumpi\n        /* \"#utility.yul\":13291:13292   */\n      0x00\n        /* \"#utility.yul\":13308:13314   */\n      dup5\n        /* \"#utility.yul\":13305:13382   */\n      iszero\n      tag_274\n      jumpi\n        /* \"#utility.yul\":13357:13366   */\n      dup3\n        /* \"#utility.yul\":13352:13355   */\n      dup8\n        /* \"#utility.yul\":13348:13367   */\n      add\n        /* \"#utility.yul\":13342:13368   */\n      mload\n        /* \"#utility.yul\":13333:13368   */\n      swap1\n      pop\n        /* \"#utility.yul\":13305:13382   */\n    tag_274:\n        /* \"#utility.yul\":13408:13475   */\n      tag_275\n        /* \"#utility.yul\":13468:13474   */\n      dup6\n        /* \"#utility.yul\":13461:13466   */\n      dup3\n        /* \"#utility.yul\":13408:13475   */\n      tag_130\n      jump\t// in\n    tag_275:\n        /* \"#utility.yul\":13402:13406   */\n      dup7\n        /* \"#utility.yul\":13395:13476   */\n      sstore\n        /* \"#utility.yul\":13264:13486   */\n      pop\n        /* \"#utility.yul\":12599:13486   */\n      jump(tag_272)\n        /* \"#utility.yul\":12629:13247   */\n    tag_273:\n        /* \"#utility.yul\":12681:12685   */\n      0x1f\n        /* \"#utility.yul\":12677:12686   */\n      not\n        /* \"#utility.yul\":12669:12675   */\n      dup5\n        /* \"#utility.yul\":12665:12687   */\n      and\n        /* \"#utility.yul\":12715:12752   */\n      tag_276\n        /* \"#utility.yul\":12747:12751   */\n      dup7\n        /* \"#utility.yul\":12715:12752   */\n      tag_116\n      jump\t// in\n    tag_276:\n        /* \"#utility.yul\":12774:12775   */\n      0x00\n        /* \"#utility.yul\":12788:12996   */\n    tag_277:\n        /* \"#utility.yul\":12802:12809   */\n      dup3\n        /* \"#utility.yul\":12799:12800   */\n      dup2\n        /* \"#utility.yul\":12796:12810   */\n      lt\n        /* \"#utility.yul\":12788:12996   */\n      iszero\n      tag_279\n      jumpi\n        /* \"#utility.yul\":12881:12890   */\n      dup5\n        /* \"#utility.yul\":12876:12879   */\n      dup10\n        /* \"#utility.yul\":12872:12891   */\n      add\n        /* \"#utility.yul\":12866:12892   */\n      mload\n        /* \"#utility.yul\":12858:12864   */\n      dup3\n        /* \"#utility.yul\":12851:12893   */\n      sstore\n        /* \"#utility.yul\":12932:12933   */\n      0x01\n        /* \"#utility.yul\":12924:12930   */\n      dup3\n        /* \"#utility.yul\":12920:12934   */\n      add\n        /* \"#utility.yul\":12910:12934   */\n      swap2\n      pop\n        /* \"#utility.yul\":12979:12981   */\n      0x20\n        /* \"#utility.yul\":12968:12977   */\n      dup6\n        /* \"#utility.yul\":12964:12982   */\n      add\n        /* \"#utility.yul\":12951:12982   */\n      swap5\n      pop\n        /* \"#utility.yul\":12825:12829   */\n      0x20\n        /* \"#utility.yul\":12822:12823   */\n      dup2\n        /* \"#utility.yul\":12818:12830   */\n      add\n        /* \"#utility.yul\":12813:12830   */\n      swap1\n      pop\n        /* \"#utility.yul\":12788:12996   */\n      jump(tag_277)\n    tag_279:\n        /* \"#utility.yul\":13024:13030   */\n      dup7\n        /* \"#utility.yul\":13015:13022   */\n      dup4\n        /* \"#utility.yul\":13012:13031   */\n      lt\n        /* \"#utility.yul\":13009:13188   */\n      iszero\n      tag_280\n      jumpi\n        /* \"#utility.yul\":13082:13091   */\n      dup5\n        /* \"#utility.yul\":13077:13080   */\n      dup10\n        /* \"#utility.yul\":13073:13092   */\n      add\n        /* \"#utility.yul\":13067:13093   */\n      mload\n        /* \"#utility.yul\":13125:13173   */\n      tag_281\n        /* \"#utility.yul\":13167:13171   */\n      0x1f\n        /* \"#utility.yul\":13159:13165   */\n      dup10\n        /* \"#utility.yul\":13155:13172   */\n      and\n        /* \"#utility.yul\":13144:13153   */\n      dup3\n        /* \"#utility.yul\":13125:13173   */\n      tag_129\n      jump\t// in\n    tag_281:\n        /* \"#utility.yul\":13117:13123   */\n      dup4\n        /* \"#utility.yul\":13110:13174   */\n      sstore\n        /* \"#utility.yul\":13032:13188   */\n      pop\n        /* \"#utility.yul\":13009:13188   */\n    tag_280:\n        /* \"#utility.yul\":13234:13235   */\n      0x01\n        /* \"#utility.yul\":13230:13231   */\n      0x02\n        /* \"#utility.yul\":13222:13228   */\n      dup9\n        /* \"#utility.yul\":13218:13232   */\n      mul\n        /* \"#utility.yul\":13214:13236   */\n      add\n        /* \"#utility.yul\":13208:13212   */\n      dup9\n        /* \"#utility.yul\":13201:13237   */\n      sstore\n        /* \"#utility.yul\":12636:13247   */\n      pop\n      pop\n      pop\n        /* \"#utility.yul\":12599:13486   */\n    tag_272:\n      pop\n        /* \"#utility.yul\":12189:13492   */\n      pop\n      pop\n      pop\n        /* \"#utility.yul\":12097:13492   */\n      pop\n      pop\n      jump\t// out\n        /* \"#utility.yul\":13498:13875   */\n    tag_131:\n        /* \"#utility.yul\":13586:13589   */\n      0x00\n        /* \"#utility.yul\":13614:13653   */\n      tag_283\n        /* \"#utility.yul\":13647:13652   */\n      dup3\n        /* \"#utility.yul\":13614:13653   */\n      tag_102\n      jump\t// in\n    tag_283:\n        /* \"#utility.yul\":13669:13740   */\n      tag_284\n        /* \"#utility.yul\":13733:13739   */\n      dup2\n        /* \"#utility.yul\":13728:13731   */\n      dup6\n        /* \"#utility.yul\":13669:13740   */\n      tag_112\n      jump\t// in\n    tag_284:\n        /* \"#utility.yul\":13662:13740   */\n      swap4\n      pop\n        /* \"#utility.yul\":13749:13814   */\n      tag_285\n        /* \"#utility.yul\":13807:13813   */\n      dup2\n        /* \"#utility.yul\":13802:13805   */\n      dup6\n        /* \"#utility.yul\":13795:13799   */\n      0x20\n        /* \"#utility.yul\":13788:13793   */\n      dup7\n        /* \"#utility.yul\":13784:13800   */\n      add\n        /* \"#utility.yul\":13749:13814   */\n      tag_104\n      jump\t// in\n    tag_285:\n        /* \"#utility.yul\":13839:13868   */\n      tag_286\n        /* \"#utility.yul\":13861:13867   */\n      dup2\n        /* \"#utility.yul\":13839:13868   */\n      tag_93\n      jump\t// in\n    tag_286:\n        /* \"#utility.yul\":13834:13837   */\n      dup5\n        /* \"#utility.yul\":13830:13869   */\n      add\n        /* \"#utility.yul\":13823:13869   */\n      swap2\n      pop\n        /* \"#utility.yul\":13590:13875   */\n      pop\n        /* \"#utility.yul\":13498:13875   */\n      swap3\n      swap2\n      pop\n      pop\n      jump\t// out\n        /* \"#utility.yul\":13881:14304   */\n    tag_50:\n        /* \"#utility.yul\":14022:14026   */\n      0x00\n        /* \"#utility.yul\":14060:14062   */\n      0x40\n        /* \"#utility.yul\":14049:14058   */\n      dup3\n        /* \"#utility.yul\":14045:14063   */\n      add\n        /* \"#utility.yul\":14037:14063   */\n      swap1\n      pop\n        /* \"#utility.yul\":14109:14118   */\n      dup2\n        /* \"#utility.yul\":14103:14107   */\n      dup2\n        /* \"#utility.yul\":14099:14119   */\n      sub\n        /* \"#utility.yul\":14095:14096   */\n      0x00\n        /* \"#utility.yul\":14084:14093   */\n      dup4\n        /* \"#utility.yul\":14080:14097   */\n      add\n        /* \"#utility.yul\":14073:14120   */\n      mstore\n        /* \"#utility.yul\":14137:14215   */\n      tag_288\n        /* \"#utility.yul\":14210:14214   */\n      dup2\n        /* \"#utility.yul\":14201:14207   */\n      dup6\n        /* \"#utility.yul\":14137:14215   */\n      tag_131\n      jump\t// in\n    tag_288:\n        /* \"#utility.yul\":14129:14215   */\n      swap1\n      pop\n        /* \"#utility.yul\":14225:14297   */\n      tag_289\n        /* \"#utility.yul\":14293:14295   */\n      0x20\n        /* \"#utility.yul\":14282:14291   */\n      dup4\n        /* \"#utility.yul\":14278:14296   */\n      add\n        /* \"#utility.yul\":14269:14275   */\n      dup5\n        /* \"#utility.yul\":14225:14297   */\n      tag_101\n      jump\t// in\n    tag_289:\n        /* \"#utility.yul\":13881:14304   */\n      swap4\n      swap3\n      pop\n      pop\n      pop\n      jump\t// out\n        /* \"#utility.yul\":14310:14490   */\n    tag_132:\n        /* \"#utility.yul\":14358:14435   */\n      0x4e487b7100000000000000000000000000000000000000000000000000000000\n        /* \"#utility.yul\":14355:14356   */\n      0x00\n        /* \"#utility.yul\":14348:14436   */\n      mstore\n        /* \"#utility.yul\":14455:14459   */\n      0x11\n        /* \"#utility.yul\":14452:14453   */\n      0x04\n        /* \"#utility.yul\":14445:14460   */\n      mstore\n        /* \"#utility.yul\":14479:14483   */\n      0x24\n        /* \"#utility.yul\":14476:14477   */\n      0x00\n        /* \"#utility.yul\":14469:14484   */\n      revert\n        /* \"#utility.yul\":14496:14729   */\n    tag_52:\n        /* \"#utility.yul\":14535:14538   */\n      0x00\n        /* \"#utility.yul\":14558:14582   */\n      tag_292\n        /* \"#utility.yul\":14576:14581   */\n      dup3\n        /* \"#utility.yul\":14558:14582   */\n      tag_88\n      jump\t// in\n    tag_292:\n        /* \"#utility.yul\":14549:14582   */\n      swap2\n      pop\n        /* \"#utility.yul\":14604:14670   */\n      0xffffffffffffffffffffffffffffffffffffffffffffffffffffffffffffffff\n        /* \"#utility.yul\":14597:14602   */\n      dup3\n        /* \"#utility.yul\":14594:14671   */\n      sub\n        /* \"#utility.yul\":14591:14694   */\n      tag_293\n      jumpi\n        /* \"#utility.yul\":14674:14692   */\n      tag_294\n      tag_132\n      jump\t// in\n    tag_294:\n        /* \"#utility.yul\":14591:14694   */\n    tag_293:\n        /* \"#utility.yul\":14721:14722   */\n      0x01\n        /* \"#utility.yul\":14714:14719   */\n      dup3\n        /* \"#utility.yul\":14710:14723   */\n      add\n        /* \"#utility.yul\":14703:14723   */\n      swap1\n      pop\n        /* \"#utility.yul\":14496:14729   */\n      swap2\n      swap1\n      pop\n      jump\t// out\n        /* \"#utility.yul\":14735:14962   */\n    tag_133:\n        /* \"#utility.yul\":14875:14909   */\n      0x434f4e54454e54202d204c6120746172656120636f6e20657365206964206e6f\n        /* \"#utility.yul\":14871:14872   */\n      0x00\n        /* \"#utility.yul\":14863:14869   */\n      dup3\n        /* \"#utility.yul\":14859:14873   */\n      add\n        /* \"#utility.yul\":14852:14910   */\n      mstore\n        /* \"#utility.yul\":14944:14954   */\n      0x2065786973746521000000000000000000000000000000000000000000000000\n        /* \"#utility.yul\":14939:14941   */\n      0x20\n        /* \"#utility.yul\":14931:14937   */\n      dup3\n        /* \"#utility.yul\":14927:14942   */\n      add\n        /* \"#utility.yul\":14920:14955   */\n      mstore\n        /* \"#utility.yul\":14735:14962   */\n      pop\n      jump\t// out\n        /* \"#utility.yul\":14968:15334   */\n    tag_134:\n        /* \"#utility.yul\":15110:15113   */\n      0x00\n        /* \"#utility.yul\":15131:15198   */\n      tag_297\n        /* \"#utility.yul\":15195:15197   */\n      0x28\n        /* \"#utility.yul\":15190:15193   */\n      dup4\n        /* \"#utility.yul\":15131:15198   */\n      tag_112\n      jump\t// in\n    tag_297:\n        /* \"#utility.yul\":15124:15198   */\n      swap2\n      pop\n        /* \"#utility.yul\":15207:15300   */\n      tag_298\n        /* \"#utility.yul\":15296:15299   */\n      dup3\n        /* \"#utility.yul\":15207:15300   */\n      tag_133\n      jump\t// in\n    tag_298:\n        /* \"#utility.yul\":15325:15327   */\n      0x40\n        /* \"#utility.yul\":15320:15323   */\n      dup3\n        /* \"#utility.yul\":15316:15328   */\n      add\n        /* \"#utility.yul\":15309:15328   */\n      swap1\n      pop\n        /* \"#utility.yul\":14968:15334   */\n      swap2\n      swap1\n      pop\n      jump\t// out\n        /* \"#utility.yul\":15340:15759   */\n    tag_59:\n        /* \"#utility.yul\":15506:15510   */\n      0x00\n        /* \"#utility.yul\":15544:15546   */\n      0x20\n        /* \"#utility.yul\":15533:15542   */\n      dup3\n        /* \"#utility.yul\":15529:15547   */\n      add\n        /* \"#utility.yul\":15521:15547   */\n      swap1\n      pop\n        /* \"#utility.yul\":15593:15602   */\n      dup2\n        /* \"#utility.yul\":15587:15591   */\n      dup2\n        /* \"#utility.yul\":15583:15603   */\n      sub\n        /* \"#utility.yul\":15579:15580   */\n      0x00\n        /* \"#utility.yul\":15568:15577   */\n      dup4\n        /* \"#utility.yul\":15564:15581   */\n      add\n        /* \"#utility.yul\":15557:15604   */\n      mstore\n        /* \"#utility.yul\":15621:15752   */\n      tag_300\n        /* \"#utility.yul\":15747:15751   */\n      dup2\n        /* \"#utility.yul\":15621:15752   */\n      tag_134\n      jump\t// in\n    tag_300:\n        /* \"#utility.yul\":15613:15752   */\n      swap1\n      pop\n        /* \"#utility.yul\":15340:15759   */\n      swap2\n      swap1\n      pop\n      jump\t// out\n        /* \"#utility.yul\":15765:15993   */\n    tag_135:\n        /* \"#utility.yul\":15905:15939   */\n      0x434f4d504c455445202d204c6120746172656120636f6e20657365206964206e\n        /* \"#utility.yul\":15901:15902   */\n      0x00\n        /* \"#utility.yul\":15893:15899   */\n      dup3\n        /* \"#utility.yul\":15889:15903   */\n      add\n        /* \"#utility.yul\":15882:15940   */\n      mstore\n        /* \"#utility.yul\":15974:15985   */\n      0x6f20657869737465210000000000000000000000000000000000000000000000\n        /* \"#utility.yul\":15969:15971   */\n      0x20\n        /* \"#utility.yul\":15961:15967   */\n      dup3\n        /* \"#utility.yul\":15957:15972   */\n      add\n        /* \"#utility.yul\":15950:15986   */\n      mstore\n        /* \"#utility.yul\":15765:15993   */\n      pop\n      jump\t// out\n        /* \"#utility.yul\":15999:16365   */\n    tag_136:\n        /* \"#utility.yul\":16141:16144   */\n      0x00\n        /* \"#utility.yul\":16162:16229   */\n      tag_303\n        /* \"#utility.yul\":16226:16228   */\n      0x29\n        /* \"#utility.yul\":16221:16224   */\n      dup4\n        /* \"#utility.yul\":16162:16229   */\n      tag_112\n      jump\t// in\n    tag_303:\n        /* \"#utility.yul\":16155:16229   */\n      swap2\n      pop\n        /* \"#utility.yul\":16238:16331   */\n      tag_304\n        /* \"#utility.yul\":16327:16330   */\n      dup3\n        /* \"#utility.yul\":16238:16331   */\n      tag_135\n      jump\t// in\n    tag_304:\n        /* \"#utility.yul\":16356:16358   */\n      0x40\n        /* \"#utility.yul\":16351:16354   */\n      dup3\n        /* \"#utility.yul\":16347:16359   */\n      add\n        /* \"#utility.yul\":16340:16359   */\n      swap1\n      pop\n        /* \"#utility.yul\":15999:16365   */\n      swap2\n      swap1\n      pop\n      jump\t// out\n        /* \"#utility.yul\":16371:16790   */\n    tag_76:\n        /* \"#utility.yul\":16537:16541   */\n      0x00\n        /* \"#utility.yul\":16575:16577   */\n      0x20\n        /* \"#utility.yul\":16564:16573   */\n      dup3\n        /* \"#utility.yul\":16560:16578   */\n      add\n        /* \"#utility.yul\":16552:16578   */\n      swap1\n      pop\n        /* \"#utility.yul\":16624:16633   */\n      dup2\n        /* \"#utility.yul\":16618:16622   */\n      dup2\n        /* \"#utility.yul\":16614:16634   */\n      sub\n        /* \"#utility.yul\":16610:16611   */\n      0x00\n        /* \"#utility.yul\":16599:16608   */\n      dup4\n        /* \"#utility.yul\":16595:16612   */\n      add\n        /* \"#utility.yul\":16588:16635   */\n      mstore\n        /* \"#utility.yul\":16652:16783   */\n      tag_306\n        /* \"#utility.yul\":16778:16782   */\n      dup2\n        /* \"#utility.yul\":16652:16783   */\n      tag_136\n      jump\t// in\n    tag_306:\n        /* \"#utility.yul\":16644:16783   */\n      swap1\n      pop\n        /* \"#utility.yul\":16371:16790   */\n      swap2\n      swap1\n      pop\n      jump\t// out\n\n    auxdata: 0xa26469706673582212205fd2118ac0bc7551487c261eeedbe256f1835df9672ca81b283c92ecba02ebd664736f6c634300081e0033\n}\n",
				"bytecode": {
					"linkReferences": {},
					"object": "60806040525f5f553480156011575f5ffd5b50610e658061001f5f395ff3fe608060405234801561000f575f5ffd5b5060043610610055575f3560e01c80635f944326146100595780636723856214610075578063c17a340e14610091578063cd8e01d1146100af578063e1e29558146100df575b5f5ffd5b610073600480360381019061006e9190610556565b6100fb565b005b61008f600480360381019061008a91906106bd565b6101c4565b005b6100996102bf565b6040516100a69190610713565b60405180910390f35b6100c960048036038101906100c49190610556565b6102c7565b6040516100d6919061085b565b60405180910390f35b6100f960048036038101906100f49190610556565b610417565b005b5f54811061013e576040517f08c379a0000000000000000000000000000000000000000000000000000000008152600401610135906108fb565b60405180910390fd5b600180828154811061015357610152610919565b5b905f5260205f2090600302016002015f6101000a81548160ff021916908360028111156101835761018261079b565b5b02179055507fe00d85f0a208b01a26c1f7ca164ebd9db8790cd309207488b780db04b74844a781426040516101b9929190610946565b60405180910390a150565b5f60405180606001604052808381526020014281526020015f60028111156101ef576101ee61079b565b5b8152509050600181908060018154018082558091505060019003905f5260205f2090600302015f909190919091505f820151815f0190816102309190610b6a565b50602082015181600101556040820151816002015f6101000a81548160ff021916908360028111156102655761026461079b565b5b021790555050507ffbd40f57e66381392c52fb613d4b91e87e7599133e2f2589ec7f1356b901ae3a824260405161029d929190610c71565b60405180910390a15f5f8154809291906102b690610ccc565b91905055505050565b5f5f54905090565b6102cf6104e1565b5f548210610312576040517f08c379a000000000000000000000000000000000000000000000000000000000815260040161030990610d83565b60405180910390fd5b6001828154811061032657610325610919565b5b905f5260205f2090600302016040518060600160405290815f8201805461034c9061099a565b80601f01602080910402602001604051908101604052809291908181526020018280546103789061099a565b80156103c35780601f1061039a576101008083540402835291602001916103c3565b820191905f5260205f20905b8154815290600101906020018083116103a657829003601f168201915b5050505050815260200160018201548152602001600282015f9054906101000a900460ff1660028111156103fa576103f961079b565b5b600281111561040c5761040b61079b565b5b815250509050919050565b5f54811061045a576040517f08c379a000000000000000000000000000000000000000000000000000000000815260040161045190610e11565b60405180910390fd5b6002600182815481106104705761046f610919565b5b905f5260205f2090600302016002015f6101000a81548160ff021916908360028111156104a05761049f61079b565b5b02179055507fb5eafc197af4cc31b1537f61835edd99dffc836e28e6979c7eaa69bbb6fe68b181426040516104d6929190610946565b60405180910390a150565b6040518060600160405280606081526020015f81526020015f600281111561050c5761050b61079b565b5b81525090565b5f604051905090565b5f5ffd5b5f5ffd5b5f819050919050565b61053581610523565b811461053f575f5ffd5b50565b5f813590506105508161052c565b92915050565b5f6020828403121561056b5761056a61051b565b5b5f61057884828501610542565b91505092915050565b5f5ffd5b5f5ffd5b5f601f19601f8301169050919050565b7f4e487b71000000000000000000000000000000000000000000000000000000005f52604160045260245ffd5b6105cf82610589565b810181811067ffffffffffffffff821117156105ee576105ed610599565b5b80604052505050565b5f610600610512565b905061060c82826105c6565b919050565b5f67ffffffffffffffff82111561062b5761062a610599565b5b61063482610589565b9050602081019050919050565b828183375f83830152505050565b5f61066161065c84610611565b6105f7565b90508281526020810184848401111561067d5761067c610585565b5b610688848285610641565b509392505050565b5f82601f8301126106a4576106a3610581565b5b81356106b484826020860161064f565b91505092915050565b5f602082840312156106d2576106d161051b565b5b5f82013567ffffffffffffffff8111156106ef576106ee61051f565b5b6106fb84828501610690565b91505092915050565b61070d81610523565b82525050565b5f6020820190506107265f830184610704565b92915050565b5f81519050919050565b5f82825260208201905092915050565b8281835e5f83830152505050565b5f61075e8261072c565b6107688185610736565b9350610778818560208601610746565b61078181610589565b840191505092915050565b61079581610523565b82525050565b7f4e487b71000000000000000000000000000000000000000000000000000000005f52602160045260245ffd5b600381106107d9576107d861079b565b5b50565b5f8190506107e9826107c8565b919050565b5f6107f8826107dc565b9050919050565b610808816107ee565b82525050565b5f606083015f8301518482035f8601526108288282610754565b915050602083015161083d602086018261078c565b50604083015161085060408601826107ff565b508091505092915050565b5f6020820190508181035f830152610873818461080e565b905092915050565b5f82825260208201905092915050565b7f5354415254202d204c6120746172656120636f6e20657365206964206e6f20655f8201527f7869737465210000000000000000000000000000000000000000000000000000602082015250565b5f6108e560268361087b565b91506108f08261088b565b604082019050919050565b5f6020820190508181035f830152610912816108d9565b9050919050565b7f4e487b71000000000000000000000000000000000000000000000000000000005f52603260045260245ffd5b5f6040820190506109595f830185610704565b6109666020830184610704565b9392505050565b7f4e487b71000000000000000000000000000000000000000000000000000000005f52602260045260245ffd5b5f60028204905060018216806109b157607f821691505b6020821081036109c4576109c361096d565b5b50919050565b5f819050815f5260205f209050919050565b5f6020601f8301049050919050565b5f82821b905092915050565b5f60088302610a267fffffffffffffffffffffffffffffffffffffffffffffffffffffffffffffffff826109eb565b610a3086836109eb565b95508019841693508086168417925050509392505050565b5f819050919050565b5f610a6b610a66610a6184610523565b610a48565b610523565b9050919050565b5f819050919050565b610a8483610a51565b610a98610a9082610a72565b8484546109f7565b825550505050565b5f5f905090565b610aaf610aa0565b610aba818484610a7b565b505050565b5b81811015610add57610ad25f82610aa7565b600181019050610ac0565b5050565b601f821115610b2257610af3816109ca565b610afc846109dc565b81016020851015610b0b578190505b610b1f610b17856109dc565b830182610abf565b50505b505050565b5f82821c905092915050565b5f610b425f1984600802610b27565b1980831691505092915050565b5f610b5a8383610b33565b9150826002028217905092915050565b610b738261072c565b67ffffffffffffffff811115610b8c57610b8b610599565b5b610b96825461099a565b610ba1828285610ae1565b5f60209050601f831160018114610bd2575f8415610bc0578287015190505b610bca8582610b4f565b865550610c31565b601f198416610be0866109ca565b5f5b82811015610c0757848901518255600182019150602085019450602081019050610be2565b86831015610c245784890151610c20601f891682610b33565b8355505b6001600288020188555050505b505050505050565b5f610c438261072c565b610c4d818561087b565b9350610c5d818560208601610746565b610c6681610589565b840191505092915050565b5f6040820190508181035f830152610c898185610c39565b9050610c986020830184610704565b9392505050565b7f4e487b71000000000000000000000000000000000000000000000000000000005f52601160045260245ffd5b5f610cd682610523565b91507fffffffffffffffffffffffffffffffffffffffffffffffffffffffffffffffff8203610d0857610d07610c9f565b5b600182019050919050565b7f434f4e54454e54202d204c6120746172656120636f6e20657365206964206e6f5f8201527f2065786973746521000000000000000000000000000000000000000000000000602082015250565b5f610d6d60288361087b565b9150610d7882610d13565b604082019050919050565b5f6020820190508181035f830152610d9a81610d61565b9050919050565b7f434f4d504c455445202d204c6120746172656120636f6e20657365206964206e5f8201527f6f20657869737465210000000000000000000000000000000000000000000000602082015250565b5f610dfb60298361087b565b9150610e0682610da1565b604082019050919050565b5f6020820190508181035f830152610e2881610def565b905091905056fea26469706673582212205fd2118ac0bc7551487c261eeedbe256f1835df9672ca81b283c92ecba02ebd664736f6c634300081e0033",
					"opcodes": "PUSH1 0x80 PUSH1 0x40 MSTORE PUSH0 PUSH0 SSTORE CALLVALUE DUP1 ISZERO PUSH1 0x11 JUMPI PUSH0 PUSH0 REVERT JUMPDEST POP PUSH2 0xE65 DUP1 PUSH2 0x1F PUSH0 CODECOPY PUSH0 RETURN INVALID PUSH1 0x80 PUSH1 0x40 MSTORE CALLVALUE DUP1 ISZERO PUSH2 0xF JUMPI PUSH0 PUSH0 REVERT JUMPDEST POP PUSH1 0x4 CALLDATASIZE LT PUSH2 0x55 JUMPI PUSH0 CALLDATALOAD PUSH1 0xE0 SHR DUP1 PUSH4 0x5F944326 EQ PUSH2 0x59 JUMPI DUP1 PUSH4 0x67238562 EQ PUSH2 0x75 JUMPI DUP1 PUSH4 0xC17A340E EQ PUSH2 0x91 JUMPI DUP1 PUSH4 0xCD8E01D1 EQ PUSH2 0xAF JUMPI DUP1 PUSH4 0xE1E29558 EQ PUSH2 0xDF JUMPI JUMPDEST PUSH0 PUSH0 REVERT JUMPDEST PUSH2 0x73 PUSH1 0x4 DUP1 CALLDATASIZE SUB DUP2 ADD SWAP1 PUSH2 0x6E SWAP2 SWAP1 PUSH2 0x556 JUMP JUMPDEST PUSH2 0xFB JUMP JUMPDEST STOP JUMPDEST PUSH2 0x8F PUSH1 0x4 DUP1 CALLDATASIZE SUB DUP2 ADD SWAP1 PUSH2 0x8A SWAP2 SWAP1 PUSH2 0x6BD JUMP JUMPDEST PUSH2 0x1C4 JUMP JUMPDEST STOP JUMPDEST PUSH2 0x99 PUSH2 0x2BF JUMP JUMPDEST PUSH1 0x40 MLOAD PUSH2 0xA6 SWAP2 SWAP1 PUSH2 0x713 JUMP JUMPDEST PUSH1 0x40 MLOAD DUP1 SWAP2 SUB SWAP1 RETURN JUMPDEST PUSH2 0xC9 PUSH1 0x4 DUP1 CALLDATASIZE SUB DUP2 ADD SWAP1 PUSH2 0xC4 SWAP2 SWAP1 PUSH2 0x556 JUMP JUMPDEST PUSH2 0x2C7 JUMP JUMPDEST PUSH1 0x40 MLOAD PUSH2 0xD6 SWAP2 SWAP1 PUSH2 0x85B JUMP JUMPDEST PUSH1 0x40 MLOAD DUP1 SWAP2 SUB SWAP1 RETURN JUMPDEST PUSH2 0xF9 PUSH1 0x4 DUP1 CALLDATASIZE SUB DUP2 ADD SWAP1 PUSH2 0xF4 SWAP2 SWAP1 PUSH2 0x556 JUMP JUMPDEST PUSH2 0x417 JUMP JUMPDEST STOP JUMPDEST PUSH0 SLOAD DUP2 LT PUSH2 0x13E JUMPI PUSH1 0x40 MLOAD PUSH32 0x8C379A000000000000000000000000000000000000000000000000000000000 DUP2 MSTORE PUSH1 0x4 ADD PUSH2 0x135 SWAP1 PUSH2 0x8FB JUMP JUMPDEST PUSH1 0x40 MLOAD DUP1 SWAP2 SUB SWAP1 REVERT JUMPDEST PUSH1 0x1 DUP1 DUP3 DUP2 SLOAD DUP2 LT PUSH2 0x153 JUMPI PUSH2 0x152 PUSH2 0x919 JUMP JUMPDEST JUMPDEST SWAP1 PUSH0 MSTORE PUSH1 0x20 PUSH0 KECCAK256 SWAP1 PUSH1 0x3 MUL ADD PUSH1 0x2 ADD PUSH0 PUSH2 0x100 EXP DUP2 SLOAD DUP2 PUSH1 0xFF MUL NOT AND SWAP1 DUP4 PUSH1 0x2 DUP2 GT ISZERO PUSH2 0x183 JUMPI PUSH2 0x182 PUSH2 0x79B JUMP JUMPDEST JUMPDEST MUL OR SWAP1 SSTORE POP PUSH32 0xE00D85F0A208B01A26C1F7CA164EBD9DB8790CD309207488B780DB04B74844A7 DUP2 TIMESTAMP PUSH1 0x40 MLOAD PUSH2 0x1B9 SWAP3 SWAP2 SWAP1 PUSH2 0x946 JUMP JUMPDEST PUSH1 0x40 MLOAD DUP1 SWAP2 SUB SWAP1 LOG1 POP JUMP JUMPDEST PUSH0 PUSH1 0x40 MLOAD DUP1 PUSH1 0x60 ADD PUSH1 0x40 MSTORE DUP1 DUP4 DUP2 MSTORE PUSH1 0x20 ADD TIMESTAMP DUP2 MSTORE PUSH1 0x20 ADD PUSH0 PUSH1 0x2 DUP2 GT ISZERO PUSH2 0x1EF JUMPI PUSH2 0x1EE PUSH2 0x79B JUMP JUMPDEST JUMPDEST DUP2 MSTORE POP SWAP1 POP PUSH1 0x1 DUP2 SWAP1 DUP1 PUSH1 0x1 DUP2 SLOAD ADD DUP1 DUP3 SSTORE DUP1 SWAP2 POP POP PUSH1 0x1 SWAP1 SUB SWAP1 PUSH0 MSTORE PUSH1 0x20 PUSH0 KECCAK256 SWAP1 PUSH1 0x3 MUL ADD PUSH0 SWAP1 SWAP2 SWAP1 SWAP2 SWAP1 SWAP2 POP PUSH0 DUP3 ADD MLOAD DUP2 PUSH0 ADD SWAP1 DUP2 PUSH2 0x230 SWAP2 SWAP1 PUSH2 0xB6A JUMP JUMPDEST POP PUSH1 0x20 DUP3 ADD MLOAD DUP2 PUSH1 0x1 ADD SSTORE PUSH1 0x40 DUP3 ADD MLOAD DUP2 PUSH1 0x2 ADD PUSH0 PUSH2 0x100 EXP DUP2 SLOAD DUP2 PUSH1 0xFF MUL NOT AND SWAP1 DUP4 PUSH1 0x2 DUP2 GT ISZERO PUSH2 0x265 JUMPI PUSH2 0x264 PUSH2 0x79B JUMP JUMPDEST JUMPDEST MUL OR SWAP1 SSTORE POP POP POP PUSH32 0xFBD40F57E66381392C52FB613D4B91E87E7599133E2F2589EC7F1356B901AE3A DUP3 TIMESTAMP PUSH1 0x40 MLOAD PUSH2 0x29D SWAP3 SWAP2 SWAP1 PUSH2 0xC71 JUMP JUMPDEST PUSH1 0x40 MLOAD DUP1 SWAP2 SUB SWAP1 LOG1 PUSH0 PUSH0 DUP2 SLOAD DUP1 SWAP3 SWAP2 SWAP1 PUSH2 0x2B6 SWAP1 PUSH2 0xCCC JUMP JUMPDEST SWAP2 SWAP1 POP SSTORE POP POP POP JUMP JUMPDEST PUSH0 PUSH0 SLOAD SWAP1 POP SWAP1 JUMP JUMPDEST PUSH2 0x2CF PUSH2 0x4E1 JUMP JUMPDEST PUSH0 SLOAD DUP3 LT PUSH2 0x312 JUMPI PUSH1 0x40 MLOAD PUSH32 0x8C379A000000000000000000000000000000000000000000000000000000000 DUP2 MSTORE PUSH1 0x4 ADD PUSH2 0x309 SWAP1 PUSH2 0xD83 JUMP JUMPDEST PUSH1 0x40 MLOAD DUP1 SWAP2 SUB SWAP1 REVERT JUMPDEST PUSH1 0x1 DUP3 DUP2 SLOAD DUP2 LT PUSH2 0x326 JUMPI PUSH2 0x325 PUSH2 0x919 JUMP JUMPDEST JUMPDEST SWAP1 PUSH0 MSTORE PUSH1 0x20 PUSH0 KECCAK256 SWAP1 PUSH1 0x3 MUL ADD PUSH1 0x40 MLOAD DUP1 PUSH1 0x60 ADD PUSH1 0x40 MSTORE SWAP1 DUP2 PUSH0 DUP3 ADD DUP1 SLOAD PUSH2 0x34C SWAP1 PUSH2 0x99A JUMP JUMPDEST DUP1 PUSH1 0x1F ADD PUSH1 0x20 DUP1 SWAP2 DIV MUL PUSH1 0x20 ADD PUSH1 0x40 MLOAD SWAP1 DUP2 ADD PUSH1 0x40 MSTORE DUP1 SWAP3 SWAP2 SWAP1 DUP2 DUP2 MSTORE PUSH1 0x20 ADD DUP3 DUP1 SLOAD PUSH2 0x378 SWAP1 PUSH2 0x99A JUMP JUMPDEST DUP1 ISZERO PUSH2 0x3C3 JUMPI DUP1 PUSH1 0x1F LT PUSH2 0x39A JUMPI PUSH2 0x100 DUP1 DUP4 SLOAD DIV MUL DUP4 MSTORE SWAP2 PUSH1 0x20 ADD SWAP2 PUSH2 0x3C3 JUMP JUMPDEST DUP3 ADD SWAP2 SWAP1 PUSH0 MSTORE PUSH1 0x20 PUSH0 KECCAK256 SWAP1 JUMPDEST DUP2 SLOAD DUP2 MSTORE SWAP1 PUSH1 0x1 ADD SWAP1 PUSH1 0x20 ADD DUP1 DUP4 GT PUSH2 0x3A6 JUMPI DUP3 SWAP1 SUB PUSH1 0x1F AND DUP3 ADD SWAP2 JUMPDEST POP POP POP POP POP DUP2 MSTORE PUSH1 0x20 ADD PUSH1 0x1 DUP3 ADD SLOAD DUP2 MSTORE PUSH1 0x20 ADD PUSH1 0x2 DUP3 ADD PUSH0 SWAP1 SLOAD SWAP1 PUSH2 0x100 EXP SWAP1 DIV PUSH1 0xFF AND PUSH1 0x2 DUP2 GT ISZERO PUSH2 0x3FA JUMPI PUSH2 0x3F9 PUSH2 0x79B JUMP JUMPDEST JUMPDEST PUSH1 0x2 DUP2 GT ISZERO PUSH2 0x40C JUMPI PUSH2 0x40B PUSH2 0x79B JUMP JUMPDEST JUMPDEST DUP2 MSTORE POP POP SWAP1 POP SWAP2 SWAP1 POP JUMP JUMPDEST PUSH0 SLOAD DUP2 LT PUSH2 0x45A JUMPI PUSH1 0x40 MLOAD PUSH32 0x8C379A000000000000000000000000000000000000000000000000000000000 DUP2 MSTORE PUSH1 0x4 ADD PUSH2 0x451 SWAP1 PUSH2 0xE11 JUMP JUMPDEST PUSH1 0x40 MLOAD DUP1 SWAP2 SUB SWAP1 REVERT JUMPDEST PUSH1 0x2 PUSH1 0x1 DUP3 DUP2 SLOAD DUP2 LT PUSH2 0x470 JUMPI PUSH2 0x46F PUSH2 0x919 JUMP JUMPDEST JUMPDEST SWAP1 PUSH0 MSTORE PUSH1 0x20 PUSH0 KECCAK256 SWAP1 PUSH1 0x3 MUL ADD PUSH1 0x2 ADD PUSH0 PUSH2 0x100 EXP DUP2 SLOAD DUP2 PUSH1 0xFF MUL NOT AND SWAP1 DUP4 PUSH1 0x2 DUP2 GT ISZERO PUSH2 0x4A0 JUMPI PUSH2 0x49F PUSH2 0x79B JUMP JUMPDEST JUMPDEST MUL OR SWAP1 SSTORE POP PUSH32 0xB5EAFC197AF4CC31B1537F61835EDD99DFFC836E28E6979C7EAA69BBB6FE68B1 DUP2 TIMESTAMP PUSH1 0x40 MLOAD PUSH2 0x4D6 SWAP3 SWAP2 SWAP1 PUSH2 0x946 JUMP JUMPDEST PUSH1 0x40 MLOAD DUP1 SWAP2 SUB SWAP1 LOG1 POP JUMP JUMPDEST PUSH1 0x40 MLOAD DUP1 PUSH1 0x60 ADD PUSH1 0x40 MSTORE DUP1 PUSH1 0x60 DUP2 MSTORE PUSH1 0x20 ADD PUSH0 DUP2 MSTORE PUSH1 0x20 ADD PUSH0 PUSH1 0x2 DUP2 GT ISZERO PUSH2 0x50C JUMPI PUSH2 0x50B PUSH2 0x79B JUMP JUMPDEST JUMPDEST DUP2 MSTORE POP SWAP1 JUMP JUMPDEST PUSH0 PUSH1 0x40 MLOAD SWAP1 POP SWAP1 JUMP JUMPDEST PUSH0 PUSH0 REVERT JUMPDEST PUSH0 PUSH0 REVERT JUMPDEST PUSH0 DUP2 SWAP1 POP SWAP2 SWAP1 POP JUMP JUMPDEST PUSH2 0x535 DUP2 PUSH2 0x523 JUMP JUMPDEST DUP2 EQ PUSH2 0x53F JUMPI PUSH0 PUSH0 REVERT JUMPDEST POP JUMP JUMPDEST PUSH0 DUP2 CALLDATALOAD SWAP1 POP PUSH2 0x550 DUP2 PUSH2 0x52C JUMP JUMPDEST SWAP3 SWAP2 POP POP JUMP JUMPDEST PUSH0 PUSH1 0x20 DUP3 DUP5 SUB SLT ISZERO PUSH2 0x56B JUMPI PUSH2 0x56A PUSH2 0x51B JUMP JUMPDEST JUMPDEST PUSH0 PUSH2 0x578 DUP5 DUP3 DUP6 ADD PUSH2 0x542 JUMP JUMPDEST SWAP2 POP POP SWAP3 SWAP2 POP POP JUMP JUMPDEST PUSH0 PUSH0 REVERT JUMPDEST PUSH0 PUSH0 REVERT JUMPDEST PUSH0 PUSH1 0x1F NOT PUSH1 0x1F DUP4 ADD AND SWAP1 POP SWAP2 SWAP1 POP JUMP JUMPDEST PUSH32 0x4E487B7100000000000000000000000000000000000000000000000000000000 PUSH0 MSTORE PUSH1 0x41 PUSH1 0x4 MSTORE PUSH1 0x24 PUSH0 REVERT JUMPDEST PUSH2 0x5CF DUP3 PUSH2 0x589 JUMP JUMPDEST DUP2 ADD DUP2 DUP2 LT PUSH8 0xFFFFFFFFFFFFFFFF DUP3 GT OR ISZERO PUSH2 0x5EE JUMPI PUSH2 0x5ED PUSH2 0x599 JUMP JUMPDEST JUMPDEST DUP1 PUSH1 0x40 MSTORE POP POP POP JUMP JUMPDEST PUSH0 PUSH2 0x600 PUSH2 0x512 JUMP JUMPDEST SWAP1 POP PUSH2 0x60C DUP3 DUP3 PUSH2 0x5C6 JUMP JUMPDEST SWAP2 SWAP1 POP JUMP JUMPDEST PUSH0 PUSH8 0xFFFFFFFFFFFFFFFF DUP3 GT ISZERO PUSH2 0x62B JUMPI PUSH2 0x62A PUSH2 0x599 JUMP JUMPDEST JUMPDEST PUSH2 0x634 DUP3 PUSH2 0x589 JUMP JUMPDEST SWAP1 POP PUSH1 0x20 DUP2 ADD SWAP1 POP SWAP2 SWAP1 POP JUMP JUMPDEST DUP3 DUP2 DUP4 CALLDATACOPY PUSH0 DUP4 DUP4 ADD MSTORE POP POP POP JUMP JUMPDEST PUSH0 PUSH2 0x661 PUSH2 0x65C DUP5 PUSH2 0x611 JUMP JUMPDEST PUSH2 0x5F7 JUMP JUMPDEST SWAP1 POP DUP3 DUP2 MSTORE PUSH1 0x20 DUP2 ADD DUP5 DUP5 DUP5 ADD GT ISZERO PUSH2 0x67D JUMPI PUSH2 0x67C PUSH2 0x585 JUMP JUMPDEST JUMPDEST PUSH2 0x688 DUP5 DUP3 DUP6 PUSH2 0x641 JUMP JUMPDEST POP SWAP4 SWAP3 POP POP POP JUMP JUMPDEST PUSH0 DUP3 PUSH1 0x1F DUP4 ADD SLT PUSH2 0x6A4 JUMPI PUSH2 0x6A3 PUSH2 0x581 JUMP JUMPDEST JUMPDEST DUP2 CALLDATALOAD PUSH2 0x6B4 DUP5 DUP3 PUSH1 0x20 DUP7 ADD PUSH2 0x64F JUMP JUMPDEST SWAP2 POP POP SWAP3 SWAP2 POP POP JUMP JUMPDEST PUSH0 PUSH1 0x20 DUP3 DUP5 SUB SLT ISZERO PUSH2 0x6D2 JUMPI PUSH2 0x6D1 PUSH2 0x51B JUMP JUMPDEST JUMPDEST PUSH0 DUP3 ADD CALLDATALOAD PUSH8 0xFFFFFFFFFFFFFFFF DUP2 GT ISZERO PUSH2 0x6EF JUMPI PUSH2 0x6EE PUSH2 0x51F JUMP JUMPDEST JUMPDEST PUSH2 0x6FB DUP5 DUP3 DUP6 ADD PUSH2 0x690 JUMP JUMPDEST SWAP2 POP POP SWAP3 SWAP2 POP POP JUMP JUMPDEST PUSH2 0x70D DUP2 PUSH2 0x523 JUMP JUMPDEST DUP3 MSTORE POP POP JUMP JUMPDEST PUSH0 PUSH1 0x20 DUP3 ADD SWAP1 POP PUSH2 0x726 PUSH0 DUP4 ADD DUP5 PUSH2 0x704 JUMP JUMPDEST SWAP3 SWAP2 POP POP JUMP JUMPDEST PUSH0 DUP2 MLOAD SWAP1 POP SWAP2 SWAP1 POP JUMP JUMPDEST PUSH0 DUP3 DUP3 MSTORE PUSH1 0x20 DUP3 ADD SWAP1 POP SWAP3 SWAP2 POP POP JUMP JUMPDEST DUP3 DUP2 DUP4 MCOPY PUSH0 DUP4 DUP4 ADD MSTORE POP POP POP JUMP JUMPDEST PUSH0 PUSH2 0x75E DUP3 PUSH2 0x72C JUMP JUMPDEST PUSH2 0x768 DUP2 DUP6 PUSH2 0x736 JUMP JUMPDEST SWAP4 POP PUSH2 0x778 DUP2 DUP6 PUSH1 0x20 DUP7 ADD PUSH2 0x746 JUMP JUMPDEST PUSH2 0x781 DUP2 PUSH2 0x589 JUMP JUMPDEST DUP5 ADD SWAP2 POP POP SWAP3 SWAP2 POP POP JUMP JUMPDEST PUSH2 0x795 DUP2 PUSH2 0x523 JUMP JUMPDEST DUP3 MSTORE POP POP JUMP JUMPDEST PUSH32 0x4E487B7100000000000000000000000000000000000000000000000000000000 PUSH0 MSTORE PUSH1 0x21 PUSH1 0x4 MSTORE PUSH1 0x24 PUSH0 REVERT JUMPDEST PUSH1 0x3 DUP2 LT PUSH2 0x7D9 JUMPI PUSH2 0x7D8 PUSH2 0x79B JUMP JUMPDEST JUMPDEST POP JUMP JUMPDEST PUSH0 DUP2 SWAP1 POP PUSH2 0x7E9 DUP3 PUSH2 0x7C8 JUMP JUMPDEST SWAP2 SWAP1 POP JUMP JUMPDEST PUSH0 PUSH2 0x7F8 DUP3 PUSH2 0x7DC JUMP JUMPDEST SWAP1 POP SWAP2 SWAP1 POP JUMP JUMPDEST PUSH2 0x808 DUP2 PUSH2 0x7EE JUMP JUMPDEST DUP3 MSTORE POP POP JUMP JUMPDEST PUSH0 PUSH1 0x60 DUP4 ADD PUSH0 DUP4 ADD MLOAD DUP5 DUP3 SUB PUSH0 DUP7 ADD MSTORE PUSH2 0x828 DUP3 DUP3 PUSH2 0x754 JUMP JUMPDEST SWAP2 POP POP PUSH1 0x20 DUP4 ADD MLOAD PUSH2 0x83D PUSH1 0x20 DUP7 ADD DUP3 PUSH2 0x78C JUMP JUMPDEST POP PUSH1 0x40 DUP4 ADD MLOAD PUSH2 0x850 PUSH1 0x40 DUP7 ADD DUP3 PUSH2 0x7FF JUMP JUMPDEST POP DUP1 SWAP2 POP POP SWAP3 SWAP2 POP POP JUMP JUMPDEST PUSH0 PUSH1 0x20 DUP3 ADD SWAP1 POP DUP2 DUP2 SUB PUSH0 DUP4 ADD MSTORE PUSH2 0x873 DUP2 DUP5 PUSH2 0x80E JUMP JUMPDEST SWAP1 POP SWAP3 SWAP2 POP POP JUMP JUMPDEST PUSH0 DUP3 DUP3 MSTORE PUSH1 0x20 DUP3 ADD SWAP1 POP SWAP3 SWAP2 POP POP JUMP JUMPDEST PUSH32 0x5354415254202D204C6120746172656120636F6E20657365206964206E6F2065 PUSH0 DUP3 ADD MSTORE PUSH32 0x7869737465210000000000000000000000000000000000000000000000000000 PUSH1 0x20 DUP3 ADD MSTORE POP JUMP JUMPDEST PUSH0 PUSH2 0x8E5 PUSH1 0x26 DUP4 PUSH2 0x87B JUMP JUMPDEST SWAP2 POP PUSH2 0x8F0 DUP3 PUSH2 0x88B JUMP JUMPDEST PUSH1 0x40 DUP3 ADD SWAP1 POP SWAP2 SWAP1 POP JUMP JUMPDEST PUSH0 PUSH1 0x20 DUP3 ADD SWAP1 POP DUP2 DUP2 SUB PUSH0 DUP4 ADD MSTORE PUSH2 0x912 DUP2 PUSH2 0x8D9 JUMP JUMPDEST SWAP1 POP SWAP2 SWAP1 POP JUMP JUMPDEST PUSH32 0x4E487B7100000000000000000000000000000000000000000000000000000000 PUSH0 MSTORE PUSH1 0x32 PUSH1 0x4 MSTORE PUSH1 0x24 PUSH0 REVERT JUMPDEST PUSH0 PUSH1 0x40 DUP3 ADD SWAP1 POP PUSH2 0x959 PUSH0 DUP4 ADD DUP6 PUSH2 0x704 JUMP JUMPDEST PUSH2 0x966 PUSH1 0x20 DUP4 ADD DUP5 PUSH2 0x704 JUMP JUMPDEST SWAP4 SWAP3 POP POP POP JUMP JUMPDEST PUSH32 0x4E487B7100000000000000000000000000000000000000000000000000000000 PUSH0 MSTORE PUSH1 0x22 PUSH1 0x4 MSTORE PUSH1 0x24 PUSH0 REVERT JUMPDEST PUSH0 PUSH1 0x2 DUP3 DIV SWAP1 POP PUSH1 0x1 DUP3 AND DUP1 PUSH2 0x9B1 JUMPI PUSH1 0x7F DUP3 AND SWAP2 POP JUMPDEST PUSH1 0x20 DUP3 LT DUP2 SUB PUSH2 0x9C4 JUMPI PUSH2 0x9C3 PUSH2 0x96D JUMP JUMPDEST JUMPDEST POP SWAP2 SWAP1 POP JUMP JUMPDEST PUSH0 DUP2 SWAP1 POP DUP2 PUSH0 MSTORE PUSH1 0x20 PUSH0 KECCAK256 SWAP1 POP SWAP2 SWAP1 POP JUMP JUMPDEST PUSH0 PUSH1 0x20 PUSH1 0x1F DUP4 ADD DIV SWAP1 POP SWAP2 SWAP1 POP JUMP JUMPDEST PUSH0 DUP3 DUP3 SHL SWAP1 POP SWAP3 SWAP2 POP POP JUMP JUMPDEST PUSH0 PUSH1 0x8 DUP4 MUL PUSH2 0xA26 PUSH32 0xFFFFFFFFFFFFFFFFFFFFFFFFFFFFFFFFFFFFFFFFFFFFFFFFFFFFFFFFFFFFFFFF DUP3 PUSH2 0x9EB JUMP JUMPDEST PUSH2 0xA30 DUP7 DUP4 PUSH2 0x9EB JUMP JUMPDEST SWAP6 POP DUP1 NOT DUP5 AND SWAP4 POP DUP1 DUP7 AND DUP5 OR SWAP3 POP POP POP SWAP4 SWAP3 POP POP POP JUMP JUMPDEST PUSH0 DUP2 SWAP1 POP SWAP2 SWAP1 POP JUMP JUMPDEST PUSH0 PUSH2 0xA6B PUSH2 0xA66 PUSH2 0xA61 DUP5 PUSH2 0x523 JUMP JUMPDEST PUSH2 0xA48 JUMP JUMPDEST PUSH2 0x523 JUMP JUMPDEST SWAP1 POP SWAP2 SWAP1 POP JUMP JUMPDEST PUSH0 DUP2 SWAP1 POP SWAP2 SWAP1 POP JUMP JUMPDEST PUSH2 0xA84 DUP4 PUSH2 0xA51 JUMP JUMPDEST PUSH2 0xA98 PUSH2 0xA90 DUP3 PUSH2 0xA72 JUMP JUMPDEST DUP5 DUP5 SLOAD PUSH2 0x9F7 JUMP JUMPDEST DUP3 SSTORE POP POP POP POP JUMP JUMPDEST PUSH0 PUSH0 SWAP1 POP SWAP1 JUMP JUMPDEST PUSH2 0xAAF PUSH2 0xAA0 JUMP JUMPDEST PUSH2 0xABA DUP2 DUP5 DUP5 PUSH2 0xA7B JUMP JUMPDEST POP POP POP JUMP JUMPDEST JUMPDEST DUP2 DUP2 LT ISZERO PUSH2 0xADD JUMPI PUSH2 0xAD2 PUSH0 DUP3 PUSH2 0xAA7 JUMP JUMPDEST PUSH1 0x1 DUP2 ADD SWAP1 POP PUSH2 0xAC0 JUMP JUMPDEST POP POP JUMP JUMPDEST PUSH1 0x1F DUP3 GT ISZERO PUSH2 0xB22 JUMPI PUSH2 0xAF3 DUP2 PUSH2 0x9CA JUMP JUMPDEST PUSH2 0xAFC DUP5 PUSH2 0x9DC JUMP JUMPDEST DUP2 ADD PUSH1 0x20 DUP6 LT ISZERO PUSH2 0xB0B JUMPI DUP2 SWAP1 POP JUMPDEST PUSH2 0xB1F PUSH2 0xB17 DUP6 PUSH2 0x9DC JUMP JUMPDEST DUP4 ADD DUP3 PUSH2 0xABF JUMP JUMPDEST POP POP JUMPDEST POP POP POP JUMP JUMPDEST PUSH0 DUP3 DUP3 SHR SWAP1 POP SWAP3 SWAP2 POP POP JUMP JUMPDEST PUSH0 PUSH2 0xB42 PUSH0 NOT DUP5 PUSH1 0x8 MUL PUSH2 0xB27 JUMP JUMPDEST NOT DUP1 DUP4 AND SWAP2 POP POP SWAP3 SWAP2 POP POP JUMP JUMPDEST PUSH0 PUSH2 0xB5A DUP4 DUP4 PUSH2 0xB33 JUMP JUMPDEST SWAP2 POP DUP3 PUSH1 0x2 MUL DUP3 OR SWAP1 POP SWAP3 SWAP2 POP POP JUMP JUMPDEST PUSH2 0xB73 DUP3 PUSH2 0x72C JUMP JUMPDEST PUSH8 0xFFFFFFFFFFFFFFFF DUP2 GT ISZERO PUSH2 0xB8C JUMPI PUSH2 0xB8B PUSH2 0x599 JUMP JUMPDEST JUMPDEST PUSH2 0xB96 DUP3 SLOAD PUSH2 0x99A JUMP JUMPDEST PUSH2 0xBA1 DUP3 DUP3 DUP6 PUSH2 0xAE1 JUMP JUMPDEST PUSH0 PUSH1 0x20 SWAP1 POP PUSH1 0x1F DUP4 GT PUSH1 0x1 DUP2 EQ PUSH2 0xBD2 JUMPI PUSH0 DUP5 ISZERO PUSH2 0xBC0 JUMPI DUP3 DUP8 ADD MLOAD SWAP1 POP JUMPDEST PUSH2 0xBCA DUP6 DUP3 PUSH2 0xB4F JUMP JUMPDEST DUP7 SSTORE POP PUSH2 0xC31 JUMP JUMPDEST PUSH1 0x1F NOT DUP5 AND PUSH2 0xBE0 DUP7 PUSH2 0x9CA JUMP JUMPDEST PUSH0 JUMPDEST DUP3 DUP2 LT ISZERO PUSH2 0xC07 JUMPI DUP5 DUP10 ADD MLOAD DUP3 SSTORE PUSH1 0x1 DUP3 ADD SWAP2 POP PUSH1 0x20 DUP6 ADD SWAP5 POP PUSH1 0x20 DUP2 ADD SWAP1 POP PUSH2 0xBE2 JUMP JUMPDEST DUP7 DUP4 LT ISZERO PUSH2 0xC24 JUMPI DUP5 DUP10 ADD MLOAD PUSH2 0xC20 PUSH1 0x1F DUP10 AND DUP3 PUSH2 0xB33 JUMP JUMPDEST DUP4 SSTORE POP JUMPDEST PUSH1 0x1 PUSH1 0x2 DUP9 MUL ADD DUP9 SSTORE POP POP POP JUMPDEST POP POP POP POP POP POP JUMP JUMPDEST PUSH0 PUSH2 0xC43 DUP3 PUSH2 0x72C JUMP JUMPDEST PUSH2 0xC4D DUP2 DUP6 PUSH2 0x87B JUMP JUMPDEST SWAP4 POP PUSH2 0xC5D DUP2 DUP6 PUSH1 0x20 DUP7 ADD PUSH2 0x746 JUMP JUMPDEST PUSH2 0xC66 DUP2 PUSH2 0x589 JUMP JUMPDEST DUP5 ADD SWAP2 POP POP SWAP3 SWAP2 POP POP JUMP JUMPDEST PUSH0 PUSH1 0x40 DUP3 ADD SWAP1 POP DUP2 DUP2 SUB PUSH0 DUP4 ADD MSTORE PUSH2 0xC89 DUP2 DUP6 PUSH2 0xC39 JUMP JUMPDEST SWAP1 POP PUSH2 0xC98 PUSH1 0x20 DUP4 ADD DUP5 PUSH2 0x704 JUMP JUMPDEST SWAP4 SWAP3 POP POP POP JUMP JUMPDEST PUSH32 0x4E487B7100000000000000000000000000000000000000000000000000000000 PUSH0 MSTORE PUSH1 0x11 PUSH1 0x4 MSTORE PUSH1 0x24 PUSH0 REVERT JUMPDEST PUSH0 PUSH2 0xCD6 DUP3 PUSH2 0x523 JUMP JUMPDEST SWAP2 POP PUSH32 0xFFFFFFFFFFFFFFFFFFFFFFFFFFFFFFFFFFFFFFFFFFFFFFFFFFFFFFFFFFFFFFFF DUP3 SUB PUSH2 0xD08 JUMPI PUSH2 0xD07 PUSH2 0xC9F JUMP JUMPDEST JUMPDEST PUSH1 0x1 DUP3 ADD SWAP1 POP SWAP2 SWAP1 POP JUMP JUMPDEST PUSH32 0x434F4E54454E54202D204C6120746172656120636F6E20657365206964206E6F PUSH0 DUP3 ADD MSTORE PUSH32 0x2065786973746521000000000000000000000000000000000000000000000000 PUSH1 0x20 DUP3 ADD MSTORE POP JUMP JUMPDEST PUSH0 PUSH2 0xD6D PUSH1 0x28 DUP4 PUSH2 0x87B JUMP JUMPDEST SWAP2 POP PUSH2 0xD78 DUP3 PUSH2 0xD13 JUMP JUMPDEST PUSH1 0x40 DUP3 ADD SWAP1 POP SWAP2 SWAP1 POP JUMP JUMPDEST PUSH0 PUSH1 0x20 DUP3 ADD SWAP1 POP DUP2 DUP2 SUB PUSH0 DUP4 ADD MSTORE PUSH2 0xD9A DUP2 PUSH2 0xD61 JUMP JUMPDEST SWAP1 POP SWAP2 SWAP1 POP JUMP JUMPDEST PUSH32 0x434F4D504C455445202D204C6120746172656120636F6E20657365206964206E PUSH0 DUP3 ADD MSTORE PUSH32 0x6F20657869737465210000000000000000000000000000000000000000000000 PUSH1 0x20 DUP3 ADD MSTORE POP JUMP JUMPDEST PUSH0 PUSH2 0xDFB PUSH1 0x29 DUP4 PUSH2 0x87B JUMP JUMPDEST SWAP2 POP PUSH2 0xE06 DUP3 PUSH2 0xDA1 JUMP JUMPDEST PUSH1 0x40 DUP3 ADD SWAP1 POP SWAP2 SWAP1 POP JUMP JUMPDEST PUSH0 PUSH1 0x20 DUP3 ADD SWAP1 POP DUP2 DUP2 SUB PUSH0 DUP4 ADD MSTORE PUSH2 0xE28 DUP2 PUSH2 0xDEF JUMP JUMPDEST SWAP1 POP SWAP2 SWAP1 POP JUMP INVALID LOG2 PUSH5 0x6970667358 0x22 SLT KECCAK256 PUSH0 0xD2 GT DUP11 0xC0 0xBC PUSH22 0x51487C261EEEDBE256F1835DF9672CA81B283C92ECBA MUL 0xEB 0xD6 PUSH5 0x736F6C6343 STOP ADDMOD 0x1E STOP CALLER "
				},
				"gasEstimates": {
					"creation": {
						"codeDepositCost": "737000",
						"executionCost": "5775",
						"totalCost": "742775"
					},
					"external": {
						"addTask(string)": "infinite",
						"completeTask(uint256)": "infinite",
						"getTaskContent(uint256)": "infinite",
						"getTaskCount()": "2453",
						"startTask(uint256)": "infinite"
					}
				},
				"methodIdentifiers": {
					"addTask(string)": "67238562",
					"completeTask(uint256)": "e1e29558",
					"getTaskContent(uint256)": "cd8e01d1",
					"getTaskCount()": "c17a340e",
					"startTask(uint256)": "5f944326"
				}
			},
			"storageLayout": {
				"storage": [
					{
						"astId": 16,
						"contract": "contracts/ToDoList.sol:ToDoList",
						"label": "lastID",
						"offset": 0,
						"slot": "0",
						"type": "t_uint256"
					},
					{
						"astId": 20,
						"contract": "contracts/ToDoList.sol:ToDoList",
						"label": "s_tasks",
						"offset": 0,
						"slot": "1",
						"type": "t_array(t_struct(Task)13_storage)dyn_storage"
					}
				],
				"types": {
					"t_array(t_struct(Task)13_storage)dyn_storage": {
						"base": "t_struct(Task)13_storage",
						"encoding": "dynamic_array",
						"label": "struct ToDoList.Task[]",
						"numberOfBytes": "32"
					},
					"t_enum(Estado)5": {
						"encoding": "inplace",
						"label": "enum ToDoList.Estado",
						"numberOfBytes": "1"
					},
					"t_string_storage": {
						"encoding": "bytes",
						"label": "string",
						"numberOfBytes": "32"
					},
					"t_struct(Task)13_storage": {
						"encoding": "inplace",
						"label": "struct ToDoList.Task",
						"members": [
							{
								"astId": 7,
								"contract": "contracts/ToDoList.sol:ToDoList",
								"label": "content",
								"offset": 0,
								"slot": "0",
								"type": "t_string_storage"
							},
							{
								"astId": 9,
								"contract": "contracts/ToDoList.sol:ToDoList",
								"label": "createTime",
								"offset": 0,
								"slot": "1",
								"type": "t_uint256"
							},
							{
								"astId": 12,
								"contract": "contracts/ToDoList.sol:ToDoList",
								"label": "state",
								"offset": 0,
								"slot": "2",
								"type": "t_enum(Estado)5"
							}
						],
						"numberOfBytes": "96"
					},
					"t_uint256": {
						"encoding": "inplace",
						"label": "uint256",
						"numberOfBytes": "32"
					}
				}
			},
			"userdoc": {
				"kind": "user",
				"methods": {},
				"version": 1
			}
		}
	}
}