{
	"contracts/CuentaB.sol": {
		"CuentaB": {
			"abi": [
				{
					"inputs": [],
					"stateMutability": "nonpayable",
					"type": "constructor"
				},
				{
					"anonymous": false,
					"inputs": [
						{
							"indexed": false,
							"internalType": "address",
							"name": "from",
							"type": "address"
						},
						{
							"indexed": false,
							"internalType": "uint256",
							"name": "amount",
							"type": "uint256"
						}
					],
					"name": "Deposited",
					"type": "event"
				},
				{
					"anonymous": false,
					"inputs": [
						{
							"indexed": false,
							"internalType": "uint256",
							"name": "amount",
							"type": "uint256"
						}
					],
					"name": "Extracted",
					"type": "event"
				},
				{
					"inputs": [],
					"name": "deposit",
					"outputs": [],
					"stateMutability": "payable",
					"type": "function"
				},
				{
					"inputs": [
						{
							"internalType": "uint256",
							"name": "amount",
							"type": "uint256"
						}
					],
					"name": "extract",
					"outputs": [],
					"stateMutability": "nonpayable",
					"type": "function"
				},
				{
					"inputs": [],
					"name": "getSmartContractBalance",
					"outputs": [
						{
							"internalType": "uint256",
							"name": "balance_",
							"type": "uint256"
						}
					],
					"stateMutability": "view",
					"type": "function"
				},
				{
					"inputs": [],
					"name": "owner",
					"outputs": [
						{
							"internalType": "address",
							"name": "",
							"type": "address"
						}
					],
					"stateMutability": "view",
					"type": "function"
				}
			],
			"devdoc": {
				"kind": "dev",
				"methods": {},
				"version": 1
			},
			"evm": {
				"assembly": "    /* \"contracts/CuentaB.sol\":62:1260  contract CuentaB{... */\n  mstore(0x40, 0x80)\n    /* \"contracts/CuentaB.sol\":114:166  constructor () {... */\n  callvalue\n  dup1\n  iszero\n  tag_1\n  jumpi\n  revert(0x00, 0x00)\ntag_1:\n  pop\n    /* \"contracts/CuentaB.sol\":148:158  msg.sender */\n  caller\n    /* \"contracts/CuentaB.sol\":140:145  owner */\n  0x00\n  0x00\n    /* \"contracts/CuentaB.sol\":140:158  owner = msg.sender */\n  0x0100\n  exp\n  dup2\n  sload\n  dup2\n  0xffffffffffffffffffffffffffffffffffffffff\n  mul\n  not\n  and\n  swap1\n  dup4\n  0xffffffffffffffffffffffffffffffffffffffff\n  and\n  mul\n  or\n  swap1\n  sstore\n  pop\n    /* \"contracts/CuentaB.sol\":62:1260  contract CuentaB{... */\n  dataSize(sub_0)\n  dup1\n  dataOffset(sub_0)\n  0x00\n  codecopy\n  0x00\n  return\nstop\n\nsub_0: assembly {\n        /* \"contracts/CuentaB.sol\":62:1260  contract CuentaB{... */\n      mstore(0x40, 0x80)\n      jumpi(tag_1, lt(calldatasize, 0x04))\n      shr(0xe0, calldataload(0x00))\n      dup1\n      0x5145cbc0\n      eq\n      tag_2\n      jumpi\n      dup1\n      0x85b39782\n      eq\n      tag_3\n      jumpi\n      dup1\n      0x8da5cb5b\n      eq\n      tag_4\n      jumpi\n      dup1\n      0xd0e30db0\n      eq\n      tag_5\n      jumpi\n    tag_1:\n      revert(0x00, 0x00)\n        /* \"contracts/CuentaB.sol\":1130:1253  function getSmartContractBalance() external view returns(uint balance_) {... */\n    tag_2:\n      callvalue\n      dup1\n      iszero\n      tag_6\n      jumpi\n      revert(0x00, 0x00)\n    tag_6:\n      pop\n      tag_7\n      tag_8\n      jump\t// in\n    tag_7:\n      mload(0x40)\n      tag_9\n      swap2\n      swap1\n      tag_10\n      jump\t// in\n    tag_9:\n      mload(0x40)\n      dup1\n      swap2\n      sub\n      swap1\n      return\n        /* \"contracts/CuentaB.sol\":506:1122  function extract(uint amount) public onlyOwner {... */\n    tag_3:\n      callvalue\n      dup1\n      iszero\n      tag_11\n      jumpi\n      revert(0x00, 0x00)\n    tag_11:\n      pop\n      tag_12\n      0x04\n      dup1\n      calldatasize\n      sub\n      dup2\n      add\n      swap1\n      tag_13\n      swap2\n      swap1\n      tag_14\n      jump\t// in\n    tag_13:\n      tag_15\n      jump\t// in\n    tag_12:\n      stop\n        /* \"contracts/CuentaB.sol\":85:105  address public owner */\n    tag_4:\n      callvalue\n      dup1\n      iszero\n      tag_16\n      jumpi\n      revert(0x00, 0x00)\n    tag_16:\n      pop\n      tag_17\n      tag_18\n      jump\t// in\n    tag_17:\n      mload(0x40)\n      tag_19\n      swap2\n      swap1\n      tag_20\n      jump\t// in\n    tag_19:\n      mload(0x40)\n      dup1\n      swap2\n      sub\n      swap1\n      return\n        /* \"contracts/CuentaB.sol\":398:498  function deposit() public payable {... */\n    tag_5:\n      tag_21\n      tag_22\n      jump\t// in\n    tag_21:\n      stop\n        /* \"contracts/CuentaB.sol\":1130:1253  function getSmartContractBalance() external view returns(uint balance_) {... */\n    tag_8:\n        /* \"contracts/CuentaB.sol\":1187:1200  uint balance_ */\n      0x00\n        /* \"contracts/CuentaB.sol\":1224:1245  address(this).balance */\n      selfbalance\n        /* \"contracts/CuentaB.sol\":1213:1245  balance_ = address(this).balance */\n      swap1\n      pop\n        /* \"contracts/CuentaB.sol\":1130:1253  function getSmartContractBalance() external view returns(uint balance_) {... */\n      swap1\n      jump\t// out\n        /* \"contracts/CuentaB.sol\":506:1122  function extract(uint amount) public onlyOwner {... */\n    tag_15:\n        /* \"contracts/CuentaB.sol\":228:233  owner */\n      0x00\n      0x00\n      swap1\n      sload\n      swap1\n      0x0100\n      exp\n      swap1\n      div\n      0xffffffffffffffffffffffffffffffffffffffff\n      and\n        /* \"contracts/CuentaB.sol\":214:233  msg.sender == owner */\n      0xffffffffffffffffffffffffffffffffffffffff\n      and\n        /* \"contracts/CuentaB.sol\":214:224  msg.sender */\n      caller\n        /* \"contracts/CuentaB.sol\":214:233  msg.sender == owner */\n      0xffffffffffffffffffffffffffffffffffffffff\n      and\n      eq\n        /* \"contracts/CuentaB.sol\":206:284  require(msg.sender == owner, \"No podes extraer de una cuenta que no es tuya!\") */\n      tag_25\n      jumpi\n      mload(0x40)\n      0x08c379a000000000000000000000000000000000000000000000000000000000\n      dup2\n      mstore\n      0x04\n      add\n      tag_26\n      swap1\n      tag_27\n      jump\t// in\n    tag_26:\n      mload(0x40)\n      dup1\n      swap2\n      sub\n      swap1\n      revert\n    tag_25:\n        /* \"contracts/CuentaB.sol\":581:582  0 */\n      0x00\n        /* \"contracts/CuentaB.sol\":572:578  amount */\n      dup2\n        /* \"contracts/CuentaB.sol\":572:582  amount > 0 */\n      gt\n        /* \"contracts/CuentaB.sol\":564:605  require(amount > 0, \"No podes extraer 0\") */\n      tag_29\n      jumpi\n      mload(0x40)\n      0x08c379a000000000000000000000000000000000000000000000000000000000\n      dup2\n      mstore\n      0x04\n      add\n      tag_30\n      swap1\n      tag_31\n      jump\t// in\n    tag_30:\n      mload(0x40)\n      dup1\n      swap2\n      sub\n      swap1\n      revert\n    tag_29:\n        /* \"contracts/CuentaB.sol\":629:650  address(this).balance */\n      selfbalance\n        /* \"contracts/CuentaB.sol\":620:626  amount */\n      dup2\n        /* \"contracts/CuentaB.sol\":620:650  amount > address(this).balance */\n      gt\n        /* \"contracts/CuentaB.sol\":616:718  if (amount > address(this).balance)... */\n      iszero\n      tag_32\n      jumpi\n        /* \"contracts/CuentaB.sol\":685:706  address(this).balance */\n      selfbalance\n        /* \"contracts/CuentaB.sol\":676:706  amount = address(this).balance */\n      swap1\n      pop\n        /* \"contracts/CuentaB.sol\":616:718  if (amount > address(this).balance)... */\n    tag_32:\n        /* \"contracts/CuentaB.sol\":729:741  bool success */\n      0x00\n        /* \"contracts/CuentaB.sol\":747:757  msg.sender */\n      caller\n        /* \"contracts/CuentaB.sol\":747:762  msg.sender.call */\n      0xffffffffffffffffffffffffffffffffffffffff\n      and\n        /* \"contracts/CuentaB.sol\":770:776  amount */\n      dup3\n        /* \"contracts/CuentaB.sol\":747:781  msg.sender.call{value: amount}(\"\") */\n      mload(0x40)\n      tag_33\n      swap1\n      tag_34\n      jump\t// in\n    tag_33:\n      0x00\n      mload(0x40)\n      dup1\n      dup4\n      sub\n      dup2\n      dup6\n      dup8\n      gas\n      call\n      swap3\n      pop\n      pop\n      pop\n      returndatasize\n      dup1\n      0x00\n      dup2\n      eq\n      tag_37\n      jumpi\n      mload(0x40)\n      swap2\n      pop\n      and(add(returndatasize, 0x3f), not(0x1f))\n      dup3\n      add\n      0x40\n      mstore\n      returndatasize\n      dup3\n      mstore\n      returndatasize\n      0x00\n      0x20\n      dup5\n      add\n      returndatacopy\n      jump(tag_36)\n    tag_37:\n      0x60\n      swap2\n      pop\n    tag_36:\n      pop\n        /* \"contracts/CuentaB.sol\":728:781  (bool success, ) = msg.sender.call{value: amount}(\"\") */\n      pop\n      swap1\n      pop\n        /* \"contracts/CuentaB.sol\":800:807  success */\n      dup1\n        /* \"contracts/CuentaB.sol\":792:831  require(success, \"Extraccion fallida.\") */\n      tag_38\n      jumpi\n      mload(0x40)\n      0x08c379a000000000000000000000000000000000000000000000000000000000\n      dup2\n      mstore\n      0x04\n      add\n      tag_39\n      swap1\n      tag_40\n      jump\t// in\n    tag_39:\n      mload(0x40)\n      dup1\n      swap2\n      sub\n      swap1\n      revert\n    tag_38:\n        /* \"contracts/CuentaB.sol\":1089:1106  Extracted(amount) */\n      0x34e5a5a007c90dce121f77f919f33a44a7fcb9acc7e4f4525d18b6f47e0e4e24\n        /* \"contracts/CuentaB.sol\":1099:1105  amount */\n      dup3\n        /* \"contracts/CuentaB.sol\":1089:1106  Extracted(amount) */\n      mload(0x40)\n      tag_41\n      swap2\n      swap1\n      tag_10\n      jump\t// in\n    tag_41:\n      mload(0x40)\n      dup1\n      swap2\n      sub\n      swap1\n      log1\n        /* \"contracts/CuentaB.sol\":553:1122  {... */\n      pop\n        /* \"contracts/CuentaB.sol\":506:1122  function extract(uint amount) public onlyOwner {... */\n      pop\n      jump\t// out\n        /* \"contracts/CuentaB.sol\":85:105  address public owner */\n    tag_18:\n      0x00\n      0x00\n      swap1\n      sload\n      swap1\n      0x0100\n      exp\n      swap1\n      div\n      0xffffffffffffffffffffffffffffffffffffffff\n      and\n      dup2\n      jump\t// out\n        /* \"contracts/CuentaB.sol\":398:498  function deposit() public payable {... */\n    tag_22:\n        /* \"contracts/CuentaB.sol\":458:490  Deposited(msg.sender, msg.value) */\n      0x2da466a7b24304f47e87fa2e1e5a81b9831ce54fec19055ce277ca2f39ba42c4\n        /* \"contracts/CuentaB.sol\":468:478  msg.sender */\n      caller\n        /* \"contracts/CuentaB.sol\":480:489  msg.value */\n      callvalue\n        /* \"contracts/CuentaB.sol\":458:490  Deposited(msg.sender, msg.value) */\n      mload(0x40)\n      tag_43\n      swap3\n      swap2\n      swap1\n      tag_44\n      jump\t// in\n    tag_43:\n      mload(0x40)\n      dup1\n      swap2\n      sub\n      swap1\n      log1\n        /* \"contracts/CuentaB.sol\":398:498  function deposit() public payable {... */\n      jump\t// out\n        /* \"#utility.yul\":7:84   */\n    tag_45:\n        /* \"#utility.yul\":44:51   */\n      0x00\n        /* \"#utility.yul\":73:78   */\n      dup2\n        /* \"#utility.yul\":62:78   */\n      swap1\n      pop\n        /* \"#utility.yul\":7:84   */\n      swap2\n      swap1\n      pop\n      jump\t// out\n        /* \"#utility.yul\":90:208   */\n    tag_46:\n        /* \"#utility.yul\":177:201   */\n      tag_68\n        /* \"#utility.yul\":195:200   */\n      dup2\n        /* \"#utility.yul\":177:201   */\n      tag_45\n      jump\t// in\n    tag_68:\n        /* \"#utility.yul\":172:175   */\n      dup3\n        /* \"#utility.yul\":165:202   */\n      mstore\n        /* \"#utility.yul\":90:208   */\n      pop\n      pop\n      jump\t// out\n        /* \"#utility.yul\":214:436   */\n    tag_10:\n        /* \"#utility.yul\":307:311   */\n      0x00\n        /* \"#utility.yul\":345:347   */\n      0x20\n        /* \"#utility.yul\":334:343   */\n      dup3\n        /* \"#utility.yul\":330:348   */\n      add\n        /* \"#utility.yul\":322:348   */\n      swap1\n      pop\n        /* \"#utility.yul\":358:429   */\n      tag_70\n        /* \"#utility.yul\":426:427   */\n      0x00\n        /* \"#utility.yul\":415:424   */\n      dup4\n        /* \"#utility.yul\":411:428   */\n      add\n        /* \"#utility.yul\":402:408   */\n      dup5\n        /* \"#utility.yul\":358:429   */\n      tag_46\n      jump\t// in\n    tag_70:\n        /* \"#utility.yul\":214:436   */\n      swap3\n      swap2\n      pop\n      pop\n      jump\t// out\n        /* \"#utility.yul\":523:640   */\n    tag_48:\n        /* \"#utility.yul\":632:633   */\n      0x00\n        /* \"#utility.yul\":629:630   */\n      0x00\n        /* \"#utility.yul\":622:634   */\n      revert\n        /* \"#utility.yul\":769:891   */\n    tag_50:\n        /* \"#utility.yul\":842:866   */\n      tag_75\n        /* \"#utility.yul\":860:865   */\n      dup2\n        /* \"#utility.yul\":842:866   */\n      tag_45\n      jump\t// in\n    tag_75:\n        /* \"#utility.yul\":835:840   */\n      dup2\n        /* \"#utility.yul\":832:867   */\n      eq\n        /* \"#utility.yul\":822:885   */\n      tag_76\n      jumpi\n        /* \"#utility.yul\":881:882   */\n      0x00\n        /* \"#utility.yul\":878:879   */\n      0x00\n        /* \"#utility.yul\":871:883   */\n      revert\n        /* \"#utility.yul\":822:885   */\n    tag_76:\n        /* \"#utility.yul\":769:891   */\n      pop\n      jump\t// out\n        /* \"#utility.yul\":897:1036   */\n    tag_51:\n        /* \"#utility.yul\":943:948   */\n      0x00\n        /* \"#utility.yul\":981:987   */\n      dup2\n        /* \"#utility.yul\":968:988   */\n      calldataload\n        /* \"#utility.yul\":959:988   */\n      swap1\n      pop\n        /* \"#utility.yul\":997:1030   */\n      tag_78\n        /* \"#utility.yul\":1024:1029   */\n      dup2\n        /* \"#utility.yul\":997:1030   */\n      tag_50\n      jump\t// in\n    tag_78:\n        /* \"#utility.yul\":897:1036   */\n      swap3\n      swap2\n      pop\n      pop\n      jump\t// out\n        /* \"#utility.yul\":1042:1371   */\n    tag_14:\n        /* \"#utility.yul\":1101:1107   */\n      0x00\n        /* \"#utility.yul\":1150:1152   */\n      0x20\n        /* \"#utility.yul\":1138:1147   */\n      dup3\n        /* \"#utility.yul\":1129:1136   */\n      dup5\n        /* \"#utility.yul\":1125:1148   */\n      sub\n        /* \"#utility.yul\":1121:1153   */\n      slt\n        /* \"#utility.yul\":1118:1237   */\n      iszero\n      tag_80\n      jumpi\n        /* \"#utility.yul\":1156:1235   */\n      tag_81\n      tag_48\n      jump\t// in\n    tag_81:\n        /* \"#utility.yul\":1118:1237   */\n    tag_80:\n        /* \"#utility.yul\":1276:1277   */\n      0x00\n        /* \"#utility.yul\":1301:1354   */\n      tag_82\n        /* \"#utility.yul\":1346:1353   */\n      dup5\n        /* \"#utility.yul\":1337:1343   */\n      dup3\n        /* \"#utility.yul\":1326:1335   */\n      dup6\n        /* \"#utility.yul\":1322:1344   */\n      add\n        /* \"#utility.yul\":1301:1354   */\n      tag_51\n      jump\t// in\n    tag_82:\n        /* \"#utility.yul\":1291:1354   */\n      swap2\n      pop\n        /* \"#utility.yul\":1247:1364   */\n      pop\n        /* \"#utility.yul\":1042:1371   */\n      swap3\n      swap2\n      pop\n      pop\n      jump\t// out\n        /* \"#utility.yul\":1377:1503   */\n    tag_52:\n        /* \"#utility.yul\":1414:1421   */\n      0x00\n        /* \"#utility.yul\":1454:1496   */\n      0xffffffffffffffffffffffffffffffffffffffff\n        /* \"#utility.yul\":1447:1452   */\n      dup3\n        /* \"#utility.yul\":1443:1497   */\n      and\n        /* \"#utility.yul\":1432:1497   */\n      swap1\n      pop\n        /* \"#utility.yul\":1377:1503   */\n      swap2\n      swap1\n      pop\n      jump\t// out\n        /* \"#utility.yul\":1509:1605   */\n    tag_53:\n        /* \"#utility.yul\":1546:1553   */\n      0x00\n        /* \"#utility.yul\":1575:1599   */\n      tag_85\n        /* \"#utility.yul\":1593:1598   */\n      dup3\n        /* \"#utility.yul\":1575:1599   */\n      tag_52\n      jump\t// in\n    tag_85:\n        /* \"#utility.yul\":1564:1599   */\n      swap1\n      pop\n        /* \"#utility.yul\":1509:1605   */\n      swap2\n      swap1\n      pop\n      jump\t// out\n        /* \"#utility.yul\":1611:1729   */\n    tag_54:\n        /* \"#utility.yul\":1698:1722   */\n      tag_87\n        /* \"#utility.yul\":1716:1721   */\n      dup2\n        /* \"#utility.yul\":1698:1722   */\n      tag_53\n      jump\t// in\n    tag_87:\n        /* \"#utility.yul\":1693:1696   */\n      dup3\n        /* \"#utility.yul\":1686:1723   */\n      mstore\n        /* \"#utility.yul\":1611:1729   */\n      pop\n      pop\n      jump\t// out\n        /* \"#utility.yul\":1735:1957   */\n    tag_20:\n        /* \"#utility.yul\":1828:1832   */\n      0x00\n        /* \"#utility.yul\":1866:1868   */\n      0x20\n        /* \"#utility.yul\":1855:1864   */\n      dup3\n        /* \"#utility.yul\":1851:1869   */\n      add\n        /* \"#utility.yul\":1843:1869   */\n      swap1\n      pop\n        /* \"#utility.yul\":1879:1950   */\n      tag_89\n        /* \"#utility.yul\":1947:1948   */\n      0x00\n        /* \"#utility.yul\":1936:1945   */\n      dup4\n        /* \"#utility.yul\":1932:1949   */\n      add\n        /* \"#utility.yul\":1923:1929   */\n      dup5\n        /* \"#utility.yul\":1879:1950   */\n      tag_54\n      jump\t// in\n    tag_89:\n        /* \"#utility.yul\":1735:1957   */\n      swap3\n      swap2\n      pop\n      pop\n      jump\t// out\n        /* \"#utility.yul\":1963:2132   */\n    tag_55:\n        /* \"#utility.yul\":2047:2058   */\n      0x00\n        /* \"#utility.yul\":2081:2087   */\n      dup3\n        /* \"#utility.yul\":2076:2079   */\n      dup3\n        /* \"#utility.yul\":2069:2088   */\n      mstore\n        /* \"#utility.yul\":2121:2125   */\n      0x20\n        /* \"#utility.yul\":2116:2119   */\n      dup3\n        /* \"#utility.yul\":2112:2126   */\n      add\n        /* \"#utility.yul\":2097:2126   */\n      swap1\n      pop\n        /* \"#utility.yul\":1963:2132   */\n      swap3\n      swap2\n      pop\n      pop\n      jump\t// out\n        /* \"#utility.yul\":2138:2371   */\n    tag_56:\n        /* \"#utility.yul\":2278:2312   */\n      0x4e6f20706f646573206578747261657220646520756e61206375656e74612071\n        /* \"#utility.yul\":2274:2275   */\n      0x00\n        /* \"#utility.yul\":2266:2272   */\n      dup3\n        /* \"#utility.yul\":2262:2276   */\n      add\n        /* \"#utility.yul\":2255:2313   */\n      mstore\n        /* \"#utility.yul\":2347:2363   */\n      0x7565206e6f206573207475796121000000000000000000000000000000000000\n        /* \"#utility.yul\":2342:2344   */\n      0x20\n        /* \"#utility.yul\":2334:2340   */\n      dup3\n        /* \"#utility.yul\":2330:2345   */\n      add\n        /* \"#utility.yul\":2323:2364   */\n      mstore\n        /* \"#utility.yul\":2138:2371   */\n      pop\n      jump\t// out\n        /* \"#utility.yul\":2377:2743   */\n    tag_57:\n        /* \"#utility.yul\":2519:2522   */\n      0x00\n        /* \"#utility.yul\":2540:2607   */\n      tag_93\n        /* \"#utility.yul\":2604:2606   */\n      0x2e\n        /* \"#utility.yul\":2599:2602   */\n      dup4\n        /* \"#utility.yul\":2540:2607   */\n      tag_55\n      jump\t// in\n    tag_93:\n        /* \"#utility.yul\":2533:2607   */\n      swap2\n      pop\n        /* \"#utility.yul\":2616:2709   */\n      tag_94\n        /* \"#utility.yul\":2705:2708   */\n      dup3\n        /* \"#utility.yul\":2616:2709   */\n      tag_56\n      jump\t// in\n    tag_94:\n        /* \"#utility.yul\":2734:2736   */\n      0x40\n        /* \"#utility.yul\":2729:2732   */\n      dup3\n        /* \"#utility.yul\":2725:2737   */\n      add\n        /* \"#utility.yul\":2718:2737   */\n      swap1\n      pop\n        /* \"#utility.yul\":2377:2743   */\n      swap2\n      swap1\n      pop\n      jump\t// out\n        /* \"#utility.yul\":2749:3168   */\n    tag_27:\n        /* \"#utility.yul\":2915:2919   */\n      0x00\n        /* \"#utility.yul\":2953:2955   */\n      0x20\n        /* \"#utility.yul\":2942:2951   */\n      dup3\n        /* \"#utility.yul\":2938:2956   */\n      add\n        /* \"#utility.yul\":2930:2956   */\n      swap1\n      pop\n        /* \"#utility.yul\":3002:3011   */\n      dup2\n        /* \"#utility.yul\":2996:3000   */\n      dup2\n        /* \"#utility.yul\":2992:3012   */\n      sub\n        /* \"#utility.yul\":2988:2989   */\n      0x00\n        /* \"#utility.yul\":2977:2986   */\n      dup4\n        /* \"#utility.yul\":2973:2990   */\n      add\n        /* \"#utility.yul\":2966:3013   */\n      mstore\n        /* \"#utility.yul\":3030:3161   */\n      tag_96\n        /* \"#utility.yul\":3156:3160   */\n      dup2\n        /* \"#utility.yul\":3030:3161   */\n      tag_57\n      jump\t// in\n    tag_96:\n        /* \"#utility.yul\":3022:3161   */\n      swap1\n      pop\n        /* \"#utility.yul\":2749:3168   */\n      swap2\n      swap1\n      pop\n      jump\t// out\n        /* \"#utility.yul\":3174:3342   */\n    tag_58:\n        /* \"#utility.yul\":3314:3334   */\n      0x4e6f20706f646573206578747261657220300000000000000000000000000000\n        /* \"#utility.yul\":3310:3311   */\n      0x00\n        /* \"#utility.yul\":3302:3308   */\n      dup3\n        /* \"#utility.yul\":3298:3312   */\n      add\n        /* \"#utility.yul\":3291:3335   */\n      mstore\n        /* \"#utility.yul\":3174:3342   */\n      pop\n      jump\t// out\n        /* \"#utility.yul\":3348:3714   */\n    tag_59:\n        /* \"#utility.yul\":3490:3493   */\n      0x00\n        /* \"#utility.yul\":3511:3578   */\n      tag_99\n        /* \"#utility.yul\":3575:3577   */\n      0x12\n        /* \"#utility.yul\":3570:3573   */\n      dup4\n        /* \"#utility.yul\":3511:3578   */\n      tag_55\n      jump\t// in\n    tag_99:\n        /* \"#utility.yul\":3504:3578   */\n      swap2\n      pop\n        /* \"#utility.yul\":3587:3680   */\n      tag_100\n        /* \"#utility.yul\":3676:3679   */\n      dup3\n        /* \"#utility.yul\":3587:3680   */\n      tag_58\n      jump\t// in\n    tag_100:\n        /* \"#utility.yul\":3705:3707   */\n      0x20\n        /* \"#utility.yul\":3700:3703   */\n      dup3\n        /* \"#utility.yul\":3696:3708   */\n      add\n        /* \"#utility.yul\":3689:3708   */\n      swap1\n      pop\n        /* \"#utility.yul\":3348:3714   */\n      swap2\n      swap1\n      pop\n      jump\t// out\n        /* \"#utility.yul\":3720:4139   */\n    tag_31:\n        /* \"#utility.yul\":3886:3890   */\n      0x00\n        /* \"#utility.yul\":3924:3926   */\n      0x20\n        /* \"#utility.yul\":3913:3922   */\n      dup3\n        /* \"#utility.yul\":3909:3927   */\n      add\n        /* \"#utility.yul\":3901:3927   */\n      swap1\n      pop\n        /* \"#utility.yul\":3973:3982   */\n      dup2\n        /* \"#utility.yul\":3967:3971   */\n      dup2\n        /* \"#utility.yul\":3963:3983   */\n      sub\n        /* \"#utility.yul\":3959:3960   */\n      0x00\n        /* \"#utility.yul\":3948:3957   */\n      dup4\n        /* \"#utility.yul\":3944:3961   */\n      add\n        /* \"#utility.yul\":3937:3984   */\n      mstore\n        /* \"#utility.yul\":4001:4132   */\n      tag_102\n        /* \"#utility.yul\":4127:4131   */\n      dup2\n        /* \"#utility.yul\":4001:4132   */\n      tag_59\n      jump\t// in\n    tag_102:\n        /* \"#utility.yul\":3993:4132   */\n      swap1\n      pop\n        /* \"#utility.yul\":3720:4139   */\n      swap2\n      swap1\n      pop\n      jump\t// out\n        /* \"#utility.yul\":4145:4292   */\n    tag_60:\n        /* \"#utility.yul\":4246:4257   */\n      0x00\n        /* \"#utility.yul\":4283:4286   */\n      dup2\n        /* \"#utility.yul\":4268:4286   */\n      swap1\n      pop\n        /* \"#utility.yul\":4145:4292   */\n      swap3\n      swap2\n      pop\n      pop\n      jump\t// out\n        /* \"#utility.yul\":4298:4412   */\n    tag_61:\n      pop\n      jump\t// out\n        /* \"#utility.yul\":4418:4816   */\n    tag_62:\n        /* \"#utility.yul\":4577:4580   */\n      0x00\n        /* \"#utility.yul\":4598:4681   */\n      tag_106\n        /* \"#utility.yul\":4679:4680   */\n      0x00\n        /* \"#utility.yul\":4674:4677   */\n      dup4\n        /* \"#utility.yul\":4598:4681   */\n      tag_60\n      jump\t// in\n    tag_106:\n        /* \"#utility.yul\":4591:4681   */\n      swap2\n      pop\n        /* \"#utility.yul\":4690:4783   */\n      tag_107\n        /* \"#utility.yul\":4779:4782   */\n      dup3\n        /* \"#utility.yul\":4690:4783   */\n      tag_61\n      jump\t// in\n    tag_107:\n        /* \"#utility.yul\":4808:4809   */\n      0x00\n        /* \"#utility.yul\":4803:4806   */\n      dup3\n        /* \"#utility.yul\":4799:4810   */\n      add\n        /* \"#utility.yul\":4792:4810   */\n      swap1\n      pop\n        /* \"#utility.yul\":4418:4816   */\n      swap2\n      swap1\n      pop\n      jump\t// out\n        /* \"#utility.yul\":4822:5201   */\n    tag_34:\n        /* \"#utility.yul\":5006:5009   */\n      0x00\n        /* \"#utility.yul\":5028:5175   */\n      tag_109\n        /* \"#utility.yul\":5171:5174   */\n      dup3\n        /* \"#utility.yul\":5028:5175   */\n      tag_62\n      jump\t// in\n    tag_109:\n        /* \"#utility.yul\":5021:5175   */\n      swap2\n      pop\n        /* \"#utility.yul\":5192:5195   */\n      dup2\n        /* \"#utility.yul\":5185:5195   */\n      swap1\n      pop\n        /* \"#utility.yul\":4822:5201   */\n      swap2\n      swap1\n      pop\n      jump\t// out\n        /* \"#utility.yul\":5207:5376   */\n    tag_63:\n        /* \"#utility.yul\":5347:5368   */\n      0x45787472616363696f6e2066616c6c6964612e00000000000000000000000000\n        /* \"#utility.yul\":5343:5344   */\n      0x00\n        /* \"#utility.yul\":5335:5341   */\n      dup3\n        /* \"#utility.yul\":5331:5345   */\n      add\n        /* \"#utility.yul\":5324:5369   */\n      mstore\n        /* \"#utility.yul\":5207:5376   */\n      pop\n      jump\t// out\n        /* \"#utility.yul\":5382:5748   */\n    tag_64:\n        /* \"#utility.yul\":5524:5527   */\n      0x00\n        /* \"#utility.yul\":5545:5612   */\n      tag_112\n        /* \"#utility.yul\":5609:5611   */\n      0x13\n        /* \"#utility.yul\":5604:5607   */\n      dup4\n        /* \"#utility.yul\":5545:5612   */\n      tag_55\n      jump\t// in\n    tag_112:\n        /* \"#utility.yul\":5538:5612   */\n      swap2\n      pop\n        /* \"#utility.yul\":5621:5714   */\n      tag_113\n        /* \"#utility.yul\":5710:5713   */\n      dup3\n        /* \"#utility.yul\":5621:5714   */\n      tag_63\n      jump\t// in\n    tag_113:\n        /* \"#utility.yul\":5739:5741   */\n      0x20\n        /* \"#utility.yul\":5734:5737   */\n      dup3\n        /* \"#utility.yul\":5730:5742   */\n      add\n        /* \"#utility.yul\":5723:5742   */\n      swap1\n      pop\n        /* \"#utility.yul\":5382:5748   */\n      swap2\n      swap1\n      pop\n      jump\t// out\n        /* \"#utility.yul\":5754:6173   */\n    tag_40:\n        /* \"#utility.yul\":5920:5924   */\n      0x00\n        /* \"#utility.yul\":5958:5960   */\n      0x20\n        /* \"#utility.yul\":5947:5956   */\n      dup3\n        /* \"#utility.yul\":5943:5961   */\n      add\n        /* \"#utility.yul\":5935:5961   */\n      swap1\n      pop\n        /* \"#utility.yul\":6007:6016   */\n      dup2\n        /* \"#utility.yul\":6001:6005   */\n      dup2\n        /* \"#utility.yul\":5997:6017   */\n      sub\n        /* \"#utility.yul\":5993:5994   */\n      0x00\n        /* \"#utility.yul\":5982:5991   */\n      dup4\n        /* \"#utility.yul\":5978:5995   */\n      add\n        /* \"#utility.yul\":5971:6018   */\n      mstore\n        /* \"#utility.yul\":6035:6166   */\n      tag_115\n        /* \"#utility.yul\":6161:6165   */\n      dup2\n        /* \"#utility.yul\":6035:6166   */\n      tag_64\n      jump\t// in\n    tag_115:\n        /* \"#utility.yul\":6027:6166   */\n      swap1\n      pop\n        /* \"#utility.yul\":5754:6173   */\n      swap2\n      swap1\n      pop\n      jump\t// out\n        /* \"#utility.yul\":6179:6511   */\n    tag_44:\n        /* \"#utility.yul\":6300:6304   */\n      0x00\n        /* \"#utility.yul\":6338:6340   */\n      0x40\n        /* \"#utility.yul\":6327:6336   */\n      dup3\n        /* \"#utility.yul\":6323:6341   */\n      add\n        /* \"#utility.yul\":6315:6341   */\n      swap1\n      pop\n        /* \"#utility.yul\":6351:6422   */\n      tag_117\n        /* \"#utility.yul\":6419:6420   */\n      0x00\n        /* \"#utility.yul\":6408:6417   */\n      dup4\n        /* \"#utility.yul\":6404:6421   */\n      add\n        /* \"#utility.yul\":6395:6401   */\n      dup6\n        /* \"#utility.yul\":6351:6422   */\n      tag_54\n      jump\t// in\n    tag_117:\n        /* \"#utility.yul\":6432:6504   */\n      tag_118\n        /* \"#utility.yul\":6500:6502   */\n      0x20\n        /* \"#utility.yul\":6489:6498   */\n      dup4\n        /* \"#utility.yul\":6485:6503   */\n      add\n        /* \"#utility.yul\":6476:6482   */\n      dup5\n        /* \"#utility.yul\":6432:6504   */\n      tag_46\n      jump\t// in\n    tag_118:\n        /* \"#utility.yul\":6179:6511   */\n      swap4\n      swap3\n      pop\n      pop\n      pop\n      jump\t// out\n\n    auxdata: 0xa26469706673582212204204fcfa2de83dd6c60c52286f2a71fb10fab998f46e587f8efac8251331d58964736f6c634300081e0033\n}\n",
				"bytecode": {
					"linkReferences": {},
					"object": "6080604052348015600e575f5ffd5b50335f5f6101000a81548173ffffffffffffffffffffffffffffffffffffffff021916908373ffffffffffffffffffffffffffffffffffffffff1602179055506105db8061005b5f395ff3fe60806040526004361061003e575f3560e01c80635145cbc01461004257806385b397821461006c5780638da5cb5b14610094578063d0e30db0146100be575b5f5ffd5b34801561004d575f5ffd5b506100566100c8565b6040516100639190610305565b60405180910390f35b348015610077575f5ffd5b50610092600480360381019061008d919061034c565b6100cf565b005b34801561009f575f5ffd5b506100a861028e565b6040516100b591906103b6565b60405180910390f35b6100c66102b2565b005b5f47905090565b5f5f9054906101000a900473ffffffffffffffffffffffffffffffffffffffff1673ffffffffffffffffffffffffffffffffffffffff163373ffffffffffffffffffffffffffffffffffffffff161461015d576040517f08c379a00000000000000000000000000000000000000000000000000000000081526004016101549061044f565b60405180910390fd5b5f811161019f576040517f08c379a0000000000000000000000000000000000000000000000000000000008152600401610196906104b7565b60405180910390fd5b478111156101ab574790505b5f3373ffffffffffffffffffffffffffffffffffffffff16826040516101d090610502565b5f6040518083038185875af1925050503d805f811461020a576040519150601f19603f3d011682016040523d82523d5f602084013e61020f565b606091505b5050905080610253576040517f08c379a000000000000000000000000000000000000000000000000000000000815260040161024a90610560565b60405180910390fd5b7f34e5a5a007c90dce121f77f919f33a44a7fcb9acc7e4f4525d18b6f47e0e4e24826040516102829190610305565b60405180910390a15050565b5f5f9054906101000a900473ffffffffffffffffffffffffffffffffffffffff1681565b7f2da466a7b24304f47e87fa2e1e5a81b9831ce54fec19055ce277ca2f39ba42c433346040516102e392919061057e565b60405180910390a1565b5f819050919050565b6102ff816102ed565b82525050565b5f6020820190506103185f8301846102f6565b92915050565b5f5ffd5b61032b816102ed565b8114610335575f5ffd5b50565b5f8135905061034681610322565b92915050565b5f602082840312156103615761036061031e565b5b5f61036e84828501610338565b91505092915050565b5f73ffffffffffffffffffffffffffffffffffffffff82169050919050565b5f6103a082610377565b9050919050565b6103b081610396565b82525050565b5f6020820190506103c95f8301846103a7565b92915050565b5f82825260208201905092915050565b7f4e6f20706f646573206578747261657220646520756e61206375656e746120715f8201527f7565206e6f206573207475796121000000000000000000000000000000000000602082015250565b5f610439602e836103cf565b9150610444826103df565b604082019050919050565b5f6020820190508181035f8301526104668161042d565b9050919050565b7f4e6f20706f6465732065787472616572203000000000000000000000000000005f82015250565b5f6104a16012836103cf565b91506104ac8261046d565b602082019050919050565b5f6020820190508181035f8301526104ce81610495565b9050919050565b5f81905092915050565b50565b5f6104ed5f836104d5565b91506104f8826104df565b5f82019050919050565b5f61050c826104e2565b9150819050919050565b7f45787472616363696f6e2066616c6c6964612e000000000000000000000000005f82015250565b5f61054a6013836103cf565b915061055582610516565b602082019050919050565b5f6020820190508181035f8301526105778161053e565b9050919050565b5f6040820190506105915f8301856103a7565b61059e60208301846102f6565b939250505056fea26469706673582212204204fcfa2de83dd6c60c52286f2a71fb10fab998f46e587f8efac8251331d58964736f6c634300081e0033",
					"opcodes": "PUSH1 0x80 PUSH1 0x40 MSTORE CALLVALUE DUP1 ISZERO PUSH1 0xE JUMPI PUSH0 PUSH0 REVERT JUMPDEST POP CALLER PUSH0 PUSH0 PUSH2 0x100 EXP DUP2 SLOAD DUP2 PUSH20 0xFFFFFFFFFFFFFFFFFFFFFFFFFFFFFFFFFFFFFFFF MUL NOT AND SWAP1 DUP4 PUSH20 0xFFFFFFFFFFFFFFFFFFFFFFFFFFFFFFFFFFFFFFFF AND MUL OR SWAP1 SSTORE POP PUSH2 0x5DB DUP1 PUSH2 0x5B PUSH0 CODECOPY PUSH0 RETURN INVALID PUSH1 0x80 PUSH1 0x40 MSTORE PUSH1 0x4 CALLDATASIZE LT PUSH2 0x3E JUMPI PUSH0 CALLDATALOAD PUSH1 0xE0 SHR DUP1 PUSH4 0x5145CBC0 EQ PUSH2 0x42 JUMPI DUP1 PUSH4 0x85B39782 EQ PUSH2 0x6C JUMPI DUP1 PUSH4 0x8DA5CB5B EQ PUSH2 0x94 JUMPI DUP1 PUSH4 0xD0E30DB0 EQ PUSH2 0xBE JUMPI JUMPDEST PUSH0 PUSH0 REVERT JUMPDEST CALLVALUE DUP1 ISZERO PUSH2 0x4D JUMPI PUSH0 PUSH0 REVERT JUMPDEST POP PUSH2 0x56 PUSH2 0xC8 JUMP JUMPDEST PUSH1 0x40 MLOAD PUSH2 0x63 SWAP2 SWAP1 PUSH2 0x305 JUMP JUMPDEST PUSH1 0x40 MLOAD DUP1 SWAP2 SUB SWAP1 RETURN JUMPDEST CALLVALUE DUP1 ISZERO PUSH2 0x77 JUMPI PUSH0 PUSH0 REVERT JUMPDEST POP PUSH2 0x92 PUSH1 0x4 DUP1 CALLDATASIZE SUB DUP2 ADD SWAP1 PUSH2 0x8D SWAP2 SWAP1 PUSH2 0x34C JUMP JUMPDEST PUSH2 0xCF JUMP JUMPDEST STOP JUMPDEST CALLVALUE DUP1 ISZERO PUSH2 0x9F JUMPI PUSH0 PUSH0 REVERT JUMPDEST POP PUSH2 0xA8 PUSH2 0x28E JUMP JUMPDEST PUSH1 0x40 MLOAD PUSH2 0xB5 SWAP2 SWAP1 PUSH2 0x3B6 JUMP JUMPDEST PUSH1 0x40 MLOAD DUP1 SWAP2 SUB SWAP1 RETURN JUMPDEST PUSH2 0xC6 PUSH2 0x2B2 JUMP JUMPDEST STOP JUMPDEST PUSH0 SELFBALANCE SWAP1 POP SWAP1 JUMP JUMPDEST PUSH0 PUSH0 SWAP1 SLOAD SWAP1 PUSH2 0x100 EXP SWAP1 DIV PUSH20 0xFFFFFFFFFFFFFFFFFFFFFFFFFFFFFFFFFFFFFFFF AND PUSH20 0xFFFFFFFFFFFFFFFFFFFFFFFFFFFFFFFFFFFFFFFF AND CALLER PUSH20 0xFFFFFFFFFFFFFFFFFFFFFFFFFFFFFFFFFFFFFFFF AND EQ PUSH2 0x15D JUMPI PUSH1 0x40 MLOAD PUSH32 0x8C379A000000000000000000000000000000000000000000000000000000000 DUP2 MSTORE PUSH1 0x4 ADD PUSH2 0x154 SWAP1 PUSH2 0x44F JUMP JUMPDEST PUSH1 0x40 MLOAD DUP1 SWAP2 SUB SWAP1 REVERT JUMPDEST PUSH0 DUP2 GT PUSH2 0x19F JUMPI PUSH1 0x40 MLOAD PUSH32 0x8C379A000000000000000000000000000000000000000000000000000000000 DUP2 MSTORE PUSH1 0x4 ADD PUSH2 0x196 SWAP1 PUSH2 0x4B7 JUMP JUMPDEST PUSH1 0x40 MLOAD DUP1 SWAP2 SUB SWAP1 REVERT JUMPDEST SELFBALANCE DUP2 GT ISZERO PUSH2 0x1AB JUMPI SELFBALANCE SWAP1 POP JUMPDEST PUSH0 CALLER PUSH20 0xFFFFFFFFFFFFFFFFFFFFFFFFFFFFFFFFFFFFFFFF AND DUP3 PUSH1 0x40 MLOAD PUSH2 0x1D0 SWAP1 PUSH2 0x502 JUMP JUMPDEST PUSH0 PUSH1 0x40 MLOAD DUP1 DUP4 SUB DUP2 DUP6 DUP8 GAS CALL SWAP3 POP POP POP RETURNDATASIZE DUP1 PUSH0 DUP2 EQ PUSH2 0x20A JUMPI PUSH1 0x40 MLOAD SWAP2 POP PUSH1 0x1F NOT PUSH1 0x3F RETURNDATASIZE ADD AND DUP3 ADD PUSH1 0x40 MSTORE RETURNDATASIZE DUP3 MSTORE RETURNDATASIZE PUSH0 PUSH1 0x20 DUP5 ADD RETURNDATACOPY PUSH2 0x20F JUMP JUMPDEST PUSH1 0x60 SWAP2 POP JUMPDEST POP POP SWAP1 POP DUP1 PUSH2 0x253 JUMPI PUSH1 0x40 MLOAD PUSH32 0x8C379A000000000000000000000000000000000000000000000000000000000 DUP2 MSTORE PUSH1 0x4 ADD PUSH2 0x24A SWAP1 PUSH2 0x560 JUMP JUMPDEST PUSH1 0x40 MLOAD DUP1 SWAP2 SUB SWAP1 REVERT JUMPDEST PUSH32 0x34E5A5A007C90DCE121F77F919F33A44A7FCB9ACC7E4F4525D18B6F47E0E4E24 DUP3 PUSH1 0x40 MLOAD PUSH2 0x282 SWAP2 SWAP1 PUSH2 0x305 JUMP JUMPDEST PUSH1 0x40 MLOAD DUP1 SWAP2 SUB SWAP1 LOG1 POP POP JUMP JUMPDEST PUSH0 PUSH0 SWAP1 SLOAD SWAP1 PUSH2 0x100 EXP SWAP1 DIV PUSH20 0xFFFFFFFFFFFFFFFFFFFFFFFFFFFFFFFFFFFFFFFF AND DUP2 JUMP JUMPDEST PUSH32 0x2DA466A7B24304F47E87FA2E1E5A81B9831CE54FEC19055CE277CA2F39BA42C4 CALLER CALLVALUE PUSH1 0x40 MLOAD PUSH2 0x2E3 SWAP3 SWAP2 SWAP1 PUSH2 0x57E JUMP JUMPDEST PUSH1 0x40 MLOAD DUP1 SWAP2 SUB SWAP1 LOG1 JUMP JUMPDEST PUSH0 DUP2 SWAP1 POP SWAP2 SWAP1 POP JUMP JUMPDEST PUSH2 0x2FF DUP2 PUSH2 0x2ED JUMP JUMPDEST DUP3 MSTORE POP POP JUMP JUMPDEST PUSH0 PUSH1 0x20 DUP3 ADD SWAP1 POP PUSH2 0x318 PUSH0 DUP4 ADD DUP5 PUSH2 0x2F6 JUMP JUMPDEST SWAP3 SWAP2 POP POP JUMP JUMPDEST PUSH0 PUSH0 REVERT JUMPDEST PUSH2 0x32B DUP2 PUSH2 0x2ED JUMP JUMPDEST DUP2 EQ PUSH2 0x335 JUMPI PUSH0 PUSH0 REVERT JUMPDEST POP JUMP JUMPDEST PUSH0 DUP2 CALLDATALOAD SWAP1 POP PUSH2 0x346 DUP2 PUSH2 0x322 JUMP JUMPDEST SWAP3 SWAP2 POP POP JUMP JUMPDEST PUSH0 PUSH1 0x20 DUP3 DUP5 SUB SLT ISZERO PUSH2 0x361 JUMPI PUSH2 0x360 PUSH2 0x31E JUMP JUMPDEST JUMPDEST PUSH0 PUSH2 0x36E DUP5 DUP3 DUP6 ADD PUSH2 0x338 JUMP JUMPDEST SWAP2 POP POP SWAP3 SWAP2 POP POP JUMP JUMPDEST PUSH0 PUSH20 0xFFFFFFFFFFFFFFFFFFFFFFFFFFFFFFFFFFFFFFFF DUP3 AND SWAP1 POP SWAP2 SWAP1 POP JUMP JUMPDEST PUSH0 PUSH2 0x3A0 DUP3 PUSH2 0x377 JUMP JUMPDEST SWAP1 POP SWAP2 SWAP1 POP JUMP JUMPDEST PUSH2 0x3B0 DUP2 PUSH2 0x396 JUMP JUMPDEST DUP3 MSTORE POP POP JUMP JUMPDEST PUSH0 PUSH1 0x20 DUP3 ADD SWAP1 POP PUSH2 0x3C9 PUSH0 DUP4 ADD DUP5 PUSH2 0x3A7 JUMP JUMPDEST SWAP3 SWAP2 POP POP JUMP JUMPDEST PUSH0 DUP3 DUP3 MSTORE PUSH1 0x20 DUP3 ADD SWAP1 POP SWAP3 SWAP2 POP POP JUMP JUMPDEST PUSH32 0x4E6F20706F646573206578747261657220646520756E61206375656E74612071 PUSH0 DUP3 ADD MSTORE PUSH32 0x7565206E6F206573207475796121000000000000000000000000000000000000 PUSH1 0x20 DUP3 ADD MSTORE POP JUMP JUMPDEST PUSH0 PUSH2 0x439 PUSH1 0x2E DUP4 PUSH2 0x3CF JUMP JUMPDEST SWAP2 POP PUSH2 0x444 DUP3 PUSH2 0x3DF JUMP JUMPDEST PUSH1 0x40 DUP3 ADD SWAP1 POP SWAP2 SWAP1 POP JUMP JUMPDEST PUSH0 PUSH1 0x20 DUP3 ADD SWAP1 POP DUP2 DUP2 SUB PUSH0 DUP4 ADD MSTORE PUSH2 0x466 DUP2 PUSH2 0x42D JUMP JUMPDEST SWAP1 POP SWAP2 SWAP1 POP JUMP JUMPDEST PUSH32 0x4E6F20706F646573206578747261657220300000000000000000000000000000 PUSH0 DUP3 ADD MSTORE POP JUMP JUMPDEST PUSH0 PUSH2 0x4A1 PUSH1 0x12 DUP4 PUSH2 0x3CF JUMP JUMPDEST SWAP2 POP PUSH2 0x4AC DUP3 PUSH2 0x46D JUMP JUMPDEST PUSH1 0x20 DUP3 ADD SWAP1 POP SWAP2 SWAP1 POP JUMP JUMPDEST PUSH0 PUSH1 0x20 DUP3 ADD SWAP1 POP DUP2 DUP2 SUB PUSH0 DUP4 ADD MSTORE PUSH2 0x4CE DUP2 PUSH2 0x495 JUMP JUMPDEST SWAP1 POP SWAP2 SWAP1 POP JUMP JUMPDEST PUSH0 DUP2 SWAP1 POP SWAP3 SWAP2 POP POP JUMP JUMPDEST POP JUMP JUMPDEST PUSH0 PUSH2 0x4ED PUSH0 DUP4 PUSH2 0x4D5 JUMP JUMPDEST SWAP2 POP PUSH2 0x4F8 DUP3 PUSH2 0x4DF JUMP JUMPDEST PUSH0 DUP3 ADD SWAP1 POP SWAP2 SWAP1 POP JUMP JUMPDEST PUSH0 PUSH2 0x50C DUP3 PUSH2 0x4E2 JUMP JUMPDEST SWAP2 POP DUP2 SWAP1 POP SWAP2 SWAP1 POP JUMP JUMPDEST PUSH32 0x45787472616363696F6E2066616C6C6964612E00000000000000000000000000 PUSH0 DUP3 ADD MSTORE POP JUMP JUMPDEST PUSH0 PUSH2 0x54A PUSH1 0x13 DUP4 PUSH2 0x3CF JUMP JUMPDEST SWAP2 POP PUSH2 0x555 DUP3 PUSH2 0x516 JUMP JUMPDEST PUSH1 0x20 DUP3 ADD SWAP1 POP SWAP2 SWAP1 POP JUMP JUMPDEST PUSH0 PUSH1 0x20 DUP3 ADD SWAP1 POP DUP2 DUP2 SUB PUSH0 DUP4 ADD MSTORE PUSH2 0x577 DUP2 PUSH2 0x53E JUMP JUMPDEST SWAP1 POP SWAP2 SWAP1 POP JUMP JUMPDEST PUSH0 PUSH1 0x40 DUP3 ADD SWAP1 POP PUSH2 0x591 PUSH0 DUP4 ADD DUP6 PUSH2 0x3A7 JUMP JUMPDEST PUSH2 0x59E PUSH1 0x20 DUP4 ADD DUP5 PUSH2 0x2F6 JUMP JUMPDEST SWAP4 SWAP3 POP POP POP JUMP INVALID LOG2 PUSH5 0x6970667358 0x22 SLT KECCAK256 TIMESTAMP DIV 0xFC STATICCALL 0x2D 0xE8 RETURNDATASIZE 0xD6 0xC6 0xC MSTORE 0x28 PUSH16 0x2A71FB10FAB998F46E587F8EFAC82513 BALANCE 0xD5 DUP10 PUSH5 0x736F6C6343 STOP ADDMOD 0x1E STOP CALLER "
				},
				"gasEstimates": {
					"creation": {
						"codeDepositCost": "299800",
						"executionCost": "24599",
						"totalCost": "324399"
					},
					"external": {
						"deposit()": "1755",
						"extract(uint256)": "infinite",
						"getSmartContractBalance()": "312",
						"owner()": "2529"
					}
				},
				"methodIdentifiers": {
					"deposit()": "d0e30db0",
					"extract(uint256)": "85b39782",
					"getSmartContractBalance()": "5145cbc0",
					"owner()": "8da5cb5b"
				}
			},
			"storageLayout": {
				"storage": [
					{
						"astId": 3,
						"contract": "contracts/CuentaB.sol:CuentaB",
						"label": "owner",
						"offset": 0,
						"slot": "0",
						"type": "t_address"
					}
				],
				"types": {
					"t_address": {
						"encoding": "inplace",
						"label": "address",
						"numberOfBytes": "20"
					}
				}
			},
			"userdoc": {
				"kind": "user",
				"methods": {},
				"version": 1
			}
		}
	}
}