{
	"contracts/ToDoList.sol": {
		"ToDoList": {
			"abi": [
				{
					"anonymous": false,
					"inputs": [
						{
							"components": [
								{
									"internalType": "string",
									"name": "content",
									"type": "string"
								},
								{
									"internalType": "uint256",
									"name": "createTime",
									"type": "uint256"
								},
								{
									"internalType": "enum ToDoList.Estado",
									"name": "state",
									"type": "uint8"
								}
							],
							"indexed": false,
							"internalType": "struct ToDoList.Task",
							"name": "task",
							"type": "tuple"
						},
						{
							"indexed": false,
							"internalType": "uint256",
							"name": "startTime",
							"type": "uint256"
						}
					],
					"name": "TareaCompletada",
					"type": "event"
				},
				{
					"anonymous": false,
					"inputs": [
						{
							"components": [
								{
									"internalType": "string",
									"name": "content",
									"type": "string"
								},
								{
									"internalType": "uint256",
									"name": "createTime",
									"type": "uint256"
								},
								{
									"internalType": "enum ToDoList.Estado",
									"name": "state",
									"type": "uint8"
								}
							],
							"indexed": false,
							"internalType": "struct ToDoList.Task",
							"name": "task",
							"type": "tuple"
						},
						{
							"indexed": false,
							"internalType": "uint256",
							"name": "createTime",
							"type": "uint256"
						}
					],
					"name": "TareaCreada",
					"type": "event"
				},
				{
					"anonymous": false,
					"inputs": [
						{
							"indexed": false,
							"internalType": "string",
							"name": "content",
							"type": "string"
						},
						{
							"indexed": false,
							"internalType": "uint256",
							"name": "deleteTime",
							"type": "uint256"
						}
					],
					"name": "TareaEliminada",
					"type": "event"
				},
				{
					"anonymous": false,
					"inputs": [
						{
							"components": [
								{
									"internalType": "string",
									"name": "content",
									"type": "string"
								},
								{
									"internalType": "uint256",
									"name": "createTime",
									"type": "uint256"
								},
								{
									"internalType": "enum ToDoList.Estado",
									"name": "state",
									"type": "uint8"
								}
							],
							"indexed": false,
							"internalType": "struct ToDoList.Task",
							"name": "task",
							"type": "tuple"
						},
						{
							"indexed": false,
							"internalType": "uint256",
							"name": "startTime",
							"type": "uint256"
						}
					],
					"name": "TareaEmpezada",
					"type": "event"
				},
				{
					"inputs": [
						{
							"internalType": "string",
							"name": "_content",
							"type": "string"
						}
					],
					"name": "addTask",
					"outputs": [],
					"stateMutability": "nonpayable",
					"type": "function"
				},
				{
					"inputs": [
						{
							"internalType": "uint256",
							"name": "_id",
							"type": "uint256"
						}
					],
					"name": "completeTask",
					"outputs": [],
					"stateMutability": "nonpayable",
					"type": "function"
				},
				{
					"inputs": [
						{
							"internalType": "string",
							"name": "_content",
							"type": "string"
						}
					],
					"name": "deleteTask",
					"outputs": [],
					"stateMutability": "nonpayable",
					"type": "function"
				},
				{
					"inputs": [
						{
							"internalType": "uint256",
							"name": "_id",
							"type": "uint256"
						}
					],
					"name": "getTaskContent",
					"outputs": [
						{
							"components": [
								{
									"internalType": "string",
									"name": "content",
									"type": "string"
								},
								{
									"internalType": "uint256",
									"name": "createTime",
									"type": "uint256"
								},
								{
									"internalType": "enum ToDoList.Estado",
									"name": "state",
									"type": "uint8"
								}
							],
							"internalType": "struct ToDoList.Task",
							"name": "",
							"type": "tuple"
						}
					],
					"stateMutability": "view",
					"type": "function"
				},
				{
					"inputs": [],
					"name": "getTaskCount",
					"outputs": [
						{
							"internalType": "uint256",
							"name": "",
							"type": "uint256"
						}
					],
					"stateMutability": "view",
					"type": "function"
				},
				{
					"inputs": [
						{
							"internalType": "uint256",
							"name": "_id",
							"type": "uint256"
						}
					],
					"name": "startTask",
					"outputs": [],
					"stateMutability": "nonpayable",
					"type": "function"
				}
			],
			"devdoc": {
				"kind": "dev",
				"methods": {},
				"version": 1
			},
			"evm": {
				"assembly": "    /* \"contracts/ToDoList.sol\":267:2710  contract ToDoList {... */\n  mstore(0x40, 0x80)\n  callvalue\n  dup1\n  iszero\n  tag_1\n  jumpi\n  revert(0x00, 0x00)\ntag_1:\n  pop\n  dataSize(sub_0)\n  dup1\n  dataOffset(sub_0)\n  0x00\n  codecopy\n  0x00\n  return\nstop\n\nsub_0: assembly {\n        /* \"contracts/ToDoList.sol\":267:2710  contract ToDoList {... */\n      mstore(0x40, 0x80)\n      callvalue\n      dup1\n      iszero\n      tag_1\n      jumpi\n      revert(0x00, 0x00)\n    tag_1:\n      pop\n      jumpi(tag_2, lt(calldatasize, 0x04))\n      shr(0xe0, calldataload(0x00))\n      dup1\n      0x5f944326\n      eq\n      tag_3\n      jumpi\n      dup1\n      0x67238562\n      eq\n      tag_4\n      jumpi\n      dup1\n      0x859c9186\n      eq\n      tag_5\n      jumpi\n      dup1\n      0xc17a340e\n      eq\n      tag_6\n      jumpi\n      dup1\n      0xcd8e01d1\n      eq\n      tag_7\n      jumpi\n      dup1\n      0xe1e29558\n      eq\n      tag_8\n      jumpi\n    tag_2:\n      revert(0x00, 0x00)\n        /* \"contracts/ToDoList.sol\":1222:1456  function startTask(uint _id) public {... */\n    tag_3:\n      tag_9\n      0x04\n      dup1\n      calldatasize\n      sub\n      dup2\n      add\n      swap1\n      tag_10\n      swap2\n      swap1\n      tag_11\n      jump\t// in\n    tag_10:\n      tag_12\n      jump\t// in\n    tag_9:\n      stop\n        /* \"contracts/ToDoList.sol\":934:1161  function addTask(string calldata _content) public {... */\n    tag_4:\n      tag_13\n      0x04\n      dup1\n      calldatasize\n      sub\n      dup2\n      add\n      swap1\n      tag_14\n      swap2\n      swap1\n      tag_15\n      jump\t// in\n    tag_14:\n      tag_16\n      jump\t// in\n    tag_13:\n      stop\n        /* \"contracts/ToDoList.sol\":2242:2701  function deleteTask(string calldata _content) public {... */\n    tag_5:\n      tag_17\n      0x04\n      dup1\n      calldatasize\n      sub\n      dup2\n      add\n      swap1\n      tag_18\n      swap2\n      swap1\n      tag_15\n      jump\t// in\n    tag_18:\n      tag_19\n      jump\t// in\n    tag_17:\n      stop\n        /* \"contracts/ToDoList.sol\":1826:1917  function getTaskCount() public view returns (uint) {... */\n    tag_6:\n      tag_20\n      tag_21\n      jump\t// in\n    tag_20:\n      mload(0x40)\n      tag_22\n      swap2\n      swap1\n      tag_23\n      jump\t// in\n    tag_22:\n      mload(0x40)\n      dup1\n      swap2\n      sub\n      swap1\n      return\n        /* \"contracts/ToDoList.sol\":1977:2167  function getTaskContent(uint _id) public view returns (Task memory) {... */\n    tag_7:\n      tag_24\n      0x04\n      dup1\n      calldatasize\n      sub\n      dup2\n      add\n      swap1\n      tag_25\n      swap2\n      swap1\n      tag_11\n      jump\t// in\n    tag_25:\n      tag_26\n      jump\t// in\n    tag_24:\n      mload(0x40)\n      tag_27\n      swap2\n      swap1\n      tag_28\n      jump\t// in\n    tag_27:\n      mload(0x40)\n      dup1\n      swap2\n      sub\n      swap1\n      return\n        /* \"contracts/ToDoList.sol\":1519:1762  function completeTask(uint _id) public {... */\n    tag_8:\n      tag_29\n      0x04\n      dup1\n      calldatasize\n      sub\n      dup2\n      add\n      swap1\n      tag_30\n      swap2\n      swap1\n      tag_11\n      jump\t// in\n    tag_30:\n      tag_31\n      jump\t// in\n    tag_29:\n      stop\n        /* \"contracts/ToDoList.sol\":1222:1456  function startTask(uint _id) public {... */\n    tag_12:\n        /* \"contracts/ToDoList.sol\":1283:1290  s_tasks */\n      0x00\n        /* \"contracts/ToDoList.sol\":1283:1297  s_tasks.length */\n      dup1\n      sload\n      swap1\n      pop\n        /* \"contracts/ToDoList.sol\":1277:1280  _id */\n      dup2\n        /* \"contracts/ToDoList.sol\":1277:1297  _id < s_tasks.length */\n      lt\n        /* \"contracts/ToDoList.sol\":1269:1340  require(_id < s_tasks.length, \"START - La tarea con ese id no existe!\") */\n      tag_33\n      jumpi\n      mload(0x40)\n      0x08c379a000000000000000000000000000000000000000000000000000000000\n      dup2\n      mstore\n      0x04\n      add\n      tag_34\n      swap1\n      tag_35\n      jump\t// in\n    tag_34:\n      mload(0x40)\n      dup1\n      swap2\n      sub\n      swap1\n      revert\n    tag_33:\n        /* \"contracts/ToDoList.sol\":1372:1388  Estado.EnProceso */\n      0x01\n        /* \"contracts/ToDoList.sol\":1351:1358  s_tasks */\n      0x00\n        /* \"contracts/ToDoList.sol\":1359:1362  _id */\n      dup3\n        /* \"contracts/ToDoList.sol\":1351:1363  s_tasks[_id] */\n      dup2\n      sload\n      dup2\n      lt\n      tag_36\n      jumpi\n      tag_37\n      tag_38\n      jump\t// in\n    tag_37:\n    tag_36:\n      swap1\n      0x00\n      mstore\n      keccak256(0x00, 0x20)\n      swap1\n      0x03\n      mul\n      add\n        /* \"contracts/ToDoList.sol\":1351:1369  s_tasks[_id].state */\n      0x02\n      add\n      0x00\n        /* \"contracts/ToDoList.sol\":1351:1388  s_tasks[_id].state = Estado.EnProceso */\n      0x0100\n      exp\n      dup2\n      sload\n      dup2\n      0xff\n      mul\n      not\n      and\n      swap1\n      dup4\n      0x02\n      dup2\n      gt\n      iszero\n      tag_40\n      jumpi\n      tag_41\n      tag_42\n      jump\t// in\n    tag_41:\n    tag_40:\n      mul\n      or\n      swap1\n      sstore\n      pop\n        /* \"contracts/ToDoList.sol\":1404:1448  TareaEmpezada(s_tasks[_id], block.timestamp) */\n      0x5ce6bcc6ee873ed340233e596fb679ecddce772775de0d7ba2b04e1601ea67ab\n        /* \"contracts/ToDoList.sol\":1418:1425  s_tasks */\n      0x00\n        /* \"contracts/ToDoList.sol\":1426:1429  _id */\n      dup3\n        /* \"contracts/ToDoList.sol\":1418:1430  s_tasks[_id] */\n      dup2\n      sload\n      dup2\n      lt\n      tag_43\n      jumpi\n      tag_44\n      tag_38\n      jump\t// in\n    tag_44:\n    tag_43:\n      swap1\n      0x00\n      mstore\n      keccak256(0x00, 0x20)\n      swap1\n      0x03\n      mul\n      add\n        /* \"contracts/ToDoList.sol\":1432:1447  block.timestamp */\n      timestamp\n        /* \"contracts/ToDoList.sol\":1404:1448  TareaEmpezada(s_tasks[_id], block.timestamp) */\n      mload(0x40)\n      tag_46\n      swap3\n      swap2\n      swap1\n      tag_47\n      jump\t// in\n    tag_46:\n      mload(0x40)\n      dup1\n      swap2\n      sub\n      swap1\n      log1\n        /* \"contracts/ToDoList.sol\":1222:1456  function startTask(uint _id) public {... */\n      pop\n      jump\t// out\n        /* \"contracts/ToDoList.sol\":934:1161  function addTask(string calldata _content) public {... */\n    tag_16:\n        /* \"contracts/ToDoList.sol\":995:1014  Task memory newTask */\n      0x00\n        /* \"contracts/ToDoList.sol\":1017:1066  Task(_content, block.timestamp, Estado.Pendiente) */\n      mload(0x40)\n      dup1\n      0x60\n      add\n      0x40\n      mstore\n      dup1\n        /* \"contracts/ToDoList.sol\":1022:1030  _content */\n      dup5\n      dup5\n        /* \"contracts/ToDoList.sol\":1017:1066  Task(_content, block.timestamp, Estado.Pendiente) */\n      dup1\n      dup1\n      0x1f\n      add\n      0x20\n      dup1\n      swap2\n      div\n      mul\n      0x20\n      add\n      mload(0x40)\n      swap1\n      dup2\n      add\n      0x40\n      mstore\n      dup1\n      swap4\n      swap3\n      swap2\n      swap1\n      dup2\n      dup2\n      mstore\n      0x20\n      add\n      dup4\n      dup4\n      dup1\n      dup3\n      dup5\n      calldatacopy\n      0x00\n      dup2\n      dup5\n      add\n      mstore\n      not(0x1f)\n      0x1f\n      dup3\n      add\n      and\n      swap1\n      pop\n      dup1\n      dup4\n      add\n      swap3\n      pop\n      pop\n      pop\n      pop\n      pop\n      pop\n      pop\n      dup2\n      mstore\n      0x20\n      add\n        /* \"contracts/ToDoList.sol\":1032:1047  block.timestamp */\n      timestamp\n        /* \"contracts/ToDoList.sol\":1017:1066  Task(_content, block.timestamp, Estado.Pendiente) */\n      dup2\n      mstore\n      0x20\n      add\n        /* \"contracts/ToDoList.sol\":1049:1065  Estado.Pendiente */\n      0x00\n        /* \"contracts/ToDoList.sol\":1017:1066  Task(_content, block.timestamp, Estado.Pendiente) */\n      0x02\n      dup2\n      gt\n      iszero\n      tag_49\n      jumpi\n      tag_50\n      tag_42\n      jump\t// in\n    tag_50:\n    tag_49:\n      dup2\n      mstore\n      pop\n        /* \"contracts/ToDoList.sol\":995:1066  Task memory newTask = Task(_content, block.timestamp, Estado.Pendiente) */\n      swap1\n      pop\n        /* \"contracts/ToDoList.sol\":1077:1084  s_tasks */\n      0x00\n        /* \"contracts/ToDoList.sol\":1090:1097  newTask */\n      dup2\n        /* \"contracts/ToDoList.sol\":1077:1098  s_tasks.push(newTask) */\n      swap1\n      dup1\n      0x01\n      dup2\n      sload\n      add\n      dup1\n      dup3\n      sstore\n      dup1\n      swap2\n      pop\n      pop\n      0x01\n      swap1\n      sub\n      swap1\n      0x00\n      mstore\n      keccak256(0x00, 0x20)\n      swap1\n      0x03\n      mul\n      add\n      0x00\n      swap1\n      swap2\n      swap1\n      swap2\n      swap1\n      swap2\n      pop\n      0x00\n      dup3\n      add\n      mload\n      dup2\n      0x00\n      add\n      swap1\n      dup2\n      tag_52\n      swap2\n      swap1\n      tag_53\n      jump\t// in\n    tag_52:\n      pop\n      0x20\n      dup3\n      add\n      mload\n      dup2\n      0x01\n      add\n      sstore\n      0x40\n      dup3\n      add\n      mload\n      dup2\n      0x02\n      add\n      exp(0x0100, 0x00)\n      dup2\n      sload\n      dup2\n      0xff\n      mul\n      not\n      and\n      swap1\n      dup4\n      0x02\n      dup2\n      gt\n      iszero\n      tag_54\n      jumpi\n      tag_55\n      tag_42\n      jump\t// in\n    tag_55:\n    tag_54:\n      mul\n      or\n      swap1\n      sstore\n      pop\n      pop\n      pop\n        /* \"contracts/ToDoList.sol\":1116:1153  TareaCreada(newTask, block.timestamp) */\n      0x4d27bebb924c34f032ab615cd29a3e48dbf8e61aa2c7dc376fbd6ce37799264a\n        /* \"contracts/ToDoList.sol\":1128:1135  newTask */\n      dup2\n        /* \"contracts/ToDoList.sol\":1137:1152  block.timestamp */\n      timestamp\n        /* \"contracts/ToDoList.sol\":1116:1153  TareaCreada(newTask, block.timestamp) */\n      mload(0x40)\n      tag_56\n      swap3\n      swap2\n      swap1\n      tag_57\n      jump\t// in\n    tag_56:\n      mload(0x40)\n      dup1\n      swap2\n      sub\n      swap1\n      log1\n        /* \"contracts/ToDoList.sol\":984:1161  {... */\n      pop\n        /* \"contracts/ToDoList.sol\":934:1161  function addTask(string calldata _content) public {... */\n      pop\n      pop\n      jump\t// out\n        /* \"contracts/ToDoList.sol\":2242:2701  function deleteTask(string calldata _content) public {... */\n    tag_19:\n        /* \"contracts/ToDoList.sol\":2306:2312  uint i */\n      0x00\n        /* \"contracts/ToDoList.sol\":2315:2316  0 */\n      0x00\n        /* \"contracts/ToDoList.sol\":2306:2316  uint i = 0 */\n      swap1\n      pop\n        /* \"contracts/ToDoList.sol\":2327:2474  while (i<s_tasks.length && keccak256(abi.encodePacked(_content)) != keccak256(abi.encodePacked(s_tasks[i].content))) {... */\n    tag_59:\n        /* \"contracts/ToDoList.sol\":2336:2343  s_tasks */\n      0x00\n        /* \"contracts/ToDoList.sol\":2336:2350  s_tasks.length */\n      dup1\n      sload\n      swap1\n      pop\n        /* \"contracts/ToDoList.sol\":2334:2335  i */\n      dup2\n        /* \"contracts/ToDoList.sol\":2334:2350  i<s_tasks.length */\n      lt\n        /* \"contracts/ToDoList.sol\":2334:2442  i<s_tasks.length && keccak256(abi.encodePacked(_content)) != keccak256(abi.encodePacked(s_tasks[i].content)) */\n      dup1\n      iszero\n      tag_61\n      jumpi\n      pop\n        /* \"contracts/ToDoList.sol\":2422:2429  s_tasks */\n      0x00\n        /* \"contracts/ToDoList.sol\":2430:2431  i */\n      dup2\n        /* \"contracts/ToDoList.sol\":2422:2432  s_tasks[i] */\n      dup2\n      sload\n      dup2\n      lt\n      tag_62\n      jumpi\n      tag_63\n      tag_38\n      jump\t// in\n    tag_63:\n    tag_62:\n      swap1\n      0x00\n      mstore\n      keccak256(0x00, 0x20)\n      swap1\n      0x03\n      mul\n      add\n        /* \"contracts/ToDoList.sol\":2422:2440  s_tasks[i].content */\n      0x00\n      add\n        /* \"contracts/ToDoList.sol\":2405:2441  abi.encodePacked(s_tasks[i].content) */\n      add(0x20, mload(0x40))\n      tag_65\n      swap2\n      swap1\n      tag_66\n      jump\t// in\n    tag_65:\n      mload(0x40)\n      0x20\n      dup2\n      dup4\n      sub\n      sub\n      dup2\n      mstore\n      swap1\n      0x40\n      mstore\n        /* \"contracts/ToDoList.sol\":2395:2442  keccak256(abi.encodePacked(s_tasks[i].content)) */\n      dup1\n      mload\n      swap1\n      0x20\n      add\n      keccak256\n        /* \"contracts/ToDoList.sol\":2381:2389  _content */\n      dup4\n      dup4\n        /* \"contracts/ToDoList.sol\":2364:2390  abi.encodePacked(_content) */\n      add(0x20, mload(0x40))\n      tag_67\n      swap3\n      swap2\n      swap1\n      tag_68\n      jump\t// in\n    tag_67:\n      mload(0x40)\n      0x20\n      dup2\n      dup4\n      sub\n      sub\n      dup2\n      mstore\n      swap1\n      0x40\n      mstore\n        /* \"contracts/ToDoList.sol\":2354:2391  keccak256(abi.encodePacked(_content)) */\n      dup1\n      mload\n      swap1\n      0x20\n      add\n      keccak256\n        /* \"contracts/ToDoList.sol\":2354:2442  keccak256(abi.encodePacked(_content)) != keccak256(abi.encodePacked(s_tasks[i].content)) */\n      eq\n      iszero\n        /* \"contracts/ToDoList.sol\":2334:2442  i<s_tasks.length && keccak256(abi.encodePacked(_content)) != keccak256(abi.encodePacked(s_tasks[i].content)) */\n    tag_61:\n        /* \"contracts/ToDoList.sol\":2327:2474  while (i<s_tasks.length && keccak256(abi.encodePacked(_content)) != keccak256(abi.encodePacked(s_tasks[i].content))) {... */\n      iszero\n      tag_60\n      jumpi\n        /* \"contracts/ToDoList.sol\":2459:2462  i++ */\n      dup1\n      dup1\n      tag_69\n      swap1\n      tag_70\n      jump\t// in\n    tag_69:\n      swap2\n      pop\n      pop\n        /* \"contracts/ToDoList.sol\":2327:2474  while (i<s_tasks.length && keccak256(abi.encodePacked(_content)) != keccak256(abi.encodePacked(s_tasks[i].content))) {... */\n      jump(tag_59)\n    tag_60:\n        /* \"contracts/ToDoList.sol\":2496:2503  s_tasks */\n      0x00\n        /* \"contracts/ToDoList.sol\":2496:2510  s_tasks.length */\n      dup1\n      sload\n      swap1\n      pop\n        /* \"contracts/ToDoList.sol\":2492:2493  i */\n      dup2\n        /* \"contracts/ToDoList.sol\":2492:2510  i < s_tasks.length */\n      lt\n        /* \"contracts/ToDoList.sol\":2484:2561  require(i < s_tasks.length, \"DELETE - La tarea con ese contenido no existe!\") */\n      tag_71\n      jumpi\n      mload(0x40)\n      0x08c379a000000000000000000000000000000000000000000000000000000000\n      dup2\n      mstore\n      0x04\n      add\n      tag_72\n      swap1\n      tag_73\n      jump\t// in\n    tag_72:\n      mload(0x40)\n      dup1\n      swap2\n      sub\n      swap1\n      revert\n    tag_71:\n        /* \"contracts/ToDoList.sol\":2585:2592  s_tasks */\n      0x00\n        /* \"contracts/ToDoList.sol\":2610:2611  1 */\n      0x01\n        /* \"contracts/ToDoList.sol\":2593:2600  s_tasks */\n      0x00\n        /* \"contracts/ToDoList.sol\":2593:2607  s_tasks.length */\n      dup1\n      sload\n      swap1\n      pop\n        /* \"contracts/ToDoList.sol\":2593:2611  s_tasks.length - 1 */\n      tag_74\n      swap2\n      swap1\n      tag_75\n      jump\t// in\n    tag_74:\n        /* \"contracts/ToDoList.sol\":2585:2612  s_tasks[s_tasks.length - 1] */\n      dup2\n      sload\n      dup2\n      lt\n      tag_76\n      jumpi\n      tag_77\n      tag_38\n      jump\t// in\n    tag_77:\n    tag_76:\n      swap1\n      0x00\n      mstore\n      keccak256(0x00, 0x20)\n      swap1\n      0x03\n      mul\n      add\n        /* \"contracts/ToDoList.sol\":2572:2579  s_tasks */\n      0x00\n        /* \"contracts/ToDoList.sol\":2580:2581  i */\n      dup3\n        /* \"contracts/ToDoList.sol\":2572:2582  s_tasks[i] */\n      dup2\n      sload\n      dup2\n      lt\n      tag_79\n      jumpi\n      tag_80\n      tag_38\n      jump\t// in\n    tag_80:\n    tag_79:\n      swap1\n      0x00\n      mstore\n      keccak256(0x00, 0x20)\n      swap1\n      0x03\n      mul\n      add\n        /* \"contracts/ToDoList.sol\":2572:2612  s_tasks[i] = s_tasks[s_tasks.length - 1] */\n      0x00\n      dup3\n      add\n      dup2\n      0x00\n      add\n      swap1\n      dup2\n      tag_82\n      swap2\n      swap1\n      tag_83\n      jump\t// in\n    tag_82:\n      pop\n      0x01\n      dup3\n      add\n      sload\n      dup2\n      0x01\n      add\n      sstore\n      0x02\n      dup3\n      add\n      0x00\n      swap1\n      sload\n      swap1\n      0x0100\n      exp\n      swap1\n      div\n      0xff\n      and\n      dup2\n      0x02\n      add\n      exp(0x0100, 0x00)\n      dup2\n      sload\n      dup2\n      0xff\n      mul\n      not\n      and\n      swap1\n      dup4\n      0x02\n      dup2\n      gt\n      iszero\n      tag_84\n      jumpi\n      tag_85\n      tag_42\n      jump\t// in\n    tag_85:\n    tag_84:\n      mul\n      or\n      swap1\n      sstore\n      pop\n      swap1\n      pop\n      pop\n        /* \"contracts/ToDoList.sol\":2623:2630  s_tasks */\n      0x00\n        /* \"contracts/ToDoList.sol\":2623:2636  s_tasks.pop() */\n      dup1\n      sload\n      dup1\n      tag_86\n      jumpi\n      tag_87\n      tag_88\n      jump\t// in\n    tag_87:\n    tag_86:\n      0x01\n      swap1\n      sub\n      dup2\n      dup2\n      swap1\n      0x00\n      mstore\n      keccak256(0x00, 0x20)\n      swap1\n      0x03\n      mul\n      add\n      0x00\n      0x00\n      dup3\n      add\n      0x00\n      tag_90\n      swap2\n      swap1\n      tag_91\n      jump\t// in\n    tag_90:\n      0x01\n      dup3\n      add\n      0x00\n      swap1\n      sstore\n      0x02\n      dup3\n      add\n      exp(0x0100, 0x00)\n      dup2\n      sload\n      swap1\n      0xff\n      mul\n      not\n      and\n      swap1\n      sstore\n      pop\n      pop\n      swap1\n      sstore\n        /* \"contracts/ToDoList.sol\":2652:2693  TareaEliminada(_content, block.timestamp) */\n      0x509ab64d8f4c027165652b685b4e6e2e00a1874d0b293fc39fda798f8a6ca5a6\n        /* \"contracts/ToDoList.sol\":2667:2675  _content */\n      dup4\n      dup4\n        /* \"contracts/ToDoList.sol\":2677:2692  block.timestamp */\n      timestamp\n        /* \"contracts/ToDoList.sol\":2652:2693  TareaEliminada(_content, block.timestamp) */\n      mload(0x40)\n      tag_92\n      swap4\n      swap3\n      swap2\n      swap1\n      tag_93\n      jump\t// in\n    tag_92:\n      mload(0x40)\n      dup1\n      swap2\n      sub\n      swap1\n      log1\n        /* \"contracts/ToDoList.sol\":2295:2701  {... */\n      pop\n        /* \"contracts/ToDoList.sol\":2242:2701  function deleteTask(string calldata _content) public {... */\n      pop\n      pop\n      jump\t// out\n        /* \"contracts/ToDoList.sol\":1826:1917  function getTaskCount() public view returns (uint) {... */\n    tag_21:\n        /* \"contracts/ToDoList.sol\":1871:1875  uint */\n      0x00\n        /* \"contracts/ToDoList.sol\":1895:1902  s_tasks */\n      0x00\n        /* \"contracts/ToDoList.sol\":1895:1909  s_tasks.length */\n      dup1\n      sload\n      swap1\n      pop\n        /* \"contracts/ToDoList.sol\":1888:1909  return s_tasks.length */\n      swap1\n      pop\n        /* \"contracts/ToDoList.sol\":1826:1917  function getTaskCount() public view returns (uint) {... */\n      swap1\n      jump\t// out\n        /* \"contracts/ToDoList.sol\":1977:2167  function getTaskContent(uint _id) public view returns (Task memory) {... */\n    tag_26:\n        /* \"contracts/ToDoList.sol\":2032:2043  Task memory */\n      tag_95\n      tag_96\n      jump\t// in\n    tag_95:\n        /* \"contracts/ToDoList.sol\":2070:2077  s_tasks */\n      0x00\n        /* \"contracts/ToDoList.sol\":2070:2084  s_tasks.length */\n      dup1\n      sload\n      swap1\n      pop\n        /* \"contracts/ToDoList.sol\":2064:2067  _id */\n      dup3\n        /* \"contracts/ToDoList.sol\":2064:2084  _id < s_tasks.length */\n      lt\n        /* \"contracts/ToDoList.sol\":2056:2129  require(_id < s_tasks.length, \"CONTENT - La tarea con ese id no existe!\") */\n      tag_98\n      jumpi\n      mload(0x40)\n      0x08c379a000000000000000000000000000000000000000000000000000000000\n      dup2\n      mstore\n      0x04\n      add\n      tag_99\n      swap1\n      tag_100\n      jump\t// in\n    tag_99:\n      mload(0x40)\n      dup1\n      swap2\n      sub\n      swap1\n      revert\n    tag_98:\n        /* \"contracts/ToDoList.sol\":2147:2154  s_tasks */\n      0x00\n        /* \"contracts/ToDoList.sol\":2155:2158  _id */\n      dup3\n        /* \"contracts/ToDoList.sol\":2147:2159  s_tasks[_id] */\n      dup2\n      sload\n      dup2\n      lt\n      tag_101\n      jumpi\n      tag_102\n      tag_38\n      jump\t// in\n    tag_102:\n    tag_101:\n      swap1\n      0x00\n      mstore\n      keccak256(0x00, 0x20)\n      swap1\n      0x03\n      mul\n      add\n        /* \"contracts/ToDoList.sol\":2140:2159  return s_tasks[_id] */\n      mload(0x40)\n      dup1\n      0x60\n      add\n      0x40\n      mstore\n      swap1\n      dup2\n      0x00\n      dup3\n      add\n      dup1\n      sload\n      tag_104\n      swap1\n      tag_105\n      jump\t// in\n    tag_104:\n      dup1\n      0x1f\n      add\n      0x20\n      dup1\n      swap2\n      div\n      mul\n      0x20\n      add\n      mload(0x40)\n      swap1\n      dup2\n      add\n      0x40\n      mstore\n      dup1\n      swap3\n      swap2\n      swap1\n      dup2\n      dup2\n      mstore\n      0x20\n      add\n      dup3\n      dup1\n      sload\n      tag_106\n      swap1\n      tag_105\n      jump\t// in\n    tag_106:\n      dup1\n      iszero\n      tag_107\n      jumpi\n      dup1\n      0x1f\n      lt\n      tag_108\n      jumpi\n      0x0100\n      dup1\n      dup4\n      sload\n      div\n      mul\n      dup4\n      mstore\n      swap2\n      0x20\n      add\n      swap2\n      jump(tag_107)\n    tag_108:\n      dup3\n      add\n      swap2\n      swap1\n      0x00\n      mstore\n      keccak256(0x00, 0x20)\n      swap1\n    tag_109:\n      dup2\n      sload\n      dup2\n      mstore\n      swap1\n      0x01\n      add\n      swap1\n      0x20\n      add\n      dup1\n      dup4\n      gt\n      tag_109\n      jumpi\n      dup3\n      swap1\n      sub\n      0x1f\n      and\n      dup3\n      add\n      swap2\n    tag_107:\n      pop\n      pop\n      pop\n      pop\n      pop\n      dup2\n      mstore\n      0x20\n      add\n      0x01\n      dup3\n      add\n      sload\n      dup2\n      mstore\n      0x20\n      add\n      0x02\n      dup3\n      add\n      0x00\n      swap1\n      sload\n      swap1\n      0x0100\n      exp\n      swap1\n      div\n      0xff\n      and\n      0x02\n      dup2\n      gt\n      iszero\n      tag_110\n      jumpi\n      tag_111\n      tag_42\n      jump\t// in\n    tag_111:\n    tag_110:\n      0x02\n      dup2\n      gt\n      iszero\n      tag_112\n      jumpi\n      tag_113\n      tag_42\n      jump\t// in\n    tag_113:\n    tag_112:\n      dup2\n      mstore\n      pop\n      pop\n      swap1\n      pop\n        /* \"contracts/ToDoList.sol\":1977:2167  function getTaskContent(uint _id) public view returns (Task memory) {... */\n      swap2\n      swap1\n      pop\n      jump\t// out\n        /* \"contracts/ToDoList.sol\":1519:1762  function completeTask(uint _id) public {... */\n    tag_31:\n        /* \"contracts/ToDoList.sol\":1583:1590  s_tasks */\n      0x00\n        /* \"contracts/ToDoList.sol\":1583:1597  s_tasks.length */\n      dup1\n      sload\n      swap1\n      pop\n        /* \"contracts/ToDoList.sol\":1577:1580  _id */\n      dup2\n        /* \"contracts/ToDoList.sol\":1577:1597  _id < s_tasks.length */\n      lt\n        /* \"contracts/ToDoList.sol\":1569:1643  require(_id < s_tasks.length, \"COMPLETE - La tarea con ese id no existe!\") */\n      tag_115\n      jumpi\n      mload(0x40)\n      0x08c379a000000000000000000000000000000000000000000000000000000000\n      dup2\n      mstore\n      0x04\n      add\n      tag_116\n      swap1\n      tag_117\n      jump\t// in\n    tag_116:\n      mload(0x40)\n      dup1\n      swap2\n      sub\n      swap1\n      revert\n    tag_115:\n        /* \"contracts/ToDoList.sol\":1675:1692  Estado.Completada */\n      0x02\n        /* \"contracts/ToDoList.sol\":1654:1661  s_tasks */\n      0x00\n        /* \"contracts/ToDoList.sol\":1662:1665  _id */\n      dup3\n        /* \"contracts/ToDoList.sol\":1654:1666  s_tasks[_id] */\n      dup2\n      sload\n      dup2\n      lt\n      tag_118\n      jumpi\n      tag_119\n      tag_38\n      jump\t// in\n    tag_119:\n    tag_118:\n      swap1\n      0x00\n      mstore\n      keccak256(0x00, 0x20)\n      swap1\n      0x03\n      mul\n      add\n        /* \"contracts/ToDoList.sol\":1654:1672  s_tasks[_id].state */\n      0x02\n      add\n      0x00\n        /* \"contracts/ToDoList.sol\":1654:1692  s_tasks[_id].state = Estado.Completada */\n      0x0100\n      exp\n      dup2\n      sload\n      dup2\n      0xff\n      mul\n      not\n      and\n      swap1\n      dup4\n      0x02\n      dup2\n      gt\n      iszero\n      tag_121\n      jumpi\n      tag_122\n      tag_42\n      jump\t// in\n    tag_122:\n    tag_121:\n      mul\n      or\n      swap1\n      sstore\n      pop\n        /* \"contracts/ToDoList.sol\":1708:1754  TareaCompletada(s_tasks[_id], block.timestamp) */\n      0x570186371de131c7706de91bba09c739ea4475573e970fa61aebcf66b4ab15a2\n        /* \"contracts/ToDoList.sol\":1724:1731  s_tasks */\n      0x00\n        /* \"contracts/ToDoList.sol\":1732:1735  _id */\n      dup3\n        /* \"contracts/ToDoList.sol\":1724:1736  s_tasks[_id] */\n      dup2\n      sload\n      dup2\n      lt\n      tag_123\n      jumpi\n      tag_124\n      tag_38\n      jump\t// in\n    tag_124:\n    tag_123:\n      swap1\n      0x00\n      mstore\n      keccak256(0x00, 0x20)\n      swap1\n      0x03\n      mul\n      add\n        /* \"contracts/ToDoList.sol\":1738:1753  block.timestamp */\n      timestamp\n        /* \"contracts/ToDoList.sol\":1708:1754  TareaCompletada(s_tasks[_id], block.timestamp) */\n      mload(0x40)\n      tag_126\n      swap3\n      swap2\n      swap1\n      tag_47\n      jump\t// in\n    tag_126:\n      mload(0x40)\n      dup1\n      swap2\n      sub\n      swap1\n      log1\n        /* \"contracts/ToDoList.sol\":1519:1762  function completeTask(uint _id) public {... */\n      pop\n      jump\t// out\n    tag_91:\n      pop\n      dup1\n      sload\n      tag_127\n      swap1\n      tag_105\n      jump\t// in\n    tag_127:\n      0x00\n      dup3\n      sstore\n      dup1\n      0x1f\n      lt\n      tag_129\n      jumpi\n      pop\n      jump(tag_128)\n    tag_129:\n      0x1f\n      add\n      0x20\n      swap1\n      div\n      swap1\n      0x00\n      mstore\n      keccak256(0x00, 0x20)\n      swap1\n      dup2\n      add\n      swap1\n      tag_130\n      swap2\n      swap1\n      tag_131\n      jump\t// in\n    tag_130:\n    tag_128:\n      pop\n      jump\t// out\n    tag_96:\n      mload(0x40)\n      dup1\n      0x60\n      add\n      0x40\n      mstore\n      dup1\n      0x60\n      dup2\n      mstore\n      0x20\n      add\n      0x00\n      dup2\n      mstore\n      0x20\n      add\n      0x00\n      0x02\n      dup2\n      gt\n      iszero\n      tag_132\n      jumpi\n      tag_133\n      tag_42\n      jump\t// in\n    tag_133:\n    tag_132:\n      dup2\n      mstore\n      pop\n      swap1\n      jump\t// out\n    tag_131:\n    tag_134:\n      dup1\n      dup3\n      gt\n      iszero\n      tag_135\n      jumpi\n      0x00\n      dup2\n      0x00\n      swap1\n      sstore\n      pop\n      0x01\n      add\n      jump(tag_134)\n    tag_135:\n      pop\n      swap1\n      jump\t// out\n        /* \"#utility.yul\":88:205   */\n    tag_137:\n        /* \"#utility.yul\":197:198   */\n      0x00\n        /* \"#utility.yul\":194:195   */\n      0x00\n        /* \"#utility.yul\":187:199   */\n      revert\n        /* \"#utility.yul\":211:328   */\n    tag_138:\n        /* \"#utility.yul\":320:321   */\n      0x00\n        /* \"#utility.yul\":317:318   */\n      0x00\n        /* \"#utility.yul\":310:322   */\n      revert\n        /* \"#utility.yul\":334:411   */\n    tag_139:\n        /* \"#utility.yul\":371:378   */\n      0x00\n        /* \"#utility.yul\":400:405   */\n      dup2\n        /* \"#utility.yul\":389:405   */\n      swap1\n      pop\n        /* \"#utility.yul\":334:411   */\n      swap2\n      swap1\n      pop\n      jump\t// out\n        /* \"#utility.yul\":417:539   */\n    tag_140:\n        /* \"#utility.yul\":490:514   */\n      tag_204\n        /* \"#utility.yul\":508:513   */\n      dup2\n        /* \"#utility.yul\":490:514   */\n      tag_139\n      jump\t// in\n    tag_204:\n        /* \"#utility.yul\":483:488   */\n      dup2\n        /* \"#utility.yul\":480:515   */\n      eq\n        /* \"#utility.yul\":470:533   */\n      tag_205\n      jumpi\n        /* \"#utility.yul\":529:530   */\n      0x00\n        /* \"#utility.yul\":526:527   */\n      0x00\n        /* \"#utility.yul\":519:531   */\n      revert\n        /* \"#utility.yul\":470:533   */\n    tag_205:\n        /* \"#utility.yul\":417:539   */\n      pop\n      jump\t// out\n        /* \"#utility.yul\":545:684   */\n    tag_141:\n        /* \"#utility.yul\":591:596   */\n      0x00\n        /* \"#utility.yul\":629:635   */\n      dup2\n        /* \"#utility.yul\":616:636   */\n      calldataload\n        /* \"#utility.yul\":607:636   */\n      swap1\n      pop\n        /* \"#utility.yul\":645:678   */\n      tag_207\n        /* \"#utility.yul\":672:677   */\n      dup2\n        /* \"#utility.yul\":645:678   */\n      tag_140\n      jump\t// in\n    tag_207:\n        /* \"#utility.yul\":545:684   */\n      swap3\n      swap2\n      pop\n      pop\n      jump\t// out\n        /* \"#utility.yul\":690:1019   */\n    tag_11:\n        /* \"#utility.yul\":749:755   */\n      0x00\n        /* \"#utility.yul\":798:800   */\n      0x20\n        /* \"#utility.yul\":786:795   */\n      dup3\n        /* \"#utility.yul\":777:784   */\n      dup5\n        /* \"#utility.yul\":773:796   */\n      sub\n        /* \"#utility.yul\":769:801   */\n      slt\n        /* \"#utility.yul\":766:885   */\n      iszero\n      tag_209\n      jumpi\n        /* \"#utility.yul\":804:883   */\n      tag_210\n      tag_137\n      jump\t// in\n    tag_210:\n        /* \"#utility.yul\":766:885   */\n    tag_209:\n        /* \"#utility.yul\":924:925   */\n      0x00\n        /* \"#utility.yul\":949:1002   */\n      tag_211\n        /* \"#utility.yul\":994:1001   */\n      dup5\n        /* \"#utility.yul\":985:991   */\n      dup3\n        /* \"#utility.yul\":974:983   */\n      dup6\n        /* \"#utility.yul\":970:992   */\n      add\n        /* \"#utility.yul\":949:1002   */\n      tag_141\n      jump\t// in\n    tag_211:\n        /* \"#utility.yul\":939:1002   */\n      swap2\n      pop\n        /* \"#utility.yul\":895:1012   */\n      pop\n        /* \"#utility.yul\":690:1019   */\n      swap3\n      swap2\n      pop\n      pop\n      jump\t// out\n        /* \"#utility.yul\":1025:1142   */\n    tag_142:\n        /* \"#utility.yul\":1134:1135   */\n      0x00\n        /* \"#utility.yul\":1131:1132   */\n      0x00\n        /* \"#utility.yul\":1124:1136   */\n      revert\n        /* \"#utility.yul\":1148:1265   */\n    tag_143:\n        /* \"#utility.yul\":1257:1258   */\n      0x00\n        /* \"#utility.yul\":1254:1255   */\n      0x00\n        /* \"#utility.yul\":1247:1259   */\n      revert\n        /* \"#utility.yul\":1271:1388   */\n    tag_144:\n        /* \"#utility.yul\":1380:1381   */\n      0x00\n        /* \"#utility.yul\":1377:1378   */\n      0x00\n        /* \"#utility.yul\":1370:1382   */\n      revert\n        /* \"#utility.yul\":1408:1961   */\n    tag_145:\n        /* \"#utility.yul\":1466:1474   */\n      0x00\n        /* \"#utility.yul\":1476:1482   */\n      0x00\n        /* \"#utility.yul\":1526:1529   */\n      dup4\n        /* \"#utility.yul\":1519:1523   */\n      0x1f\n        /* \"#utility.yul\":1511:1517   */\n      dup5\n        /* \"#utility.yul\":1507:1524   */\n      add\n        /* \"#utility.yul\":1503:1530   */\n      slt\n        /* \"#utility.yul\":1493:1615   */\n      tag_216\n      jumpi\n        /* \"#utility.yul\":1534:1613   */\n      tag_217\n      tag_142\n      jump\t// in\n    tag_217:\n        /* \"#utility.yul\":1493:1615   */\n    tag_216:\n        /* \"#utility.yul\":1647:1653   */\n      dup3\n        /* \"#utility.yul\":1634:1654   */\n      calldataload\n        /* \"#utility.yul\":1624:1654   */\n      swap1\n      pop\n        /* \"#utility.yul\":1677:1695   */\n      0xffffffffffffffff\n        /* \"#utility.yul\":1669:1675   */\n      dup2\n        /* \"#utility.yul\":1666:1696   */\n      gt\n        /* \"#utility.yul\":1663:1780   */\n      iszero\n      tag_218\n      jumpi\n        /* \"#utility.yul\":1699:1778   */\n      tag_219\n      tag_143\n      jump\t// in\n    tag_219:\n        /* \"#utility.yul\":1663:1780   */\n    tag_218:\n        /* \"#utility.yul\":1813:1817   */\n      0x20\n        /* \"#utility.yul\":1805:1811   */\n      dup4\n        /* \"#utility.yul\":1801:1818   */\n      add\n        /* \"#utility.yul\":1789:1818   */\n      swap2\n      pop\n        /* \"#utility.yul\":1867:1870   */\n      dup4\n        /* \"#utility.yul\":1859:1863   */\n      0x01\n        /* \"#utility.yul\":1851:1857   */\n      dup3\n        /* \"#utility.yul\":1847:1864   */\n      mul\n        /* \"#utility.yul\":1837:1845   */\n      dup4\n        /* \"#utility.yul\":1833:1865   */\n      add\n        /* \"#utility.yul\":1830:1871   */\n      gt\n        /* \"#utility.yul\":1827:1955   */\n      iszero\n      tag_220\n      jumpi\n        /* \"#utility.yul\":1874:1953   */\n      tag_221\n      tag_144\n      jump\t// in\n    tag_221:\n        /* \"#utility.yul\":1827:1955   */\n    tag_220:\n        /* \"#utility.yul\":1408:1961   */\n      swap3\n      pop\n      swap3\n      swap1\n      pop\n      jump\t// out\n        /* \"#utility.yul\":1967:2496   */\n    tag_15:\n        /* \"#utility.yul\":2038:2044   */\n      0x00\n        /* \"#utility.yul\":2046:2052   */\n      0x00\n        /* \"#utility.yul\":2095:2097   */\n      0x20\n        /* \"#utility.yul\":2083:2092   */\n      dup4\n        /* \"#utility.yul\":2074:2081   */\n      dup6\n        /* \"#utility.yul\":2070:2093   */\n      sub\n        /* \"#utility.yul\":2066:2098   */\n      slt\n        /* \"#utility.yul\":2063:2182   */\n      iszero\n      tag_223\n      jumpi\n        /* \"#utility.yul\":2101:2180   */\n      tag_224\n      tag_137\n      jump\t// in\n    tag_224:\n        /* \"#utility.yul\":2063:2182   */\n    tag_223:\n        /* \"#utility.yul\":2249:2250   */\n      0x00\n        /* \"#utility.yul\":2238:2247   */\n      dup4\n        /* \"#utility.yul\":2234:2251   */\n      add\n        /* \"#utility.yul\":2221:2252   */\n      calldataload\n        /* \"#utility.yul\":2279:2297   */\n      0xffffffffffffffff\n        /* \"#utility.yul\":2271:2277   */\n      dup2\n        /* \"#utility.yul\":2268:2298   */\n      gt\n        /* \"#utility.yul\":2265:2382   */\n      iszero\n      tag_225\n      jumpi\n        /* \"#utility.yul\":2301:2380   */\n      tag_226\n      tag_138\n      jump\t// in\n    tag_226:\n        /* \"#utility.yul\":2265:2382   */\n    tag_225:\n        /* \"#utility.yul\":2414:2479   */\n      tag_227\n        /* \"#utility.yul\":2471:2478   */\n      dup6\n        /* \"#utility.yul\":2462:2468   */\n      dup3\n        /* \"#utility.yul\":2451:2460   */\n      dup7\n        /* \"#utility.yul\":2447:2469   */\n      add\n        /* \"#utility.yul\":2414:2479   */\n      tag_145\n      jump\t// in\n    tag_227:\n        /* \"#utility.yul\":2396:2479   */\n      swap3\n      pop\n      swap3\n      pop\n        /* \"#utility.yul\":2192:2489   */\n      pop\n        /* \"#utility.yul\":1967:2496   */\n      swap3\n      pop\n      swap3\n      swap1\n      pop\n      jump\t// out\n        /* \"#utility.yul\":2502:2620   */\n    tag_146:\n        /* \"#utility.yul\":2589:2613   */\n      tag_229\n        /* \"#utility.yul\":2607:2612   */\n      dup2\n        /* \"#utility.yul\":2589:2613   */\n      tag_139\n      jump\t// in\n    tag_229:\n        /* \"#utility.yul\":2584:2587   */\n      dup3\n        /* \"#utility.yul\":2577:2614   */\n      mstore\n        /* \"#utility.yul\":2502:2620   */\n      pop\n      pop\n      jump\t// out\n        /* \"#utility.yul\":2626:2848   */\n    tag_23:\n        /* \"#utility.yul\":2719:2723   */\n      0x00\n        /* \"#utility.yul\":2757:2759   */\n      0x20\n        /* \"#utility.yul\":2746:2755   */\n      dup3\n        /* \"#utility.yul\":2742:2760   */\n      add\n        /* \"#utility.yul\":2734:2760   */\n      swap1\n      pop\n        /* \"#utility.yul\":2770:2841   */\n      tag_231\n        /* \"#utility.yul\":2838:2839   */\n      0x00\n        /* \"#utility.yul\":2827:2836   */\n      dup4\n        /* \"#utility.yul\":2823:2840   */\n      add\n        /* \"#utility.yul\":2814:2820   */\n      dup5\n        /* \"#utility.yul\":2770:2841   */\n      tag_146\n      jump\t// in\n    tag_231:\n        /* \"#utility.yul\":2626:2848   */\n      swap3\n      swap2\n      pop\n      pop\n      jump\t// out\n        /* \"#utility.yul\":2854:2953   */\n    tag_147:\n        /* \"#utility.yul\":2906:2912   */\n      0x00\n        /* \"#utility.yul\":2940:2945   */\n      dup2\n        /* \"#utility.yul\":2934:2946   */\n      mload\n        /* \"#utility.yul\":2924:2946   */\n      swap1\n      pop\n        /* \"#utility.yul\":2854:2953   */\n      swap2\n      swap1\n      pop\n      jump\t// out\n        /* \"#utility.yul\":2959:3118   */\n    tag_148:\n        /* \"#utility.yul\":3033:3044   */\n      0x00\n        /* \"#utility.yul\":3067:3073   */\n      dup3\n        /* \"#utility.yul\":3062:3065   */\n      dup3\n        /* \"#utility.yul\":3055:3074   */\n      mstore\n        /* \"#utility.yul\":3107:3111   */\n      0x20\n        /* \"#utility.yul\":3102:3105   */\n      dup3\n        /* \"#utility.yul\":3098:3112   */\n      add\n        /* \"#utility.yul\":3083:3112   */\n      swap1\n      pop\n        /* \"#utility.yul\":2959:3118   */\n      swap3\n      swap2\n      pop\n      pop\n      jump\t// out\n        /* \"#utility.yul\":3124:3263   */\n    tag_149:\n        /* \"#utility.yul\":3213:3219   */\n      dup3\n        /* \"#utility.yul\":3208:3211   */\n      dup2\n        /* \"#utility.yul\":3203:3206   */\n      dup4\n        /* \"#utility.yul\":3197:3220   */\n      mcopy\n        /* \"#utility.yul\":3254:3255   */\n      0x00\n        /* \"#utility.yul\":3245:3251   */\n      dup4\n        /* \"#utility.yul\":3240:3243   */\n      dup4\n        /* \"#utility.yul\":3236:3252   */\n      add\n        /* \"#utility.yul\":3229:3256   */\n      mstore\n        /* \"#utility.yul\":3124:3263   */\n      pop\n      pop\n      pop\n      jump\t// out\n        /* \"#utility.yul\":3269:3371   */\n    tag_150:\n        /* \"#utility.yul\":3310:3316   */\n      0x00\n        /* \"#utility.yul\":3361:3363   */\n      0x1f\n        /* \"#utility.yul\":3357:3364   */\n      not\n        /* \"#utility.yul\":3352:3354   */\n      0x1f\n        /* \"#utility.yul\":3345:3350   */\n      dup4\n        /* \"#utility.yul\":3341:3355   */\n      add\n        /* \"#utility.yul\":3337:3365   */\n      and\n        /* \"#utility.yul\":3327:3365   */\n      swap1\n      pop\n        /* \"#utility.yul\":3269:3371   */\n      swap2\n      swap1\n      pop\n      jump\t// out\n        /* \"#utility.yul\":3377:3734   */\n    tag_151:\n        /* \"#utility.yul\":3455:3458   */\n      0x00\n        /* \"#utility.yul\":3483:3522   */\n      tag_237\n        /* \"#utility.yul\":3516:3521   */\n      dup3\n        /* \"#utility.yul\":3483:3522   */\n      tag_147\n      jump\t// in\n    tag_237:\n        /* \"#utility.yul\":3538:3599   */\n      tag_238\n        /* \"#utility.yul\":3592:3598   */\n      dup2\n        /* \"#utility.yul\":3587:3590   */\n      dup6\n        /* \"#utility.yul\":3538:3599   */\n      tag_148\n      jump\t// in\n    tag_238:\n        /* \"#utility.yul\":3531:3599   */\n      swap4\n      pop\n        /* \"#utility.yul\":3608:3673   */\n      tag_239\n        /* \"#utility.yul\":3666:3672   */\n      dup2\n        /* \"#utility.yul\":3661:3664   */\n      dup6\n        /* \"#utility.yul\":3654:3658   */\n      0x20\n        /* \"#utility.yul\":3647:3652   */\n      dup7\n        /* \"#utility.yul\":3643:3659   */\n      add\n        /* \"#utility.yul\":3608:3673   */\n      tag_149\n      jump\t// in\n    tag_239:\n        /* \"#utility.yul\":3698:3727   */\n      tag_240\n        /* \"#utility.yul\":3720:3726   */\n      dup2\n        /* \"#utility.yul\":3698:3727   */\n      tag_150\n      jump\t// in\n    tag_240:\n        /* \"#utility.yul\":3693:3696   */\n      dup5\n        /* \"#utility.yul\":3689:3728   */\n      add\n        /* \"#utility.yul\":3682:3728   */\n      swap2\n      pop\n        /* \"#utility.yul\":3459:3734   */\n      pop\n        /* \"#utility.yul\":3377:3734   */\n      swap3\n      swap2\n      pop\n      pop\n      jump\t// out\n        /* \"#utility.yul\":3740:3848   */\n    tag_152:\n        /* \"#utility.yul\":3817:3841   */\n      tag_242\n        /* \"#utility.yul\":3835:3840   */\n      dup2\n        /* \"#utility.yul\":3817:3841   */\n      tag_139\n      jump\t// in\n    tag_242:\n        /* \"#utility.yul\":3812:3815   */\n      dup3\n        /* \"#utility.yul\":3805:3842   */\n      mstore\n        /* \"#utility.yul\":3740:3848   */\n      pop\n      pop\n      jump\t// out\n        /* \"#utility.yul\":3854:4034   */\n    tag_42:\n        /* \"#utility.yul\":3902:3979   */\n      0x4e487b7100000000000000000000000000000000000000000000000000000000\n        /* \"#utility.yul\":3899:3900   */\n      0x00\n        /* \"#utility.yul\":3892:3980   */\n      mstore\n        /* \"#utility.yul\":3999:4003   */\n      0x21\n        /* \"#utility.yul\":3996:3997   */\n      0x04\n        /* \"#utility.yul\":3989:4004   */\n      mstore\n        /* \"#utility.yul\":4023:4027   */\n      0x24\n        /* \"#utility.yul\":4020:4021   */\n      0x00\n        /* \"#utility.yul\":4013:4028   */\n      revert\n        /* \"#utility.yul\":4040:4153   */\n    tag_153:\n        /* \"#utility.yul\":4121:4122   */\n      0x03\n        /* \"#utility.yul\":4114:4119   */\n      dup2\n        /* \"#utility.yul\":4111:4123   */\n      lt\n        /* \"#utility.yul\":4101:4147   */\n      tag_245\n      jumpi\n        /* \"#utility.yul\":4127:4145   */\n      tag_246\n      tag_42\n      jump\t// in\n    tag_246:\n        /* \"#utility.yul\":4101:4147   */\n    tag_245:\n        /* \"#utility.yul\":4040:4153   */\n      pop\n      jump\t// out\n        /* \"#utility.yul\":4159:4286   */\n    tag_154:\n        /* \"#utility.yul\":4204:4211   */\n      0x00\n        /* \"#utility.yul\":4233:4238   */\n      dup2\n        /* \"#utility.yul\":4222:4238   */\n      swap1\n      pop\n        /* \"#utility.yul\":4239:4280   */\n      tag_248\n        /* \"#utility.yul\":4274:4279   */\n      dup3\n        /* \"#utility.yul\":4239:4280   */\n      tag_153\n      jump\t// in\n    tag_248:\n        /* \"#utility.yul\":4159:4286   */\n      swap2\n      swap1\n      pop\n      jump\t// out\n        /* \"#utility.yul\":4292:4419   */\n    tag_155:\n        /* \"#utility.yul\":4348:4357   */\n      0x00\n        /* \"#utility.yul\":4381:4413   */\n      tag_250\n        /* \"#utility.yul\":4407:4412   */\n      dup3\n        /* \"#utility.yul\":4381:4413   */\n      tag_154\n      jump\t// in\n    tag_250:\n        /* \"#utility.yul\":4368:4413   */\n      swap1\n      pop\n        /* \"#utility.yul\":4292:4419   */\n      swap2\n      swap1\n      pop\n      jump\t// out\n        /* \"#utility.yul\":4425:4558   */\n    tag_156:\n        /* \"#utility.yul\":4508:4551   */\n      tag_252\n        /* \"#utility.yul\":4545:4550   */\n      dup2\n        /* \"#utility.yul\":4508:4551   */\n      tag_155\n      jump\t// in\n    tag_252:\n        /* \"#utility.yul\":4503:4506   */\n      dup3\n        /* \"#utility.yul\":4496:4552   */\n      mstore\n        /* \"#utility.yul\":4425:4558   */\n      pop\n      pop\n      jump\t// out\n        /* \"#utility.yul\":4616:5402   */\n    tag_157:\n        /* \"#utility.yul\":4725:4728   */\n      0x00\n        /* \"#utility.yul\":4761:4765   */\n      0x60\n        /* \"#utility.yul\":4756:4759   */\n      dup4\n        /* \"#utility.yul\":4752:4766   */\n      add\n        /* \"#utility.yul\":4851:4855   */\n      0x00\n        /* \"#utility.yul\":4844:4849   */\n      dup4\n        /* \"#utility.yul\":4840:4856   */\n      add\n        /* \"#utility.yul\":4834:4857   */\n      mload\n        /* \"#utility.yul\":4904:4907   */\n      dup5\n        /* \"#utility.yul\":4898:4902   */\n      dup3\n        /* \"#utility.yul\":4894:4908   */\n      sub\n        /* \"#utility.yul\":4887:4891   */\n      0x00\n        /* \"#utility.yul\":4882:4885   */\n      dup7\n        /* \"#utility.yul\":4878:4892   */\n      add\n        /* \"#utility.yul\":4871:4909   */\n      mstore\n        /* \"#utility.yul\":4930:5003   */\n      tag_254\n        /* \"#utility.yul\":4998:5002   */\n      dup3\n        /* \"#utility.yul\":4984:4996   */\n      dup3\n        /* \"#utility.yul\":4930:5003   */\n      tag_151\n      jump\t// in\n    tag_254:\n        /* \"#utility.yul\":4922:5003   */\n      swap2\n      pop\n        /* \"#utility.yul\":4776:5014   */\n      pop\n        /* \"#utility.yul\":5102:5106   */\n      0x20\n        /* \"#utility.yul\":5095:5100   */\n      dup4\n        /* \"#utility.yul\":5091:5107   */\n      add\n        /* \"#utility.yul\":5085:5108   */\n      mload\n        /* \"#utility.yul\":5121:5184   */\n      tag_255\n        /* \"#utility.yul\":5178:5182   */\n      0x20\n        /* \"#utility.yul\":5173:5176   */\n      dup7\n        /* \"#utility.yul\":5169:5183   */\n      add\n        /* \"#utility.yul\":5155:5167   */\n      dup3\n        /* \"#utility.yul\":5121:5184   */\n      tag_152\n      jump\t// in\n    tag_255:\n        /* \"#utility.yul\":5024:5194   */\n      pop\n        /* \"#utility.yul\":5277:5281   */\n      0x40\n        /* \"#utility.yul\":5270:5275   */\n      dup4\n        /* \"#utility.yul\":5266:5282   */\n      add\n        /* \"#utility.yul\":5260:5283   */\n      mload\n        /* \"#utility.yul\":5296:5365   */\n      tag_256\n        /* \"#utility.yul\":5359:5363   */\n      0x40\n        /* \"#utility.yul\":5354:5357   */\n      dup7\n        /* \"#utility.yul\":5350:5364   */\n      add\n        /* \"#utility.yul\":5336:5348   */\n      dup3\n        /* \"#utility.yul\":5296:5365   */\n      tag_156\n      jump\t// in\n    tag_256:\n        /* \"#utility.yul\":5204:5375   */\n      pop\n        /* \"#utility.yul\":5392:5396   */\n      dup1\n        /* \"#utility.yul\":5385:5396   */\n      swap2\n      pop\n        /* \"#utility.yul\":4730:5402   */\n      pop\n        /* \"#utility.yul\":4616:5402   */\n      swap3\n      swap2\n      pop\n      pop\n      jump\t// out\n        /* \"#utility.yul\":5408:5761   */\n    tag_28:\n        /* \"#utility.yul\":5541:5545   */\n      0x00\n        /* \"#utility.yul\":5579:5581   */\n      0x20\n        /* \"#utility.yul\":5568:5577   */\n      dup3\n        /* \"#utility.yul\":5564:5582   */\n      add\n        /* \"#utility.yul\":5556:5582   */\n      swap1\n      pop\n        /* \"#utility.yul\":5628:5637   */\n      dup2\n        /* \"#utility.yul\":5622:5626   */\n      dup2\n        /* \"#utility.yul\":5618:5638   */\n      sub\n        /* \"#utility.yul\":5614:5615   */\n      0x00\n        /* \"#utility.yul\":5603:5612   */\n      dup4\n        /* \"#utility.yul\":5599:5616   */\n      add\n        /* \"#utility.yul\":5592:5639   */\n      mstore\n        /* \"#utility.yul\":5656:5754   */\n      tag_258\n        /* \"#utility.yul\":5749:5753   */\n      dup2\n        /* \"#utility.yul\":5740:5746   */\n      dup5\n        /* \"#utility.yul\":5656:5754   */\n      tag_157\n      jump\t// in\n    tag_258:\n        /* \"#utility.yul\":5648:5754   */\n      swap1\n      pop\n        /* \"#utility.yul\":5408:5761   */\n      swap3\n      swap2\n      pop\n      pop\n      jump\t// out\n        /* \"#utility.yul\":5767:5936   */\n    tag_158:\n        /* \"#utility.yul\":5851:5862   */\n      0x00\n        /* \"#utility.yul\":5885:5891   */\n      dup3\n        /* \"#utility.yul\":5880:5883   */\n      dup3\n        /* \"#utility.yul\":5873:5892   */\n      mstore\n        /* \"#utility.yul\":5925:5929   */\n      0x20\n        /* \"#utility.yul\":5920:5923   */\n      dup3\n        /* \"#utility.yul\":5916:5930   */\n      add\n        /* \"#utility.yul\":5901:5930   */\n      swap1\n      pop\n        /* \"#utility.yul\":5767:5936   */\n      swap3\n      swap2\n      pop\n      pop\n      jump\t// out\n        /* \"#utility.yul\":5942:6167   */\n    tag_159:\n        /* \"#utility.yul\":6082:6116   */\n      0x5354415254202d204c6120746172656120636f6e20657365206964206e6f2065\n        /* \"#utility.yul\":6078:6079   */\n      0x00\n        /* \"#utility.yul\":6070:6076   */\n      dup3\n        /* \"#utility.yul\":6066:6080   */\n      add\n        /* \"#utility.yul\":6059:6117   */\n      mstore\n        /* \"#utility.yul\":6151:6159   */\n      0x7869737465210000000000000000000000000000000000000000000000000000\n        /* \"#utility.yul\":6146:6148   */\n      0x20\n        /* \"#utility.yul\":6138:6144   */\n      dup3\n        /* \"#utility.yul\":6134:6149   */\n      add\n        /* \"#utility.yul\":6127:6160   */\n      mstore\n        /* \"#utility.yul\":5942:6167   */\n      pop\n      jump\t// out\n        /* \"#utility.yul\":6173:6539   */\n    tag_160:\n        /* \"#utility.yul\":6315:6318   */\n      0x00\n        /* \"#utility.yul\":6336:6403   */\n      tag_262\n        /* \"#utility.yul\":6400:6402   */\n      0x26\n        /* \"#utility.yul\":6395:6398   */\n      dup4\n        /* \"#utility.yul\":6336:6403   */\n      tag_158\n      jump\t// in\n    tag_262:\n        /* \"#utility.yul\":6329:6403   */\n      swap2\n      pop\n        /* \"#utility.yul\":6412:6505   */\n      tag_263\n        /* \"#utility.yul\":6501:6504   */\n      dup3\n        /* \"#utility.yul\":6412:6505   */\n      tag_159\n      jump\t// in\n    tag_263:\n        /* \"#utility.yul\":6530:6532   */\n      0x40\n        /* \"#utility.yul\":6525:6528   */\n      dup3\n        /* \"#utility.yul\":6521:6533   */\n      add\n        /* \"#utility.yul\":6514:6533   */\n      swap1\n      pop\n        /* \"#utility.yul\":6173:6539   */\n      swap2\n      swap1\n      pop\n      jump\t// out\n        /* \"#utility.yul\":6545:6964   */\n    tag_35:\n        /* \"#utility.yul\":6711:6715   */\n      0x00\n        /* \"#utility.yul\":6749:6751   */\n      0x20\n        /* \"#utility.yul\":6738:6747   */\n      dup3\n        /* \"#utility.yul\":6734:6752   */\n      add\n        /* \"#utility.yul\":6726:6752   */\n      swap1\n      pop\n        /* \"#utility.yul\":6798:6807   */\n      dup2\n        /* \"#utility.yul\":6792:6796   */\n      dup2\n        /* \"#utility.yul\":6788:6808   */\n      sub\n        /* \"#utility.yul\":6784:6785   */\n      0x00\n        /* \"#utility.yul\":6773:6782   */\n      dup4\n        /* \"#utility.yul\":6769:6786   */\n      add\n        /* \"#utility.yul\":6762:6809   */\n      mstore\n        /* \"#utility.yul\":6826:6957   */\n      tag_265\n        /* \"#utility.yul\":6952:6956   */\n      dup2\n        /* \"#utility.yul\":6826:6957   */\n      tag_160\n      jump\t// in\n    tag_265:\n        /* \"#utility.yul\":6818:6957   */\n      swap1\n      pop\n        /* \"#utility.yul\":6545:6964   */\n      swap2\n      swap1\n      pop\n      jump\t// out\n        /* \"#utility.yul\":6970:7150   */\n    tag_38:\n        /* \"#utility.yul\":7018:7095   */\n      0x4e487b7100000000000000000000000000000000000000000000000000000000\n        /* \"#utility.yul\":7015:7016   */\n      0x00\n        /* \"#utility.yul\":7008:7096   */\n      mstore\n        /* \"#utility.yul\":7115:7119   */\n      0x32\n        /* \"#utility.yul\":7112:7113   */\n      0x04\n        /* \"#utility.yul\":7105:7120   */\n      mstore\n        /* \"#utility.yul\":7139:7143   */\n      0x24\n        /* \"#utility.yul\":7136:7137   */\n      0x00\n        /* \"#utility.yul\":7129:7144   */\n      revert\n        /* \"#utility.yul\":7156:7336   */\n    tag_161:\n        /* \"#utility.yul\":7204:7281   */\n      0x4e487b7100000000000000000000000000000000000000000000000000000000\n        /* \"#utility.yul\":7201:7202   */\n      0x00\n        /* \"#utility.yul\":7194:7282   */\n      mstore\n        /* \"#utility.yul\":7301:7305   */\n      0x22\n        /* \"#utility.yul\":7298:7299   */\n      0x04\n        /* \"#utility.yul\":7291:7306   */\n      mstore\n        /* \"#utility.yul\":7325:7329   */\n      0x24\n        /* \"#utility.yul\":7322:7323   */\n      0x00\n        /* \"#utility.yul\":7315:7330   */\n      revert\n        /* \"#utility.yul\":7342:7662   */\n    tag_105:\n        /* \"#utility.yul\":7386:7392   */\n      0x00\n        /* \"#utility.yul\":7423:7424   */\n      0x02\n        /* \"#utility.yul\":7417:7421   */\n      dup3\n        /* \"#utility.yul\":7413:7425   */\n      div\n        /* \"#utility.yul\":7403:7425   */\n      swap1\n      pop\n        /* \"#utility.yul\":7470:7471   */\n      0x01\n        /* \"#utility.yul\":7464:7468   */\n      dup3\n        /* \"#utility.yul\":7460:7472   */\n      and\n        /* \"#utility.yul\":7491:7509   */\n      dup1\n        /* \"#utility.yul\":7481:7562   */\n      tag_269\n      jumpi\n        /* \"#utility.yul\":7547:7551   */\n      0x7f\n        /* \"#utility.yul\":7539:7545   */\n      dup3\n        /* \"#utility.yul\":7535:7552   */\n      and\n        /* \"#utility.yul\":7525:7552   */\n      swap2\n      pop\n        /* \"#utility.yul\":7481:7562   */\n    tag_269:\n        /* \"#utility.yul\":7609:7611   */\n      0x20\n        /* \"#utility.yul\":7601:7607   */\n      dup3\n        /* \"#utility.yul\":7598:7612   */\n      lt\n        /* \"#utility.yul\":7578:7596   */\n      dup2\n        /* \"#utility.yul\":7575:7613   */\n      sub\n        /* \"#utility.yul\":7572:7656   */\n      tag_270\n      jumpi\n        /* \"#utility.yul\":7628:7646   */\n      tag_271\n      tag_161\n      jump\t// in\n    tag_271:\n        /* \"#utility.yul\":7572:7656   */\n    tag_270:\n        /* \"#utility.yul\":7393:7662   */\n      pop\n        /* \"#utility.yul\":7342:7662   */\n      swap2\n      swap1\n      pop\n      jump\t// out\n        /* \"#utility.yul\":7668:7809   */\n    tag_162:\n        /* \"#utility.yul\":7717:7721   */\n      0x00\n        /* \"#utility.yul\":7740:7743   */\n      dup2\n        /* \"#utility.yul\":7732:7743   */\n      swap1\n      pop\n        /* \"#utility.yul\":7763:7766   */\n      dup2\n        /* \"#utility.yul\":7760:7761   */\n      0x00\n        /* \"#utility.yul\":7753:7767   */\n      mstore\n        /* \"#utility.yul\":7797:7801   */\n      0x20\n        /* \"#utility.yul\":7794:7795   */\n      0x00\n        /* \"#utility.yul\":7784:7802   */\n      keccak256\n        /* \"#utility.yul\":7776:7802   */\n      swap1\n      pop\n        /* \"#utility.yul\":7668:7809   */\n      swap2\n      swap1\n      pop\n      jump\t// out\n        /* \"#utility.yul\":7839:8650   */\n    tag_163:\n        /* \"#utility.yul\":7914:7917   */\n      0x00\n        /* \"#utility.yul\":7951:7956   */\n      dup2\n        /* \"#utility.yul\":7945:7957   */\n      sload\n        /* \"#utility.yul\":7980:8016   */\n      tag_274\n        /* \"#utility.yul\":8006:8015   */\n      dup2\n        /* \"#utility.yul\":7980:8016   */\n      tag_105\n      jump\t// in\n    tag_274:\n        /* \"#utility.yul\":8032:8093   */\n      tag_275\n        /* \"#utility.yul\":8086:8092   */\n      dup2\n        /* \"#utility.yul\":8081:8084   */\n      dup7\n        /* \"#utility.yul\":8032:8093   */\n      tag_148\n      jump\t// in\n    tag_275:\n        /* \"#utility.yul\":8025:8093   */\n      swap5\n      pop\n        /* \"#utility.yul\":8124:8125   */\n      0x01\n        /* \"#utility.yul\":8113:8122   */\n      dup3\n        /* \"#utility.yul\":8109:8126   */\n      and\n        /* \"#utility.yul\":8140:8141   */\n      0x00\n        /* \"#utility.yul\":8135:8299   */\n      dup2\n      eq\n      tag_277\n      jumpi\n        /* \"#utility.yul\":8313:8314   */\n      0x01\n        /* \"#utility.yul\":8308:8644   */\n      dup2\n      eq\n      tag_278\n      jumpi\n        /* \"#utility.yul\":8102:8644   */\n      jump(tag_276)\n        /* \"#utility.yul\":8135:8299   */\n    tag_277:\n        /* \"#utility.yul\":8219:8223   */\n      0xff\n        /* \"#utility.yul\":8215:8224   */\n      not\n        /* \"#utility.yul\":8204:8213   */\n      dup4\n        /* \"#utility.yul\":8200:8225   */\n      and\n        /* \"#utility.yul\":8195:8198   */\n      dup7\n        /* \"#utility.yul\":8188:8226   */\n      mstore\n        /* \"#utility.yul\":8279:8285   */\n      dup2\n        /* \"#utility.yul\":8272:8286   */\n      iszero\n        /* \"#utility.yul\":8265:8287   */\n      iszero\n        /* \"#utility.yul\":8259:8263   */\n      0x20\n        /* \"#utility.yul\":8255:8288   */\n      mul\n        /* \"#utility.yul\":8250:8253   */\n      dup7\n        /* \"#utility.yul\":8246:8289   */\n      add\n        /* \"#utility.yul\":8239:8289   */\n      swap4\n      pop\n        /* \"#utility.yul\":8135:8299   */\n      jump(tag_276)\n        /* \"#utility.yul\":8308:8644   */\n    tag_278:\n        /* \"#utility.yul\":8375:8413   */\n      tag_279\n        /* \"#utility.yul\":8407:8412   */\n      dup6\n        /* \"#utility.yul\":8375:8413   */\n      tag_162\n      jump\t// in\n    tag_279:\n        /* \"#utility.yul\":8435:8436   */\n      0x00\n        /* \"#utility.yul\":8449:8603   */\n    tag_280:\n        /* \"#utility.yul\":8463:8469   */\n      dup4\n        /* \"#utility.yul\":8460:8461   */\n      dup2\n        /* \"#utility.yul\":8457:8470   */\n      lt\n        /* \"#utility.yul\":8449:8603   */\n      iszero\n      tag_282\n      jumpi\n        /* \"#utility.yul\":8537:8544   */\n      dup2\n        /* \"#utility.yul\":8531:8545   */\n      sload\n        /* \"#utility.yul\":8527:8528   */\n      dup2\n        /* \"#utility.yul\":8522:8525   */\n      dup10\n        /* \"#utility.yul\":8518:8529   */\n      add\n        /* \"#utility.yul\":8511:8546   */\n      mstore\n        /* \"#utility.yul\":8587:8588   */\n      0x01\n        /* \"#utility.yul\":8578:8585   */\n      dup3\n        /* \"#utility.yul\":8574:8589   */\n      add\n        /* \"#utility.yul\":8563:8589   */\n      swap2\n      pop\n        /* \"#utility.yul\":8485:8489   */\n      0x20\n        /* \"#utility.yul\":8482:8483   */\n      dup2\n        /* \"#utility.yul\":8478:8490   */\n      add\n        /* \"#utility.yul\":8473:8490   */\n      swap1\n      pop\n        /* \"#utility.yul\":8449:8603   */\n      jump(tag_280)\n    tag_282:\n        /* \"#utility.yul\":8632:8633   */\n      dup1\n        /* \"#utility.yul\":8627:8630   */\n      dup9\n        /* \"#utility.yul\":8623:8634   */\n      add\n        /* \"#utility.yul\":8616:8634   */\n      swap6\n      pop\n        /* \"#utility.yul\":8315:8644   */\n      pop\n      pop\n        /* \"#utility.yul\":8102:8644   */\n    tag_276:\n      pop\n        /* \"#utility.yul\":7918:8650   */\n      pop\n      pop\n        /* \"#utility.yul\":7839:8650   */\n      swap3\n      swap2\n      pop\n      pop\n      jump\t// out\n        /* \"#utility.yul\":8656:8758   */\n    tag_164:\n        /* \"#utility.yul\":8698:8706   */\n      0x00\n        /* \"#utility.yul\":8745:8750   */\n      dup2\n        /* \"#utility.yul\":8742:8743   */\n      0x00\n        /* \"#utility.yul\":8738:8751   */\n      shr\n        /* \"#utility.yul\":8717:8751   */\n      swap1\n      pop\n        /* \"#utility.yul\":8656:8758   */\n      swap2\n      swap1\n      pop\n      jump\t// out\n        /* \"#utility.yul\":8764:8854   */\n    tag_165:\n        /* \"#utility.yul\":8814:8821   */\n      0x00\n        /* \"#utility.yul\":8843:8848   */\n      dup2\n        /* \"#utility.yul\":8832:8848   */\n      swap1\n      pop\n        /* \"#utility.yul\":8764:8854   */\n      swap2\n      swap1\n      pop\n      jump\t// out\n        /* \"#utility.yul\":8860:9027   */\n    tag_166:\n        /* \"#utility.yul\":8930:8935   */\n      0x00\n        /* \"#utility.yul\":8955:9021   */\n      tag_286\n        /* \"#utility.yul\":8986:9020   */\n      tag_287\n        /* \"#utility.yul\":9009:9019   */\n      dup4\n        /* \"#utility.yul\":8986:9020   */\n      tag_164\n      jump\t// in\n    tag_287:\n        /* \"#utility.yul\":8955:9021   */\n      tag_165\n      jump\t// in\n    tag_286:\n        /* \"#utility.yul\":8946:9021   */\n      swap1\n      pop\n        /* \"#utility.yul\":8860:9027   */\n      swap2\n      swap1\n      pop\n      jump\t// out\n        /* \"#utility.yul\":9033:9142   */\n    tag_167:\n        /* \"#utility.yul\":9091:9098   */\n      0x00\n        /* \"#utility.yul\":9131:9135   */\n      0xff\n        /* \"#utility.yul\":9124:9129   */\n      dup3\n        /* \"#utility.yul\":9120:9136   */\n      and\n        /* \"#utility.yul\":9109:9136   */\n      swap1\n      pop\n        /* \"#utility.yul\":9033:9142   */\n      swap2\n      swap1\n      pop\n      jump\t// out\n        /* \"#utility.yul\":9148:9331   */\n    tag_168:\n        /* \"#utility.yul\":9226:9231   */\n      0x00\n        /* \"#utility.yul\":9251:9325   */\n      tag_290\n        /* \"#utility.yul\":9290:9324   */\n      tag_291\n        /* \"#utility.yul\":9313:9323   */\n      dup4\n        /* \"#utility.yul\":9290:9324   */\n      tag_164\n      jump\t// in\n    tag_291:\n        /* \"#utility.yul\":9251:9325   */\n      tag_167\n      jump\t// in\n    tag_290:\n        /* \"#utility.yul\":9242:9325   */\n      swap1\n      pop\n        /* \"#utility.yul\":9148:9331   */\n      swap2\n      swap1\n      pop\n      jump\t// out\n        /* \"#utility.yul\":9389:10359   */\n    tag_169:\n        /* \"#utility.yul\":9495:9498   */\n      0x00\n        /* \"#utility.yul\":9531:9535   */\n      0x60\n        /* \"#utility.yul\":9526:9529   */\n      dup4\n        /* \"#utility.yul\":9522:9536   */\n      add\n        /* \"#utility.yul\":9562:9563   */\n      0x00\n        /* \"#utility.yul\":9642:9646   */\n      0x00\n        /* \"#utility.yul\":9635:9640   */\n      dup5\n        /* \"#utility.yul\":9631:9647   */\n      add\n        /* \"#utility.yul\":9694:9697   */\n      dup6\n        /* \"#utility.yul\":9688:9692   */\n      dup4\n        /* \"#utility.yul\":9684:9698   */\n      sub\n        /* \"#utility.yul\":9677:9681   */\n      0x00\n        /* \"#utility.yul\":9672:9675   */\n      dup8\n        /* \"#utility.yul\":9668:9682   */\n      add\n        /* \"#utility.yul\":9661:9699   */\n      mstore\n        /* \"#utility.yul\":9720:9790   */\n      tag_293\n        /* \"#utility.yul\":9785:9789   */\n      dup4\n        /* \"#utility.yul\":9771:9783   */\n      dup3\n        /* \"#utility.yul\":9720:9790   */\n      tag_163\n      jump\t// in\n    tag_293:\n        /* \"#utility.yul\":9712:9790   */\n      swap3\n      pop\n        /* \"#utility.yul\":9573:9801   */\n      pop\n        /* \"#utility.yul\":9881:9885   */\n      0x01\n        /* \"#utility.yul\":9874:9879   */\n      dup5\n        /* \"#utility.yul\":9870:9886   */\n      add\n        /* \"#utility.yul\":9864:9887   */\n      sload\n        /* \"#utility.yul\":9851:9887   */\n      swap1\n      pop\n        /* \"#utility.yul\":9920:9976   */\n      tag_294\n        /* \"#utility.yul\":9966:9975   */\n      dup2\n        /* \"#utility.yul\":9920:9976   */\n      tag_166\n      jump\t// in\n    tag_294:\n        /* \"#utility.yul\":9989:10052   */\n      tag_295\n        /* \"#utility.yul\":10046:10050   */\n      0x20\n        /* \"#utility.yul\":10041:10044   */\n      dup8\n        /* \"#utility.yul\":10037:10051   */\n      add\n        /* \"#utility.yul\":10023:10035   */\n      dup3\n        /* \"#utility.yul\":9989:10052   */\n      tag_152\n      jump\t// in\n    tag_295:\n        /* \"#utility.yul\":9811:10062   */\n      pop\n        /* \"#utility.yul\":10137:10141   */\n      0x02\n        /* \"#utility.yul\":10130:10135   */\n      dup5\n        /* \"#utility.yul\":10126:10142   */\n      add\n        /* \"#utility.yul\":10120:10143   */\n      sload\n        /* \"#utility.yul\":10107:10143   */\n      swap1\n      pop\n        /* \"#utility.yul\":10176:10240   */\n      tag_296\n        /* \"#utility.yul\":10230:10239   */\n      dup2\n        /* \"#utility.yul\":10176:10240   */\n      tag_168\n      jump\t// in\n    tag_296:\n        /* \"#utility.yul\":10253:10322   */\n      tag_297\n        /* \"#utility.yul\":10316:10320   */\n      0x40\n        /* \"#utility.yul\":10311:10314   */\n      dup8\n        /* \"#utility.yul\":10307:10321   */\n      add\n        /* \"#utility.yul\":10293:10305   */\n      dup3\n        /* \"#utility.yul\":10253:10322   */\n      tag_156\n      jump\t// in\n    tag_297:\n        /* \"#utility.yul\":10072:10332   */\n      pop\n        /* \"#utility.yul\":10349:10353   */\n      dup2\n        /* \"#utility.yul\":10342:10353   */\n      swap3\n      pop\n        /* \"#utility.yul\":9500:10359   */\n      pop\n      pop\n        /* \"#utility.yul\":9389:10359   */\n      swap3\n      swap2\n      pop\n      pop\n      jump\t// out\n        /* \"#utility.yul\":10365:10822   */\n    tag_47:\n        /* \"#utility.yul\":10523:10527   */\n      0x00\n        /* \"#utility.yul\":10561:10563   */\n      0x40\n        /* \"#utility.yul\":10550:10559   */\n      dup3\n        /* \"#utility.yul\":10546:10564   */\n      add\n        /* \"#utility.yul\":10538:10564   */\n      swap1\n      pop\n        /* \"#utility.yul\":10610:10619   */\n      dup2\n        /* \"#utility.yul\":10604:10608   */\n      dup2\n        /* \"#utility.yul\":10600:10620   */\n      sub\n        /* \"#utility.yul\":10596:10597   */\n      0x00\n        /* \"#utility.yul\":10585:10594   */\n      dup4\n        /* \"#utility.yul\":10581:10598   */\n      add\n        /* \"#utility.yul\":10574:10621   */\n      mstore\n        /* \"#utility.yul\":10638:10733   */\n      tag_299\n        /* \"#utility.yul\":10728:10732   */\n      dup2\n        /* \"#utility.yul\":10719:10725   */\n      dup6\n        /* \"#utility.yul\":10638:10733   */\n      tag_169\n      jump\t// in\n    tag_299:\n        /* \"#utility.yul\":10630:10733   */\n      swap1\n      pop\n        /* \"#utility.yul\":10743:10815   */\n      tag_300\n        /* \"#utility.yul\":10811:10813   */\n      0x20\n        /* \"#utility.yul\":10800:10809   */\n      dup4\n        /* \"#utility.yul\":10796:10814   */\n      add\n        /* \"#utility.yul\":10787:10793   */\n      dup5\n        /* \"#utility.yul\":10743:10815   */\n      tag_146\n      jump\t// in\n    tag_300:\n        /* \"#utility.yul\":10365:10822   */\n      swap4\n      swap3\n      pop\n      pop\n      pop\n      jump\t// out\n        /* \"#utility.yul\":10828:11008   */\n    tag_170:\n        /* \"#utility.yul\":10876:10953   */\n      0x4e487b7100000000000000000000000000000000000000000000000000000000\n        /* \"#utility.yul\":10873:10874   */\n      0x00\n        /* \"#utility.yul\":10866:10954   */\n      mstore\n        /* \"#utility.yul\":10973:10977   */\n      0x41\n        /* \"#utility.yul\":10970:10971   */\n      0x04\n        /* \"#utility.yul\":10963:10978   */\n      mstore\n        /* \"#utility.yul\":10997:11001   */\n      0x24\n        /* \"#utility.yul\":10994:10995   */\n      0x00\n        /* \"#utility.yul\":10987:11002   */\n      revert\n        /* \"#utility.yul\":11014:11107   */\n    tag_171:\n        /* \"#utility.yul\":11051:11057   */\n      0x00\n        /* \"#utility.yul\":11098:11100   */\n      0x20\n        /* \"#utility.yul\":11093:11095   */\n      0x1f\n        /* \"#utility.yul\":11086:11091   */\n      dup4\n        /* \"#utility.yul\":11082:11096   */\n      add\n        /* \"#utility.yul\":11078:11101   */\n      div\n        /* \"#utility.yul\":11068:11101   */\n      swap1\n      pop\n        /* \"#utility.yul\":11014:11107   */\n      swap2\n      swap1\n      pop\n      jump\t// out\n        /* \"#utility.yul\":11113:11220   */\n    tag_172:\n        /* \"#utility.yul\":11157:11165   */\n      0x00\n        /* \"#utility.yul\":11207:11212   */\n      dup3\n        /* \"#utility.yul\":11201:11205   */\n      dup3\n        /* \"#utility.yul\":11197:11213   */\n      shl\n        /* \"#utility.yul\":11176:11213   */\n      swap1\n      pop\n        /* \"#utility.yul\":11113:11220   */\n      swap3\n      swap2\n      pop\n      pop\n      jump\t// out\n        /* \"#utility.yul\":11226:11619   */\n    tag_173:\n        /* \"#utility.yul\":11295:11301   */\n      0x00\n        /* \"#utility.yul\":11345:11346   */\n      0x08\n        /* \"#utility.yul\":11333:11343   */\n      dup4\n        /* \"#utility.yul\":11329:11347   */\n      mul\n        /* \"#utility.yul\":11368:11465   */\n      tag_305\n        /* \"#utility.yul\":11398:11464   */\n      0xffffffffffffffffffffffffffffffffffffffffffffffffffffffffffffffff\n        /* \"#utility.yul\":11387:11396   */\n      dup3\n        /* \"#utility.yul\":11368:11465   */\n      tag_172\n      jump\t// in\n    tag_305:\n        /* \"#utility.yul\":11486:11525   */\n      tag_306\n        /* \"#utility.yul\":11516:11524   */\n      dup7\n        /* \"#utility.yul\":11505:11514   */\n      dup4\n        /* \"#utility.yul\":11486:11525   */\n      tag_172\n      jump\t// in\n    tag_306:\n        /* \"#utility.yul\":11474:11525   */\n      swap6\n      pop\n        /* \"#utility.yul\":11558:11562   */\n      dup1\n        /* \"#utility.yul\":11554:11563   */\n      not\n        /* \"#utility.yul\":11547:11552   */\n      dup5\n        /* \"#utility.yul\":11543:11564   */\n      and\n        /* \"#utility.yul\":11534:11564   */\n      swap4\n      pop\n        /* \"#utility.yul\":11607:11611   */\n      dup1\n        /* \"#utility.yul\":11597:11605   */\n      dup7\n        /* \"#utility.yul\":11593:11612   */\n      and\n        /* \"#utility.yul\":11586:11591   */\n      dup5\n        /* \"#utility.yul\":11583:11613   */\n      or\n        /* \"#utility.yul\":11573:11613   */\n      swap3\n      pop\n        /* \"#utility.yul\":11302:11619   */\n      pop\n      pop\n        /* \"#utility.yul\":11226:11619   */\n      swap4\n      swap3\n      pop\n      pop\n      pop\n      jump\t// out\n        /* \"#utility.yul\":11625:11685   */\n    tag_174:\n        /* \"#utility.yul\":11653:11656   */\n      0x00\n        /* \"#utility.yul\":11674:11679   */\n      dup2\n        /* \"#utility.yul\":11667:11679   */\n      swap1\n      pop\n        /* \"#utility.yul\":11625:11685   */\n      swap2\n      swap1\n      pop\n      jump\t// out\n        /* \"#utility.yul\":11691:11833   */\n    tag_175:\n        /* \"#utility.yul\":11741:11750   */\n      0x00\n        /* \"#utility.yul\":11774:11827   */\n      tag_309\n        /* \"#utility.yul\":11792:11826   */\n      tag_310\n        /* \"#utility.yul\":11801:11825   */\n      tag_311\n        /* \"#utility.yul\":11819:11824   */\n      dup5\n        /* \"#utility.yul\":11801:11825   */\n      tag_139\n      jump\t// in\n    tag_311:\n        /* \"#utility.yul\":11792:11826   */\n      tag_174\n      jump\t// in\n    tag_310:\n        /* \"#utility.yul\":11774:11827   */\n      tag_139\n      jump\t// in\n    tag_309:\n        /* \"#utility.yul\":11761:11827   */\n      swap1\n      pop\n        /* \"#utility.yul\":11691:11833   */\n      swap2\n      swap1\n      pop\n      jump\t// out\n        /* \"#utility.yul\":11839:11914   */\n    tag_176:\n        /* \"#utility.yul\":11882:11885   */\n      0x00\n        /* \"#utility.yul\":11903:11908   */\n      dup2\n        /* \"#utility.yul\":11896:11908   */\n      swap1\n      pop\n        /* \"#utility.yul\":11839:11914   */\n      swap2\n      swap1\n      pop\n      jump\t// out\n        /* \"#utility.yul\":11920:12189   */\n    tag_177:\n        /* \"#utility.yul\":12030:12069   */\n      tag_314\n        /* \"#utility.yul\":12061:12068   */\n      dup4\n        /* \"#utility.yul\":12030:12069   */\n      tag_175\n      jump\t// in\n    tag_314:\n        /* \"#utility.yul\":12091:12182   */\n      tag_315\n        /* \"#utility.yul\":12140:12181   */\n      tag_316\n        /* \"#utility.yul\":12164:12180   */\n      dup3\n        /* \"#utility.yul\":12140:12181   */\n      tag_176\n      jump\t// in\n    tag_316:\n        /* \"#utility.yul\":12132:12138   */\n      dup5\n        /* \"#utility.yul\":12125:12129   */\n      dup5\n        /* \"#utility.yul\":12119:12130   */\n      sload\n        /* \"#utility.yul\":12091:12182   */\n      tag_173\n      jump\t// in\n    tag_315:\n        /* \"#utility.yul\":12085:12089   */\n      dup3\n        /* \"#utility.yul\":12078:12183   */\n      sstore\n        /* \"#utility.yul\":11996:12189   */\n      pop\n        /* \"#utility.yul\":11920:12189   */\n      pop\n      pop\n      pop\n      jump\t// out\n        /* \"#utility.yul\":12195:12268   */\n    tag_178:\n        /* \"#utility.yul\":12240:12243   */\n      0x00\n        /* \"#utility.yul\":12261:12262   */\n      0x00\n        /* \"#utility.yul\":12254:12262   */\n      swap1\n      pop\n        /* \"#utility.yul\":12195:12268   */\n      swap1\n      jump\t// out\n        /* \"#utility.yul\":12274:12463   */\n    tag_179:\n        /* \"#utility.yul\":12351:12383   */\n      tag_319\n      tag_178\n      jump\t// in\n    tag_319:\n        /* \"#utility.yul\":12392:12457   */\n      tag_320\n        /* \"#utility.yul\":12450:12456   */\n      dup2\n        /* \"#utility.yul\":12442:12448   */\n      dup5\n        /* \"#utility.yul\":12436:12440   */\n      dup5\n        /* \"#utility.yul\":12392:12457   */\n      tag_177\n      jump\t// in\n    tag_320:\n        /* \"#utility.yul\":12327:12463   */\n      pop\n        /* \"#utility.yul\":12274:12463   */\n      pop\n      pop\n      jump\t// out\n        /* \"#utility.yul\":12469:12655   */\n    tag_180:\n        /* \"#utility.yul\":12529:12649   */\n    tag_322:\n        /* \"#utility.yul\":12546:12549   */\n      dup2\n        /* \"#utility.yul\":12539:12544   */\n      dup2\n        /* \"#utility.yul\":12536:12550   */\n      lt\n        /* \"#utility.yul\":12529:12649   */\n      iszero\n      tag_324\n      jumpi\n        /* \"#utility.yul\":12600:12639   */\n      tag_325\n        /* \"#utility.yul\":12637:12638   */\n      0x00\n        /* \"#utility.yul\":12630:12635   */\n      dup3\n        /* \"#utility.yul\":12600:12639   */\n      tag_179\n      jump\t// in\n    tag_325:\n        /* \"#utility.yul\":12573:12574   */\n      0x01\n        /* \"#utility.yul\":12566:12571   */\n      dup2\n        /* \"#utility.yul\":12562:12575   */\n      add\n        /* \"#utility.yul\":12553:12575   */\n      swap1\n      pop\n        /* \"#utility.yul\":12529:12649   */\n      jump(tag_322)\n    tag_324:\n        /* \"#utility.yul\":12469:12655   */\n      pop\n      pop\n      jump\t// out\n        /* \"#utility.yul\":12661:13204   */\n    tag_181:\n        /* \"#utility.yul\":12762:12764   */\n      0x1f\n        /* \"#utility.yul\":12757:12760   */\n      dup3\n        /* \"#utility.yul\":12754:12765   */\n      gt\n        /* \"#utility.yul\":12751:13197   */\n      iszero\n      tag_327\n      jumpi\n        /* \"#utility.yul\":12796:12834   */\n      tag_328\n        /* \"#utility.yul\":12828:12833   */\n      dup2\n        /* \"#utility.yul\":12796:12834   */\n      tag_162\n      jump\t// in\n    tag_328:\n        /* \"#utility.yul\":12880:12909   */\n      tag_329\n        /* \"#utility.yul\":12898:12908   */\n      dup5\n        /* \"#utility.yul\":12880:12909   */\n      tag_171\n      jump\t// in\n    tag_329:\n        /* \"#utility.yul\":12870:12878   */\n      dup2\n        /* \"#utility.yul\":12866:12910   */\n      add\n        /* \"#utility.yul\":13063:13065   */\n      0x20\n        /* \"#utility.yul\":13051:13061   */\n      dup6\n        /* \"#utility.yul\":13048:13066   */\n      lt\n        /* \"#utility.yul\":13045:13094   */\n      iszero\n      tag_330\n      jumpi\n        /* \"#utility.yul\":13084:13092   */\n      dup2\n        /* \"#utility.yul\":13069:13092   */\n      swap1\n      pop\n        /* \"#utility.yul\":13045:13094   */\n    tag_330:\n        /* \"#utility.yul\":13107:13187   */\n      tag_331\n        /* \"#utility.yul\":13163:13185   */\n      tag_332\n        /* \"#utility.yul\":13181:13184   */\n      dup6\n        /* \"#utility.yul\":13163:13185   */\n      tag_171\n      jump\t// in\n    tag_332:\n        /* \"#utility.yul\":13153:13161   */\n      dup4\n        /* \"#utility.yul\":13149:13186   */\n      add\n        /* \"#utility.yul\":13136:13147   */\n      dup3\n        /* \"#utility.yul\":13107:13187   */\n      tag_180\n      jump\t// in\n    tag_331:\n        /* \"#utility.yul\":12766:13197   */\n      pop\n      pop\n        /* \"#utility.yul\":12751:13197   */\n    tag_327:\n        /* \"#utility.yul\":12661:13204   */\n      pop\n      pop\n      pop\n      jump\t// out\n        /* \"#utility.yul\":13210:13327   */\n    tag_182:\n        /* \"#utility.yul\":13264:13272   */\n      0x00\n        /* \"#utility.yul\":13314:13319   */\n      dup3\n        /* \"#utility.yul\":13308:13312   */\n      dup3\n        /* \"#utility.yul\":13304:13320   */\n      shr\n        /* \"#utility.yul\":13283:13320   */\n      swap1\n      pop\n        /* \"#utility.yul\":13210:13327   */\n      swap3\n      swap2\n      pop\n      pop\n      jump\t// out\n        /* \"#utility.yul\":13333:13502   */\n    tag_183:\n        /* \"#utility.yul\":13377:13383   */\n      0x00\n        /* \"#utility.yul\":13410:13461   */\n      tag_335\n        /* \"#utility.yul\":13458:13459   */\n      0x00\n        /* \"#utility.yul\":13454:13460   */\n      not\n        /* \"#utility.yul\":13446:13451   */\n      dup5\n        /* \"#utility.yul\":13443:13444   */\n      0x08\n        /* \"#utility.yul\":13439:13452   */\n      mul\n        /* \"#utility.yul\":13410:13461   */\n      tag_182\n      jump\t// in\n    tag_335:\n        /* \"#utility.yul\":13406:13462   */\n      not\n        /* \"#utility.yul\":13491:13495   */\n      dup1\n        /* \"#utility.yul\":13485:13489   */\n      dup4\n        /* \"#utility.yul\":13481:13496   */\n      and\n        /* \"#utility.yul\":13471:13496   */\n      swap2\n      pop\n        /* \"#utility.yul\":13384:13502   */\n      pop\n        /* \"#utility.yul\":13333:13502   */\n      swap3\n      swap2\n      pop\n      pop\n      jump\t// out\n        /* \"#utility.yul\":13507:13802   */\n    tag_184:\n        /* \"#utility.yul\":13583:13587   */\n      0x00\n        /* \"#utility.yul\":13729:13758   */\n      tag_337\n        /* \"#utility.yul\":13754:13757   */\n      dup4\n        /* \"#utility.yul\":13748:13752   */\n      dup4\n        /* \"#utility.yul\":13729:13758   */\n      tag_183\n      jump\t// in\n    tag_337:\n        /* \"#utility.yul\":13721:13758   */\n      swap2\n      pop\n        /* \"#utility.yul\":13791:13794   */\n      dup3\n        /* \"#utility.yul\":13788:13789   */\n      0x02\n        /* \"#utility.yul\":13784:13795   */\n      mul\n        /* \"#utility.yul\":13778:13782   */\n      dup3\n        /* \"#utility.yul\":13775:13796   */\n      or\n        /* \"#utility.yul\":13767:13796   */\n      swap1\n      pop\n        /* \"#utility.yul\":13507:13802   */\n      swap3\n      swap2\n      pop\n      pop\n      jump\t// out\n        /* \"#utility.yul\":13807:15202   */\n    tag_53:\n        /* \"#utility.yul\":13924:13961   */\n      tag_339\n        /* \"#utility.yul\":13957:13960   */\n      dup3\n        /* \"#utility.yul\":13924:13961   */\n      tag_147\n      jump\t// in\n    tag_339:\n        /* \"#utility.yul\":14026:14044   */\n      0xffffffffffffffff\n        /* \"#utility.yul\":14018:14024   */\n      dup2\n        /* \"#utility.yul\":14015:14045   */\n      gt\n        /* \"#utility.yul\":14012:14068   */\n      iszero\n      tag_340\n      jumpi\n        /* \"#utility.yul\":14048:14066   */\n      tag_341\n      tag_170\n      jump\t// in\n    tag_341:\n        /* \"#utility.yul\":14012:14068   */\n    tag_340:\n        /* \"#utility.yul\":14092:14130   */\n      tag_342\n        /* \"#utility.yul\":14124:14128   */\n      dup3\n        /* \"#utility.yul\":14118:14129   */\n      sload\n        /* \"#utility.yul\":14092:14130   */\n      tag_105\n      jump\t// in\n    tag_342:\n        /* \"#utility.yul\":14177:14244   */\n      tag_343\n        /* \"#utility.yul\":14237:14243   */\n      dup3\n        /* \"#utility.yul\":14229:14235   */\n      dup3\n        /* \"#utility.yul\":14223:14227   */\n      dup6\n        /* \"#utility.yul\":14177:14244   */\n      tag_181\n      jump\t// in\n    tag_343:\n        /* \"#utility.yul\":14271:14272   */\n      0x00\n        /* \"#utility.yul\":14295:14299   */\n      0x20\n        /* \"#utility.yul\":14282:14299   */\n      swap1\n      pop\n        /* \"#utility.yul\":14327:14329   */\n      0x1f\n        /* \"#utility.yul\":14319:14325   */\n      dup4\n        /* \"#utility.yul\":14316:14330   */\n      gt\n        /* \"#utility.yul\":14344:14345   */\n      0x01\n        /* \"#utility.yul\":14339:14957   */\n      dup2\n      eq\n      tag_345\n      jumpi\n        /* \"#utility.yul\":15001:15002   */\n      0x00\n        /* \"#utility.yul\":15018:15024   */\n      dup5\n        /* \"#utility.yul\":15015:15092   */\n      iszero\n      tag_346\n      jumpi\n        /* \"#utility.yul\":15067:15076   */\n      dup3\n        /* \"#utility.yul\":15062:15065   */\n      dup8\n        /* \"#utility.yul\":15058:15077   */\n      add\n        /* \"#utility.yul\":15052:15078   */\n      mload\n        /* \"#utility.yul\":15043:15078   */\n      swap1\n      pop\n        /* \"#utility.yul\":15015:15092   */\n    tag_346:\n        /* \"#utility.yul\":15118:15185   */\n      tag_347\n        /* \"#utility.yul\":15178:15184   */\n      dup6\n        /* \"#utility.yul\":15171:15176   */\n      dup3\n        /* \"#utility.yul\":15118:15185   */\n      tag_184\n      jump\t// in\n    tag_347:\n        /* \"#utility.yul\":15112:15116   */\n      dup7\n        /* \"#utility.yul\":15105:15186   */\n      sstore\n        /* \"#utility.yul\":14974:15196   */\n      pop\n        /* \"#utility.yul\":14309:15196   */\n      jump(tag_344)\n        /* \"#utility.yul\":14339:14957   */\n    tag_345:\n        /* \"#utility.yul\":14391:14395   */\n      0x1f\n        /* \"#utility.yul\":14387:14396   */\n      not\n        /* \"#utility.yul\":14379:14385   */\n      dup5\n        /* \"#utility.yul\":14375:14397   */\n      and\n        /* \"#utility.yul\":14425:14462   */\n      tag_348\n        /* \"#utility.yul\":14457:14461   */\n      dup7\n        /* \"#utility.yul\":14425:14462   */\n      tag_162\n      jump\t// in\n    tag_348:\n        /* \"#utility.yul\":14484:14485   */\n      0x00\n        /* \"#utility.yul\":14498:14706   */\n    tag_349:\n        /* \"#utility.yul\":14512:14519   */\n      dup3\n        /* \"#utility.yul\":14509:14510   */\n      dup2\n        /* \"#utility.yul\":14506:14520   */\n      lt\n        /* \"#utility.yul\":14498:14706   */\n      iszero\n      tag_351\n      jumpi\n        /* \"#utility.yul\":14591:14600   */\n      dup5\n        /* \"#utility.yul\":14586:14589   */\n      dup10\n        /* \"#utility.yul\":14582:14601   */\n      add\n        /* \"#utility.yul\":14576:14602   */\n      mload\n        /* \"#utility.yul\":14568:14574   */\n      dup3\n        /* \"#utility.yul\":14561:14603   */\n      sstore\n        /* \"#utility.yul\":14642:14643   */\n      0x01\n        /* \"#utility.yul\":14634:14640   */\n      dup3\n        /* \"#utility.yul\":14630:14644   */\n      add\n        /* \"#utility.yul\":14620:14644   */\n      swap2\n      pop\n        /* \"#utility.yul\":14689:14691   */\n      0x20\n        /* \"#utility.yul\":14678:14687   */\n      dup6\n        /* \"#utility.yul\":14674:14692   */\n      add\n        /* \"#utility.yul\":14661:14692   */\n      swap5\n      pop\n        /* \"#utility.yul\":14535:14539   */\n      0x20\n        /* \"#utility.yul\":14532:14533   */\n      dup2\n        /* \"#utility.yul\":14528:14540   */\n      add\n        /* \"#utility.yul\":14523:14540   */\n      swap1\n      pop\n        /* \"#utility.yul\":14498:14706   */\n      jump(tag_349)\n    tag_351:\n        /* \"#utility.yul\":14734:14740   */\n      dup7\n        /* \"#utility.yul\":14725:14732   */\n      dup4\n        /* \"#utility.yul\":14722:14741   */\n      lt\n        /* \"#utility.yul\":14719:14898   */\n      iszero\n      tag_352\n      jumpi\n        /* \"#utility.yul\":14792:14801   */\n      dup5\n        /* \"#utility.yul\":14787:14790   */\n      dup10\n        /* \"#utility.yul\":14783:14802   */\n      add\n        /* \"#utility.yul\":14777:14803   */\n      mload\n        /* \"#utility.yul\":14835:14883   */\n      tag_353\n        /* \"#utility.yul\":14877:14881   */\n      0x1f\n        /* \"#utility.yul\":14869:14875   */\n      dup10\n        /* \"#utility.yul\":14865:14882   */\n      and\n        /* \"#utility.yul\":14854:14863   */\n      dup3\n        /* \"#utility.yul\":14835:14883   */\n      tag_183\n      jump\t// in\n    tag_353:\n        /* \"#utility.yul\":14827:14833   */\n      dup4\n        /* \"#utility.yul\":14820:14884   */\n      sstore\n        /* \"#utility.yul\":14742:14898   */\n      pop\n        /* \"#utility.yul\":14719:14898   */\n    tag_352:\n        /* \"#utility.yul\":14944:14945   */\n      0x01\n        /* \"#utility.yul\":14940:14941   */\n      0x02\n        /* \"#utility.yul\":14932:14938   */\n      dup9\n        /* \"#utility.yul\":14928:14942   */\n      mul\n        /* \"#utility.yul\":14924:14946   */\n      add\n        /* \"#utility.yul\":14918:14922   */\n      dup9\n        /* \"#utility.yul\":14911:14947   */\n      sstore\n        /* \"#utility.yul\":14346:14957   */\n      pop\n      pop\n      pop\n        /* \"#utility.yul\":14309:15196   */\n    tag_344:\n      pop\n        /* \"#utility.yul\":13899:15202   */\n      pop\n      pop\n      pop\n        /* \"#utility.yul\":13807:15202   */\n      pop\n      pop\n      jump\t// out\n        /* \"#utility.yul\":15208:15671   */\n    tag_57:\n        /* \"#utility.yul\":15369:15373   */\n      0x00\n        /* \"#utility.yul\":15407:15409   */\n      0x40\n        /* \"#utility.yul\":15396:15405   */\n      dup3\n        /* \"#utility.yul\":15392:15410   */\n      add\n        /* \"#utility.yul\":15384:15410   */\n      swap1\n      pop\n        /* \"#utility.yul\":15456:15465   */\n      dup2\n        /* \"#utility.yul\":15450:15454   */\n      dup2\n        /* \"#utility.yul\":15446:15466   */\n      sub\n        /* \"#utility.yul\":15442:15443   */\n      0x00\n        /* \"#utility.yul\":15431:15440   */\n      dup4\n        /* \"#utility.yul\":15427:15444   */\n      add\n        /* \"#utility.yul\":15420:15467   */\n      mstore\n        /* \"#utility.yul\":15484:15582   */\n      tag_355\n        /* \"#utility.yul\":15577:15581   */\n      dup2\n        /* \"#utility.yul\":15568:15574   */\n      dup6\n        /* \"#utility.yul\":15484:15582   */\n      tag_157\n      jump\t// in\n    tag_355:\n        /* \"#utility.yul\":15476:15582   */\n      swap1\n      pop\n        /* \"#utility.yul\":15592:15664   */\n      tag_356\n        /* \"#utility.yul\":15660:15662   */\n      0x20\n        /* \"#utility.yul\":15649:15658   */\n      dup4\n        /* \"#utility.yul\":15645:15663   */\n      add\n        /* \"#utility.yul\":15636:15642   */\n      dup5\n        /* \"#utility.yul\":15592:15664   */\n      tag_146\n      jump\t// in\n    tag_356:\n        /* \"#utility.yul\":15208:15671   */\n      swap4\n      swap3\n      pop\n      pop\n      pop\n      jump\t// out\n        /* \"#utility.yul\":15677:15825   */\n    tag_185:\n        /* \"#utility.yul\":15779:15790   */\n      0x00\n        /* \"#utility.yul\":15816:15819   */\n      dup2\n        /* \"#utility.yul\":15801:15819   */\n      swap1\n      pop\n        /* \"#utility.yul\":15677:15825   */\n      swap3\n      swap2\n      pop\n      pop\n      jump\t// out\n        /* \"#utility.yul\":15855:16729   */\n    tag_186:\n        /* \"#utility.yul\":15958:15961   */\n      0x00\n        /* \"#utility.yul\":15995:16000   */\n      dup2\n        /* \"#utility.yul\":15989:16001   */\n      sload\n        /* \"#utility.yul\":16024:16060   */\n      tag_359\n        /* \"#utility.yul\":16050:16059   */\n      dup2\n        /* \"#utility.yul\":16024:16060   */\n      tag_105\n      jump\t// in\n    tag_359:\n        /* \"#utility.yul\":16076:16165   */\n      tag_360\n        /* \"#utility.yul\":16158:16164   */\n      dup2\n        /* \"#utility.yul\":16153:16156   */\n      dup7\n        /* \"#utility.yul\":16076:16165   */\n      tag_185\n      jump\t// in\n    tag_360:\n        /* \"#utility.yul\":16069:16165   */\n      swap5\n      pop\n        /* \"#utility.yul\":16196:16197   */\n      0x01\n        /* \"#utility.yul\":16185:16194   */\n      dup3\n        /* \"#utility.yul\":16181:16198   */\n      and\n        /* \"#utility.yul\":16212:16213   */\n      0x00\n        /* \"#utility.yul\":16207:16373   */\n      dup2\n      eq\n      tag_362\n      jumpi\n        /* \"#utility.yul\":16387:16388   */\n      0x01\n        /* \"#utility.yul\":16382:16723   */\n      dup2\n      eq\n      tag_363\n      jumpi\n        /* \"#utility.yul\":16174:16723   */\n      jump(tag_361)\n        /* \"#utility.yul\":16207:16373   */\n    tag_362:\n        /* \"#utility.yul\":16291:16295   */\n      0xff\n        /* \"#utility.yul\":16287:16296   */\n      not\n        /* \"#utility.yul\":16276:16285   */\n      dup4\n        /* \"#utility.yul\":16272:16297   */\n      and\n        /* \"#utility.yul\":16267:16270   */\n      dup7\n        /* \"#utility.yul\":16260:16298   */\n      mstore\n        /* \"#utility.yul\":16353:16359   */\n      dup2\n        /* \"#utility.yul\":16346:16360   */\n      iszero\n        /* \"#utility.yul\":16339:16361   */\n      iszero\n        /* \"#utility.yul\":16331:16337   */\n      dup3\n        /* \"#utility.yul\":16327:16362   */\n      mul\n        /* \"#utility.yul\":16322:16325   */\n      dup7\n        /* \"#utility.yul\":16318:16363   */\n      add\n        /* \"#utility.yul\":16311:16363   */\n      swap4\n      pop\n        /* \"#utility.yul\":16207:16373   */\n      jump(tag_361)\n        /* \"#utility.yul\":16382:16723   */\n    tag_363:\n        /* \"#utility.yul\":16449:16487   */\n      tag_364\n        /* \"#utility.yul\":16481:16486   */\n      dup6\n        /* \"#utility.yul\":16449:16487   */\n      tag_162\n      jump\t// in\n    tag_364:\n        /* \"#utility.yul\":16509:16510   */\n      0x00\n        /* \"#utility.yul\":16523:16677   */\n    tag_365:\n        /* \"#utility.yul\":16537:16543   */\n      dup4\n        /* \"#utility.yul\":16534:16535   */\n      dup2\n        /* \"#utility.yul\":16531:16544   */\n      lt\n        /* \"#utility.yul\":16523:16677   */\n      iszero\n      tag_367\n      jumpi\n        /* \"#utility.yul\":16611:16618   */\n      dup2\n        /* \"#utility.yul\":16605:16619   */\n      sload\n        /* \"#utility.yul\":16601:16602   */\n      dup2\n        /* \"#utility.yul\":16596:16599   */\n      dup10\n        /* \"#utility.yul\":16592:16603   */\n      add\n        /* \"#utility.yul\":16585:16620   */\n      mstore\n        /* \"#utility.yul\":16661:16662   */\n      0x01\n        /* \"#utility.yul\":16652:16659   */\n      dup3\n        /* \"#utility.yul\":16648:16663   */\n      add\n        /* \"#utility.yul\":16637:16663   */\n      swap2\n      pop\n        /* \"#utility.yul\":16559:16563   */\n      0x20\n        /* \"#utility.yul\":16556:16557   */\n      dup2\n        /* \"#utility.yul\":16552:16564   */\n      add\n        /* \"#utility.yul\":16547:16564   */\n      swap1\n      pop\n        /* \"#utility.yul\":16523:16677   */\n      jump(tag_365)\n    tag_367:\n        /* \"#utility.yul\":16706:16712   */\n      dup4\n        /* \"#utility.yul\":16701:16704   */\n      dup9\n        /* \"#utility.yul\":16697:16713   */\n      add\n        /* \"#utility.yul\":16690:16713   */\n      swap6\n      pop\n        /* \"#utility.yul\":16389:16723   */\n      pop\n      pop\n        /* \"#utility.yul\":16174:16723   */\n    tag_361:\n      pop\n        /* \"#utility.yul\":15962:16729   */\n      pop\n      pop\n        /* \"#utility.yul\":15855:16729   */\n      swap3\n      swap2\n      pop\n      pop\n      jump\t// out\n        /* \"#utility.yul\":16735:17004   */\n    tag_66:\n        /* \"#utility.yul\":16864:16867   */\n      0x00\n        /* \"#utility.yul\":16886:16978   */\n      tag_369\n        /* \"#utility.yul\":16974:16977   */\n      dup3\n        /* \"#utility.yul\":16965:16971   */\n      dup5\n        /* \"#utility.yul\":16886:16978   */\n      tag_186\n      jump\t// in\n    tag_369:\n        /* \"#utility.yul\":16879:16978   */\n      swap2\n      pop\n        /* \"#utility.yul\":16995:16998   */\n      dup2\n        /* \"#utility.yul\":16988:16998   */\n      swap1\n      pop\n        /* \"#utility.yul\":16735:17004   */\n      swap3\n      swap2\n      pop\n      pop\n      jump\t// out\n        /* \"#utility.yul\":17010:17158   */\n    tag_187:\n        /* \"#utility.yul\":17108:17114   */\n      dup3\n        /* \"#utility.yul\":17103:17106   */\n      dup2\n        /* \"#utility.yul\":17098:17101   */\n      dup4\n        /* \"#utility.yul\":17085:17115   */\n      calldatacopy\n        /* \"#utility.yul\":17149:17150   */\n      0x00\n        /* \"#utility.yul\":17140:17146   */\n      dup4\n        /* \"#utility.yul\":17135:17138   */\n      dup4\n        /* \"#utility.yul\":17131:17147   */\n      add\n        /* \"#utility.yul\":17124:17151   */\n      mstore\n        /* \"#utility.yul\":17010:17158   */\n      pop\n      pop\n      pop\n      jump\t// out\n        /* \"#utility.yul\":17188:17518   */\n    tag_188:\n        /* \"#utility.yul\":17304:17307   */\n      0x00\n        /* \"#utility.yul\":17325:17414   */\n      tag_372\n        /* \"#utility.yul\":17407:17413   */\n      dup4\n        /* \"#utility.yul\":17402:17405   */\n      dup6\n        /* \"#utility.yul\":17325:17414   */\n      tag_185\n      jump\t// in\n    tag_372:\n        /* \"#utility.yul\":17318:17414   */\n      swap4\n      pop\n        /* \"#utility.yul\":17424:17480   */\n      tag_373\n        /* \"#utility.yul\":17473:17479   */\n      dup4\n        /* \"#utility.yul\":17468:17471   */\n      dup6\n        /* \"#utility.yul\":17461:17466   */\n      dup5\n        /* \"#utility.yul\":17424:17480   */\n      tag_187\n      jump\t// in\n    tag_373:\n        /* \"#utility.yul\":17505:17511   */\n      dup3\n        /* \"#utility.yul\":17500:17503   */\n      dup5\n        /* \"#utility.yul\":17496:17512   */\n      add\n        /* \"#utility.yul\":17489:17512   */\n      swap1\n      pop\n        /* \"#utility.yul\":17188:17518   */\n      swap4\n      swap3\n      pop\n      pop\n      pop\n      jump\t// out\n        /* \"#utility.yul\":17524:17819   */\n    tag_68:\n        /* \"#utility.yul\":17666:17669   */\n      0x00\n        /* \"#utility.yul\":17688:17793   */\n      tag_375\n        /* \"#utility.yul\":17789:17792   */\n      dup3\n        /* \"#utility.yul\":17780:17786   */\n      dup5\n        /* \"#utility.yul\":17772:17778   */\n      dup7\n        /* \"#utility.yul\":17688:17793   */\n      tag_188\n      jump\t// in\n    tag_375:\n        /* \"#utility.yul\":17681:17793   */\n      swap2\n      pop\n        /* \"#utility.yul\":17810:17813   */\n      dup2\n        /* \"#utility.yul\":17803:17813   */\n      swap1\n      pop\n        /* \"#utility.yul\":17524:17819   */\n      swap4\n      swap3\n      pop\n      pop\n      pop\n      jump\t// out\n        /* \"#utility.yul\":17825:18005   */\n    tag_189:\n        /* \"#utility.yul\":17873:17950   */\n      0x4e487b7100000000000000000000000000000000000000000000000000000000\n        /* \"#utility.yul\":17870:17871   */\n      0x00\n        /* \"#utility.yul\":17863:17951   */\n      mstore\n        /* \"#utility.yul\":17970:17974   */\n      0x11\n        /* \"#utility.yul\":17967:17968   */\n      0x04\n        /* \"#utility.yul\":17960:17975   */\n      mstore\n        /* \"#utility.yul\":17994:17998   */\n      0x24\n        /* \"#utility.yul\":17991:17992   */\n      0x00\n        /* \"#utility.yul\":17984:17999   */\n      revert\n        /* \"#utility.yul\":18011:18244   */\n    tag_70:\n        /* \"#utility.yul\":18050:18053   */\n      0x00\n        /* \"#utility.yul\":18073:18097   */\n      tag_378\n        /* \"#utility.yul\":18091:18096   */\n      dup3\n        /* \"#utility.yul\":18073:18097   */\n      tag_139\n      jump\t// in\n    tag_378:\n        /* \"#utility.yul\":18064:18097   */\n      swap2\n      pop\n        /* \"#utility.yul\":18119:18185   */\n      0xffffffffffffffffffffffffffffffffffffffffffffffffffffffffffffffff\n        /* \"#utility.yul\":18112:18117   */\n      dup3\n        /* \"#utility.yul\":18109:18186   */\n      sub\n        /* \"#utility.yul\":18106:18209   */\n      tag_379\n      jumpi\n        /* \"#utility.yul\":18189:18207   */\n      tag_380\n      tag_189\n      jump\t// in\n    tag_380:\n        /* \"#utility.yul\":18106:18209   */\n    tag_379:\n        /* \"#utility.yul\":18236:18237   */\n      0x01\n        /* \"#utility.yul\":18229:18234   */\n      dup3\n        /* \"#utility.yul\":18225:18238   */\n      add\n        /* \"#utility.yul\":18218:18238   */\n      swap1\n      pop\n        /* \"#utility.yul\":18011:18244   */\n      swap2\n      swap1\n      pop\n      jump\t// out\n        /* \"#utility.yul\":18250:18483   */\n    tag_190:\n        /* \"#utility.yul\":18390:18424   */\n      0x44454c455445202d204c6120746172656120636f6e2065736520636f6e74656e\n        /* \"#utility.yul\":18386:18387   */\n      0x00\n        /* \"#utility.yul\":18378:18384   */\n      dup3\n        /* \"#utility.yul\":18374:18388   */\n      add\n        /* \"#utility.yul\":18367:18425   */\n      mstore\n        /* \"#utility.yul\":18459:18475   */\n      0x69646f206e6f2065786973746521000000000000000000000000000000000000\n        /* \"#utility.yul\":18454:18456   */\n      0x20\n        /* \"#utility.yul\":18446:18452   */\n      dup3\n        /* \"#utility.yul\":18442:18457   */\n      add\n        /* \"#utility.yul\":18435:18476   */\n      mstore\n        /* \"#utility.yul\":18250:18483   */\n      pop\n      jump\t// out\n        /* \"#utility.yul\":18489:18855   */\n    tag_191:\n        /* \"#utility.yul\":18631:18634   */\n      0x00\n        /* \"#utility.yul\":18652:18719   */\n      tag_383\n        /* \"#utility.yul\":18716:18718   */\n      0x2e\n        /* \"#utility.yul\":18711:18714   */\n      dup4\n        /* \"#utility.yul\":18652:18719   */\n      tag_158\n      jump\t// in\n    tag_383:\n        /* \"#utility.yul\":18645:18719   */\n      swap2\n      pop\n        /* \"#utility.yul\":18728:18821   */\n      tag_384\n        /* \"#utility.yul\":18817:18820   */\n      dup3\n        /* \"#utility.yul\":18728:18821   */\n      tag_190\n      jump\t// in\n    tag_384:\n        /* \"#utility.yul\":18846:18848   */\n      0x40\n        /* \"#utility.yul\":18841:18844   */\n      dup3\n        /* \"#utility.yul\":18837:18849   */\n      add\n        /* \"#utility.yul\":18830:18849   */\n      swap1\n      pop\n        /* \"#utility.yul\":18489:18855   */\n      swap2\n      swap1\n      pop\n      jump\t// out\n        /* \"#utility.yul\":18861:19280   */\n    tag_73:\n        /* \"#utility.yul\":19027:19031   */\n      0x00\n        /* \"#utility.yul\":19065:19067   */\n      0x20\n        /* \"#utility.yul\":19054:19063   */\n      dup3\n        /* \"#utility.yul\":19050:19068   */\n      add\n        /* \"#utility.yul\":19042:19068   */\n      swap1\n      pop\n        /* \"#utility.yul\":19114:19123   */\n      dup2\n        /* \"#utility.yul\":19108:19112   */\n      dup2\n        /* \"#utility.yul\":19104:19124   */\n      sub\n        /* \"#utility.yul\":19100:19101   */\n      0x00\n        /* \"#utility.yul\":19089:19098   */\n      dup4\n        /* \"#utility.yul\":19085:19102   */\n      add\n        /* \"#utility.yul\":19078:19125   */\n      mstore\n        /* \"#utility.yul\":19142:19273   */\n      tag_386\n        /* \"#utility.yul\":19268:19272   */\n      dup2\n        /* \"#utility.yul\":19142:19273   */\n      tag_191\n      jump\t// in\n    tag_386:\n        /* \"#utility.yul\":19134:19273   */\n      swap1\n      pop\n        /* \"#utility.yul\":18861:19280   */\n      swap2\n      swap1\n      pop\n      jump\t// out\n        /* \"#utility.yul\":19286:19480   */\n    tag_75:\n        /* \"#utility.yul\":19326:19330   */\n      0x00\n        /* \"#utility.yul\":19346:19366   */\n      tag_388\n        /* \"#utility.yul\":19364:19365   */\n      dup3\n        /* \"#utility.yul\":19346:19366   */\n      tag_139\n      jump\t// in\n    tag_388:\n        /* \"#utility.yul\":19341:19366   */\n      swap2\n      pop\n        /* \"#utility.yul\":19380:19400   */\n      tag_389\n        /* \"#utility.yul\":19398:19399   */\n      dup4\n        /* \"#utility.yul\":19380:19400   */\n      tag_139\n      jump\t// in\n    tag_389:\n        /* \"#utility.yul\":19375:19400   */\n      swap3\n      pop\n        /* \"#utility.yul\":19424:19425   */\n      dup3\n        /* \"#utility.yul\":19421:19422   */\n      dup3\n        /* \"#utility.yul\":19417:19426   */\n      sub\n        /* \"#utility.yul\":19409:19426   */\n      swap1\n      pop\n        /* \"#utility.yul\":19448:19449   */\n      dup2\n        /* \"#utility.yul\":19442:19446   */\n      dup2\n        /* \"#utility.yul\":19439:19450   */\n      gt\n        /* \"#utility.yul\":19436:19473   */\n      iszero\n      tag_390\n      jumpi\n        /* \"#utility.yul\":19453:19471   */\n      tag_391\n      tag_189\n      jump\t// in\n    tag_391:\n        /* \"#utility.yul\":19436:19473   */\n    tag_390:\n        /* \"#utility.yul\":19286:19480   */\n      swap3\n      swap2\n      pop\n      pop\n      jump\t// out\n        /* \"#utility.yul\":19486:19635   */\n    tag_192:\n        /* \"#utility.yul\":19535:19541   */\n      0x00\n        /* \"#utility.yul\":19569:19574   */\n      dup2\n        /* \"#utility.yul\":19563:19575   */\n      sload\n        /* \"#utility.yul\":19553:19575   */\n      swap1\n      pop\n        /* \"#utility.yul\":19595:19628   */\n      tag_393\n        /* \"#utility.yul\":19621:19627   */\n      dup2\n        /* \"#utility.yul\":19595:19628   */\n      tag_105\n      jump\t// in\n    tag_393:\n        /* \"#utility.yul\":19585:19628   */\n      swap1\n      pop\n        /* \"#utility.yul\":19486:19635   */\n      swap2\n      swap1\n      pop\n      jump\t// out\n        /* \"#utility.yul\":19641:21092   */\n    tag_83:\n        /* \"#utility.yul\":19752:19755   */\n      dup2\n        /* \"#utility.yul\":19746:19750   */\n      dup2\n        /* \"#utility.yul\":19743:19756   */\n      sub\n        /* \"#utility.yul\":19740:19766   */\n      tag_395\n      jumpi\n        /* \"#utility.yul\":19759:19764   */\n      pop\n      pop\n      jump(tag_394)\n        /* \"#utility.yul\":19740:19766   */\n    tag_395:\n        /* \"#utility.yul\":19790:19824   */\n      tag_396\n        /* \"#utility.yul\":19820:19823   */\n      dup3\n        /* \"#utility.yul\":19790:19824   */\n      tag_192\n      jump\t// in\n    tag_396:\n        /* \"#utility.yul\":19889:19907   */\n      0xffffffffffffffff\n        /* \"#utility.yul\":19881:19887   */\n      dup2\n        /* \"#utility.yul\":19878:19908   */\n      gt\n        /* \"#utility.yul\":19875:19931   */\n      iszero\n      tag_397\n      jumpi\n        /* \"#utility.yul\":19911:19929   */\n      tag_398\n      tag_170\n      jump\t// in\n    tag_398:\n        /* \"#utility.yul\":19875:19931   */\n    tag_397:\n        /* \"#utility.yul\":19955:19993   */\n      tag_399\n        /* \"#utility.yul\":19987:19991   */\n      dup3\n        /* \"#utility.yul\":19981:19992   */\n      sload\n        /* \"#utility.yul\":19955:19993   */\n      tag_105\n      jump\t// in\n    tag_399:\n        /* \"#utility.yul\":20040:20107   */\n      tag_400\n        /* \"#utility.yul\":20100:20106   */\n      dup3\n        /* \"#utility.yul\":20092:20098   */\n      dup3\n        /* \"#utility.yul\":20086:20090   */\n      dup6\n        /* \"#utility.yul\":20040:20107   */\n      tag_181\n      jump\t// in\n    tag_400:\n        /* \"#utility.yul\":20134:20135   */\n      0x00\n        /* \"#utility.yul\":20163:20165   */\n      0x1f\n        /* \"#utility.yul\":20155:20161   */\n      dup4\n        /* \"#utility.yul\":20152:20166   */\n      gt\n        /* \"#utility.yul\":20180:20181   */\n      0x01\n        /* \"#utility.yul\":20175:20847   */\n      dup2\n      eq\n      tag_402\n      jumpi\n        /* \"#utility.yul\":20891:20892   */\n      0x00\n        /* \"#utility.yul\":20908:20914   */\n      dup5\n        /* \"#utility.yul\":20905:20982   */\n      iszero\n      tag_403\n      jumpi\n        /* \"#utility.yul\":20957:20966   */\n      dup3\n        /* \"#utility.yul\":20952:20955   */\n      dup8\n        /* \"#utility.yul\":20948:20967   */\n      add\n        /* \"#utility.yul\":20942:20968   */\n      sload\n        /* \"#utility.yul\":20933:20968   */\n      swap1\n      pop\n        /* \"#utility.yul\":20905:20982   */\n    tag_403:\n        /* \"#utility.yul\":21008:21075   */\n      tag_404\n        /* \"#utility.yul\":21068:21074   */\n      dup6\n        /* \"#utility.yul\":21061:21066   */\n      dup3\n        /* \"#utility.yul\":21008:21075   */\n      tag_184\n      jump\t// in\n    tag_404:\n        /* \"#utility.yul\":21002:21006   */\n      dup7\n        /* \"#utility.yul\":20995:21076   */\n      sstore\n        /* \"#utility.yul\":20864:21086   */\n      pop\n        /* \"#utility.yul\":20145:21086   */\n      jump(tag_401)\n        /* \"#utility.yul\":20175:20847   */\n    tag_402:\n        /* \"#utility.yul\":20227:20231   */\n      0x1f\n        /* \"#utility.yul\":20223:20232   */\n      not\n        /* \"#utility.yul\":20215:20221   */\n      dup5\n        /* \"#utility.yul\":20211:20233   */\n      and\n        /* \"#utility.yul\":20253:20289   */\n      tag_405\n        /* \"#utility.yul\":20285:20288   */\n      dup8\n        /* \"#utility.yul\":20253:20289   */\n      tag_162\n      jump\t// in\n    tag_405:\n        /* \"#utility.yul\":20246:20289   */\n      swap7\n      pop\n        /* \"#utility.yul\":20316:20353   */\n      tag_406\n        /* \"#utility.yul\":20348:20352   */\n      dup7\n        /* \"#utility.yul\":20316:20353   */\n      tag_162\n      jump\t// in\n    tag_406:\n        /* \"#utility.yul\":20375:20376   */\n      0x00\n        /* \"#utility.yul\":20389:20596   */\n    tag_407:\n        /* \"#utility.yul\":20403:20410   */\n      dup3\n        /* \"#utility.yul\":20400:20401   */\n      dup2\n        /* \"#utility.yul\":20397:20411   */\n      lt\n        /* \"#utility.yul\":20389:20596   */\n      iszero\n      tag_409\n      jumpi\n        /* \"#utility.yul\":20482:20491   */\n      dup5\n        /* \"#utility.yul\":20477:20480   */\n      dup10\n        /* \"#utility.yul\":20473:20492   */\n      add\n        /* \"#utility.yul\":20467:20493   */\n      sload\n        /* \"#utility.yul\":20459:20465   */\n      dup3\n        /* \"#utility.yul\":20452:20494   */\n      sstore\n        /* \"#utility.yul\":20533:20534   */\n      0x01\n        /* \"#utility.yul\":20525:20531   */\n      dup3\n        /* \"#utility.yul\":20521:20535   */\n      add\n        /* \"#utility.yul\":20511:20535   */\n      swap2\n      pop\n        /* \"#utility.yul\":20580:20581   */\n      0x01\n        /* \"#utility.yul\":20569:20578   */\n      dup6\n        /* \"#utility.yul\":20565:20582   */\n      add\n        /* \"#utility.yul\":20552:20582   */\n      swap5\n      pop\n        /* \"#utility.yul\":20426:20430   */\n      0x20\n        /* \"#utility.yul\":20423:20424   */\n      dup2\n        /* \"#utility.yul\":20419:20431   */\n      add\n        /* \"#utility.yul\":20414:20431   */\n      swap1\n      pop\n        /* \"#utility.yul\":20389:20596   */\n      jump(tag_407)\n    tag_409:\n        /* \"#utility.yul\":20624:20630   */\n      dup7\n        /* \"#utility.yul\":20615:20622   */\n      dup4\n        /* \"#utility.yul\":20612:20631   */\n      lt\n        /* \"#utility.yul\":20609:20788   */\n      iszero\n      tag_410\n      jumpi\n        /* \"#utility.yul\":20682:20691   */\n      dup5\n        /* \"#utility.yul\":20677:20680   */\n      dup10\n        /* \"#utility.yul\":20673:20692   */\n      add\n        /* \"#utility.yul\":20667:20693   */\n      sload\n        /* \"#utility.yul\":20725:20773   */\n      tag_411\n        /* \"#utility.yul\":20767:20771   */\n      0x1f\n        /* \"#utility.yul\":20759:20765   */\n      dup10\n        /* \"#utility.yul\":20755:20772   */\n      and\n        /* \"#utility.yul\":20744:20753   */\n      dup3\n        /* \"#utility.yul\":20725:20773   */\n      tag_183\n      jump\t// in\n    tag_411:\n        /* \"#utility.yul\":20717:20723   */\n      dup4\n        /* \"#utility.yul\":20710:20774   */\n      sstore\n        /* \"#utility.yul\":20632:20788   */\n      pop\n        /* \"#utility.yul\":20609:20788   */\n    tag_410:\n        /* \"#utility.yul\":20834:20835   */\n      0x01\n        /* \"#utility.yul\":20830:20831   */\n      0x02\n        /* \"#utility.yul\":20822:20828   */\n      dup9\n        /* \"#utility.yul\":20818:20832   */\n      mul\n        /* \"#utility.yul\":20814:20836   */\n      add\n        /* \"#utility.yul\":20808:20812   */\n      dup9\n        /* \"#utility.yul\":20801:20837   */\n      sstore\n        /* \"#utility.yul\":20182:20847   */\n      pop\n      pop\n      pop\n        /* \"#utility.yul\":20145:21086   */\n    tag_401:\n      pop\n        /* \"#utility.yul\":19730:21092   */\n      pop\n      pop\n      pop\n        /* \"#utility.yul\":19641:21092   */\n      pop\n      pop\n    tag_394:\n      jump\t// out\n        /* \"#utility.yul\":21098:21278   */\n    tag_88:\n        /* \"#utility.yul\":21146:21223   */\n      0x4e487b7100000000000000000000000000000000000000000000000000000000\n        /* \"#utility.yul\":21143:21144   */\n      0x00\n        /* \"#utility.yul\":21136:21224   */\n      mstore\n        /* \"#utility.yul\":21243:21247   */\n      0x31\n        /* \"#utility.yul\":21240:21241   */\n      0x04\n        /* \"#utility.yul\":21233:21248   */\n      mstore\n        /* \"#utility.yul\":21267:21271   */\n      0x24\n        /* \"#utility.yul\":21264:21265   */\n      0x00\n        /* \"#utility.yul\":21257:21272   */\n      revert\n        /* \"#utility.yul\":21308:21625   */\n    tag_193:\n        /* \"#utility.yul\":21406:21409   */\n      0x00\n        /* \"#utility.yul\":21427:21498   */\n      tag_414\n        /* \"#utility.yul\":21491:21497   */\n      dup4\n        /* \"#utility.yul\":21486:21489   */\n      dup6\n        /* \"#utility.yul\":21427:21498   */\n      tag_158\n      jump\t// in\n    tag_414:\n        /* \"#utility.yul\":21420:21498   */\n      swap4\n      pop\n        /* \"#utility.yul\":21508:21564   */\n      tag_415\n        /* \"#utility.yul\":21557:21563   */\n      dup4\n        /* \"#utility.yul\":21552:21555   */\n      dup6\n        /* \"#utility.yul\":21545:21550   */\n      dup5\n        /* \"#utility.yul\":21508:21564   */\n      tag_187\n      jump\t// in\n    tag_415:\n        /* \"#utility.yul\":21589:21618   */\n      tag_416\n        /* \"#utility.yul\":21611:21617   */\n      dup4\n        /* \"#utility.yul\":21589:21618   */\n      tag_150\n      jump\t// in\n    tag_416:\n        /* \"#utility.yul\":21584:21587   */\n      dup5\n        /* \"#utility.yul\":21580:21619   */\n      add\n        /* \"#utility.yul\":21573:21619   */\n      swap1\n      pop\n        /* \"#utility.yul\":21308:21625   */\n      swap4\n      swap3\n      pop\n      pop\n      pop\n      jump\t// out\n        /* \"#utility.yul\":21631:22074   */\n    tag_93:\n        /* \"#utility.yul\":21782:21786   */\n      0x00\n        /* \"#utility.yul\":21820:21822   */\n      0x40\n        /* \"#utility.yul\":21809:21818   */\n      dup3\n        /* \"#utility.yul\":21805:21823   */\n      add\n        /* \"#utility.yul\":21797:21823   */\n      swap1\n      pop\n        /* \"#utility.yul\":21869:21878   */\n      dup2\n        /* \"#utility.yul\":21863:21867   */\n      dup2\n        /* \"#utility.yul\":21859:21879   */\n      sub\n        /* \"#utility.yul\":21855:21856   */\n      0x00\n        /* \"#utility.yul\":21844:21853   */\n      dup4\n        /* \"#utility.yul\":21840:21857   */\n      add\n        /* \"#utility.yul\":21833:21880   */\n      mstore\n        /* \"#utility.yul\":21897:21985   */\n      tag_418\n        /* \"#utility.yul\":21980:21984   */\n      dup2\n        /* \"#utility.yul\":21971:21977   */\n      dup6\n        /* \"#utility.yul\":21963:21969   */\n      dup8\n        /* \"#utility.yul\":21897:21985   */\n      tag_193\n      jump\t// in\n    tag_418:\n        /* \"#utility.yul\":21889:21985   */\n      swap1\n      pop\n        /* \"#utility.yul\":21995:22067   */\n      tag_419\n        /* \"#utility.yul\":22063:22065   */\n      0x20\n        /* \"#utility.yul\":22052:22061   */\n      dup4\n        /* \"#utility.yul\":22048:22066   */\n      add\n        /* \"#utility.yul\":22039:22045   */\n      dup5\n        /* \"#utility.yul\":21995:22067   */\n      tag_146\n      jump\t// in\n    tag_419:\n        /* \"#utility.yul\":21631:22074   */\n      swap5\n      swap4\n      pop\n      pop\n      pop\n      pop\n      jump\t// out\n        /* \"#utility.yul\":22080:22307   */\n    tag_194:\n        /* \"#utility.yul\":22220:22254   */\n      0x434f4e54454e54202d204c6120746172656120636f6e20657365206964206e6f\n        /* \"#utility.yul\":22216:22217   */\n      0x00\n        /* \"#utility.yul\":22208:22214   */\n      dup3\n        /* \"#utility.yul\":22204:22218   */\n      add\n        /* \"#utility.yul\":22197:22255   */\n      mstore\n        /* \"#utility.yul\":22289:22299   */\n      0x2065786973746521000000000000000000000000000000000000000000000000\n        /* \"#utility.yul\":22284:22286   */\n      0x20\n        /* \"#utility.yul\":22276:22282   */\n      dup3\n        /* \"#utility.yul\":22272:22287   */\n      add\n        /* \"#utility.yul\":22265:22300   */\n      mstore\n        /* \"#utility.yul\":22080:22307   */\n      pop\n      jump\t// out\n        /* \"#utility.yul\":22313:22679   */\n    tag_195:\n        /* \"#utility.yul\":22455:22458   */\n      0x00\n        /* \"#utility.yul\":22476:22543   */\n      tag_422\n        /* \"#utility.yul\":22540:22542   */\n      0x28\n        /* \"#utility.yul\":22535:22538   */\n      dup4\n        /* \"#utility.yul\":22476:22543   */\n      tag_158\n      jump\t// in\n    tag_422:\n        /* \"#utility.yul\":22469:22543   */\n      swap2\n      pop\n        /* \"#utility.yul\":22552:22645   */\n      tag_423\n        /* \"#utility.yul\":22641:22644   */\n      dup3\n        /* \"#utility.yul\":22552:22645   */\n      tag_194\n      jump\t// in\n    tag_423:\n        /* \"#utility.yul\":22670:22672   */\n      0x40\n        /* \"#utility.yul\":22665:22668   */\n      dup3\n        /* \"#utility.yul\":22661:22673   */\n      add\n        /* \"#utility.yul\":22654:22673   */\n      swap1\n      pop\n        /* \"#utility.yul\":22313:22679   */\n      swap2\n      swap1\n      pop\n      jump\t// out\n        /* \"#utility.yul\":22685:23104   */\n    tag_100:\n        /* \"#utility.yul\":22851:22855   */\n      0x00\n        /* \"#utility.yul\":22889:22891   */\n      0x20\n        /* \"#utility.yul\":22878:22887   */\n      dup3\n        /* \"#utility.yul\":22874:22892   */\n      add\n        /* \"#utility.yul\":22866:22892   */\n      swap1\n      pop\n        /* \"#utility.yul\":22938:22947   */\n      dup2\n        /* \"#utility.yul\":22932:22936   */\n      dup2\n        /* \"#utility.yul\":22928:22948   */\n      sub\n        /* \"#utility.yul\":22924:22925   */\n      0x00\n        /* \"#utility.yul\":22913:22922   */\n      dup4\n        /* \"#utility.yul\":22909:22926   */\n      add\n        /* \"#utility.yul\":22902:22949   */\n      mstore\n        /* \"#utility.yul\":22966:23097   */\n      tag_425\n        /* \"#utility.yul\":23092:23096   */\n      dup2\n        /* \"#utility.yul\":22966:23097   */\n      tag_195\n      jump\t// in\n    tag_425:\n        /* \"#utility.yul\":22958:23097   */\n      swap1\n      pop\n        /* \"#utility.yul\":22685:23104   */\n      swap2\n      swap1\n      pop\n      jump\t// out\n        /* \"#utility.yul\":23110:23338   */\n    tag_196:\n        /* \"#utility.yul\":23250:23284   */\n      0x434f4d504c455445202d204c6120746172656120636f6e20657365206964206e\n        /* \"#utility.yul\":23246:23247   */\n      0x00\n        /* \"#utility.yul\":23238:23244   */\n      dup3\n        /* \"#utility.yul\":23234:23248   */\n      add\n        /* \"#utility.yul\":23227:23285   */\n      mstore\n        /* \"#utility.yul\":23319:23330   */\n      0x6f20657869737465210000000000000000000000000000000000000000000000\n        /* \"#utility.yul\":23314:23316   */\n      0x20\n        /* \"#utility.yul\":23306:23312   */\n      dup3\n        /* \"#utility.yul\":23302:23317   */\n      add\n        /* \"#utility.yul\":23295:23331   */\n      mstore\n        /* \"#utility.yul\":23110:23338   */\n      pop\n      jump\t// out\n        /* \"#utility.yul\":23344:23710   */\n    tag_197:\n        /* \"#utility.yul\":23486:23489   */\n      0x00\n        /* \"#utility.yul\":23507:23574   */\n      tag_428\n        /* \"#utility.yul\":23571:23573   */\n      0x29\n        /* \"#utility.yul\":23566:23569   */\n      dup4\n        /* \"#utility.yul\":23507:23574   */\n      tag_158\n      jump\t// in\n    tag_428:\n        /* \"#utility.yul\":23500:23574   */\n      swap2\n      pop\n        /* \"#utility.yul\":23583:23676   */\n      tag_429\n        /* \"#utility.yul\":23672:23675   */\n      dup3\n        /* \"#utility.yul\":23583:23676   */\n      tag_196\n      jump\t// in\n    tag_429:\n        /* \"#utility.yul\":23701:23703   */\n      0x40\n        /* \"#utility.yul\":23696:23699   */\n      dup3\n        /* \"#utility.yul\":23692:23704   */\n      add\n        /* \"#utility.yul\":23685:23704   */\n      swap1\n      pop\n        /* \"#utility.yul\":23344:23710   */\n      swap2\n      swap1\n      pop\n      jump\t// out\n        /* \"#utility.yul\":23716:24135   */\n    tag_117:\n        /* \"#utility.yul\":23882:23886   */\n      0x00\n        /* \"#utility.yul\":23920:23922   */\n      0x20\n        /* \"#utility.yul\":23909:23918   */\n      dup3\n        /* \"#utility.yul\":23905:23923   */\n      add\n        /* \"#utility.yul\":23897:23923   */\n      swap1\n      pop\n        /* \"#utility.yul\":23969:23978   */\n      dup2\n        /* \"#utility.yul\":23963:23967   */\n      dup2\n        /* \"#utility.yul\":23959:23979   */\n      sub\n        /* \"#utility.yul\":23955:23956   */\n      0x00\n        /* \"#utility.yul\":23944:23953   */\n      dup4\n        /* \"#utility.yul\":23940:23957   */\n      add\n        /* \"#utility.yul\":23933:23980   */\n      mstore\n        /* \"#utility.yul\":23997:24128   */\n      tag_431\n        /* \"#utility.yul\":24123:24127   */\n      dup2\n        /* \"#utility.yul\":23997:24128   */\n      tag_197\n      jump\t// in\n    tag_431:\n        /* \"#utility.yul\":23989:24128   */\n      swap1\n      pop\n        /* \"#utility.yul\":23716:24135   */\n      swap2\n      swap1\n      pop\n      jump\t// out\n\n    auxdata: 0xa26469706673582212203cfd51dd65d478777b078036312b69bc7bb0423390082167940a9bae1ca71bd464736f6c634300081e0033\n}\n",
				"bytecode": {
					"linkReferences": {},
					"object": "6080604052348015600e575f5ffd5b506115058061001c5f395ff3fe608060405234801561000f575f5ffd5b5060043610610060575f3560e01c80635f944326146100645780636723856214610080578063859c91861461009c578063c17a340e146100b8578063cd8e01d1146100d6578063e1e2955814610106575b5f5ffd5b61007e6004803603810190610079919061085c565b610122565b005b61009a600480360381019061009591906108e8565b61020c565b005b6100b660048036038101906100b191906108e8565b610334565b005b6100c0610551565b6040516100cd9190610942565b60405180910390f35b6100f060048036038101906100eb919061085c565b61055c565b6040516100fd9190610a9a565b60405180910390f35b610120600480360381019061011b919061085c565b6106ae565b005b5f805490508110610168576040517f08c379a000000000000000000000000000000000000000000000000000000000815260040161015f90610b3a565b60405180910390fd5b60015f828154811061017d5761017c610b58565b5b905f5260205f2090600302016002015f6101000a81548160ff021916908360028111156101ad576101ac6109da565b5b02179055507f5ce6bcc6ee873ed340233e596fb679ecddce772775de0d7ba2b04e1601ea67ab5f82815481106101e6576101e5610b58565b5b905f5260205f20906003020142604051610201929190610d2b565b60405180910390a150565b5f604051806060016040528084848080601f0160208091040260200160405190810160405280939291908181526020018383808284375f81840152601f19601f8201169050808301925050505050505081526020014281526020015f600281111561027a576102796109da565b5b81525090505f81908060018154018082558091505060019003905f5260205f2090600302015f909190919091505f820151815f0190816102ba9190610f14565b50602082015181600101556040820151816002015f6101000a81548160ff021916908360028111156102ef576102ee6109da565b5b021790555050507f4d27bebb924c34f032ab615cd29a3e48dbf8e61aa2c7dc376fbd6ce37799264a8142604051610327929190610fe3565b60405180910390a1505050565b5f5f90505b5f80549050811080156103ba57505f818154811061035a57610359610b58565b5b905f5260205f2090600302015f01604051602001610378919061109b565b6040516020818303038152906040528051906020012083836040516020016103a19291906110e3565b6040516020818303038152906040528051906020012014155b156103d25780806103ca90611128565b915050610339565b5f805490508110610418576040517f08c379a000000000000000000000000000000000000000000000000000000000815260040161040f906111df565b60405180910390fd5b5f60015f8054905061042a91906111fd565b8154811061043b5761043a610b58565b5b905f5260205f2090600302015f828154811061045a57610459610b58565b5b905f5260205f2090600302015f8201815f0190816104789190611245565b5060018201548160010155600282015f9054906101000a900460ff16816002015f6101000a81548160ff021916908360028111156104b9576104b86109da565b5b02179055509050505f8054806104d2576104d161132a565b5b600190038181905f5260205f2090600302015f5f82015f6104f39190610798565b600182015f9055600282015f6101000a81549060ff0219169055505090557f509ab64d8f4c027165652b685b4e6e2e00a1874d0b293fc39fda798f8a6ca5a683834260405161054493929190611383565b60405180910390a1505050565b5f5f80549050905090565b6105646107d5565b5f8054905082106105aa576040517f08c379a00000000000000000000000000000000000000000000000000000000081526004016105a190611423565b60405180910390fd5b5f82815481106105bd576105bc610b58565b5b905f5260205f2090600302016040518060600160405290815f820180546105e390610bb2565b80601f016020809104026020016040519081016040528092919081815260200182805461060f90610bb2565b801561065a5780601f106106315761010080835404028352916020019161065a565b820191905f5260205f20905b81548152906001019060200180831161063d57829003601f168201915b5050505050815260200160018201548152602001600282015f9054906101000a900460ff166002811115610691576106906109da565b5b60028111156106a3576106a26109da565b5b815250509050919050565b5f8054905081106106f4576040517f08c379a00000000000000000000000000000000000000000000000000000000081526004016106eb906114b1565b60405180910390fd5b60025f828154811061070957610708610b58565b5b905f5260205f2090600302016002015f6101000a81548160ff02191690836002811115610739576107386109da565b5b02179055507f570186371de131c7706de91bba09c739ea4475573e970fa61aebcf66b4ab15a25f828154811061077257610771610b58565b5b905f5260205f2090600302014260405161078d929190610d2b565b60405180910390a150565b5080546107a490610bb2565b5f825580601f106107b557506107d2565b601f0160209004905f5260205f20908101906107d19190610806565b5b50565b6040518060600160405280606081526020015f81526020015f6002811115610800576107ff6109da565b5b81525090565b5b8082111561081d575f815f905550600101610807565b5090565b5f5ffd5b5f5ffd5b5f819050919050565b61083b81610829565b8114610845575f5ffd5b50565b5f8135905061085681610832565b92915050565b5f6020828403121561087157610870610821565b5b5f61087e84828501610848565b91505092915050565b5f5ffd5b5f5ffd5b5f5ffd5b5f5f83601f8401126108a8576108a7610887565b5b8235905067ffffffffffffffff8111156108c5576108c461088b565b5b6020830191508360018202830111156108e1576108e061088f565b5b9250929050565b5f5f602083850312156108fe576108fd610821565b5b5f83013567ffffffffffffffff81111561091b5761091a610825565b5b61092785828601610893565b92509250509250929050565b61093c81610829565b82525050565b5f6020820190506109555f830184610933565b92915050565b5f81519050919050565b5f82825260208201905092915050565b8281835e5f83830152505050565b5f601f19601f8301169050919050565b5f61099d8261095b565b6109a78185610965565b93506109b7818560208601610975565b6109c081610983565b840191505092915050565b6109d481610829565b82525050565b7f4e487b71000000000000000000000000000000000000000000000000000000005f52602160045260245ffd5b60038110610a1857610a176109da565b5b50565b5f819050610a2882610a07565b919050565b5f610a3782610a1b565b9050919050565b610a4781610a2d565b82525050565b5f606083015f8301518482035f860152610a678282610993565b9150506020830151610a7c60208601826109cb565b506040830151610a8f6040860182610a3e565b508091505092915050565b5f6020820190508181035f830152610ab28184610a4d565b905092915050565b5f82825260208201905092915050565b7f5354415254202d204c6120746172656120636f6e20657365206964206e6f20655f8201527f7869737465210000000000000000000000000000000000000000000000000000602082015250565b5f610b24602683610aba565b9150610b2f82610aca565b604082019050919050565b5f6020820190508181035f830152610b5181610b18565b9050919050565b7f4e487b71000000000000000000000000000000000000000000000000000000005f52603260045260245ffd5b7f4e487b71000000000000000000000000000000000000000000000000000000005f52602260045260245ffd5b5f6002820490506001821680610bc957607f821691505b602082108103610bdc57610bdb610b85565b5b50919050565b5f819050815f5260205f209050919050565b5f8154610c0081610bb2565b610c0a8186610965565b9450600182165f8114610c245760018114610c3a57610c6c565b60ff198316865281151560200286019350610c6c565b610c4385610be2565b5f5b83811015610c6457815481890152600182019150602081019050610c45565b808801955050505b50505092915050565b5f815f1c9050919050565b5f819050919050565b5f610c9b610c9683610c75565b610c80565b9050919050565b5f60ff82169050919050565b5f610cc0610cbb83610c75565b610ca2565b9050919050565b5f606083015f5f84018583035f870152610ce18382610bf4565b92505060018401549050610cf481610c89565b610d0160208701826109cb565b5060028401549050610d1281610cae565b610d1f6040870182610a3e565b50819250505092915050565b5f6040820190508181035f830152610d438185610cc7565b9050610d526020830184610933565b9392505050565b7f4e487b71000000000000000000000000000000000000000000000000000000005f52604160045260245ffd5b5f6020601f8301049050919050565b5f82821b905092915050565b5f60088302610dd07fffffffffffffffffffffffffffffffffffffffffffffffffffffffffffffffff82610d95565b610dda8683610d95565b95508019841693508086168417925050509392505050565b5f819050919050565b5f610e15610e10610e0b84610829565b610df2565b610829565b9050919050565b5f819050919050565b610e2e83610dfb565b610e42610e3a82610e1c565b848454610da1565b825550505050565b5f5f905090565b610e59610e4a565b610e64818484610e25565b505050565b5b81811015610e8757610e7c5f82610e51565b600181019050610e6a565b5050565b601f821115610ecc57610e9d81610be2565b610ea684610d86565b81016020851015610eb5578190505b610ec9610ec185610d86565b830182610e69565b50505b505050565b5f82821c905092915050565b5f610eec5f1984600802610ed1565b1980831691505092915050565b5f610f048383610edd565b9150826002028217905092915050565b610f1d8261095b565b67ffffffffffffffff811115610f3657610f35610d59565b5b610f408254610bb2565b610f4b828285610e8b565b5f60209050601f831160018114610f7c575f8415610f6a578287015190505b610f748582610ef9565b865550610fdb565b601f198416610f8a86610be2565b5f5b82811015610fb157848901518255600182019150602085019450602081019050610f8c565b86831015610fce5784890151610fca601f891682610edd565b8355505b6001600288020188555050505b505050505050565b5f6040820190508181035f830152610ffb8185610a4d565b905061100a6020830184610933565b9392505050565b5f81905092915050565b5f815461102781610bb2565b6110318186611011565b9450600182165f811461104b576001811461106057611092565b60ff1983168652811515820286019350611092565b61106985610be2565b5f5b8381101561108a5781548189015260018201915060208101905061106b565b838801955050505b50505092915050565b5f6110a6828461101b565b915081905092915050565b828183375f83830152505050565b5f6110ca8385611011565b93506110d78385846110b1565b82840190509392505050565b5f6110ef8284866110bf565b91508190509392505050565b7f4e487b71000000000000000000000000000000000000000000000000000000005f52601160045260245ffd5b5f61113282610829565b91507fffffffffffffffffffffffffffffffffffffffffffffffffffffffffffffffff8203611164576111636110fb565b5b600182019050919050565b7f44454c455445202d204c6120746172656120636f6e2065736520636f6e74656e5f8201527f69646f206e6f2065786973746521000000000000000000000000000000000000602082015250565b5f6111c9602e83610aba565b91506111d48261116f565b604082019050919050565b5f6020820190508181035f8301526111f6816111bd565b9050919050565b5f61120782610829565b915061121283610829565b925082820390508181111561122a576112296110fb565b5b92915050565b5f8154905061123e81610bb2565b9050919050565b818103611253575050611328565b61125c82611230565b67ffffffffffffffff81111561127557611274610d59565b5b61127f8254610bb2565b61128a828285610e8b565b5f601f8311600181146112b7575f84156112a5578287015490505b6112af8582610ef9565b865550611321565b601f1984166112c587610be2565b96506112d086610be2565b5f5b828110156112f7578489015482556001820191506001850194506020810190506112d2565b868310156113145784890154611310601f891682610edd565b8355505b6001600288020188555050505b5050505050505b565b7f4e487b71000000000000000000000000000000000000000000000000000000005f52603160045260245ffd5b5f6113628385610aba565b935061136f8385846110b1565b61137883610983565b840190509392505050565b5f6040820190508181035f83015261139c818587611357565b90506113ab6020830184610933565b949350505050565b7f434f4e54454e54202d204c6120746172656120636f6e20657365206964206e6f5f8201527f2065786973746521000000000000000000000000000000000000000000000000602082015250565b5f61140d602883610aba565b9150611418826113b3565b604082019050919050565b5f6020820190508181035f83015261143a81611401565b9050919050565b7f434f4d504c455445202d204c6120746172656120636f6e20657365206964206e5f8201527f6f20657869737465210000000000000000000000000000000000000000000000602082015250565b5f61149b602983610aba565b91506114a682611441565b604082019050919050565b5f6020820190508181035f8301526114c88161148f565b905091905056fea26469706673582212203cfd51dd65d478777b078036312b69bc7bb0423390082167940a9bae1ca71bd464736f6c634300081e0033",
					"opcodes": "PUSH1 0x80 PUSH1 0x40 MSTORE CALLVALUE DUP1 ISZERO PUSH1 0xE JUMPI PUSH0 PUSH0 REVERT JUMPDEST POP PUSH2 0x1505 DUP1 PUSH2 0x1C PUSH0 CODECOPY PUSH0 RETURN INVALID PUSH1 0x80 PUSH1 0x40 MSTORE CALLVALUE DUP1 ISZERO PUSH2 0xF JUMPI PUSH0 PUSH0 REVERT JUMPDEST POP PUSH1 0x4 CALLDATASIZE LT PUSH2 0x60 JUMPI PUSH0 CALLDATALOAD PUSH1 0xE0 SHR DUP1 PUSH4 0x5F944326 EQ PUSH2 0x64 JUMPI DUP1 PUSH4 0x67238562 EQ PUSH2 0x80 JUMPI DUP1 PUSH4 0x859C9186 EQ PUSH2 0x9C JUMPI DUP1 PUSH4 0xC17A340E EQ PUSH2 0xB8 JUMPI DUP1 PUSH4 0xCD8E01D1 EQ PUSH2 0xD6 JUMPI DUP1 PUSH4 0xE1E29558 EQ PUSH2 0x106 JUMPI JUMPDEST PUSH0 PUSH0 REVERT JUMPDEST PUSH2 0x7E PUSH1 0x4 DUP1 CALLDATASIZE SUB DUP2 ADD SWAP1 PUSH2 0x79 SWAP2 SWAP1 PUSH2 0x85C JUMP JUMPDEST PUSH2 0x122 JUMP JUMPDEST STOP JUMPDEST PUSH2 0x9A PUSH1 0x4 DUP1 CALLDATASIZE SUB DUP2 ADD SWAP1 PUSH2 0x95 SWAP2 SWAP1 PUSH2 0x8E8 JUMP JUMPDEST PUSH2 0x20C JUMP JUMPDEST STOP JUMPDEST PUSH2 0xB6 PUSH1 0x4 DUP1 CALLDATASIZE SUB DUP2 ADD SWAP1 PUSH2 0xB1 SWAP2 SWAP1 PUSH2 0x8E8 JUMP JUMPDEST PUSH2 0x334 JUMP JUMPDEST STOP JUMPDEST PUSH2 0xC0 PUSH2 0x551 JUMP JUMPDEST PUSH1 0x40 MLOAD PUSH2 0xCD SWAP2 SWAP1 PUSH2 0x942 JUMP JUMPDEST PUSH1 0x40 MLOAD DUP1 SWAP2 SUB SWAP1 RETURN JUMPDEST PUSH2 0xF0 PUSH1 0x4 DUP1 CALLDATASIZE SUB DUP2 ADD SWAP1 PUSH2 0xEB SWAP2 SWAP1 PUSH2 0x85C JUMP JUMPDEST PUSH2 0x55C JUMP JUMPDEST PUSH1 0x40 MLOAD PUSH2 0xFD SWAP2 SWAP1 PUSH2 0xA9A JUMP JUMPDEST PUSH1 0x40 MLOAD DUP1 SWAP2 SUB SWAP1 RETURN JUMPDEST PUSH2 0x120 PUSH1 0x4 DUP1 CALLDATASIZE SUB DUP2 ADD SWAP1 PUSH2 0x11B SWAP2 SWAP1 PUSH2 0x85C JUMP JUMPDEST PUSH2 0x6AE JUMP JUMPDEST STOP JUMPDEST PUSH0 DUP1 SLOAD SWAP1 POP DUP2 LT PUSH2 0x168 JUMPI PUSH1 0x40 MLOAD PUSH32 0x8C379A000000000000000000000000000000000000000000000000000000000 DUP2 MSTORE PUSH1 0x4 ADD PUSH2 0x15F SWAP1 PUSH2 0xB3A JUMP JUMPDEST PUSH1 0x40 MLOAD DUP1 SWAP2 SUB SWAP1 REVERT JUMPDEST PUSH1 0x1 PUSH0 DUP3 DUP2 SLOAD DUP2 LT PUSH2 0x17D JUMPI PUSH2 0x17C PUSH2 0xB58 JUMP JUMPDEST JUMPDEST SWAP1 PUSH0 MSTORE PUSH1 0x20 PUSH0 KECCAK256 SWAP1 PUSH1 0x3 MUL ADD PUSH1 0x2 ADD PUSH0 PUSH2 0x100 EXP DUP2 SLOAD DUP2 PUSH1 0xFF MUL NOT AND SWAP1 DUP4 PUSH1 0x2 DUP2 GT ISZERO PUSH2 0x1AD JUMPI PUSH2 0x1AC PUSH2 0x9DA JUMP JUMPDEST JUMPDEST MUL OR SWAP1 SSTORE POP PUSH32 0x5CE6BCC6EE873ED340233E596FB679ECDDCE772775DE0D7BA2B04E1601EA67AB PUSH0 DUP3 DUP2 SLOAD DUP2 LT PUSH2 0x1E6 JUMPI PUSH2 0x1E5 PUSH2 0xB58 JUMP JUMPDEST JUMPDEST SWAP1 PUSH0 MSTORE PUSH1 0x20 PUSH0 KECCAK256 SWAP1 PUSH1 0x3 MUL ADD TIMESTAMP PUSH1 0x40 MLOAD PUSH2 0x201 SWAP3 SWAP2 SWAP1 PUSH2 0xD2B JUMP JUMPDEST PUSH1 0x40 MLOAD DUP1 SWAP2 SUB SWAP1 LOG1 POP JUMP JUMPDEST PUSH0 PUSH1 0x40 MLOAD DUP1 PUSH1 0x60 ADD PUSH1 0x40 MSTORE DUP1 DUP5 DUP5 DUP1 DUP1 PUSH1 0x1F ADD PUSH1 0x20 DUP1 SWAP2 DIV MUL PUSH1 0x20 ADD PUSH1 0x40 MLOAD SWAP1 DUP2 ADD PUSH1 0x40 MSTORE DUP1 SWAP4 SWAP3 SWAP2 SWAP1 DUP2 DUP2 MSTORE PUSH1 0x20 ADD DUP4 DUP4 DUP1 DUP3 DUP5 CALLDATACOPY PUSH0 DUP2 DUP5 ADD MSTORE PUSH1 0x1F NOT PUSH1 0x1F DUP3 ADD AND SWAP1 POP DUP1 DUP4 ADD SWAP3 POP POP POP POP POP POP POP DUP2 MSTORE PUSH1 0x20 ADD TIMESTAMP DUP2 MSTORE PUSH1 0x20 ADD PUSH0 PUSH1 0x2 DUP2 GT ISZERO PUSH2 0x27A JUMPI PUSH2 0x279 PUSH2 0x9DA JUMP JUMPDEST JUMPDEST DUP2 MSTORE POP SWAP1 POP PUSH0 DUP2 SWAP1 DUP1 PUSH1 0x1 DUP2 SLOAD ADD DUP1 DUP3 SSTORE DUP1 SWAP2 POP POP PUSH1 0x1 SWAP1 SUB SWAP1 PUSH0 MSTORE PUSH1 0x20 PUSH0 KECCAK256 SWAP1 PUSH1 0x3 MUL ADD PUSH0 SWAP1 SWAP2 SWAP1 SWAP2 SWAP1 SWAP2 POP PUSH0 DUP3 ADD MLOAD DUP2 PUSH0 ADD SWAP1 DUP2 PUSH2 0x2BA SWAP2 SWAP1 PUSH2 0xF14 JUMP JUMPDEST POP PUSH1 0x20 DUP3 ADD MLOAD DUP2 PUSH1 0x1 ADD SSTORE PUSH1 0x40 DUP3 ADD MLOAD DUP2 PUSH1 0x2 ADD PUSH0 PUSH2 0x100 EXP DUP2 SLOAD DUP2 PUSH1 0xFF MUL NOT AND SWAP1 DUP4 PUSH1 0x2 DUP2 GT ISZERO PUSH2 0x2EF JUMPI PUSH2 0x2EE PUSH2 0x9DA JUMP JUMPDEST JUMPDEST MUL OR SWAP1 SSTORE POP POP POP PUSH32 0x4D27BEBB924C34F032AB615CD29A3E48DBF8E61AA2C7DC376FBD6CE37799264A DUP2 TIMESTAMP PUSH1 0x40 MLOAD PUSH2 0x327 SWAP3 SWAP2 SWAP1 PUSH2 0xFE3 JUMP JUMPDEST PUSH1 0x40 MLOAD DUP1 SWAP2 SUB SWAP1 LOG1 POP POP POP JUMP JUMPDEST PUSH0 PUSH0 SWAP1 POP JUMPDEST PUSH0 DUP1 SLOAD SWAP1 POP DUP2 LT DUP1 ISZERO PUSH2 0x3BA JUMPI POP PUSH0 DUP2 DUP2 SLOAD DUP2 LT PUSH2 0x35A JUMPI PUSH2 0x359 PUSH2 0xB58 JUMP JUMPDEST JUMPDEST SWAP1 PUSH0 MSTORE PUSH1 0x20 PUSH0 KECCAK256 SWAP1 PUSH1 0x3 MUL ADD PUSH0 ADD PUSH1 0x40 MLOAD PUSH1 0x20 ADD PUSH2 0x378 SWAP2 SWAP1 PUSH2 0x109B JUMP JUMPDEST PUSH1 0x40 MLOAD PUSH1 0x20 DUP2 DUP4 SUB SUB DUP2 MSTORE SWAP1 PUSH1 0x40 MSTORE DUP1 MLOAD SWAP1 PUSH1 0x20 ADD KECCAK256 DUP4 DUP4 PUSH1 0x40 MLOAD PUSH1 0x20 ADD PUSH2 0x3A1 SWAP3 SWAP2 SWAP1 PUSH2 0x10E3 JUMP JUMPDEST PUSH1 0x40 MLOAD PUSH1 0x20 DUP2 DUP4 SUB SUB DUP2 MSTORE SWAP1 PUSH1 0x40 MSTORE DUP1 MLOAD SWAP1 PUSH1 0x20 ADD KECCAK256 EQ ISZERO JUMPDEST ISZERO PUSH2 0x3D2 JUMPI DUP1 DUP1 PUSH2 0x3CA SWAP1 PUSH2 0x1128 JUMP JUMPDEST SWAP2 POP POP PUSH2 0x339 JUMP JUMPDEST PUSH0 DUP1 SLOAD SWAP1 POP DUP2 LT PUSH2 0x418 JUMPI PUSH1 0x40 MLOAD PUSH32 0x8C379A000000000000000000000000000000000000000000000000000000000 DUP2 MSTORE PUSH1 0x4 ADD PUSH2 0x40F SWAP1 PUSH2 0x11DF JUMP JUMPDEST PUSH1 0x40 MLOAD DUP1 SWAP2 SUB SWAP1 REVERT JUMPDEST PUSH0 PUSH1 0x1 PUSH0 DUP1 SLOAD SWAP1 POP PUSH2 0x42A SWAP2 SWAP1 PUSH2 0x11FD JUMP JUMPDEST DUP2 SLOAD DUP2 LT PUSH2 0x43B JUMPI PUSH2 0x43A PUSH2 0xB58 JUMP JUMPDEST JUMPDEST SWAP1 PUSH0 MSTORE PUSH1 0x20 PUSH0 KECCAK256 SWAP1 PUSH1 0x3 MUL ADD PUSH0 DUP3 DUP2 SLOAD DUP2 LT PUSH2 0x45A JUMPI PUSH2 0x459 PUSH2 0xB58 JUMP JUMPDEST JUMPDEST SWAP1 PUSH0 MSTORE PUSH1 0x20 PUSH0 KECCAK256 SWAP1 PUSH1 0x3 MUL ADD PUSH0 DUP3 ADD DUP2 PUSH0 ADD SWAP1 DUP2 PUSH2 0x478 SWAP2 SWAP1 PUSH2 0x1245 JUMP JUMPDEST POP PUSH1 0x1 DUP3 ADD SLOAD DUP2 PUSH1 0x1 ADD SSTORE PUSH1 0x2 DUP3 ADD PUSH0 SWAP1 SLOAD SWAP1 PUSH2 0x100 EXP SWAP1 DIV PUSH1 0xFF AND DUP2 PUSH1 0x2 ADD PUSH0 PUSH2 0x100 EXP DUP2 SLOAD DUP2 PUSH1 0xFF MUL NOT AND SWAP1 DUP4 PUSH1 0x2 DUP2 GT ISZERO PUSH2 0x4B9 JUMPI PUSH2 0x4B8 PUSH2 0x9DA JUMP JUMPDEST JUMPDEST MUL OR SWAP1 SSTORE POP SWAP1 POP POP PUSH0 DUP1 SLOAD DUP1 PUSH2 0x4D2 JUMPI PUSH2 0x4D1 PUSH2 0x132A JUMP JUMPDEST JUMPDEST PUSH1 0x1 SWAP1 SUB DUP2 DUP2 SWAP1 PUSH0 MSTORE PUSH1 0x20 PUSH0 KECCAK256 SWAP1 PUSH1 0x3 MUL ADD PUSH0 PUSH0 DUP3 ADD PUSH0 PUSH2 0x4F3 SWAP2 SWAP1 PUSH2 0x798 JUMP JUMPDEST PUSH1 0x1 DUP3 ADD PUSH0 SWAP1 SSTORE PUSH1 0x2 DUP3 ADD PUSH0 PUSH2 0x100 EXP DUP2 SLOAD SWAP1 PUSH1 0xFF MUL NOT AND SWAP1 SSTORE POP POP SWAP1 SSTORE PUSH32 0x509AB64D8F4C027165652B685B4E6E2E00A1874D0B293FC39FDA798F8A6CA5A6 DUP4 DUP4 TIMESTAMP PUSH1 0x40 MLOAD PUSH2 0x544 SWAP4 SWAP3 SWAP2 SWAP1 PUSH2 0x1383 JUMP JUMPDEST PUSH1 0x40 MLOAD DUP1 SWAP2 SUB SWAP1 LOG1 POP POP POP JUMP JUMPDEST PUSH0 PUSH0 DUP1 SLOAD SWAP1 POP SWAP1 POP SWAP1 JUMP JUMPDEST PUSH2 0x564 PUSH2 0x7D5 JUMP JUMPDEST PUSH0 DUP1 SLOAD SWAP1 POP DUP3 LT PUSH2 0x5AA JUMPI PUSH1 0x40 MLOAD PUSH32 0x8C379A000000000000000000000000000000000000000000000000000000000 DUP2 MSTORE PUSH1 0x4 ADD PUSH2 0x5A1 SWAP1 PUSH2 0x1423 JUMP JUMPDEST PUSH1 0x40 MLOAD DUP1 SWAP2 SUB SWAP1 REVERT JUMPDEST PUSH0 DUP3 DUP2 SLOAD DUP2 LT PUSH2 0x5BD JUMPI PUSH2 0x5BC PUSH2 0xB58 JUMP JUMPDEST JUMPDEST SWAP1 PUSH0 MSTORE PUSH1 0x20 PUSH0 KECCAK256 SWAP1 PUSH1 0x3 MUL ADD PUSH1 0x40 MLOAD DUP1 PUSH1 0x60 ADD PUSH1 0x40 MSTORE SWAP1 DUP2 PUSH0 DUP3 ADD DUP1 SLOAD PUSH2 0x5E3 SWAP1 PUSH2 0xBB2 JUMP JUMPDEST DUP1 PUSH1 0x1F ADD PUSH1 0x20 DUP1 SWAP2 DIV MUL PUSH1 0x20 ADD PUSH1 0x40 MLOAD SWAP1 DUP2 ADD PUSH1 0x40 MSTORE DUP1 SWAP3 SWAP2 SWAP1 DUP2 DUP2 MSTORE PUSH1 0x20 ADD DUP3 DUP1 SLOAD PUSH2 0x60F SWAP1 PUSH2 0xBB2 JUMP JUMPDEST DUP1 ISZERO PUSH2 0x65A JUMPI DUP1 PUSH1 0x1F LT PUSH2 0x631 JUMPI PUSH2 0x100 DUP1 DUP4 SLOAD DIV MUL DUP4 MSTORE SWAP2 PUSH1 0x20 ADD SWAP2 PUSH2 0x65A JUMP JUMPDEST DUP3 ADD SWAP2 SWAP1 PUSH0 MSTORE PUSH1 0x20 PUSH0 KECCAK256 SWAP1 JUMPDEST DUP2 SLOAD DUP2 MSTORE SWAP1 PUSH1 0x1 ADD SWAP1 PUSH1 0x20 ADD DUP1 DUP4 GT PUSH2 0x63D JUMPI DUP3 SWAP1 SUB PUSH1 0x1F AND DUP3 ADD SWAP2 JUMPDEST POP POP POP POP POP DUP2 MSTORE PUSH1 0x20 ADD PUSH1 0x1 DUP3 ADD SLOAD DUP2 MSTORE PUSH1 0x20 ADD PUSH1 0x2 DUP3 ADD PUSH0 SWAP1 SLOAD SWAP1 PUSH2 0x100 EXP SWAP1 DIV PUSH1 0xFF AND PUSH1 0x2 DUP2 GT ISZERO PUSH2 0x691 JUMPI PUSH2 0x690 PUSH2 0x9DA JUMP JUMPDEST JUMPDEST PUSH1 0x2 DUP2 GT ISZERO PUSH2 0x6A3 JUMPI PUSH2 0x6A2 PUSH2 0x9DA JUMP JUMPDEST JUMPDEST DUP2 MSTORE POP POP SWAP1 POP SWAP2 SWAP1 POP JUMP JUMPDEST PUSH0 DUP1 SLOAD SWAP1 POP DUP2 LT PUSH2 0x6F4 JUMPI PUSH1 0x40 MLOAD PUSH32 0x8C379A000000000000000000000000000000000000000000000000000000000 DUP2 MSTORE PUSH1 0x4 ADD PUSH2 0x6EB SWAP1 PUSH2 0x14B1 JUMP JUMPDEST PUSH1 0x40 MLOAD DUP1 SWAP2 SUB SWAP1 REVERT JUMPDEST PUSH1 0x2 PUSH0 DUP3 DUP2 SLOAD DUP2 LT PUSH2 0x709 JUMPI PUSH2 0x708 PUSH2 0xB58 JUMP JUMPDEST JUMPDEST SWAP1 PUSH0 MSTORE PUSH1 0x20 PUSH0 KECCAK256 SWAP1 PUSH1 0x3 MUL ADD PUSH1 0x2 ADD PUSH0 PUSH2 0x100 EXP DUP2 SLOAD DUP2 PUSH1 0xFF MUL NOT AND SWAP1 DUP4 PUSH1 0x2 DUP2 GT ISZERO PUSH2 0x739 JUMPI PUSH2 0x738 PUSH2 0x9DA JUMP JUMPDEST JUMPDEST MUL OR SWAP1 SSTORE POP PUSH32 0x570186371DE131C7706DE91BBA09C739EA4475573E970FA61AEBCF66B4AB15A2 PUSH0 DUP3 DUP2 SLOAD DUP2 LT PUSH2 0x772 JUMPI PUSH2 0x771 PUSH2 0xB58 JUMP JUMPDEST JUMPDEST SWAP1 PUSH0 MSTORE PUSH1 0x20 PUSH0 KECCAK256 SWAP1 PUSH1 0x3 MUL ADD TIMESTAMP PUSH1 0x40 MLOAD PUSH2 0x78D SWAP3 SWAP2 SWAP1 PUSH2 0xD2B JUMP JUMPDEST PUSH1 0x40 MLOAD DUP1 SWAP2 SUB SWAP1 LOG1 POP JUMP JUMPDEST POP DUP1 SLOAD PUSH2 0x7A4 SWAP1 PUSH2 0xBB2 JUMP JUMPDEST PUSH0 DUP3 SSTORE DUP1 PUSH1 0x1F LT PUSH2 0x7B5 JUMPI POP PUSH2 0x7D2 JUMP JUMPDEST PUSH1 0x1F ADD PUSH1 0x20 SWAP1 DIV SWAP1 PUSH0 MSTORE PUSH1 0x20 PUSH0 KECCAK256 SWAP1 DUP2 ADD SWAP1 PUSH2 0x7D1 SWAP2 SWAP1 PUSH2 0x806 JUMP JUMPDEST JUMPDEST POP JUMP JUMPDEST PUSH1 0x40 MLOAD DUP1 PUSH1 0x60 ADD PUSH1 0x40 MSTORE DUP1 PUSH1 0x60 DUP2 MSTORE PUSH1 0x20 ADD PUSH0 DUP2 MSTORE PUSH1 0x20 ADD PUSH0 PUSH1 0x2 DUP2 GT ISZERO PUSH2 0x800 JUMPI PUSH2 0x7FF PUSH2 0x9DA JUMP JUMPDEST JUMPDEST DUP2 MSTORE POP SWAP1 JUMP JUMPDEST JUMPDEST DUP1 DUP3 GT ISZERO PUSH2 0x81D JUMPI PUSH0 DUP2 PUSH0 SWAP1 SSTORE POP PUSH1 0x1 ADD PUSH2 0x807 JUMP JUMPDEST POP SWAP1 JUMP JUMPDEST PUSH0 PUSH0 REVERT JUMPDEST PUSH0 PUSH0 REVERT JUMPDEST PUSH0 DUP2 SWAP1 POP SWAP2 SWAP1 POP JUMP JUMPDEST PUSH2 0x83B DUP2 PUSH2 0x829 JUMP JUMPDEST DUP2 EQ PUSH2 0x845 JUMPI PUSH0 PUSH0 REVERT JUMPDEST POP JUMP JUMPDEST PUSH0 DUP2 CALLDATALOAD SWAP1 POP PUSH2 0x856 DUP2 PUSH2 0x832 JUMP JUMPDEST SWAP3 SWAP2 POP POP JUMP JUMPDEST PUSH0 PUSH1 0x20 DUP3 DUP5 SUB SLT ISZERO PUSH2 0x871 JUMPI PUSH2 0x870 PUSH2 0x821 JUMP JUMPDEST JUMPDEST PUSH0 PUSH2 0x87E DUP5 DUP3 DUP6 ADD PUSH2 0x848 JUMP JUMPDEST SWAP2 POP POP SWAP3 SWAP2 POP POP JUMP JUMPDEST PUSH0 PUSH0 REVERT JUMPDEST PUSH0 PUSH0 REVERT JUMPDEST PUSH0 PUSH0 REVERT JUMPDEST PUSH0 PUSH0 DUP4 PUSH1 0x1F DUP5 ADD SLT PUSH2 0x8A8 JUMPI PUSH2 0x8A7 PUSH2 0x887 JUMP JUMPDEST JUMPDEST DUP3 CALLDATALOAD SWAP1 POP PUSH8 0xFFFFFFFFFFFFFFFF DUP2 GT ISZERO PUSH2 0x8C5 JUMPI PUSH2 0x8C4 PUSH2 0x88B JUMP JUMPDEST JUMPDEST PUSH1 0x20 DUP4 ADD SWAP2 POP DUP4 PUSH1 0x1 DUP3 MUL DUP4 ADD GT ISZERO PUSH2 0x8E1 JUMPI PUSH2 0x8E0 PUSH2 0x88F JUMP JUMPDEST JUMPDEST SWAP3 POP SWAP3 SWAP1 POP JUMP JUMPDEST PUSH0 PUSH0 PUSH1 0x20 DUP4 DUP6 SUB SLT ISZERO PUSH2 0x8FE JUMPI PUSH2 0x8FD PUSH2 0x821 JUMP JUMPDEST JUMPDEST PUSH0 DUP4 ADD CALLDATALOAD PUSH8 0xFFFFFFFFFFFFFFFF DUP2 GT ISZERO PUSH2 0x91B JUMPI PUSH2 0x91A PUSH2 0x825 JUMP JUMPDEST JUMPDEST PUSH2 0x927 DUP6 DUP3 DUP7 ADD PUSH2 0x893 JUMP JUMPDEST SWAP3 POP SWAP3 POP POP SWAP3 POP SWAP3 SWAP1 POP JUMP JUMPDEST PUSH2 0x93C DUP2 PUSH2 0x829 JUMP JUMPDEST DUP3 MSTORE POP POP JUMP JUMPDEST PUSH0 PUSH1 0x20 DUP3 ADD SWAP1 POP PUSH2 0x955 PUSH0 DUP4 ADD DUP5 PUSH2 0x933 JUMP JUMPDEST SWAP3 SWAP2 POP POP JUMP JUMPDEST PUSH0 DUP2 MLOAD SWAP1 POP SWAP2 SWAP1 POP JUMP JUMPDEST PUSH0 DUP3 DUP3 MSTORE PUSH1 0x20 DUP3 ADD SWAP1 POP SWAP3 SWAP2 POP POP JUMP JUMPDEST DUP3 DUP2 DUP4 MCOPY PUSH0 DUP4 DUP4 ADD MSTORE POP POP POP JUMP JUMPDEST PUSH0 PUSH1 0x1F NOT PUSH1 0x1F DUP4 ADD AND SWAP1 POP SWAP2 SWAP1 POP JUMP JUMPDEST PUSH0 PUSH2 0x99D DUP3 PUSH2 0x95B JUMP JUMPDEST PUSH2 0x9A7 DUP2 DUP6 PUSH2 0x965 JUMP JUMPDEST SWAP4 POP PUSH2 0x9B7 DUP2 DUP6 PUSH1 0x20 DUP7 ADD PUSH2 0x975 JUMP JUMPDEST PUSH2 0x9C0 DUP2 PUSH2 0x983 JUMP JUMPDEST DUP5 ADD SWAP2 POP POP SWAP3 SWAP2 POP POP JUMP JUMPDEST PUSH2 0x9D4 DUP2 PUSH2 0x829 JUMP JUMPDEST DUP3 MSTORE POP POP JUMP JUMPDEST PUSH32 0x4E487B7100000000000000000000000000000000000000000000000000000000 PUSH0 MSTORE PUSH1 0x21 PUSH1 0x4 MSTORE PUSH1 0x24 PUSH0 REVERT JUMPDEST PUSH1 0x3 DUP2 LT PUSH2 0xA18 JUMPI PUSH2 0xA17 PUSH2 0x9DA JUMP JUMPDEST JUMPDEST POP JUMP JUMPDEST PUSH0 DUP2 SWAP1 POP PUSH2 0xA28 DUP3 PUSH2 0xA07 JUMP JUMPDEST SWAP2 SWAP1 POP JUMP JUMPDEST PUSH0 PUSH2 0xA37 DUP3 PUSH2 0xA1B JUMP JUMPDEST SWAP1 POP SWAP2 SWAP1 POP JUMP JUMPDEST PUSH2 0xA47 DUP2 PUSH2 0xA2D JUMP JUMPDEST DUP3 MSTORE POP POP JUMP JUMPDEST PUSH0 PUSH1 0x60 DUP4 ADD PUSH0 DUP4 ADD MLOAD DUP5 DUP3 SUB PUSH0 DUP7 ADD MSTORE PUSH2 0xA67 DUP3 DUP3 PUSH2 0x993 JUMP JUMPDEST SWAP2 POP POP PUSH1 0x20 DUP4 ADD MLOAD PUSH2 0xA7C PUSH1 0x20 DUP7 ADD DUP3 PUSH2 0x9CB JUMP JUMPDEST POP PUSH1 0x40 DUP4 ADD MLOAD PUSH2 0xA8F PUSH1 0x40 DUP7 ADD DUP3 PUSH2 0xA3E JUMP JUMPDEST POP DUP1 SWAP2 POP POP SWAP3 SWAP2 POP POP JUMP JUMPDEST PUSH0 PUSH1 0x20 DUP3 ADD SWAP1 POP DUP2 DUP2 SUB PUSH0 DUP4 ADD MSTORE PUSH2 0xAB2 DUP2 DUP5 PUSH2 0xA4D JUMP JUMPDEST SWAP1 POP SWAP3 SWAP2 POP POP JUMP JUMPDEST PUSH0 DUP3 DUP3 MSTORE PUSH1 0x20 DUP3 ADD SWAP1 POP SWAP3 SWAP2 POP POP JUMP JUMPDEST PUSH32 0x5354415254202D204C6120746172656120636F6E20657365206964206E6F2065 PUSH0 DUP3 ADD MSTORE PUSH32 0x7869737465210000000000000000000000000000000000000000000000000000 PUSH1 0x20 DUP3 ADD MSTORE POP JUMP JUMPDEST PUSH0 PUSH2 0xB24 PUSH1 0x26 DUP4 PUSH2 0xABA JUMP JUMPDEST SWAP2 POP PUSH2 0xB2F DUP3 PUSH2 0xACA JUMP JUMPDEST PUSH1 0x40 DUP3 ADD SWAP1 POP SWAP2 SWAP1 POP JUMP JUMPDEST PUSH0 PUSH1 0x20 DUP3 ADD SWAP1 POP DUP2 DUP2 SUB PUSH0 DUP4 ADD MSTORE PUSH2 0xB51 DUP2 PUSH2 0xB18 JUMP JUMPDEST SWAP1 POP SWAP2 SWAP1 POP JUMP JUMPDEST PUSH32 0x4E487B7100000000000000000000000000000000000000000000000000000000 PUSH0 MSTORE PUSH1 0x32 PUSH1 0x4 MSTORE PUSH1 0x24 PUSH0 REVERT JUMPDEST PUSH32 0x4E487B7100000000000000000000000000000000000000000000000000000000 PUSH0 MSTORE PUSH1 0x22 PUSH1 0x4 MSTORE PUSH1 0x24 PUSH0 REVERT JUMPDEST PUSH0 PUSH1 0x2 DUP3 DIV SWAP1 POP PUSH1 0x1 DUP3 AND DUP1 PUSH2 0xBC9 JUMPI PUSH1 0x7F DUP3 AND SWAP2 POP JUMPDEST PUSH1 0x20 DUP3 LT DUP2 SUB PUSH2 0xBDC JUMPI PUSH2 0xBDB PUSH2 0xB85 JUMP JUMPDEST JUMPDEST POP SWAP2 SWAP1 POP JUMP JUMPDEST PUSH0 DUP2 SWAP1 POP DUP2 PUSH0 MSTORE PUSH1 0x20 PUSH0 KECCAK256 SWAP1 POP SWAP2 SWAP1 POP JUMP JUMPDEST PUSH0 DUP2 SLOAD PUSH2 0xC00 DUP2 PUSH2 0xBB2 JUMP JUMPDEST PUSH2 0xC0A DUP2 DUP7 PUSH2 0x965 JUMP JUMPDEST SWAP5 POP PUSH1 0x1 DUP3 AND PUSH0 DUP2 EQ PUSH2 0xC24 JUMPI PUSH1 0x1 DUP2 EQ PUSH2 0xC3A JUMPI PUSH2 0xC6C JUMP JUMPDEST PUSH1 0xFF NOT DUP4 AND DUP7 MSTORE DUP2 ISZERO ISZERO PUSH1 0x20 MUL DUP7 ADD SWAP4 POP PUSH2 0xC6C JUMP JUMPDEST PUSH2 0xC43 DUP6 PUSH2 0xBE2 JUMP JUMPDEST PUSH0 JUMPDEST DUP4 DUP2 LT ISZERO PUSH2 0xC64 JUMPI DUP2 SLOAD DUP2 DUP10 ADD MSTORE PUSH1 0x1 DUP3 ADD SWAP2 POP PUSH1 0x20 DUP2 ADD SWAP1 POP PUSH2 0xC45 JUMP JUMPDEST DUP1 DUP9 ADD SWAP6 POP POP POP JUMPDEST POP POP POP SWAP3 SWAP2 POP POP JUMP JUMPDEST PUSH0 DUP2 PUSH0 SHR SWAP1 POP SWAP2 SWAP1 POP JUMP JUMPDEST PUSH0 DUP2 SWAP1 POP SWAP2 SWAP1 POP JUMP JUMPDEST PUSH0 PUSH2 0xC9B PUSH2 0xC96 DUP4 PUSH2 0xC75 JUMP JUMPDEST PUSH2 0xC80 JUMP JUMPDEST SWAP1 POP SWAP2 SWAP1 POP JUMP JUMPDEST PUSH0 PUSH1 0xFF DUP3 AND SWAP1 POP SWAP2 SWAP1 POP JUMP JUMPDEST PUSH0 PUSH2 0xCC0 PUSH2 0xCBB DUP4 PUSH2 0xC75 JUMP JUMPDEST PUSH2 0xCA2 JUMP JUMPDEST SWAP1 POP SWAP2 SWAP1 POP JUMP JUMPDEST PUSH0 PUSH1 0x60 DUP4 ADD PUSH0 PUSH0 DUP5 ADD DUP6 DUP4 SUB PUSH0 DUP8 ADD MSTORE PUSH2 0xCE1 DUP4 DUP3 PUSH2 0xBF4 JUMP JUMPDEST SWAP3 POP POP PUSH1 0x1 DUP5 ADD SLOAD SWAP1 POP PUSH2 0xCF4 DUP2 PUSH2 0xC89 JUMP JUMPDEST PUSH2 0xD01 PUSH1 0x20 DUP8 ADD DUP3 PUSH2 0x9CB JUMP JUMPDEST POP PUSH1 0x2 DUP5 ADD SLOAD SWAP1 POP PUSH2 0xD12 DUP2 PUSH2 0xCAE JUMP JUMPDEST PUSH2 0xD1F PUSH1 0x40 DUP8 ADD DUP3 PUSH2 0xA3E JUMP JUMPDEST POP DUP2 SWAP3 POP POP POP SWAP3 SWAP2 POP POP JUMP JUMPDEST PUSH0 PUSH1 0x40 DUP3 ADD SWAP1 POP DUP2 DUP2 SUB PUSH0 DUP4 ADD MSTORE PUSH2 0xD43 DUP2 DUP6 PUSH2 0xCC7 JUMP JUMPDEST SWAP1 POP PUSH2 0xD52 PUSH1 0x20 DUP4 ADD DUP5 PUSH2 0x933 JUMP JUMPDEST SWAP4 SWAP3 POP POP POP JUMP JUMPDEST PUSH32 0x4E487B7100000000000000000000000000000000000000000000000000000000 PUSH0 MSTORE PUSH1 0x41 PUSH1 0x4 MSTORE PUSH1 0x24 PUSH0 REVERT JUMPDEST PUSH0 PUSH1 0x20 PUSH1 0x1F DUP4 ADD DIV SWAP1 POP SWAP2 SWAP1 POP JUMP JUMPDEST PUSH0 DUP3 DUP3 SHL SWAP1 POP SWAP3 SWAP2 POP POP JUMP JUMPDEST PUSH0 PUSH1 0x8 DUP4 MUL PUSH2 0xDD0 PUSH32 0xFFFFFFFFFFFFFFFFFFFFFFFFFFFFFFFFFFFFFFFFFFFFFFFFFFFFFFFFFFFFFFFF DUP3 PUSH2 0xD95 JUMP JUMPDEST PUSH2 0xDDA DUP7 DUP4 PUSH2 0xD95 JUMP JUMPDEST SWAP6 POP DUP1 NOT DUP5 AND SWAP4 POP DUP1 DUP7 AND DUP5 OR SWAP3 POP POP POP SWAP4 SWAP3 POP POP POP JUMP JUMPDEST PUSH0 DUP2 SWAP1 POP SWAP2 SWAP1 POP JUMP JUMPDEST PUSH0 PUSH2 0xE15 PUSH2 0xE10 PUSH2 0xE0B DUP5 PUSH2 0x829 JUMP JUMPDEST PUSH2 0xDF2 JUMP JUMPDEST PUSH2 0x829 JUMP JUMPDEST SWAP1 POP SWAP2 SWAP1 POP JUMP JUMPDEST PUSH0 DUP2 SWAP1 POP SWAP2 SWAP1 POP JUMP JUMPDEST PUSH2 0xE2E DUP4 PUSH2 0xDFB JUMP JUMPDEST PUSH2 0xE42 PUSH2 0xE3A DUP3 PUSH2 0xE1C JUMP JUMPDEST DUP5 DUP5 SLOAD PUSH2 0xDA1 JUMP JUMPDEST DUP3 SSTORE POP POP POP POP JUMP JUMPDEST PUSH0 PUSH0 SWAP1 POP SWAP1 JUMP JUMPDEST PUSH2 0xE59 PUSH2 0xE4A JUMP JUMPDEST PUSH2 0xE64 DUP2 DUP5 DUP5 PUSH2 0xE25 JUMP JUMPDEST POP POP POP JUMP JUMPDEST JUMPDEST DUP2 DUP2 LT ISZERO PUSH2 0xE87 JUMPI PUSH2 0xE7C PUSH0 DUP3 PUSH2 0xE51 JUMP JUMPDEST PUSH1 0x1 DUP2 ADD SWAP1 POP PUSH2 0xE6A JUMP JUMPDEST POP POP JUMP JUMPDEST PUSH1 0x1F DUP3 GT ISZERO PUSH2 0xECC JUMPI PUSH2 0xE9D DUP2 PUSH2 0xBE2 JUMP JUMPDEST PUSH2 0xEA6 DUP5 PUSH2 0xD86 JUMP JUMPDEST DUP2 ADD PUSH1 0x20 DUP6 LT ISZERO PUSH2 0xEB5 JUMPI DUP2 SWAP1 POP JUMPDEST PUSH2 0xEC9 PUSH2 0xEC1 DUP6 PUSH2 0xD86 JUMP JUMPDEST DUP4 ADD DUP3 PUSH2 0xE69 JUMP JUMPDEST POP POP JUMPDEST POP POP POP JUMP JUMPDEST PUSH0 DUP3 DUP3 SHR SWAP1 POP SWAP3 SWAP2 POP POP JUMP JUMPDEST PUSH0 PUSH2 0xEEC PUSH0 NOT DUP5 PUSH1 0x8 MUL PUSH2 0xED1 JUMP JUMPDEST NOT DUP1 DUP4 AND SWAP2 POP POP SWAP3 SWAP2 POP POP JUMP JUMPDEST PUSH0 PUSH2 0xF04 DUP4 DUP4 PUSH2 0xEDD JUMP JUMPDEST SWAP2 POP DUP3 PUSH1 0x2 MUL DUP3 OR SWAP1 POP SWAP3 SWAP2 POP POP JUMP JUMPDEST PUSH2 0xF1D DUP3 PUSH2 0x95B JUMP JUMPDEST PUSH8 0xFFFFFFFFFFFFFFFF DUP2 GT ISZERO PUSH2 0xF36 JUMPI PUSH2 0xF35 PUSH2 0xD59 JUMP JUMPDEST JUMPDEST PUSH2 0xF40 DUP3 SLOAD PUSH2 0xBB2 JUMP JUMPDEST PUSH2 0xF4B DUP3 DUP3 DUP6 PUSH2 0xE8B JUMP JUMPDEST PUSH0 PUSH1 0x20 SWAP1 POP PUSH1 0x1F DUP4 GT PUSH1 0x1 DUP2 EQ PUSH2 0xF7C JUMPI PUSH0 DUP5 ISZERO PUSH2 0xF6A JUMPI DUP3 DUP8 ADD MLOAD SWAP1 POP JUMPDEST PUSH2 0xF74 DUP6 DUP3 PUSH2 0xEF9 JUMP JUMPDEST DUP7 SSTORE POP PUSH2 0xFDB JUMP JUMPDEST PUSH1 0x1F NOT DUP5 AND PUSH2 0xF8A DUP7 PUSH2 0xBE2 JUMP JUMPDEST PUSH0 JUMPDEST DUP3 DUP2 LT ISZERO PUSH2 0xFB1 JUMPI DUP5 DUP10 ADD MLOAD DUP3 SSTORE PUSH1 0x1 DUP3 ADD SWAP2 POP PUSH1 0x20 DUP6 ADD SWAP5 POP PUSH1 0x20 DUP2 ADD SWAP1 POP PUSH2 0xF8C JUMP JUMPDEST DUP7 DUP4 LT ISZERO PUSH2 0xFCE JUMPI DUP5 DUP10 ADD MLOAD PUSH2 0xFCA PUSH1 0x1F DUP10 AND DUP3 PUSH2 0xEDD JUMP JUMPDEST DUP4 SSTORE POP JUMPDEST PUSH1 0x1 PUSH1 0x2 DUP9 MUL ADD DUP9 SSTORE POP POP POP JUMPDEST POP POP POP POP POP POP JUMP JUMPDEST PUSH0 PUSH1 0x40 DUP3 ADD SWAP1 POP DUP2 DUP2 SUB PUSH0 DUP4 ADD MSTORE PUSH2 0xFFB DUP2 DUP6 PUSH2 0xA4D JUMP JUMPDEST SWAP1 POP PUSH2 0x100A PUSH1 0x20 DUP4 ADD DUP5 PUSH2 0x933 JUMP JUMPDEST SWAP4 SWAP3 POP POP POP JUMP JUMPDEST PUSH0 DUP2 SWAP1 POP SWAP3 SWAP2 POP POP JUMP JUMPDEST PUSH0 DUP2 SLOAD PUSH2 0x1027 DUP2 PUSH2 0xBB2 JUMP JUMPDEST PUSH2 0x1031 DUP2 DUP7 PUSH2 0x1011 JUMP JUMPDEST SWAP5 POP PUSH1 0x1 DUP3 AND PUSH0 DUP2 EQ PUSH2 0x104B JUMPI PUSH1 0x1 DUP2 EQ PUSH2 0x1060 JUMPI PUSH2 0x1092 JUMP JUMPDEST PUSH1 0xFF NOT DUP4 AND DUP7 MSTORE DUP2 ISZERO ISZERO DUP3 MUL DUP7 ADD SWAP4 POP PUSH2 0x1092 JUMP JUMPDEST PUSH2 0x1069 DUP6 PUSH2 0xBE2 JUMP JUMPDEST PUSH0 JUMPDEST DUP4 DUP2 LT ISZERO PUSH2 0x108A JUMPI DUP2 SLOAD DUP2 DUP10 ADD MSTORE PUSH1 0x1 DUP3 ADD SWAP2 POP PUSH1 0x20 DUP2 ADD SWAP1 POP PUSH2 0x106B JUMP JUMPDEST DUP4 DUP9 ADD SWAP6 POP POP POP JUMPDEST POP POP POP SWAP3 SWAP2 POP POP JUMP JUMPDEST PUSH0 PUSH2 0x10A6 DUP3 DUP5 PUSH2 0x101B JUMP JUMPDEST SWAP2 POP DUP2 SWAP1 POP SWAP3 SWAP2 POP POP JUMP JUMPDEST DUP3 DUP2 DUP4 CALLDATACOPY PUSH0 DUP4 DUP4 ADD MSTORE POP POP POP JUMP JUMPDEST PUSH0 PUSH2 0x10CA DUP4 DUP6 PUSH2 0x1011 JUMP JUMPDEST SWAP4 POP PUSH2 0x10D7 DUP4 DUP6 DUP5 PUSH2 0x10B1 JUMP JUMPDEST DUP3 DUP5 ADD SWAP1 POP SWAP4 SWAP3 POP POP POP JUMP JUMPDEST PUSH0 PUSH2 0x10EF DUP3 DUP5 DUP7 PUSH2 0x10BF JUMP JUMPDEST SWAP2 POP DUP2 SWAP1 POP SWAP4 SWAP3 POP POP POP JUMP JUMPDEST PUSH32 0x4E487B7100000000000000000000000000000000000000000000000000000000 PUSH0 MSTORE PUSH1 0x11 PUSH1 0x4 MSTORE PUSH1 0x24 PUSH0 REVERT JUMPDEST PUSH0 PUSH2 0x1132 DUP3 PUSH2 0x829 JUMP JUMPDEST SWAP2 POP PUSH32 0xFFFFFFFFFFFFFFFFFFFFFFFFFFFFFFFFFFFFFFFFFFFFFFFFFFFFFFFFFFFFFFFF DUP3 SUB PUSH2 0x1164 JUMPI PUSH2 0x1163 PUSH2 0x10FB JUMP JUMPDEST JUMPDEST PUSH1 0x1 DUP3 ADD SWAP1 POP SWAP2 SWAP1 POP JUMP JUMPDEST PUSH32 0x44454C455445202D204C6120746172656120636F6E2065736520636F6E74656E PUSH0 DUP3 ADD MSTORE PUSH32 0x69646F206E6F2065786973746521000000000000000000000000000000000000 PUSH1 0x20 DUP3 ADD MSTORE POP JUMP JUMPDEST PUSH0 PUSH2 0x11C9 PUSH1 0x2E DUP4 PUSH2 0xABA JUMP JUMPDEST SWAP2 POP PUSH2 0x11D4 DUP3 PUSH2 0x116F JUMP JUMPDEST PUSH1 0x40 DUP3 ADD SWAP1 POP SWAP2 SWAP1 POP JUMP JUMPDEST PUSH0 PUSH1 0x20 DUP3 ADD SWAP1 POP DUP2 DUP2 SUB PUSH0 DUP4 ADD MSTORE PUSH2 0x11F6 DUP2 PUSH2 0x11BD JUMP JUMPDEST SWAP1 POP SWAP2 SWAP1 POP JUMP JUMPDEST PUSH0 PUSH2 0x1207 DUP3 PUSH2 0x829 JUMP JUMPDEST SWAP2 POP PUSH2 0x1212 DUP4 PUSH2 0x829 JUMP JUMPDEST SWAP3 POP DUP3 DUP3 SUB SWAP1 POP DUP2 DUP2 GT ISZERO PUSH2 0x122A JUMPI PUSH2 0x1229 PUSH2 0x10FB JUMP JUMPDEST JUMPDEST SWAP3 SWAP2 POP POP JUMP JUMPDEST PUSH0 DUP2 SLOAD SWAP1 POP PUSH2 0x123E DUP2 PUSH2 0xBB2 JUMP JUMPDEST SWAP1 POP SWAP2 SWAP1 POP JUMP JUMPDEST DUP2 DUP2 SUB PUSH2 0x1253 JUMPI POP POP PUSH2 0x1328 JUMP JUMPDEST PUSH2 0x125C DUP3 PUSH2 0x1230 JUMP JUMPDEST PUSH8 0xFFFFFFFFFFFFFFFF DUP2 GT ISZERO PUSH2 0x1275 JUMPI PUSH2 0x1274 PUSH2 0xD59 JUMP JUMPDEST JUMPDEST PUSH2 0x127F DUP3 SLOAD PUSH2 0xBB2 JUMP JUMPDEST PUSH2 0x128A DUP3 DUP3 DUP6 PUSH2 0xE8B JUMP JUMPDEST PUSH0 PUSH1 0x1F DUP4 GT PUSH1 0x1 DUP2 EQ PUSH2 0x12B7 JUMPI PUSH0 DUP5 ISZERO PUSH2 0x12A5 JUMPI DUP3 DUP8 ADD SLOAD SWAP1 POP JUMPDEST PUSH2 0x12AF DUP6 DUP3 PUSH2 0xEF9 JUMP JUMPDEST DUP7 SSTORE POP PUSH2 0x1321 JUMP JUMPDEST PUSH1 0x1F NOT DUP5 AND PUSH2 0x12C5 DUP8 PUSH2 0xBE2 JUMP JUMPDEST SWAP7 POP PUSH2 0x12D0 DUP7 PUSH2 0xBE2 JUMP JUMPDEST PUSH0 JUMPDEST DUP3 DUP2 LT ISZERO PUSH2 0x12F7 JUMPI DUP5 DUP10 ADD SLOAD DUP3 SSTORE PUSH1 0x1 DUP3 ADD SWAP2 POP PUSH1 0x1 DUP6 ADD SWAP5 POP PUSH1 0x20 DUP2 ADD SWAP1 POP PUSH2 0x12D2 JUMP JUMPDEST DUP7 DUP4 LT ISZERO PUSH2 0x1314 JUMPI DUP5 DUP10 ADD SLOAD PUSH2 0x1310 PUSH1 0x1F DUP10 AND DUP3 PUSH2 0xEDD JUMP JUMPDEST DUP4 SSTORE POP JUMPDEST PUSH1 0x1 PUSH1 0x2 DUP9 MUL ADD DUP9 SSTORE POP POP POP JUMPDEST POP POP POP POP POP POP JUMPDEST JUMP JUMPDEST PUSH32 0x4E487B7100000000000000000000000000000000000000000000000000000000 PUSH0 MSTORE PUSH1 0x31 PUSH1 0x4 MSTORE PUSH1 0x24 PUSH0 REVERT JUMPDEST PUSH0 PUSH2 0x1362 DUP4 DUP6 PUSH2 0xABA JUMP JUMPDEST SWAP4 POP PUSH2 0x136F DUP4 DUP6 DUP5 PUSH2 0x10B1 JUMP JUMPDEST PUSH2 0x1378 DUP4 PUSH2 0x983 JUMP JUMPDEST DUP5 ADD SWAP1 POP SWAP4 SWAP3 POP POP POP JUMP JUMPDEST PUSH0 PUSH1 0x40 DUP3 ADD SWAP1 POP DUP2 DUP2 SUB PUSH0 DUP4 ADD MSTORE PUSH2 0x139C DUP2 DUP6 DUP8 PUSH2 0x1357 JUMP JUMPDEST SWAP1 POP PUSH2 0x13AB PUSH1 0x20 DUP4 ADD DUP5 PUSH2 0x933 JUMP JUMPDEST SWAP5 SWAP4 POP POP POP POP JUMP JUMPDEST PUSH32 0x434F4E54454E54202D204C6120746172656120636F6E20657365206964206E6F PUSH0 DUP3 ADD MSTORE PUSH32 0x2065786973746521000000000000000000000000000000000000000000000000 PUSH1 0x20 DUP3 ADD MSTORE POP JUMP JUMPDEST PUSH0 PUSH2 0x140D PUSH1 0x28 DUP4 PUSH2 0xABA JUMP JUMPDEST SWAP2 POP PUSH2 0x1418 DUP3 PUSH2 0x13B3 JUMP JUMPDEST PUSH1 0x40 DUP3 ADD SWAP1 POP SWAP2 SWAP1 POP JUMP JUMPDEST PUSH0 PUSH1 0x20 DUP3 ADD SWAP1 POP DUP2 DUP2 SUB PUSH0 DUP4 ADD MSTORE PUSH2 0x143A DUP2 PUSH2 0x1401 JUMP JUMPDEST SWAP1 POP SWAP2 SWAP1 POP JUMP JUMPDEST PUSH32 0x434F4D504C455445202D204C6120746172656120636F6E20657365206964206E PUSH0 DUP3 ADD MSTORE PUSH32 0x6F20657869737465210000000000000000000000000000000000000000000000 PUSH1 0x20 DUP3 ADD MSTORE POP JUMP JUMPDEST PUSH0 PUSH2 0x149B PUSH1 0x29 DUP4 PUSH2 0xABA JUMP JUMPDEST SWAP2 POP PUSH2 0x14A6 DUP3 PUSH2 0x1441 JUMP JUMPDEST PUSH1 0x40 DUP3 ADD SWAP1 POP SWAP2 SWAP1 POP JUMP JUMPDEST PUSH0 PUSH1 0x20 DUP3 ADD SWAP1 POP DUP2 DUP2 SUB PUSH0 DUP4 ADD MSTORE PUSH2 0x14C8 DUP2 PUSH2 0x148F JUMP JUMPDEST SWAP1 POP SWAP2 SWAP1 POP JUMP INVALID LOG2 PUSH5 0x6970667358 0x22 SLT KECCAK256 EXTCODECOPY REVERT MLOAD 0xDD PUSH6 0xD478777B0780 CALLDATASIZE BALANCE 0x2B PUSH10 0xBC7BB042339008216794 EXP SWAP12 0xAE SHR 0xA7 SHL 0xD4 PUSH5 0x736F6C6343 STOP ADDMOD 0x1E STOP CALLER "
				},
				"gasEstimates": {
					"creation": {
						"codeDepositCost": "1076200",
						"executionCost": "1118",
						"totalCost": "1077318"
					},
					"external": {
						"addTask(string)": "infinite",
						"completeTask(uint256)": "infinite",
						"deleteTask(string)": "infinite",
						"getTaskContent(uint256)": "infinite",
						"getTaskCount()": "2483",
						"startTask(uint256)": "infinite"
					}
				},
				"methodIdentifiers": {
					"addTask(string)": "67238562",
					"completeTask(uint256)": "e1e29558",
					"deleteTask(string)": "859c9186",
					"getTaskContent(uint256)": "cd8e01d1",
					"getTaskCount()": "c17a340e",
					"startTask(uint256)": "5f944326"
				}
			},
			"storageLayout": {
				"storage": [
					{
						"astId": 17,
						"contract": "contracts/ToDoList.sol:ToDoList",
						"label": "s_tasks",
						"offset": 0,
						"slot": "0",
						"type": "t_array(t_struct(Task)13_storage)dyn_storage"
					}
				],
				"types": {
					"t_array(t_struct(Task)13_storage)dyn_storage": {
						"base": "t_struct(Task)13_storage",
						"encoding": "dynamic_array",
						"label": "struct ToDoList.Task[]",
						"numberOfBytes": "32"
					},
					"t_enum(Estado)5": {
						"encoding": "inplace",
						"label": "enum ToDoList.Estado",
						"numberOfBytes": "1"
					},
					"t_string_storage": {
						"encoding": "bytes",
						"label": "string",
						"numberOfBytes": "32"
					},
					"t_struct(Task)13_storage": {
						"encoding": "inplace",
						"label": "struct ToDoList.Task",
						"members": [
							{
								"astId": 7,
								"contract": "contracts/ToDoList.sol:ToDoList",
								"label": "content",
								"offset": 0,
								"slot": "0",
								"type": "t_string_storage"
							},
							{
								"astId": 9,
								"contract": "contracts/ToDoList.sol:ToDoList",
								"label": "createTime",
								"offset": 0,
								"slot": "1",
								"type": "t_uint256"
							},
							{
								"astId": 12,
								"contract": "contracts/ToDoList.sol:ToDoList",
								"label": "state",
								"offset": 0,
								"slot": "2",
								"type": "t_enum(Estado)5"
							}
						],
						"numberOfBytes": "96"
					},
					"t_uint256": {
						"encoding": "inplace",
						"label": "uint256",
						"numberOfBytes": "32"
					}
				}
			},
			"userdoc": {
				"kind": "user",
				"methods": {},
				"version": 1
			}
		}
	}
}