{
	"data": {
		"bytecode": {
			"linkReferences": {},
			"object": "6080604052348015600e575f5ffd5b50610a488061001c5f395ff3fe608060405234801561000f575f5ffd5b5060043610610060575f3560e01c8063698247b3146100645780637beece6d146100825780639854b8b81461009e578063d3330606146100ba578063e000f3c9146100d6578063ebe290f4146100f5575b5f5ffd5b61006c610111565b6040516100799190610397565b60405180910390f35b61009c600480360381019061009791906104f4565b6101a0565b005b6100b860048036038101906100b391906104f4565b6101b2565b005b6100d460048036038101906100cf9190610598565b6101fb565b005b6100de610249565b6040516100ec9291906105e3565b60405180910390f35b61010f600480360381019061010a9190610598565b610312565b005b60605f805461011f90610645565b80601f016020809104026020016040519081016040528092919081815260200182805461014b90610645565b80156101965780601f1061016d57610100808354040283529160200191610196565b820191905f5260205f20905b81548152906001019060200180831161017957829003601f168201915b5050505050905090565b805f90816101ae919061081e565b5050565b805f90816101c0919061081e565b507fd7df8791c8238f16cd557fb4fb19a5f81932e24b55cdae22e98ed4f27cc97127816040516101f09190610397565b60405180910390a150565b81815f918261020b9291906108f7565b507fd7df8791c8238f16cd557fb4fb19a5f81932e24b55cdae22e98ed4f27cc97127828260405161023d9291906109f0565b60405180910390a15050565b6060805f805461025890610645565b80601f016020809104026020016040519081016040528092919081815260200182805461028490610645565b80156102cf5780601f106102a6576101008083540402835291602001916102cf565b820191905f5260205f20905b8154815290600101906020018083116102b257829003601f168201915b505050505091506040518060400160405280601681526020017f484f4c4120534f5920554e4120434f4e5354414e54450000000000000000000081525090509091565b81815f91826103229291906108f7565b505050565b5f81519050919050565b5f82825260208201905092915050565b8281835e5f83830152505050565b5f601f19601f8301169050919050565b5f61036982610327565b6103738185610331565b9350610383818560208601610341565b61038c8161034f565b840191505092915050565b5f6020820190508181035f8301526103af818461035f565b905092915050565b5f604051905090565b5f5ffd5b5f5ffd5b5f5ffd5b5f5ffd5b7f4e487b71000000000000000000000000000000000000000000000000000000005f52604160045260245ffd5b6104068261034f565b810181811067ffffffffffffffff82111715610425576104246103d0565b5b80604052505050565b5f6104376103b7565b905061044382826103fd565b919050565b5f67ffffffffffffffff821115610462576104616103d0565b5b61046b8261034f565b9050602081019050919050565b828183375f83830152505050565b5f61049861049384610448565b61042e565b9050828152602081018484840111156104b4576104b36103cc565b5b6104bf848285610478565b509392505050565b5f82601f8301126104db576104da6103c8565b5b81356104eb848260208601610486565b91505092915050565b5f60208284031215610509576105086103c0565b5b5f82013567ffffffffffffffff811115610526576105256103c4565b5b610532848285016104c7565b91505092915050565b5f5ffd5b5f5ffd5b5f5f83601f840112610558576105576103c8565b5b8235905067ffffffffffffffff8111156105755761057461053b565b5b6020830191508360018202830111156105915761059061053f565b5b9250929050565b5f5f602083850312156105ae576105ad6103c0565b5b5f83013567ffffffffffffffff8111156105cb576105ca6103c4565b5b6105d785828601610543565b92509250509250929050565b5f6040820190508181035f8301526105fb818561035f565b9050818103602083015261060f818461035f565b90509392505050565b7f4e487b71000000000000000000000000000000000000000000000000000000005f52602260045260245ffd5b5f600282049050600182168061065c57607f821691505b60208210810361066f5761066e610618565b5b50919050565b5f819050815f5260205f209050919050565b5f6020601f8301049050919050565b5f82821b905092915050565b5f600883026106d17fffffffffffffffffffffffffffffffffffffffffffffffffffffffffffffffff82610696565b6106db8683610696565b95508019841693508086168417925050509392505050565b5f819050919050565b5f819050919050565b5f61071f61071a610715846106f3565b6106fc565b6106f3565b9050919050565b5f819050919050565b61073883610705565b61074c61074482610726565b8484546106a2565b825550505050565b5f5f905090565b610763610754565b61076e81848461072f565b505050565b5b81811015610791576107865f8261075b565b600181019050610774565b5050565b601f8211156107d6576107a781610675565b6107b084610687565b810160208510156107bf578190505b6107d36107cb85610687565b830182610773565b50505b505050565b5f82821c905092915050565b5f6107f65f19846008026107db565b1980831691505092915050565b5f61080e83836107e7565b9150826002028217905092915050565b61082782610327565b67ffffffffffffffff8111156108405761083f6103d0565b5b61084a8254610645565b610855828285610795565b5f60209050601f831160018114610886575f8415610874578287015190505b61087e8582610803565b8655506108e5565b601f19841661089486610675565b5f5b828110156108bb57848901518255600182019150602085019450602081019050610896565b868310156108d857848901516108d4601f8916826107e7565b8355505b6001600288020188555050505b505050505050565b5f82905092915050565b61090183836108ed565b67ffffffffffffffff81111561091a576109196103d0565b5b6109248254610645565b61092f828285610795565b5f601f83116001811461095c575f841561094a578287013590505b6109548582610803565b8655506109bb565b601f19841661096a86610675565b5f5b828110156109915784890135825560018201915060208501945060208101905061096c565b868310156109ae57848901356109aa601f8916826107e7565b8355505b6001600288020188555050505b50505050505050565b5f6109cf8385610331565b93506109dc838584610478565b6109e58361034f565b840190509392505050565b5f6020820190508181035f830152610a098184866109c4565b9050939250505056fea2646970667358221220fffe8a1e20a94de615504a34831a37109307b4f5424ad13271fa27a928e4fbc464736f6c634300081e0033",
			"opcodes": "PUSH1 0x80 PUSH1 0x40 MSTORE CALLVALUE DUP1 ISZERO PUSH1 0xE JUMPI PUSH0 PUSH0 REVERT JUMPDEST POP PUSH2 0xA48 DUP1 PUSH2 0x1C PUSH0 CODECOPY PUSH0 RETURN INVALID PUSH1 0x80 PUSH1 0x40 MSTORE CALLVALUE DUP1 ISZERO PUSH2 0xF JUMPI PUSH0 PUSH0 REVERT JUMPDEST POP PUSH1 0x4 CALLDATASIZE LT PUSH2 0x60 JUMPI PUSH0 CALLDATALOAD PUSH1 0xE0 SHR DUP1 PUSH4 0x698247B3 EQ PUSH2 0x64 JUMPI DUP1 PUSH4 0x7BEECE6D EQ PUSH2 0x82 JUMPI DUP1 PUSH4 0x9854B8B8 EQ PUSH2 0x9E JUMPI DUP1 PUSH4 0xD3330606 EQ PUSH2 0xBA JUMPI DUP1 PUSH4 0xE000F3C9 EQ PUSH2 0xD6 JUMPI DUP1 PUSH4 0xEBE290F4 EQ PUSH2 0xF5 JUMPI JUMPDEST PUSH0 PUSH0 REVERT JUMPDEST PUSH2 0x6C PUSH2 0x111 JUMP JUMPDEST PUSH1 0x40 MLOAD PUSH2 0x79 SWAP2 SWAP1 PUSH2 0x397 JUMP JUMPDEST PUSH1 0x40 MLOAD DUP1 SWAP2 SUB SWAP1 RETURN JUMPDEST PUSH2 0x9C PUSH1 0x4 DUP1 CALLDATASIZE SUB DUP2 ADD SWAP1 PUSH2 0x97 SWAP2 SWAP1 PUSH2 0x4F4 JUMP JUMPDEST PUSH2 0x1A0 JUMP JUMPDEST STOP JUMPDEST PUSH2 0xB8 PUSH1 0x4 DUP1 CALLDATASIZE SUB DUP2 ADD SWAP1 PUSH2 0xB3 SWAP2 SWAP1 PUSH2 0x4F4 JUMP JUMPDEST PUSH2 0x1B2 JUMP JUMPDEST STOP JUMPDEST PUSH2 0xD4 PUSH1 0x4 DUP1 CALLDATASIZE SUB DUP2 ADD SWAP1 PUSH2 0xCF SWAP2 SWAP1 PUSH2 0x598 JUMP JUMPDEST PUSH2 0x1FB JUMP JUMPDEST STOP JUMPDEST PUSH2 0xDE PUSH2 0x249 JUMP JUMPDEST PUSH1 0x40 MLOAD PUSH2 0xEC SWAP3 SWAP2 SWAP1 PUSH2 0x5E3 JUMP JUMPDEST PUSH1 0x40 MLOAD DUP1 SWAP2 SUB SWAP1 RETURN JUMPDEST PUSH2 0x10F PUSH1 0x4 DUP1 CALLDATASIZE SUB DUP2 ADD SWAP1 PUSH2 0x10A SWAP2 SWAP1 PUSH2 0x598 JUMP JUMPDEST PUSH2 0x312 JUMP JUMPDEST STOP JUMPDEST PUSH1 0x60 PUSH0 DUP1 SLOAD PUSH2 0x11F SWAP1 PUSH2 0x645 JUMP JUMPDEST DUP1 PUSH1 0x1F ADD PUSH1 0x20 DUP1 SWAP2 DIV MUL PUSH1 0x20 ADD PUSH1 0x40 MLOAD SWAP1 DUP2 ADD PUSH1 0x40 MSTORE DUP1 SWAP3 SWAP2 SWAP1 DUP2 DUP2 MSTORE PUSH1 0x20 ADD DUP3 DUP1 SLOAD PUSH2 0x14B SWAP1 PUSH2 0x645 JUMP JUMPDEST DUP1 ISZERO PUSH2 0x196 JUMPI DUP1 PUSH1 0x1F LT PUSH2 0x16D JUMPI PUSH2 0x100 DUP1 DUP4 SLOAD DIV MUL DUP4 MSTORE SWAP2 PUSH1 0x20 ADD SWAP2 PUSH2 0x196 JUMP JUMPDEST DUP3 ADD SWAP2 SWAP1 PUSH0 MSTORE PUSH1 0x20 PUSH0 KECCAK256 SWAP1 JUMPDEST DUP2 SLOAD DUP2 MSTORE SWAP1 PUSH1 0x1 ADD SWAP1 PUSH1 0x20 ADD DUP1 DUP4 GT PUSH2 0x179 JUMPI DUP3 SWAP1 SUB PUSH1 0x1F AND DUP3 ADD SWAP2 JUMPDEST POP POP POP POP POP SWAP1 POP SWAP1 JUMP JUMPDEST DUP1 PUSH0 SWAP1 DUP2 PUSH2 0x1AE SWAP2 SWAP1 PUSH2 0x81E JUMP JUMPDEST POP POP JUMP JUMPDEST DUP1 PUSH0 SWAP1 DUP2 PUSH2 0x1C0 SWAP2 SWAP1 PUSH2 0x81E JUMP JUMPDEST POP PUSH32 0xD7DF8791C8238F16CD557FB4FB19A5F81932E24B55CDAE22E98ED4F27CC97127 DUP2 PUSH1 0x40 MLOAD PUSH2 0x1F0 SWAP2 SWAP1 PUSH2 0x397 JUMP JUMPDEST PUSH1 0x40 MLOAD DUP1 SWAP2 SUB SWAP1 LOG1 POP JUMP JUMPDEST DUP2 DUP2 PUSH0 SWAP2 DUP3 PUSH2 0x20B SWAP3 SWAP2 SWAP1 PUSH2 0x8F7 JUMP JUMPDEST POP PUSH32 0xD7DF8791C8238F16CD557FB4FB19A5F81932E24B55CDAE22E98ED4F27CC97127 DUP3 DUP3 PUSH1 0x40 MLOAD PUSH2 0x23D SWAP3 SWAP2 SWAP1 PUSH2 0x9F0 JUMP JUMPDEST PUSH1 0x40 MLOAD DUP1 SWAP2 SUB SWAP1 LOG1 POP POP JUMP JUMPDEST PUSH1 0x60 DUP1 PUSH0 DUP1 SLOAD PUSH2 0x258 SWAP1 PUSH2 0x645 JUMP JUMPDEST DUP1 PUSH1 0x1F ADD PUSH1 0x20 DUP1 SWAP2 DIV MUL PUSH1 0x20 ADD PUSH1 0x40 MLOAD SWAP1 DUP2 ADD PUSH1 0x40 MSTORE DUP1 SWAP3 SWAP2 SWAP1 DUP2 DUP2 MSTORE PUSH1 0x20 ADD DUP3 DUP1 SLOAD PUSH2 0x284 SWAP1 PUSH2 0x645 JUMP JUMPDEST DUP1 ISZERO PUSH2 0x2CF JUMPI DUP1 PUSH1 0x1F LT PUSH2 0x2A6 JUMPI PUSH2 0x100 DUP1 DUP4 SLOAD DIV MUL DUP4 MSTORE SWAP2 PUSH1 0x20 ADD SWAP2 PUSH2 0x2CF JUMP JUMPDEST DUP3 ADD SWAP2 SWAP1 PUSH0 MSTORE PUSH1 0x20 PUSH0 KECCAK256 SWAP1 JUMPDEST DUP2 SLOAD DUP2 MSTORE SWAP1 PUSH1 0x1 ADD SWAP1 PUSH1 0x20 ADD DUP1 DUP4 GT PUSH2 0x2B2 JUMPI DUP3 SWAP1 SUB PUSH1 0x1F AND DUP3 ADD SWAP2 JUMPDEST POP POP POP POP POP SWAP2 POP PUSH1 0x40 MLOAD DUP1 PUSH1 0x40 ADD PUSH1 0x40 MSTORE DUP1 PUSH1 0x16 DUP2 MSTORE PUSH1 0x20 ADD PUSH32 0x484F4C4120534F5920554E4120434F4E5354414E544500000000000000000000 DUP2 MSTORE POP SWAP1 POP SWAP1 SWAP2 JUMP JUMPDEST DUP2 DUP2 PUSH0 SWAP2 DUP3 PUSH2 0x322 SWAP3 SWAP2 SWAP1 PUSH2 0x8F7 JUMP JUMPDEST POP POP POP JUMP JUMPDEST PUSH0 DUP2 MLOAD SWAP1 POP SWAP2 SWAP1 POP JUMP JUMPDEST PUSH0 DUP3 DUP3 MSTORE PUSH1 0x20 DUP3 ADD SWAP1 POP SWAP3 SWAP2 POP POP JUMP JUMPDEST DUP3 DUP2 DUP4 MCOPY PUSH0 DUP4 DUP4 ADD MSTORE POP POP POP JUMP JUMPDEST PUSH0 PUSH1 0x1F NOT PUSH1 0x1F DUP4 ADD AND SWAP1 POP SWAP2 SWAP1 POP JUMP JUMPDEST PUSH0 PUSH2 0x369 DUP3 PUSH2 0x327 JUMP JUMPDEST PUSH2 0x373 DUP2 DUP6 PUSH2 0x331 JUMP JUMPDEST SWAP4 POP PUSH2 0x383 DUP2 DUP6 PUSH1 0x20 DUP7 ADD PUSH2 0x341 JUMP JUMPDEST PUSH2 0x38C DUP2 PUSH2 0x34F JUMP JUMPDEST DUP5 ADD SWAP2 POP POP SWAP3 SWAP2 POP POP JUMP JUMPDEST PUSH0 PUSH1 0x20 DUP3 ADD SWAP1 POP DUP2 DUP2 SUB PUSH0 DUP4 ADD MSTORE PUSH2 0x3AF DUP2 DUP5 PUSH2 0x35F JUMP JUMPDEST SWAP1 POP SWAP3 SWAP2 POP POP JUMP JUMPDEST PUSH0 PUSH1 0x40 MLOAD SWAP1 POP SWAP1 JUMP JUMPDEST PUSH0 PUSH0 REVERT JUMPDEST PUSH0 PUSH0 REVERT JUMPDEST PUSH0 PUSH0 REVERT JUMPDEST PUSH0 PUSH0 REVERT JUMPDEST PUSH32 0x4E487B7100000000000000000000000000000000000000000000000000000000 PUSH0 MSTORE PUSH1 0x41 PUSH1 0x4 MSTORE PUSH1 0x24 PUSH0 REVERT JUMPDEST PUSH2 0x406 DUP3 PUSH2 0x34F JUMP JUMPDEST DUP2 ADD DUP2 DUP2 LT PUSH8 0xFFFFFFFFFFFFFFFF DUP3 GT OR ISZERO PUSH2 0x425 JUMPI PUSH2 0x424 PUSH2 0x3D0 JUMP JUMPDEST JUMPDEST DUP1 PUSH1 0x40 MSTORE POP POP POP JUMP JUMPDEST PUSH0 PUSH2 0x437 PUSH2 0x3B7 JUMP JUMPDEST SWAP1 POP PUSH2 0x443 DUP3 DUP3 PUSH2 0x3FD JUMP JUMPDEST SWAP2 SWAP1 POP JUMP JUMPDEST PUSH0 PUSH8 0xFFFFFFFFFFFFFFFF DUP3 GT ISZERO PUSH2 0x462 JUMPI PUSH2 0x461 PUSH2 0x3D0 JUMP JUMPDEST JUMPDEST PUSH2 0x46B DUP3 PUSH2 0x34F JUMP JUMPDEST SWAP1 POP PUSH1 0x20 DUP2 ADD SWAP1 POP SWAP2 SWAP1 POP JUMP JUMPDEST DUP3 DUP2 DUP4 CALLDATACOPY PUSH0 DUP4 DUP4 ADD MSTORE POP POP POP JUMP JUMPDEST PUSH0 PUSH2 0x498 PUSH2 0x493 DUP5 PUSH2 0x448 JUMP JUMPDEST PUSH2 0x42E JUMP JUMPDEST SWAP1 POP DUP3 DUP2 MSTORE PUSH1 0x20 DUP2 ADD DUP5 DUP5 DUP5 ADD GT ISZERO PUSH2 0x4B4 JUMPI PUSH2 0x4B3 PUSH2 0x3CC JUMP JUMPDEST JUMPDEST PUSH2 0x4BF DUP5 DUP3 DUP6 PUSH2 0x478 JUMP JUMPDEST POP SWAP4 SWAP3 POP POP POP JUMP JUMPDEST PUSH0 DUP3 PUSH1 0x1F DUP4 ADD SLT PUSH2 0x4DB JUMPI PUSH2 0x4DA PUSH2 0x3C8 JUMP JUMPDEST JUMPDEST DUP2 CALLDATALOAD PUSH2 0x4EB DUP5 DUP3 PUSH1 0x20 DUP7 ADD PUSH2 0x486 JUMP JUMPDEST SWAP2 POP POP SWAP3 SWAP2 POP POP JUMP JUMPDEST PUSH0 PUSH1 0x20 DUP3 DUP5 SUB SLT ISZERO PUSH2 0x509 JUMPI PUSH2 0x508 PUSH2 0x3C0 JUMP JUMPDEST JUMPDEST PUSH0 DUP3 ADD CALLDATALOAD PUSH8 0xFFFFFFFFFFFFFFFF DUP2 GT ISZERO PUSH2 0x526 JUMPI PUSH2 0x525 PUSH2 0x3C4 JUMP JUMPDEST JUMPDEST PUSH2 0x532 DUP5 DUP3 DUP6 ADD PUSH2 0x4C7 JUMP JUMPDEST SWAP2 POP POP SWAP3 SWAP2 POP POP JUMP JUMPDEST PUSH0 PUSH0 REVERT JUMPDEST PUSH0 PUSH0 REVERT JUMPDEST PUSH0 PUSH0 DUP4 PUSH1 0x1F DUP5 ADD SLT PUSH2 0x558 JUMPI PUSH2 0x557 PUSH2 0x3C8 JUMP JUMPDEST JUMPDEST DUP3 CALLDATALOAD SWAP1 POP PUSH8 0xFFFFFFFFFFFFFFFF DUP2 GT ISZERO PUSH2 0x575 JUMPI PUSH2 0x574 PUSH2 0x53B JUMP JUMPDEST JUMPDEST PUSH1 0x20 DUP4 ADD SWAP2 POP DUP4 PUSH1 0x1 DUP3 MUL DUP4 ADD GT ISZERO PUSH2 0x591 JUMPI PUSH2 0x590 PUSH2 0x53F JUMP JUMPDEST JUMPDEST SWAP3 POP SWAP3 SWAP1 POP JUMP JUMPDEST PUSH0 PUSH0 PUSH1 0x20 DUP4 DUP6 SUB SLT ISZERO PUSH2 0x5AE JUMPI PUSH2 0x5AD PUSH2 0x3C0 JUMP JUMPDEST JUMPDEST PUSH0 DUP4 ADD CALLDATALOAD PUSH8 0xFFFFFFFFFFFFFFFF DUP2 GT ISZERO PUSH2 0x5CB JUMPI PUSH2 0x5CA PUSH2 0x3C4 JUMP JUMPDEST JUMPDEST PUSH2 0x5D7 DUP6 DUP3 DUP7 ADD PUSH2 0x543 JUMP JUMPDEST SWAP3 POP SWAP3 POP POP SWAP3 POP SWAP3 SWAP1 POP JUMP JUMPDEST PUSH0 PUSH1 0x40 DUP3 ADD SWAP1 POP DUP2 DUP2 SUB PUSH0 DUP4 ADD MSTORE PUSH2 0x5FB DUP2 DUP6 PUSH2 0x35F JUMP JUMPDEST SWAP1 POP DUP2 DUP2 SUB PUSH1 0x20 DUP4 ADD MSTORE PUSH2 0x60F DUP2 DUP5 PUSH2 0x35F JUMP JUMPDEST SWAP1 POP SWAP4 SWAP3 POP POP POP JUMP JUMPDEST PUSH32 0x4E487B7100000000000000000000000000000000000000000000000000000000 PUSH0 MSTORE PUSH1 0x22 PUSH1 0x4 MSTORE PUSH1 0x24 PUSH0 REVERT JUMPDEST PUSH0 PUSH1 0x2 DUP3 DIV SWAP1 POP PUSH1 0x1 DUP3 AND DUP1 PUSH2 0x65C JUMPI PUSH1 0x7F DUP3 AND SWAP2 POP JUMPDEST PUSH1 0x20 DUP3 LT DUP2 SUB PUSH2 0x66F JUMPI PUSH2 0x66E PUSH2 0x618 JUMP JUMPDEST JUMPDEST POP SWAP2 SWAP1 POP JUMP JUMPDEST PUSH0 DUP2 SWAP1 POP DUP2 PUSH0 MSTORE PUSH1 0x20 PUSH0 KECCAK256 SWAP1 POP SWAP2 SWAP1 POP JUMP JUMPDEST PUSH0 PUSH1 0x20 PUSH1 0x1F DUP4 ADD DIV SWAP1 POP SWAP2 SWAP1 POP JUMP JUMPDEST PUSH0 DUP3 DUP3 SHL SWAP1 POP SWAP3 SWAP2 POP POP JUMP JUMPDEST PUSH0 PUSH1 0x8 DUP4 MUL PUSH2 0x6D1 PUSH32 0xFFFFFFFFFFFFFFFFFFFFFFFFFFFFFFFFFFFFFFFFFFFFFFFFFFFFFFFFFFFFFFFF DUP3 PUSH2 0x696 JUMP JUMPDEST PUSH2 0x6DB DUP7 DUP4 PUSH2 0x696 JUMP JUMPDEST SWAP6 POP DUP1 NOT DUP5 AND SWAP4 POP DUP1 DUP7 AND DUP5 OR SWAP3 POP POP POP SWAP4 SWAP3 POP POP POP JUMP JUMPDEST PUSH0 DUP2 SWAP1 POP SWAP2 SWAP1 POP JUMP JUMPDEST PUSH0 DUP2 SWAP1 POP SWAP2 SWAP1 POP JUMP JUMPDEST PUSH0 PUSH2 0x71F PUSH2 0x71A PUSH2 0x715 DUP5 PUSH2 0x6F3 JUMP JUMPDEST PUSH2 0x6FC JUMP JUMPDEST PUSH2 0x6F3 JUMP JUMPDEST SWAP1 POP SWAP2 SWAP1 POP JUMP JUMPDEST PUSH0 DUP2 SWAP1 POP SWAP2 SWAP1 POP JUMP JUMPDEST PUSH2 0x738 DUP4 PUSH2 0x705 JUMP JUMPDEST PUSH2 0x74C PUSH2 0x744 DUP3 PUSH2 0x726 JUMP JUMPDEST DUP5 DUP5 SLOAD PUSH2 0x6A2 JUMP JUMPDEST DUP3 SSTORE POP POP POP POP JUMP JUMPDEST PUSH0 PUSH0 SWAP1 POP SWAP1 JUMP JUMPDEST PUSH2 0x763 PUSH2 0x754 JUMP JUMPDEST PUSH2 0x76E DUP2 DUP5 DUP5 PUSH2 0x72F JUMP JUMPDEST POP POP POP JUMP JUMPDEST JUMPDEST DUP2 DUP2 LT ISZERO PUSH2 0x791 JUMPI PUSH2 0x786 PUSH0 DUP3 PUSH2 0x75B JUMP JUMPDEST PUSH1 0x1 DUP2 ADD SWAP1 POP PUSH2 0x774 JUMP JUMPDEST POP POP JUMP JUMPDEST PUSH1 0x1F DUP3 GT ISZERO PUSH2 0x7D6 JUMPI PUSH2 0x7A7 DUP2 PUSH2 0x675 JUMP JUMPDEST PUSH2 0x7B0 DUP5 PUSH2 0x687 JUMP JUMPDEST DUP2 ADD PUSH1 0x20 DUP6 LT ISZERO PUSH2 0x7BF JUMPI DUP2 SWAP1 POP JUMPDEST PUSH2 0x7D3 PUSH2 0x7CB DUP6 PUSH2 0x687 JUMP JUMPDEST DUP4 ADD DUP3 PUSH2 0x773 JUMP JUMPDEST POP POP JUMPDEST POP POP POP JUMP JUMPDEST PUSH0 DUP3 DUP3 SHR SWAP1 POP SWAP3 SWAP2 POP POP JUMP JUMPDEST PUSH0 PUSH2 0x7F6 PUSH0 NOT DUP5 PUSH1 0x8 MUL PUSH2 0x7DB JUMP JUMPDEST NOT DUP1 DUP4 AND SWAP2 POP POP SWAP3 SWAP2 POP POP JUMP JUMPDEST PUSH0 PUSH2 0x80E DUP4 DUP4 PUSH2 0x7E7 JUMP JUMPDEST SWAP2 POP DUP3 PUSH1 0x2 MUL DUP3 OR SWAP1 POP SWAP3 SWAP2 POP POP JUMP JUMPDEST PUSH2 0x827 DUP3 PUSH2 0x327 JUMP JUMPDEST PUSH8 0xFFFFFFFFFFFFFFFF DUP2 GT ISZERO PUSH2 0x840 JUMPI PUSH2 0x83F PUSH2 0x3D0 JUMP JUMPDEST JUMPDEST PUSH2 0x84A DUP3 SLOAD PUSH2 0x645 JUMP JUMPDEST PUSH2 0x855 DUP3 DUP3 DUP6 PUSH2 0x795 JUMP JUMPDEST PUSH0 PUSH1 0x20 SWAP1 POP PUSH1 0x1F DUP4 GT PUSH1 0x1 DUP2 EQ PUSH2 0x886 JUMPI PUSH0 DUP5 ISZERO PUSH2 0x874 JUMPI DUP3 DUP8 ADD MLOAD SWAP1 POP JUMPDEST PUSH2 0x87E DUP6 DUP3 PUSH2 0x803 JUMP JUMPDEST DUP7 SSTORE POP PUSH2 0x8E5 JUMP JUMPDEST PUSH1 0x1F NOT DUP5 AND PUSH2 0x894 DUP7 PUSH2 0x675 JUMP JUMPDEST PUSH0 JUMPDEST DUP3 DUP2 LT ISZERO PUSH2 0x8BB JUMPI DUP5 DUP10 ADD MLOAD DUP3 SSTORE PUSH1 0x1 DUP3 ADD SWAP2 POP PUSH1 0x20 DUP6 ADD SWAP5 POP PUSH1 0x20 DUP2 ADD SWAP1 POP PUSH2 0x896 JUMP JUMPDEST DUP7 DUP4 LT ISZERO PUSH2 0x8D8 JUMPI DUP5 DUP10 ADD MLOAD PUSH2 0x8D4 PUSH1 0x1F DUP10 AND DUP3 PUSH2 0x7E7 JUMP JUMPDEST DUP4 SSTORE POP JUMPDEST PUSH1 0x1 PUSH1 0x2 DUP9 MUL ADD DUP9 SSTORE POP POP POP JUMPDEST POP POP POP POP POP POP JUMP JUMPDEST PUSH0 DUP3 SWAP1 POP SWAP3 SWAP2 POP POP JUMP JUMPDEST PUSH2 0x901 DUP4 DUP4 PUSH2 0x8ED JUMP JUMPDEST PUSH8 0xFFFFFFFFFFFFFFFF DUP2 GT ISZERO PUSH2 0x91A JUMPI PUSH2 0x919 PUSH2 0x3D0 JUMP JUMPDEST JUMPDEST PUSH2 0x924 DUP3 SLOAD PUSH2 0x645 JUMP JUMPDEST PUSH2 0x92F DUP3 DUP3 DUP6 PUSH2 0x795 JUMP JUMPDEST PUSH0 PUSH1 0x1F DUP4 GT PUSH1 0x1 DUP2 EQ PUSH2 0x95C JUMPI PUSH0 DUP5 ISZERO PUSH2 0x94A JUMPI DUP3 DUP8 ADD CALLDATALOAD SWAP1 POP JUMPDEST PUSH2 0x954 DUP6 DUP3 PUSH2 0x803 JUMP JUMPDEST DUP7 SSTORE POP PUSH2 0x9BB JUMP JUMPDEST PUSH1 0x1F NOT DUP5 AND PUSH2 0x96A DUP7 PUSH2 0x675 JUMP JUMPDEST PUSH0 JUMPDEST DUP3 DUP2 LT ISZERO PUSH2 0x991 JUMPI DUP5 DUP10 ADD CALLDATALOAD DUP3 SSTORE PUSH1 0x1 DUP3 ADD SWAP2 POP PUSH1 0x20 DUP6 ADD SWAP5 POP PUSH1 0x20 DUP2 ADD SWAP1 POP PUSH2 0x96C JUMP JUMPDEST DUP7 DUP4 LT ISZERO PUSH2 0x9AE JUMPI DUP5 DUP10 ADD CALLDATALOAD PUSH2 0x9AA PUSH1 0x1F DUP10 AND DUP3 PUSH2 0x7E7 JUMP JUMPDEST DUP4 SSTORE POP JUMPDEST PUSH1 0x1 PUSH1 0x2 DUP9 MUL ADD DUP9 SSTORE POP POP POP JUMPDEST POP POP POP POP POP POP POP JUMP JUMPDEST PUSH0 PUSH2 0x9CF DUP4 DUP6 PUSH2 0x331 JUMP JUMPDEST SWAP4 POP PUSH2 0x9DC DUP4 DUP6 DUP5 PUSH2 0x478 JUMP JUMPDEST PUSH2 0x9E5 DUP4 PUSH2 0x34F JUMP JUMPDEST DUP5 ADD SWAP1 POP SWAP4 SWAP3 POP POP POP JUMP JUMPDEST PUSH0 PUSH1 0x20 DUP3 ADD SWAP1 POP DUP2 DUP2 SUB PUSH0 DUP4 ADD MSTORE PUSH2 0xA09 DUP2 DUP5 DUP7 PUSH2 0x9C4 JUMP JUMPDEST SWAP1 POP SWAP4 SWAP3 POP POP POP JUMP INVALID LOG2 PUSH5 0x6970667358 0x22 SLT KECCAK256 SELFDESTRUCT INVALID DUP11 0x1E KECCAK256 0xA9 0x4D DUPN 0x15 POP BLOBBASEFEE CALLVALUE DUP4 BYTE CALLDATACOPY LT SWAP4 SMOD 0xB4 CREATE2 TIMESTAMP BLOBBASEFEE DATALOADN 0x3271 STATICCALL 0x27 0xA9 0x28 RETF EXTSTATICCALL 0xC4 PUSH5 0x736F6C6343 STOP ADDMOD 0x1E STOP CALLER "
		},
		"gasEstimates": {
			"creation": {
				"codeDepositCost": "526400",
				"executionCost": "560",
				"totalCost": "526960"
			},
			"external": {
				"getMensaje()": "infinite",
				"getMensajes()": "infinite",
				"setMensajeCD(string)": "infinite",
				"setMensajeCD_NoEmit(string)": "infinite",
				"setMensajeM(string)": "infinite",
				"setMensajeM_NoEmit(string)": "infinite"
			}
		},
		"methodIdentifiers": {
			"getMensaje()": "698247b3",
			"getMensajes()": "e000f3c9",
			"setMensajeCD(string)": "d3330606",
			"setMensajeCD_NoEmit(string)": "ebe290f4",
			"setMensajeM(string)": "9854b8b8",
			"setMensajeM_NoEmit(string)": "7beece6d"
		}
	},
	"abi": [
		{
			"anonymous": false,
			"inputs": [
				{
					"indexed": false,
					"internalType": "string",
					"name": "mensaje",
					"type": "string"
				}
			],
			"name": "Mensaje_MensajeActualizado",
			"type": "event"
		},
		{
			"inputs": [],
			"name": "getMensaje",
			"outputs": [
				{
					"internalType": "string",
					"name": "mensaje_",
					"type": "string"
				}
			],
			"stateMutability": "view",
			"type": "function"
		},
		{
			"inputs": [],
			"name": "getMensajes",
			"outputs": [
				{
					"internalType": "string",
					"name": "mensaje_",
					"type": "string"
				},
				{
					"internalType": "string",
					"name": "mensaje2_",
					"type": "string"
				}
			],
			"stateMutability": "view",
			"type": "function"
		},
		{
			"inputs": [
				{
					"internalType": "string",
					"name": "_mensaje",
					"type": "string"
				}
			],
			"name": "setMensajeCD",
			"outputs": [],
			"stateMutability": "nonpayable",
			"type": "function"
		},
		{
			"inputs": [
				{
					"internalType": "string",
					"name": "_mensaje",
					"type": "string"
				}
			],
			"name": "setMensajeCD_NoEmit",
			"outputs": [],
			"stateMutability": "nonpayable",
			"type": "function"
		},
		{
			"inputs": [
				{
					"internalType": "string",
					"name": "_mensaje",
					"type": "string"
				}
			],
			"name": "setMensajeM",
			"outputs": [],
			"stateMutability": "nonpayable",
			"type": "function"
		},
		{
			"inputs": [
				{
					"internalType": "string",
					"name": "_mensaje",
					"type": "string"
				}
			],
			"name": "setMensajeM_NoEmit",
			"outputs": [],
			"stateMutability": "nonpayable",
			"type": "function"
		}
	]
}