{
	"data": {
		"bytecode": {
			"linkReferences": {},
			"object": "6080604052348015600e575f5ffd5b506105478061001c5f395ff3fe608060405260043610610028575f3560e01c8063212d3c2f1461002c578063544503c21461004a575b5f5ffd5b610034610074565b6040516100419190610222565b60405180910390f35b348015610055575f5ffd5b5061005e610081565b60405161006b91906102ab565b60405180910390f35b5f349050345f8190555090565b606061008d5f546100b1565b60405160200161009d919061032b565b604051602081830303815290604052905090565b60605f82036100f7576040518060400160405280600181526020017f30000000000000000000000000000000000000000000000000000000000000008152509050610205565b5f8290505f5b5f821461012657808061010f9061037d565b915050600a8261011f91906103f1565b91506100fd565b5f8167ffffffffffffffff81111561014157610140610421565b5b6040519080825280601f01601f1916602001820160405280156101735781602001600182028036833780820191505090505b5090505b5f85146101fe5760018261018b919061044e565b9150600a8561019a9190610481565b60306101a691906104b1565b60f81b8183815181106101bc576101bb6104e4565b5b60200101907effffffffffffffffffffffffffffffffffffffffffffffffffffffffffffff191690815f1a905350600a856101f791906103f1565b9450610177565b8093505050505b919050565b5f819050919050565b61021c8161020a565b82525050565b5f6020820190506102355f830184610213565b92915050565b5f81519050919050565b5f82825260208201905092915050565b8281835e5f83830152505050565b5f601f19601f8301169050919050565b5f61027d8261023b565b6102878185610245565b9350610297818560208601610255565b6102a081610263565b840191505092915050565b5f6020820190508181035f8301526102c38184610273565b905092915050565b7f4c6f20756c74696d6f20656e766961646f206573200000000000000000000000815250565b5f81905092915050565b5f6103058261023b565b61030f81856102f1565b935061031f818560208601610255565b80840191505092915050565b5f610335826102cb565b60158201915061034582846102fb565b915081905092915050565b7f4e487b71000000000000000000000000000000000000000000000000000000005f52601160045260245ffd5b5f6103878261020a565b91507fffffffffffffffffffffffffffffffffffffffffffffffffffffffffffffffff82036103b9576103b8610350565b5b600182019050919050565b7f4e487b71000000000000000000000000000000000000000000000000000000005f52601260045260245ffd5b5f6103fb8261020a565b91506104068361020a565b925082610416576104156103c4565b5b828204905092915050565b7f4e487b71000000000000000000000000000000000000000000000000000000005f52604160045260245ffd5b5f6104588261020a565b91506104638361020a565b925082820390508181111561047b5761047a610350565b5b92915050565b5f61048b8261020a565b91506104968361020a565b9250826104a6576104a56103c4565b5b828206905092915050565b5f6104bb8261020a565b91506104c68361020a565b92508282019050808211156104de576104dd610350565b5b92915050565b7f4e487b71000000000000000000000000000000000000000000000000000000005f52603260045260245ffdfea26469706673582212203de839f00f82b374669b750b1bf5d1653835dc57edaec42f56ca15e383c4642a64736f6c634300081e0033",
			"opcodes": "PUSH1 0x80 PUSH1 0x40 MSTORE CALLVALUE DUP1 ISZERO PUSH1 0xE JUMPI PUSH0 PUSH0 REVERT JUMPDEST POP PUSH2 0x547 DUP1 PUSH2 0x1C PUSH0 CODECOPY PUSH0 RETURN INVALID PUSH1 0x80 PUSH1 0x40 MSTORE PUSH1 0x4 CALLDATASIZE LT PUSH2 0x28 JUMPI PUSH0 CALLDATALOAD PUSH1 0xE0 SHR DUP1 PUSH4 0x212D3C2F EQ PUSH2 0x2C JUMPI DUP1 PUSH4 0x544503C2 EQ PUSH2 0x4A JUMPI JUMPDEST PUSH0 PUSH0 REVERT JUMPDEST PUSH2 0x34 PUSH2 0x74 JUMP JUMPDEST PUSH1 0x40 MLOAD PUSH2 0x41 SWAP2 SWAP1 PUSH2 0x222 JUMP JUMPDEST PUSH1 0x40 MLOAD DUP1 SWAP2 SUB SWAP1 RETURN JUMPDEST CALLVALUE DUP1 ISZERO PUSH2 0x55 JUMPI PUSH0 PUSH0 REVERT JUMPDEST POP PUSH2 0x5E PUSH2 0x81 JUMP JUMPDEST PUSH1 0x40 MLOAD PUSH2 0x6B SWAP2 SWAP1 PUSH2 0x2AB JUMP JUMPDEST PUSH1 0x40 MLOAD DUP1 SWAP2 SUB SWAP1 RETURN JUMPDEST PUSH0 CALLVALUE SWAP1 POP CALLVALUE PUSH0 DUP2 SWAP1 SSTORE POP SWAP1 JUMP JUMPDEST PUSH1 0x60 PUSH2 0x8D PUSH0 SLOAD PUSH2 0xB1 JUMP JUMPDEST PUSH1 0x40 MLOAD PUSH1 0x20 ADD PUSH2 0x9D SWAP2 SWAP1 PUSH2 0x32B JUMP JUMPDEST PUSH1 0x40 MLOAD PUSH1 0x20 DUP2 DUP4 SUB SUB DUP2 MSTORE SWAP1 PUSH1 0x40 MSTORE SWAP1 POP SWAP1 JUMP JUMPDEST PUSH1 0x60 PUSH0 DUP3 SUB PUSH2 0xF7 JUMPI PUSH1 0x40 MLOAD DUP1 PUSH1 0x40 ADD PUSH1 0x40 MSTORE DUP1 PUSH1 0x1 DUP2 MSTORE PUSH1 0x20 ADD PUSH32 0x3000000000000000000000000000000000000000000000000000000000000000 DUP2 MSTORE POP SWAP1 POP PUSH2 0x205 JUMP JUMPDEST PUSH0 DUP3 SWAP1 POP PUSH0 JUMPDEST PUSH0 DUP3 EQ PUSH2 0x126 JUMPI DUP1 DUP1 PUSH2 0x10F SWAP1 PUSH2 0x37D JUMP JUMPDEST SWAP2 POP POP PUSH1 0xA DUP3 PUSH2 0x11F SWAP2 SWAP1 PUSH2 0x3F1 JUMP JUMPDEST SWAP2 POP PUSH2 0xFD JUMP JUMPDEST PUSH0 DUP2 PUSH8 0xFFFFFFFFFFFFFFFF DUP2 GT ISZERO PUSH2 0x141 JUMPI PUSH2 0x140 PUSH2 0x421 JUMP JUMPDEST JUMPDEST PUSH1 0x40 MLOAD SWAP1 DUP1 DUP3 MSTORE DUP1 PUSH1 0x1F ADD PUSH1 0x1F NOT AND PUSH1 0x20 ADD DUP3 ADD PUSH1 0x40 MSTORE DUP1 ISZERO PUSH2 0x173 JUMPI DUP2 PUSH1 0x20 ADD PUSH1 0x1 DUP3 MUL DUP1 CALLDATASIZE DUP4 CALLDATACOPY DUP1 DUP3 ADD SWAP2 POP POP SWAP1 POP JUMPDEST POP SWAP1 POP JUMPDEST PUSH0 DUP6 EQ PUSH2 0x1FE JUMPI PUSH1 0x1 DUP3 PUSH2 0x18B SWAP2 SWAP1 PUSH2 0x44E JUMP JUMPDEST SWAP2 POP PUSH1 0xA DUP6 PUSH2 0x19A SWAP2 SWAP1 PUSH2 0x481 JUMP JUMPDEST PUSH1 0x30 PUSH2 0x1A6 SWAP2 SWAP1 PUSH2 0x4B1 JUMP JUMPDEST PUSH1 0xF8 SHL DUP2 DUP4 DUP2 MLOAD DUP2 LT PUSH2 0x1BC JUMPI PUSH2 0x1BB PUSH2 0x4E4 JUMP JUMPDEST JUMPDEST PUSH1 0x20 ADD ADD SWAP1 PUSH31 0xFFFFFFFFFFFFFFFFFFFFFFFFFFFFFFFFFFFFFFFFFFFFFFFFFFFFFFFFFFFFFF NOT AND SWAP1 DUP2 PUSH0 BYTE SWAP1 MSTORE8 POP PUSH1 0xA DUP6 PUSH2 0x1F7 SWAP2 SWAP1 PUSH2 0x3F1 JUMP JUMPDEST SWAP5 POP PUSH2 0x177 JUMP JUMPDEST DUP1 SWAP4 POP POP POP POP JUMPDEST SWAP2 SWAP1 POP JUMP JUMPDEST PUSH0 DUP2 SWAP1 POP SWAP2 SWAP1 POP JUMP JUMPDEST PUSH2 0x21C DUP2 PUSH2 0x20A JUMP JUMPDEST DUP3 MSTORE POP POP JUMP JUMPDEST PUSH0 PUSH1 0x20 DUP3 ADD SWAP1 POP PUSH2 0x235 PUSH0 DUP4 ADD DUP5 PUSH2 0x213 JUMP JUMPDEST SWAP3 SWAP2 POP POP JUMP JUMPDEST PUSH0 DUP2 MLOAD SWAP1 POP SWAP2 SWAP1 POP JUMP JUMPDEST PUSH0 DUP3 DUP3 MSTORE PUSH1 0x20 DUP3 ADD SWAP1 POP SWAP3 SWAP2 POP POP JUMP JUMPDEST DUP3 DUP2 DUP4 MCOPY PUSH0 DUP4 DUP4 ADD MSTORE POP POP POP JUMP JUMPDEST PUSH0 PUSH1 0x1F NOT PUSH1 0x1F DUP4 ADD AND SWAP1 POP SWAP2 SWAP1 POP JUMP JUMPDEST PUSH0 PUSH2 0x27D DUP3 PUSH2 0x23B JUMP JUMPDEST PUSH2 0x287 DUP2 DUP6 PUSH2 0x245 JUMP JUMPDEST SWAP4 POP PUSH2 0x297 DUP2 DUP6 PUSH1 0x20 DUP7 ADD PUSH2 0x255 JUMP JUMPDEST PUSH2 0x2A0 DUP2 PUSH2 0x263 JUMP JUMPDEST DUP5 ADD SWAP2 POP POP SWAP3 SWAP2 POP POP JUMP JUMPDEST PUSH0 PUSH1 0x20 DUP3 ADD SWAP1 POP DUP2 DUP2 SUB PUSH0 DUP4 ADD MSTORE PUSH2 0x2C3 DUP2 DUP5 PUSH2 0x273 JUMP JUMPDEST SWAP1 POP SWAP3 SWAP2 POP POP JUMP JUMPDEST PUSH32 0x4C6F20756C74696D6F20656E766961646F206573200000000000000000000000 DUP2 MSTORE POP JUMP JUMPDEST PUSH0 DUP2 SWAP1 POP SWAP3 SWAP2 POP POP JUMP JUMPDEST PUSH0 PUSH2 0x305 DUP3 PUSH2 0x23B JUMP JUMPDEST PUSH2 0x30F DUP2 DUP6 PUSH2 0x2F1 JUMP JUMPDEST SWAP4 POP PUSH2 0x31F DUP2 DUP6 PUSH1 0x20 DUP7 ADD PUSH2 0x255 JUMP JUMPDEST DUP1 DUP5 ADD SWAP2 POP POP SWAP3 SWAP2 POP POP JUMP JUMPDEST PUSH0 PUSH2 0x335 DUP3 PUSH2 0x2CB JUMP JUMPDEST PUSH1 0x15 DUP3 ADD SWAP2 POP PUSH2 0x345 DUP3 DUP5 PUSH2 0x2FB JUMP JUMPDEST SWAP2 POP DUP2 SWAP1 POP SWAP3 SWAP2 POP POP JUMP JUMPDEST PUSH32 0x4E487B7100000000000000000000000000000000000000000000000000000000 PUSH0 MSTORE PUSH1 0x11 PUSH1 0x4 MSTORE PUSH1 0x24 PUSH0 REVERT JUMPDEST PUSH0 PUSH2 0x387 DUP3 PUSH2 0x20A JUMP JUMPDEST SWAP2 POP PUSH32 0xFFFFFFFFFFFFFFFFFFFFFFFFFFFFFFFFFFFFFFFFFFFFFFFFFFFFFFFFFFFFFFFF DUP3 SUB PUSH2 0x3B9 JUMPI PUSH2 0x3B8 PUSH2 0x350 JUMP JUMPDEST JUMPDEST PUSH1 0x1 DUP3 ADD SWAP1 POP SWAP2 SWAP1 POP JUMP JUMPDEST PUSH32 0x4E487B7100000000000000000000000000000000000000000000000000000000 PUSH0 MSTORE PUSH1 0x12 PUSH1 0x4 MSTORE PUSH1 0x24 PUSH0 REVERT JUMPDEST PUSH0 PUSH2 0x3FB DUP3 PUSH2 0x20A JUMP JUMPDEST SWAP2 POP PUSH2 0x406 DUP4 PUSH2 0x20A JUMP JUMPDEST SWAP3 POP DUP3 PUSH2 0x416 JUMPI PUSH2 0x415 PUSH2 0x3C4 JUMP JUMPDEST JUMPDEST DUP3 DUP3 DIV SWAP1 POP SWAP3 SWAP2 POP POP JUMP JUMPDEST PUSH32 0x4E487B7100000000000000000000000000000000000000000000000000000000 PUSH0 MSTORE PUSH1 0x41 PUSH1 0x4 MSTORE PUSH1 0x24 PUSH0 REVERT JUMPDEST PUSH0 PUSH2 0x458 DUP3 PUSH2 0x20A JUMP JUMPDEST SWAP2 POP PUSH2 0x463 DUP4 PUSH2 0x20A JUMP JUMPDEST SWAP3 POP DUP3 DUP3 SUB SWAP1 POP DUP2 DUP2 GT ISZERO PUSH2 0x47B JUMPI PUSH2 0x47A PUSH2 0x350 JUMP JUMPDEST JUMPDEST SWAP3 SWAP2 POP POP JUMP JUMPDEST PUSH0 PUSH2 0x48B DUP3 PUSH2 0x20A JUMP JUMPDEST SWAP2 POP PUSH2 0x496 DUP4 PUSH2 0x20A JUMP JUMPDEST SWAP3 POP DUP3 PUSH2 0x4A6 JUMPI PUSH2 0x4A5 PUSH2 0x3C4 JUMP JUMPDEST JUMPDEST DUP3 DUP3 MOD SWAP1 POP SWAP3 SWAP2 POP POP JUMP JUMPDEST PUSH0 PUSH2 0x4BB DUP3 PUSH2 0x20A JUMP JUMPDEST SWAP2 POP PUSH2 0x4C6 DUP4 PUSH2 0x20A JUMP JUMPDEST SWAP3 POP DUP3 DUP3 ADD SWAP1 POP DUP1 DUP3 GT ISZERO PUSH2 0x4DE JUMPI PUSH2 0x4DD PUSH2 0x350 JUMP JUMPDEST JUMPDEST SWAP3 SWAP2 POP POP JUMP JUMPDEST PUSH32 0x4E487B7100000000000000000000000000000000000000000000000000000000 PUSH0 MSTORE PUSH1 0x32 PUSH1 0x4 MSTORE PUSH1 0x24 PUSH0 REVERT INVALID LOG2 PUSH5 0x6970667358 0x22 SLT KECCAK256 RETURNDATASIZE 0xE8 CODECOPY CREATE 0xF DUP3 0xB3 PUSH21 0x669B750B1BF5D1653835DC57EDAEC42F56CA15E383 0xC4 PUSH5 0x2A64736F6C PUSH4 0x4300081E STOP CALLER "
		},
		"gasEstimates": {
			"creation": {
				"codeDepositCost": "270200",
				"executionCost": "310",
				"totalCost": "270510"
			},
			"external": {
				"enviarPlatita()": "22397",
				"getUltimoEnvio()": "infinite"
			}
		},
		"methodIdentifiers": {
			"enviarPlatita()": "212d3c2f",
			"getUltimoEnvio()": "544503c2"
		}
	},
	"abi": [
		{
			"anonymous": false,
			"inputs": [
				{
					"indexed": false,
					"internalType": "string",
					"name": "mensaje",
					"type": "string"
				}
			],
			"name": "Mensaje_MensajeActualizado",
			"type": "event"
		},
		{
			"inputs": [],
			"name": "enviarPlatita",
			"outputs": [
				{
					"internalType": "uint256",
					"name": "enviado_",
					"type": "uint256"
				}
			],
			"stateMutability": "payable",
			"type": "function"
		},
		{
			"inputs": [],
			"name": "getUltimoEnvio",
			"outputs": [
				{
					"internalType": "string",
					"name": "mensaje_",
					"type": "string"
				}
			],
			"stateMutability": "view",
			"type": "function"
		}
	]
}